:020000040000FA
:06000000020A230201B612
:03002B0002088A3E
:030033000205D8EB
:0300430002071E93
:03005300020105A2
:03006B000205B2D9
:100083000201520102020000DD0D00000000000029
:10009300790E0000000000000000060606060600B8
:1000A30014141414140006FFF20A010101007B1753
:1000B300000000EF17E80364006400B801020200C7
:1000C300080000050107051E02051E020A03B80BFE
:1000D300803E01FFFF0114010101010503010F101F
:1000E300FEFFBF1CBF1CBF1CBF1C751B6F1BBF1CAF
:1000F3008A1F00000000B020000000000C00000078
:100103000C00C0E074F21203CEA2AFE433FED2AF10
:10011300A9A7A8A1E85954106008120B7F75A1EF95
:100123008023E8A2E092F0E9A2E082F05017906108
:1001330098E0F8900577E0C398A2D265D0335002D7
:10014300E8F075A1FEEEA2E092AF7F0102042DC09C
:10015300E074F21203CEA2AFE433FED2AF9061A4F7
:10016300E0F8759B00E59158540860087591F71203
:100173000BC18023E59158541060087591EF120B61
:10018300C78014E591A2E092F0E8A2E082F0500764
:10019300E0C2E0F0120CFF9061A3E0F8E5E95854E7
:1001A30004600E120CD575E9FB906193E0A2E64062
:1001B300F28092C0E074F21203CEA2AFE433FED217
:1001C300AF9061A5E0F8E5BF585404600675BFFB26
:1001D300120D17020148C3E498F8E499F912021AC0
:1001E3008026C3E49AFAE49BFBE920E7E912021AAA
:1001F300E498F8E499F922C3E498F8E499F912022F
:100203001AE498F8E499F9C3E49AFAE49BFB22EB25
:1002130020E7CFE920E7E0B90010BB0008E88AF047
:1002230084F8AAF022E4FBC8FA22EB70227B10C800
:1002330033C8C933C9335007C39AC3DBF280069A64
:1002430050012ADBEAC833F4C8C933F4C9FA22756A
:10025300F008E4C833C8C933C933C99AC99B5004E9
:10026300C92AC93BD5F0ECFBC833F4C8E4C9FA2268
:10027300080808EAC0E0EBC0E086F0E7A4FA180932
:1002830086F0E7A42AFA180986F0E7A42AFA1809DF
:1002930086F0E7A42AFA1986F0E7A4FBE5F02AFA28
:1002A300190886F0E7A42BFBE5F03AFA190886F063
:1002B300E7A42BFBE5F03AFA18180986F0E7A4C582
:1002C300F02BFBE43AFA1908E7C5F0C6A426F6E5D5
:1002D300F03BFBE43AFA1886F0E7A4F6E5F00826CB
:1002E300F6E43B08F6E43A08F6D0E0FBD0E0FA2265
:1002F300E4CFC0E0E4CEC0E0E4CDC0E0E4CCC0E0B5
:1003030075F020E626F608E633F608E633F608E647
:1003130033F6181818EC33FCED33FDEE33FEEF33F0
:10032300FFC3EC9709ED9709EE9709EF9719191990
:10033300400FFFEC97FC09ED97FD09EE97FE1919A5
:1003430006D5F0BFECF709EDF709EEF709EFF7195A
:100353001919D0E0FCD0E0FDD0E0FED0E0FF22256B
:1003630018C582C0E0E51934FFC583C0E0E518C3B2
:10037300958224F810AF0885831985821880088533
:100383008319858218D2AFCEF0A3E520F0A37808B5
:10039300E608F0A3DEFAEFF0A3E58124FAF8E60815
:1003A300F0A3E608F0A3E608F0A30808E608F0A324
:1003B300E608F0A315811581D0E0FED0E0F81581A1
:1003C30015811581E8C0E0EEC0E022C0D02518C534
:1003D30082C0E0E51934FFC583C0E0E518C3958208
:1003E30024F310AF08858319858218800885831943
:1003F300858218D2AFC8F0A3E9F0A3EAF0A3EBF02B
:10040300A37908E709F0A3D8FAECF0A3EDF0A3EE83
:10041300F0A3EFF0A3D0E0F0A3D0E0F0A3D0E0F09E
:10042300A3E520F0A3E5F0F0A322851983851882C4
:10043300E0C0E0A3E0F9A3E0FAA3E0FBA37808E0BF
:10044300F608A3DFFAE0FCA3E0FDA3E0FEA3E0FFD0
:10045300A3E0C0E0A3E0C0E0A3E0F5D0A3E0F52073
:10046300A3E0A3F5F010AF088583198582188008EF
:10047300858319858218D2AFD082D083D0E0F8D09B
:10048300E032120ADDB900030204C4E490030178E8
:10049300D779178002F0A3D8FCD9FA7AD77B1990C1
:1004A3000086788079018015E493A3AD82AE838AB8
:1004B300828B83F0A3AA82AB838D828E83D8E9D902
:1004C300E77582DF75837C74001208017582F3750A
:1004D300831E7400120801D083D082ECC0E0EDC00B
:1004E300E0E493A3FCE493A3FDED4C600D1205F649
:1004F300EC24FFFCED34FFFD80EFE493A3FCE493D5
:10050300A3FDED4C600D1206C9EC24FFFCED34FF96
:10051300FD80EFD0E0FDD0E0FCE493A3C0E0E493E2
:10052300C0E022D083D082E9C0E0E493A3C386F085
:10053300C5F095F0F908E493A386F0C5F095F07043
:100543000BE493A3C3994005E9048002A3E475F087
:1005530002A42582F582E5F03583F583D0E0F9E442
:1005630093A3C0E0E493C0E022851983851882E059
:10057300A3FEE0A3F5207808E0A3F608DFFAE0A3E2
:10058300FFE0A3C0E0E0A3C0E0E0A3C0E0E0A3C0BD
:10059300E0E0A3C0E010AF088582188583198008C6
:1005A300858218858319D2AFD083D082020807C011
:1005B300E074F21203CEA2AFE433FED2AFE589A218
:1005C300E15003121E21758900C2C5EEA2E092AF6D
:1005D3007F0102042DC0E074F21203CEA2AFE43314
:1005E300FED2AFE58BA2E05003121E21758B00C231
:1005F300E880D8C0E0C3E49396087401939618404A
:100603000FE49366700808740193661870007019FC
:10061300A3A3C3E49396087401939618A3A3400D70
:10062300D0E0D0E0D0E0020516A3A3A3A3A3A3D0F8
:10063300E022D083D082C5F0E493A3C5F0C395F044
:10064300F5F0E493A3C395F04005E5F0048001E4DD
:1006530075F002A42582F582E5F03583F583E493F2
:10066300A3C0E0E493C0E022740480047402800019
:10067300CCC0E0EDC0E0E518C39CCCAD1950011D22
:1006830010AF068C188D1980068C188D19D2AF12F5
:100693000763D0E0FDD0E0FC2274028000CCC0E010
:1006A300EDC0E0E518C39CCCAD1950011D10AF0699
:1006B3008C188D1980068C188D19D2AF120741D072
:1006C300E0FDD0E0FC22C0E0C0F088F0E493667067
:1006D300080874019366187000A8F0A3A3700BD0E8
:1006E300F0D0E0D0E0D0E0020516A3A3D0F0D0E034
:1006F30022D083D082CCC0E0E493A360061207C368
:100703001470FAE493A360061208D51470FAD0E0CB
:10071300FCE493A3C0E0E493C0E022C0E074F212CF
:1007230003CEA2AFE433FED2AFC2C0E5D1A2E45000
:1007330003121437EEA2E092AF7F0102042DCAC068
:10074300E0E493A3C582CCC582C583CDC583F0A362
:10075300C582CCC582C583CDC583DAE5D0E0CA2284
:10076300CAC0E0E0A3C582CCC582C583CDC583F0F2
:10077300A3C582CCC582C583CDC583DAE6D0E0CAE2
:10078300222518F8E43519F9222518FAE43519FB5E
:10079300222518FCE43519FD222518FEE43519FF3E
:1007A300227009080808226016181818C6C333C631
:1007B30008C633C608C633C608C633C6D5E0EA2220
:1007C300C0E0E493A3D39C5010E493A3C39C400ADA
:1007D300D0E0D0E0D0E0020711A3A3A3D0E022C071
:1007E30008C3E096F50808A3E096420808A3E0963C
:1007F300420808A3E09645087001D3D00822C09FA1
:10080300F59FE473D09F22D083D082C09FE493C02E
:10081300E0740193C0E0740293F59F2200C0D025D9
:100823001810AF08F518500C05198008F518500278
:100833000519D2AFD0D0227404800A7403800674E1
:100843000280027401C0E0F404120855D0E0120AD9
:10085300A0222518F58210AF08F518400C15198051
:1008630008F51840021519D2AF85198322BB01027E
:10087300E722C082C08389828A83BB0003E08002AF
:10088300E493D083D08222C0E0C0D0E8C0E0A8A81F
:10089300D2AFC2C7E8A2E792AFD0E0F8D0D0D0E0A1
:1008A300326016080808C6C313C618C613C618C68E
:1008B30013C618C613C6D5E0EA22C3E0C696F608E7
:1008C300A3E0C696F608A3E0C696F608A3E0C6968C
:1008D300F622C0E0E493A36C7009D0E0D0E0D0E04E
:1008E300020711A3A3D0E022251810AF08F5184082
:1008F3000C15198008F51840021519D2AF22C3E769
:10090300960809E7960809E7960809E796A2D265CB
:10091300D03322C3E09608A3E09608A3E09608A389
:10092300E096A2D265D03322E066701008A3E06699
:10093300700A08A3E066700408A3E06622C3E09689
:10094300F008A3E096F008A3E096F008A3E096F081
:1009530022E026F608A3E036F608A3E036F608A35D
:10096300E036F622E026F008A3E036F008A3E036EE
:10097300F008A3E036F022E046F008A3E046F008D2
:10098300A3E046F008A3E046F022E046F608A3E021
:1009930046F608A3E046F608A3E046F622E647F645
:1009A3000809E647F60809E647F60809E647F62286
:1009B300E056F008A3E056F008A3E056F008A3E0E1
:1009C30056F022E056F608A3E056F608A3E056F6E2
:1009D30008A3E056F622E657F60809E657F6080993
:1009E300E657F60809E657F622E627F60809E6373A
:1009F300F60809E637F60809E637F622700422609E
:100A03000D18C6C333C608C633C6D5E0F41822E4AE
:100A1300C396F608E496F608E496F608E496F622FA
:100A230075D000758140751801751903000204859E
:100A3300600D08C6A2E713C618C613C6D5E0F32295
:100A4300C3E7960809E7960809E7960809E7962297
:100A5300C3E09608A3E09608A3E09608A3E09622D5
:100A6300C6F4C608C6F4C608C6F4C608C6F4C62249
:100A7300600C08C6C313C618C613C6D5E0F422E635
:100A8300F008A3E6F008A3E6F008A3E6F022E0F6F8
:100A930008A3E0F608A3E0F608A3E0F622CAC0E044
:100AA300E6F0A308DAFAD0E0FA22E8F0A3E9F0A32B
:100AB300EAF0A3EBF022EAF0A3EBF0A3ECF0A3ED52
:100AC300F022E0F8A3E0F9A3E0FAA3E0FB22E0FAC6
:100AD300A3E0FBA3E0FCA3E0FD22E5C754F8440137
:100AE300F5C77901222518F582E43519F58322C269
:100AF300AF75D69F0200002212080A5AFF0112089E
:100B03000A63FF0112080A72FF0112080A88FF0133
:100B130012080A9BFF0112080AA4FF0112080AA483
:100B2300950312080AF9950312080AF897031208A5
:100B33000A2C980312080A4E980312080A679803AE
:100B430012080A80980312080A5A990312080A0D18
:100B53009A0312080AB3C40312080AE5C40312086D
:100B63000AF1C40312080A23C50312080A4BC5037A
:100B730012080A78C50312080AF5C50312080A23E6
:100B8300C60312080AF0B40312080A10B5031208C8
:100B93000A4FB50312080A5EB50312080A7DB503AE
:100BA30012080AE3B50312080AECB50312080A494E
:100BB300B60312080A6DB60312080A2EB703120809
:100BC3000A3BB70312080A4CB70312080A1BD803DF
:100BD30012080A38D80312080A79AE0312080ABAAF
:100BE300AF0312080AC8AF0312080ADBAF031208E7
:100BF3000AF0AF0312080A05B00312080A18B0037B
:100C030012080A91B00312080A28B10312080A7CD9
:100C1300B10312080A8CB10312080AAFD5031208F4
:100C23000AD3D50312080AFBD50312080A23D603F5
:100C330012080ABAC00312080AE1C00312080AFF25
:100C4300C00312080A67C10312080A01BA03120893
:100C53000A1ABA0312080A26BA0312080A3ABA038E
:100C630012080A58BA0312080A62BA0312080A6C75
:100C7300BA0312080A7FBA0312080AD1BA03120888
:100C83000A0ABB0312080A39BB0312080A87BB030B
:100C930012080AD6BB0312080AF1BB0312080AFBA7
:100CA300BB0312080A0CBC0312080A4FBC03120848
:100CB3000A33D70312080A00800312080A2C8003A0
:100CC30012080A49800312080A5C800312080A7298
:100CD300800312080ADF800312080A128103120834
:100CE3000A86840312080AC0850312080AF38503DF
:100CF30012080A57860312080A45870312080A6D69
:100D0300870312080A82870312080A9287031208CC
:100D13000AD6870312080A25880312080A358803AE
:100D230012080AB9CF0312080AD3CF0312080AFB29
:100D3300CF0312080A14D00312080A38D00312088A
:100D43000A56D00312080A6DD00312080A9BD00377
:100D530012080AB6D00312080AB7FF0112080AD90B
:100D6300AA0312080AE9AA0312080AEEAB0312083F
:100D73000A20AC0312080A46AC0312080A69AC0342
:100D830012080A80AC0312080ABAAC0312080A1F3D
:100D9300AD0312080A58AD0312080A97AD031208EF
:100DA3000AC8AD0312080AE8AD0312080A08CD0306
:100DB30012080A26CD0312080A74CD0312080ABCCE
:100DC300CD0312080A5BCE0312080AE7D303120805
:100DD3000AF1C90312080A30CB0312080AA98F03C8
:100DE30012080A28900312080A48900312080A6F8F
:100DF300900312080A83900312080ADB9003120877
:100E03000AFF900312080A71920312080A3593032A
:100E130012080A95930312080AE6930312080A1D9F
:100E2300940312080A89940312080AB5940312085A
:100E33000A32950312080A86950312080A7EC6032E
:100E430012080A97C60312080A1EC70312080AC625
:100E5300C70312080AEEC70312080A7AB703120877
:100E63000AEEB70312080AF9B70312080A1AB803FD
:100E730012080AD2EF0212080AD5EF0212080A7EFC
:100E8300F00212080ABDF00212080AECF00212087E
:100E93000A22F10212080A50F10212080A9AF10218
:100EA30012080AE1F10212080A54F30212080A8135
:100EB300F30212080AAEF30212080A31F40212080E
:100EC3000AD2F40212080A08F50212080AA0F6026E
:100ED30012080A6AF70212080A5AF80212080A9656
:100EE300F80212080ACEF80212080AA7BE03120873
:100EF3000AE3BE0312080ACDBF0312080AB7C003F0
:100F030012080A70CE0312080AA6CE0312080AC0FA
:100F1300CE0312080A02CF0312080A12CF031208E3
:100F23000AACCF0312080AB6CF0312080A74E6020A
:100F330012080A7EE60212080ABFE60212080A44F1
:100F4300E70212080A61E70212080A01E80212081E
:100F53000A9FEA0212080AA8EA0212080AEFEA0242
:100F630012080A18EB0212080A70EB0212080AF8B8
:100F7300EB0212080A38EC0212080A90EC0212087B
:100F83000AF8EC0212080A2BED0212080A9FED027E
:100F930012080AF6ED0212080A31EE0212080A6478
:100FA300EE0212080A76EE0212080A88EE0212080E
:100FB3000AA7EE0212080A50EF0212080A98EF027B
:100FC30012080AECD20312080ACBC20312080A3928
:100FD300C30312080A58C30312080A4EC4031208B3
:100FE3000A69A20212080A94A30212080AC9A302F8
:100FF30012080A64A50212080A95A50212080A1F1C
:10100300A80212080A5FA80212080AF3A90212082A
:101013000A90AA0212080AE2AA0212080A64AB02A0
:1010230012080A9CAB0212080ADEAB0212080A5429
:10103300AD0212080AF2AE0212080A41B102120806
:101043000A6FB10212080A93B10212080A9CB10294
:1010530012080AF2B10212080A8DB20212080A4FEC
:10106300B60212080ADDFF0212080AF3FF02120891
:101073000AD0D70312080A9BB10312080AADB103C1
:1010830012080A47B20312080A82B20312080A9D21
:10109300B20312080AC1B20312080A02B303120808
:1010A3000A32B30312080A63B30312080AD9B4035A
:1010B30012080AECD10312080A4BD20312080A8958
:1010C300D20312080ACAD20312080A14F902120838
:1010D3000A41FA0212080AF6FA0212080A65FC0229
:1010E30012080AC8FE0212080A0AFF0212080A8D31
:1010F300FF0212080AF96F0012080A47700012086B
:101103000A23710012080AB2710012080AFF710063
:1011130012080A51720012080AAE720012080AC2BB
:10112300720012080AAC740012080A18750012083B
:101133000A42750012080A10770012080A2B77007A
:1011430012080A6C770012080AA8770012080A012D
:10115300780012080A1A780012080A2D780012087B
:101163000AA1780012080A217A0012080A567A00A6
:1011730012080A7E7A0012080A837A0012080ADB30
:101183007A0012080A7D7B0012080AA27B0012086B
:101193000AAC7B0012080AAF7B0012080A177C0016
:1011A30012080A327C0012080A457C0012080AA9B8
:1011B3007C0012080ADC7C0012080A84D703120898
:1011C3000A9CD70312080A65880312080AB4880325
:1011D30012080A578A0312080AEF8B0312080A310E
:1011E3008C0312080A4D8D0312080A888E03120815
:1011F3000AAA8E0312080AF48E0312080A758F03D3
:1012030012080A2FCB0212080A63CB0212080A3A09
:10121300CC0212080AB3CC0212080A0FCD0212083C
:101223000A51CD0212080AC7CD0212080A4ACE0299
:1012330012080AC3CE0212080A0ACF0212080A1AB7
:10124300D30212080AD7D40212080AFCD4021208E5
:101253000ADBD50212080ADED50212080AB1D60249
:1012630012080AF0D70212080A12D90212080A5108
:10127300D90212080A72DA0212080A65DB0212089E
:101283000AFEDB0212080AD8B60212080A7BB7026A
:1012930012080AEFB70212080AFEB70212080A7C04
:1012A300B80212080AF3B80212080A1CBA0212089A
:1012B3000A40BA0212080AB9BA0212080A04BB02A7
:1012C30012080A62BB0212080A42BE0212080A6727
:1012D300BF0212080ADDBF0212080AC9C1021208BE
:1012E3000A77C20212080A21C30212080A80C30243
:1012F30012080AE5C30212080A53C50212080AF4C7
:10130300C60212080A20C80212080ABAC802120842
:101313000A24C90212080A00CA0212080A0FD903D2
:1013230012080A12D90312080A5ABC0312080A8DBA
:10133300BC0312080A46BD0312080AAEBD03120815
:101343000A22BE0312080A22A70312080A41A703AE
:1013530012080A90A70312080AACA70312080ADCB2
:10136300A70312080AECA70312080A02A80312082B
:101373000A1BA80312080AE5A80312080A1EA903F8
:1013830012080A28A90312080A39AA0312080A44F0
:10139300AA0312080A56AA0312080A5FAA0312082C
:1013A3000A69AA0312080AFAA20312080AADA603DD
:1013B30012080ABBA60312080A047E0012080A8E4A
:1013C300D80312080A57D80312080ABAD803120816
:1013D3000AE3D80312080A00800212080A3A8002BC
:1013E30012080A67800212080A12810212080AD937
:1013F300810212080A26820212080A808302120856
:101403000AB6830212080A4D860212080AAE88023F
:1014130012080A60890212080AED890212080AF901
:10142300890212080AC98C0212080AFA8C021208ED
:101433000A528D0212080A0BFF0112080A008E02DB
:1014430012080AED8E0212080AFA8E0212080A0E18
:101453008F0212080A1C8F0212080A1F8F02120839
:101463000A4E8F0212080A878F0212080A05910298
:1014730012080AB5910212080AD5910212080ACC81
:10148300920212080ACF920212080A2B9302120840
:101493000AD6940212080A35950212080AEA95023E
:1014A30012080A02960212080A5F960212080A87B5
:1014B300960212080AA8990212080A689A021208E8
:1014C3000AB09A0212080A019B0212080A799B02C7
:1014D30012080A989B0212080A8C9C0212080A0F2F
:1014E3009F0212080A81A00212080A1DA102120813
:1014F3000A20A20212080A3EA20212080A37820137
:1015030012080A49820112080A68820112080AD4E1
:10151300820112080A61830112080A338401120846
:101523000AA4840112080ABF840112080AE3840191
:1015330012080A1E850112080A5B850112080A7E39
:10154300850112080ACC850112080AA68601120831
:101553000A57870112080AE7870112080AD7880188
:1015630012080A1A890112080A3E890112080A9010
:10157300890112080AB5890112080AE78A011208CB
:101583000A148B0112080A268B0112080A308B01F8
:1015930012080AC38B0112080A328C0112080ADBF3
:1015A3008C0112080AE38C0112080ABC8D0112088F
:1015B3000A328E0112080A6F8E0112080AD28E01B6
:1015C30012080A28900112080A48900112080AAA70
:1015D300900112080A44910112080A9D9101120810
:1015E3000A2C920112080AE8920112080A269301B2
:1015F30012080A95930112080AEF930112080A27A9
:10160300940112080A59950112080A9396011208C7
:101613000AF4960112080A3D970112080A65970118
:1016230012080AE8970112080A68980112080ADBEF
:10163300980112080AEC980112080A60990112082D
:101643000AFB990112080A3D9A0112080AC39A017A
:1016530012080AFF9A0112080A129B0112080A6073
:101663009B0112080AA19B0112080A269D01120878
:101673000ABB9E0112080AF09E0112080A8D9F01FF
:1016830012080ACC9F0112080A07A00112080AEBEC
:10169300A00112080A27A30112080A31A3011208A4
:1016A3000A3BA30112080A45A30112080A5FA3011A
:1016B30012080A69A30112080A73A30112080A7D1A
:1016C300A30112080AA2A30112080AFFA301120828
:1016D3000A23A40112080A47A40112080AA6A401B6
:1016E30012080AFDA40112080A1BA50112080A8B9D
:1016F300A50112080AC8A50112080A0FA6011208BB
:101703000A77A60112080A06A70112080A41A801CE
:1017130012080A91A80112080AC7A90112080A2B84
:10172300AB0112080AB7AD0112080A89AF0112080A
:101733000A40B10112080AA6B10112080AB6B201A1
:1017430012080A67B30112080AACB30112080A5D52
:10175300B40112080AEBB40112080A13B501120806
:101763000AD5B50112080ABBB80112080AE0B8018C
:1017730012080A32B90112080A30BA0112080A68BB
:10178300BA0112080AA8BA0112080A07BB01120813
:101793000A25BC0112080A85BC0112080A69BD01A9
:1017A30012080A73BF0112080A95BF0112080A281A
:1017B300C10112080A6EC10112080A42C2011208CD
:1017C3000AD5C20112080A04C30112080A2FC30171
:1017D30012080A1AC40112080A56C40112080AB8E8
:1017E300C40112080A46C50112080A49C5011208B4
:1017F3000AB8C50112080A0A230012080A5C23006A
:1018030012080AB3250012080AFF250012080AF27B
:10181300260012080A5D270012080A9E27001208F4
:101823000AF4280012080A172B0012080AAE2B002C
:1018330012080A422C0012080A11330012080AA5E2
:10184300330012080A22360012080A06370012086B
:101853000AAB370012080AC4380012080AEE3B002C
:1018630012080AB13D0012080A113E0012080AC507
:101873003E0012080A6E3F0012080A993F00120840
:101883000A26400012080A0A410012080ADE410033
:1018930012080A7C420012080AA9420012080ACB65
:1018A300420012080AE7440012080AB94500120868
:1018B3000A06460012080A77460012080A2547005E
:1018C30012080A5A470012080AA8470012080AD841
:1018D300470012080A16480012080A7A480012083C
:1018E3000A7F480012080ADA480012080A0249006F
:1018F30012080A184A0012080A794A0012080ADC78
:101903004A0012080A6F4B0012080AA44D0012087D
:101913000A7D4E0012080A0D500012080A9D51005C
:1019230012080A3A520012080A79530012080A12DE
:10193300540012080A5A540012080ACD550012081E
:101943000AE1550012080AEE550012080A0956006A
:1019530012080A15560012080A33560012080A051F
:10196300580012080A3E580012080A4B5800120881
:101973000A98580012080A8B590012080ACF590016
:1019830012080A615A0012080A665B0012080A3339
:101993005C0012080A9D5D0012080AA25E0012088C
:1019A3000A385F0012080ABB5F0012080AD25F0000
:1019B30012080AF65F0012080A00600012080A0CF7
:1019C300600012080A2A600012080A6E60001208FA
:1019D3000ABF600012080A1C610012080A7D610038
:1019E30012080A84620012080A94630012080A3378
:1019F300640012080A20650012080AB7650012087D
:101A03000A4E660012080A1E670012080A4D670094
:101A130012080ABF670012080A6D680012080A93C9
:101A2300680012080AB2690012080AD16900120894
:101A33000A406A0012080AB96A0012080ADF6A003B
:101A430012080A0B6B0012080A566B0012080ADA16
:101A53006B0012080A816D0012080AAA6D001208B1
:101A63000A2F6E0012080A896E0012080AAE6E0071
:101A730012080AF46E0012080A116F0012080ABF56
:101A83006F0012080ADED60312080A29D7031208C8
:101A93000A86C60112080AC0C60112080A93C701C2
:101AA30012080A69C80112080A98C90112080A2112
:101AB300CB0112080A9FCB0112080A65CC01120858
:101AC3000A86CD0112080AF8CD0112080A5ACE017E
:101AD30012080ABCCE0112080AC6CE0112080A0473
:101AE300CF0112080A6DCF0112080A0CD0011208A7
:101AF3000A8AD00112080A3DD10112080AAFD101A6
:101B030012080AD5D10112080A05D20112080A32B5
:101B1300D20112080AD8D20112080AE8D201120827
:101B23000A3BD30112080A47D30112080A53D3010F
:101B330012080A5CD30112080ABFD30112080A1F54
:101B4300D40112080A70D40112080A8BD4011208B6
:101B53000ABBD40112080ADCD40112080AE8D40132
:101B630012080A6FD60112080A8DD60112080AF666
:101B7300D60112080A09D70112080A1AD701120856
:101B83000AADD70112080AB0D80112080AA6D90172
:101B930012080A29DA0112080A32DA0112080A9530
:101BA300DA0112080AACDA0112080AEEDA011208A5
:101BB3000A33DB0112080A62DB0112080A99DB010E
:101BC30012080AB6DB0112080ADADB0112080A1B43
:101BD300DC0112080A0EDD0112080A54DD011208A5
:101BE3000A8FDD0112080AEEDD0112080A16DE0172
:101BF30012080A4FDE0112080A5DDE0112080ABE4E
:101C0300DE0112080AFBDE0112080A3DDF01120899
:101C13000A6EDF0112080AA2DF0112080AADDF0112
:101C230012080ACBDF0112080A94E00112080A9E87
:101C3300E00112080ADDE00112080AF3E0011208CC
:101C43000A5DE10112080A71E10112080A69E20161
:101C530012080A7CE20112080A91E20112080A3111
:101C6300E30112080A95E30112080A5CE401120871
:101C73000A67E40112080A86E50112080AA2E501CF
:101C830012080AFAE50112080A31E60112080A4BA2
:101C9300E60112080ABFE60112080A50E70112081A
:101CA3000A98E70112080ABDE90112080A27EA01A6
:101CB30012080A92EA0112080AD8EC0112080AE88B
:101CC300EC0112080AEBEC0112080AF7EC01120806
:101CD3000A0BED0112080A13ED0112080A58ED016F
:101CE30012080A06EE0112080A76EE0112080ADA51
:101CF300EE0112080A73EF0112080A0DF00112082F
:101D03000A3BF00112080ADAF00112080AE6F001B0
:101D130012080A15F10112080A18F10112080A8FB4
:101D2300F10112080A7FF20112080A57F30112089F
:101D33000AE1F30112080A02F50112080AB4F501D7
:101D430012080AEDF50112080A1EF60112080A2705
:101D5300F60112080A63F60112080A4AF70112088B
:101D63000AC6F70112080A56F80112080A20F901F7
:101D730012080AA4F90112080ADAF90112080A235F
:101D8300FA0112080AA2FE0112080A17FD0112083D
:101D93000A04FC0112080A8EFB0112080AD6FA0192
:101DA30012080A69FA0112080A95A20312080A1511
:101DB300A00312080A539F0312080ADA9E031208AB
:101DC3000ACC9E0312080A979E0312080A469E0332
:101DD30012080A219E0312080A0C9E0312080AF431
:101DE3009D0312080AE69D0312080ACF9D031208F9
:101DF3000AB59D0312080A419D0312080A709C0349
:101E030012080A129C0312080AF89B0312080AC755
:101E13009B0312080A559A0312080A409A031208F0
:101E23000AD0CC0312080A77CC0312080A2FCC037A
:101E330012080A10CC0312080AA6CB0312080A845C
:101E4300CB0312080AD3D10312080A6DD103120877
:101E53000AE9D00312080AD4D60312080A73D60378
:101E630012080A58D60312080A48D60312080A179A
:101E7300D90312080A4DC80312080A3FC8031208FF
:101E83000A99DC0212080A90D50312080AF2D40355
:101E930012080AE1D40312080A907F0012080A21EB
:101EA300E60212080AE7E50212080AB5E50212087B
:101EB3000A7FE50212080A1EE50212080A08E50273
:101EC30012080ABEE40212080AD6E10212080AE95D
:101ED300DF0212080A91DD0212080A46DD02120827
:101EE3000AA7DC0212080A16DD0212080A8C8D0208
:101EF30000000080FBE4730001363601010001029B
:101F030001000103010001040106060502000007A8
:101F13000100340801000F090401010D0100FF0E47
:101F230008000017020000190100FF1A0100011B3D
:101F33000100FE1C0100081D0200001F010001201A
:101F4300010001210200002301000F2402000026EA
:101F530001000127010008280200FF2A0100072BC6
:101F63000102402C0100002D0100012E0100012F70
:101F73000100FF30010B1C310800003A0100083B4F
:101F830001000F2F010000030071003001600011F8
:101F93000070003102200350048000100061000033
:101FA300001400630073007200620043000000131A
:101FB3000006000000000004001200000000000002
:101FC30000000004000400370037003C0244000016
:101FD30000000000000000650000003500810000E3
:101FE300000500000083000000030271023001605D
:101FF3000211027002010202020202800210026157
:10200300023A004100630273027202620243020059
:10201300021302380000020002040212020002004E
:10202300020002000204020402370037003C0244AB
:10203300020002390000020002650200023502813B
:1020430002000205028202830200020304710402F9
:102053000460041104700402040204010402041065
:1020630004610400041404630473047204620443EB
:10207300040004130406040004000404041204000E
:10208300040004000400045104640000040004007C
:10209300044404000400040004000465040004353F
:1020A3000481046400050400048304000401037133
:1020B30003010301030103010301032203020301DB
:1020C30003100300030003000300030003000300E5
:1020D3000342030003240306030003000304031263
:1020E300032503230325032303040304030003003D
:1020F30003000344030003000323030003650321D8
:1021030000350381030003050300030003000301FB
:1021130001710101010101110101013101010101FC
:10212300018001100161013B00140063017301721E
:1021330001620143010001130106013D0135000461
:102143000112010001000100010001040104013337
:102153000133013C014401320136000001000165F5
:1021630001000135008101000105018201830100A5
:102173000136000100060000000F0000000000000F
:102183000000000000000003FFFF00000403FFFF46
:102193000000FFFF0FF4010005C404032000010049
:1021A300000B000000000000000003010F0000C34B
:1021B30012130063120100C31202001B1203002159
:1021C300120400271205002D1206003912110057C0
:1021D3001214005D1215004B12FFFF0000013F189F
:1021E3000669180863180B7B1810A9170245180510
:1021F3005718074B180C21180D3318FF0000CF1B7D
:10220300FF1BD51BDB1BF91BED1BE71B051C0B1C65
:10221300111C1D1CE11BC91BC31B03EAF5E5D5D526
:10222300C5B5A5959585857575656555554545353B
:1022330035252515150500160F00000B150B02009B
:1022430002220F32000006BF1CD11CD71C991BDDD4
:102253001C931B9F1BD31ACD1A091B0F1B031BBBFC
:102263001A1F1D3D1D431D251D311D2B1D00383C0F
:102273003E363B3B352B432C303016181920231A9E
:102283001C1E3000034948424D18172505020C0E49
:10229300020B040B0A0708000F0001191618161683
:1022A30015230300303017181921301B1D1F30135D
:1022B3001DE31CE91CF51CEF1CF31B171C371D2326
:1022C3001C291C0204020101010109020005150D6C
:1022D30009100804DF1AE51AD91A151B00000000BB
:1022E300000000BE040AEB1AFD1A2800E8030400EC
:1022F30015000E00030908101004011E0C05080F39
:102303001EFF000009030AC082C083E990192AF066
:10231300E49018DFF0120EEB90193EE4F0A3F09076
:10232300192BF0A3F0121A25121563121701120EBE
:10233300F190189FE4F0A3F0901950E07002A3E02D
:102343006009901950125862121EF8902302E49308
:10235300FA790212138902487374F2120362EAFED5
:10236300EBFF74805FF9E47001E9606190192AE082
:10237300F9120F698A088B09EA7001EB60467B004A
:1023830080010BEB75F003A424E0F8E5F03421F9A8
:1023930088828983E493FA74FF6A602185088285C1
:1023A3000983E06A70DCAA08AB0988828983A3E405
:1023B30093C0E0740193F583D082121EF8AA08AB90
:1023C30009120F5DEEFA74806FFB02259C74205F87
:1023D300F9E47001E9601D1218F98A088B09EA70A3
:1023E30001EB600A121833AA08AB09120F5DEEFA6B
:1023F300742080D4EE542070030224CD750C001297
:1024030044D97001EB700B7C027D007A207B0012B3
:1024130069057C0079047A007B001218C38A088B53
:1024230009800D740188828983F0850A08850B0968
:10243300E5087002E509606D7C007904AA08AB0920
:102443001218C38A0A8B0B750C01E5082404126960
:102453005724FFF0A3E034FF126BBD7002A3E070BA
:10246300C9E5082409F8E5093400F98508828509D6
:1024730083A3A3A3A3A3A3A3A3A3A3E0640170A320
:10248300850882850983A3A3A3A3A3A3E0540470AF
:1024930092740688828983F07AB7850882850983D6
:1024A3001226E780851218937C0079017A007B005D
:1024B3001218C3EA7001EB7009E50C70057A20125B
:1024C30025A874206EFAEF0223CCEE541060071295
:1024D3001737741080EEEE54406007121791744062
:1024E30080E2EE54806007121653748080D6740124
:1024F3005FF9E47001E9601A901952E07002A3E0F9
:102503006009901952125862121EF8EEFA74010211
:1025130023CB74085FF9E47001E9602D12170D9065
:10252300184AE06401701B90184BE06015FC75F0CD
:10253300E8A4CCAAF075F003A42AFD7A007B081264
:102543006905EEFA74080223CB74105FF9E4700195
:10255300E9601290193CE06005E4F012170DEEFA01
:1025630074100223CB74025FF9E47001E9600A126C
:102573001A1FEEFA74020223CB74045FF9E47001AC
:10258300E96012125C05125A5B79011236FCEEFA0D
:1025930074040223CB7A007B008005740312081FA6
:1025A3007F0602056C7B0090192AE0F912109B222A
:1025B30074F712036274E11208EBEAFEEBFFEE70AC
:1025C30001EF6033851882851983AC82AD831219BC
:1025D300237406120AE8E0601E7417120AE8E0FD8D
:1025E3007401120AE8E0FCEEFAEFFB79001214F131
:1025F300E9600479A4800279000249C874F51203E2
:1026030062EAFEEBFF8E828F83A3A3A3A3A3A3E0BF
:102613005440601812626F60067AFF7BFF806A8EF7
:10262300828F83124D9BFAA3E0FB80539018CAE07C
:10263300A2E15048125F9B241CF8EB1244C47508B6
:10264300FE7509FF780812084212329812066F7954
:10265300008C828D83125E8FA3A3A3E0F5088C8286
:102663008D83125BF2A3A3E0FDAC088A828B8312F5
:102673005543121713740412081F80031219477469
:10268300FE6A700374FF6B604312585E125D8C1216
:1026930019C5E98E828F8360061226E0E480051255
:1026A30026E07401F07C037D188E828F83125543DC
:1026B300121383E9F5087017EE7001EF60097901D1
:1026C300EEFAEFFB12189FA9080260FE7508CDAA67
:1026D300088E828F831226E7E960DD80EAE0240D0D
:1026E300124FF722E0240C124A13F912180F227426
:1026F300F6120362E9FEEAFF7A0F7B00120F57EA34
:102703007001EB6019740C8A828B83F0EEA3A3F043
:10271300EF8A828B83A3F0125A4C79008028EEF95A
:102723001218C98A088B09A808A909E87001E96089
:1027330013740688828983126BC2E0F91217A3EE21
:10274300F91218A57910025859EAFCEBFD7A017BBE
:102753000090192AE0F912108F22C082C0837900F9
:10276300EA241DF582EB12329E1255439018CAE0FB
:10277300A2E18A828B83E0500E1206F401010A87DC
:1027830027009B270980111206F4010304872702FF
:102793000787270A87279B2702487374EE12036271
:1027A300EAFEEBFF8C088D09890E7412120AE8E029
:1027B300F510A3E0F511851082F583E4F0A3F01280
:1027C30028D0EE241DF8EF3400F9880C890D888297
:1027D3001228E9601F850A82850B83122BA87014C7
:1027E300850A82850B83124B5385108285118312D0
:1027F3005A5B8003750E00850C82850D83124D9BF9
:1028030012063501096F281E28362844284F286FE1
:102813002879286F289328AC28BF287810120842FB
:10282300AC08AD09EEFAEFFB12171F740212081F72
:102833000228C8AC08AD09EEFAEFFB1217250228EF
:10284300CBA90EEEFAEFFB1219DD8079126D3E640F
:10285300027019E50E700A1228DD7003A3E0697097
:1028630067EEFAEFFBA90E1219958059750E0079E0
:1028730001120EFD80521228DD7003A3E06970EC93
:10288300126D3E640270E5EEFAEFFB12197D80389B
:10289300901954E07002A3E0602EEEFAEFFB90195A
:1028A30054125862121EF8801F1228DD7003A3E031
:1028B3006970B9EEFAEFFB1219E9800CEEFAEFFB3F
:1028C300A90E1219F5E9F50EA90E0244B5EE240975
:1028D300F8EF3400F9880A890B22850A82850B8375
:1028E3001260F7E06822F583124D9FF91219A7E9E8
:1028F3002274ED12036274DE1208EB8A088B09EA74
:102903002402F510EB125173F91218C98A0A8B0BC2
:10291300AE0AAF0BEE7001EF70030229DBE508246A
:102923000C125D67122B06240612329085088285ED
:102933000983A3858208858309E064F16017E06455
:10294300CD6012E0641A600DE064E96008E064E1C0
:102953006003022A65850E82850F83A3E05408F97C
:10296300E47001E9607F7405850A82850B83F0902A
:102973001958E07002A3E0600990195812586212C6
:102983001EF890195AE07002A3E060339018CAE071
:10299300A2E1502B8E828F83126269A3A3A3A3A308
:1029A300A3A31249D21232AAEA7001EB601185087F
:1029B30082850983E0F990195A125862121EF8852C
:1029C3000A82850B83E0640270037406F08510822B
:1029D300851183E0F91218A5121893742212081FA7
:1029E3007F0B02056C790012189FE960759018CA75
:1029F300E0A2E140030229721266357002A3E0707F
:102A0300030229727403120AE812661C8508828580
:102A13000983E064E9701A122B0E120846850882B6
:102A2300850983E0F5127812120846123BAB1208AF
:102A33001F740C120AE812554312585E125D8C790A
:102A430000740E120AE8124D75740C120AE8123261
:102A5300DA7003022972850E82850F83124D7F027D
:102A63002971850882850983E0C0E07402120AE8AF
:102A7300D0E0F01267B3EE240B126D418518828506
:102A83001983AA82AB83700512168980031219A1D8
:102A93007402120AE8E064E97014122B0E1208465D
:102AA3007512E97812120846123BAB12081F9018F0
:102AB300CAE0A2E140030229C2850A82850B83E0B2
:102AC30064027027850E82850F83E05404601C1214
:102AD300626F701312585E74FFF0A3F07405850AD9
:102AE30082850B830229CF740380F38508828509CD
:102AF30083E064E960030229C2EEFAEFFB1219FBDB
:102B03000229C2EE240912690EEE22125FA0751289
:102B13000178122274F51203628A088B09750A0080
:102B2300EA2409124B46FEE9FF8E828F83122BA8FB
:102B33007003750A018E828F831254517003A3E0D0
:102B43006B7006E50AD2E1F50AE5082402FEE50901
:102B53003400FFE50A60138E828F83E07006E50A76
:102B6300D2E58004E50AD2E6F50A1219C5E9640143
:102B73007006E50AD2E0F50A8E828F83E06017E5DE
:102B830008241DF582E50934001228E96401600672
:102B9300E50AC2E0F50AE50AA2E14004D2E7F50A34
:102BA300A90A0260FE12627A640222C082C083799B
:102BB300018A828B83A3A3E0C394024001198A8212
:102BC3008B83A3A3A3A3E0C39402400279008A8268
:102BD3008B83A3A3A3A3A3A3A3A3A3124D7574F8E9
:102BE3006C700374FF6D601E74F96C700374FF6D79
:102BF300601474FA6C700374FF6D600A74FB6C707C
:102C03000374FF6D700279008A828B83A3A3A3E010
:102C1300FC9018CDE06C600279009022FEE493C32F
:102C230094805018E493C333C0E0EA2411F582EB97
:102C3300126D44FAD0E0C39A5002790002487374CB
:102C4300E812036274DC1208EBEAFEEBFF74031272
:102C53000AE8125B5E7514007515007405120AE824
:102C6300AC82AD838E828F83A3A3A3125D781255AA
:102C730043121923E9600F7405120AE8AA82AB8391
:102C830012182DE970087901120EFD023286EE2426
:102C93001B124B4D7412120AE8125A5B740B120A80
:102CA300E8E06023741C120AE8E0FD7406120AE8E7
:102CB300E0FC8E828F83A3A312554379011214F192
:102CC300E96004790280C17405120AE8AA82AB8321
:102CD300121827E9F508740B120AE8E07029901816
:102CE300C7E06023742255086422601B74425508B0
:102CF300644270CF7422120AE8124D9BFA74066A7A
:102D0300600574076A70BCE9A2E650127405120AE2
:102D1300E8AA82AB83121815E97003022C89EE240A
:102D230012F516EF3400F517EE242A122B09242C82
:102D330012329B1238BDE0687003A3E069701C7502
:102D4300090078091208467809120846EE242E1263
:102D530032A21232B6123BBB12081F740B120AE8DE
:102D6300E07003022E001232B61232AA8A0A8B0BCB
:102D7300A80AA90BE87001E97003022EA4740612D5
:102D83000AE81232B1FAA3E03400FB740D2AF5828B
:102D9300E43BF583E0FAE82404F50AE9126911E853
:102DA3002403F582E9126D446A600DEAF090821102
:102DB300780C120A911232FB79047406120AE81293
:102DC30032B1FCA3E034008C82F583A3AA82AB83E7
:102DD300120F458A0C8B0D8C0E8D0F850A82850B85
:102DE300837810120A917810790C120A4350030267
:102DF3003286908225780C1209541232FBEE242479
:102E0300123290EE2430F50CEF125D6BEE242F128C
:102E1300690E9018CAE0A2E15003022F3D9018DF1B
:102E2300E0FA74046A600874096A6003023286E592
:102E330008A2E54003022EEA1232E2C0E074011256
:102E43000AE8D0E0123BE5C0E07402120AE8D0E0E1
:102E5300F07416120AE8E0640170207410120AE894
:102E63001232C67003A3E0697011740E120AE812DD
:102E73002BA870077416120AE8E4F0850E82850FFA
:102E83008312066B7404120AE8AC82AD83740912D0
:102E93000AE8AA82AB8312168F740412081F023247
:102EA30086901924E064016003022E007422120A42
:102EB300E8124D9B64067009E508A2E65003022E52
:102EC300007412120AE8E064FF7004A3E064FF7068
:102ED30003023286EEFCEFFD7405120AE8AA82AB08
:102EE30083121839023286A2E64003023286742224
:102EF300120AE81232D2701E741C120AE8E064024D
:102F030060030232867405120AE8AA82AB83790051
:102F130012199502328674076A6003023286741CA2
:102F2300120AE8E0640460030232867405120AE8B8
:102F3300AA82AB831219890232867416120AE8E058
:102F4300601D8E828F83A3A3123BD714125345A314
:102F5300123BD7C0E07416120AE8D0E0F07006E521
:102F630008C2E7F5089018DFE0FA74046A60057494
:102F7300096A7061740E120AE81254517003A3E0D7
:102F83006B60171219C5E96402600F740A120AE82C
:102F9300E05403640160030232867407120AE8E016
:102FA300701B1232E2C0E07401120AE8D0E0123B57
:102FB300E5C0E07402120AE8D0E0022E7D7422120A
:102FC3000AE81232D27003022EFB74076A6003020E
:102FD3003286022F2175090074615508700302308F
:102FE300F1E508A2E05070851682851783124D75AE
:102FF3007405120AE8AA82AB83121797E970551277
:103003001953E9F5097416120AE8E0700F741012E7
:103013000AE81232C67003A3E069603BA90985166A
:1030230082851783124D757405120AE8AA82AB8351
:1030330012179DE96013740E120AE8126177120ADF
:10304300E8125A5B751404800EE508C2E5F50875AD
:103053000900800353089FE508A2E5503C1232E2C1
:10306300C0E07401120AE8D0E0123BE5C0E074024C
:10307300120AE8D0E0F0850E82850F8312066B7486
:1030830004120AE8AC82AD837409120AE8AA82AB7F
:103093008312168F740412081FE508A2E640030288
:1030A30031BE7403120AE885820A85830B780A12FB
:1030B3000842A909851682851783124D7574071274
:1030C3000AE8AA82AB8312181B740212081FE9F5DF
:1030D3000970030231BE7422120AE8124D9B640187
:1030E30060030231BE74104514F5140231BE740737
:1030F300120AE8E06401703B7422120AE8124D9B45
:103103006405702F7403120AE885820885830978A1
:10311300081208427900851682851783124D75744B
:1031230007120AE8AA82AB8312181B740212081F43
:103133000232867416120AE8E070127422120AE848
:10314300124D9B64036003022ED702328612189934
:10315300E96003023286740E120AE8126177120ADA
:10316300E8125A5B7809120846741E120AE8AC8208
:10317300AD83740F120AE8125543740A120AE8E089
:10318300F91217D9740112081FE9600F7514208E04
:10319300828F83A3A3124D9B543FF07900741012C6
:1031A3000AE8124D75740E120AE81232DA600674D8
:1031B300204514F514121953E9F5097403120AE8AA
:1031C300E064FE7004A3E064FF7003750900E50882
:1031D300A2E74003023286E50970030232868E823B
:1031E3008F83A3A3A3A3E0FA7B00120FD58A0A8BD4
:1031F3000BEA7001EB70030232868E828F83A3A3E6
:10320300E0F50CA3E0F50D750E00780C12083E8E68
:10321300828F83A3A3A3A3E0FC7D001241C71208FE
:103223001F7407120AE8E0851882851983F0740178
:10323300120AE8E4F0A312522D85820C85830D78DF
:103243000C1208427814120842E509F508780812AE
:10325300084685168285178312066F8E828F83A395
:10326300A3A3A3E0F9740A120AE8124D75AA0AABE4
:103273000B121911740712081FE96007AA0AAB0B96
:10328300120FDB742412081F7F1002056CF50EEF7A
:103293003400F50F22EE240EF582EF12698222F537
:1032A30082EF125C2DF922124A0D121A492212657D
:1032B3006A2A22850A82850B83124B6985168285C9
:1032C300178322124E73851682851783E0682212B4
:1032D3004D9FFA74046A22124A0D121719E922EE5D
:1032E300242E125C2A8518828519831232F222F069
:1032F300850A82850B83E022850A82850B83E50C90
:10330300F0A3E50DF0A3E50EF0A3E50FF02274F2B0
:10331300120362EAFEEBFF8C088D091228D0888223
:10332300F58312554390184AE060119018D0E06A73
:103333007003A3E06B700512170D80537900121709
:10334300B58A828B83E5827002E583603AA3A3A3E7
:10335300A3A3A3E05418602FE508241BF582E50915
:1033630012329E12066FE5082412F582E509123225
:103373009E12066FEE24181232A21233951217E52D
:10338300740412081F800879001233951217310252
:1033930025A3850A82850B83124B69EE240B124AFF
:1033A300062274EE12036274EA1208EB8A0C8B0D88
:1033B300EA2402F50EEB1232930A0AFB1215878AEE
:1033C300088B09AE08AF09750901850C82850D8349
:1033D300A3E0F508750A01AC0EAD0F8518828519B7
:1033E30083AA82AB831210C57408120AE8125B5ECB
:1033F300740A120AE87402F07413120AE8E4F0E59E
:103403000C240AF50CE50D125D6B901A2DE070107B
:10341300EE7001EF700AE50870067509C302357B8B
:103423009018DFE0640860067509C2023577850CE1
:1034330082850D83E0A2E1500EA2E35005750A04D4
:10344300800C750A038007A2E35003750A02EE702D
:1034530001EF60648E828F83A3A3A3A3E0FA7404B5
:103463006A600574036A700C7404650A601C740353
:10347300650A601674026A600574016A702074023A
:10348300650A60067401650A700F8E828F83123E8F
:10349300BF120AE8125A5B801F74026A6005740146
:1034A3006A700A8E828F8312401C121EF8AA0EAB1A
:1034B3000F1215937E007F007408120AE8E064FE81
:1034C3007004A3E064FF703812155DE97032E508FB
:1034D300601790191CE06402700F901A34123EBFFB
:1034E300120AE8E8F0A3E98016850C82850D83E0D3
:1034F3005402F91217437408120AE8EAF0A3EBF036
:103503007408120AE812361B700374FF6B7005759A
:1035130009C78060E508F50B780B120846850C8215
:10352300850D83E0F9AC0EAD0F1216A774011208D6
:103533001FE97040A90AAC0EAD0F7408120AE81215
:1035430036F58A108B11AE10AF11EE7001EF601CCF
:1035530074026508700BEE2405126D4154FB440898
:10356300F0740A120AE8E4F0F50980087408120AF4
:10357300E8125B5EE508700F851882851983AA82BD
:10358300AB831213658010FCA90A85188285198301
:10359300AA82AB83121983E9FAEE7001EF603EEE63
:1035A3002405F8EF3400F9E508601288828983E086
:1035B300D2E6F0740265087004E0D2E5F0850C826F
:1035C300850D83E0A2E6500888828983E0D2E7F084
:1035D3008E828F83A3A3A3A3A3A3E004F0E50970C2
:1035E30003EA602FFC7D007A017B10120EF7EE7068
:1035F30001EF6007AA0EAB0F1215937408120AE8C5
:1036030012361B700374FF6B60099018B71258626F
:10361300121EF874160244B2124A0D74FE6A227422
:10362300F612036274F71208EB8A088B099018DF0D
:10363300E0FA74036A600D74016A600874096A60D1
:10364300030236F28508828B83A3AE82AF83E060E8
:10365300030236D77C007D007A027B00120EF7E569
:103663000824021244CB1260F3125A5B79531213EB
:103673005979001236FC9018DFE06409600990184C
:10368300DD125543121A43740112588F74049018B3
:10369300DFF07401120AE8AA82AB83794A1213534A
:1036A3007401120AE8AC82AD837AD57B181210C577
:1036B30079007401120AE8AC82AD839018D31236F4
:1036C300F59018CAE0A2E35004D2F08002C2F012CF
:1036D30058778018FC7D007A037B10120EF78E82D8
:1036E3008F83E0F91236FCE49018DFF012187502AC
:1036F3005854124A0D121575229018DD124A0D12F4
:1037030016A122C082C08390189FE07002A3E070CC
:10371300419018DFE01206F400030128370537371C
:1037230006463755379018A7E07002A3E0607690FD
:1037330018A7806B9018A3E07002A3E0606790184D
:10374300A3805C9018A5E07002A3E060589018A5D0
:10375300804D90189FE07002A3E06009123BD4FCF7
:1037630074016C7023790090192B800909EA1263A4
:1037730087EB12329E1247A37001EB70EF90192B67
:10378300125543121695801D74026C7005121A139C
:103793008013901956E07002A3E060099019561245
:1037A3005862121EF802487374F412036274FB1217
:1037B30008EB8A088B097A0F7B00120F578A0A8B52
:1037C3000BAE0AAF0BEE7001EF70030238B8740250
:1037D3008E828F8312610479501213538508828578
:1037E3000983A3858208858309E060030238A190D9
:1037F30018DD126926700374FF69602F74FE687008
:103803000374FF696025851882851983E068700356
:10381300A3E069601674EA850882850983123D99DD
:103823007ADD7B18795012135980738518828519B4
:10383300831238BD125A5B7AD07B18795312135313
:103843009018D0125A557AD37B18794B1213537AA6
:10385300D27B1879E11213539018E4E0C3940F500C
:10386300229018D2E0C0E07402120AE8D0E0F074AB
:1038730004120AE87401F07402120AE8AA82AB8304
:1038830012137D750A00780A120846780A12084650
:103893009019FAE0F912426D123BBB12081F85081A
:1038A30082850983123B97F074039018DFF0EEFAD8
:1038B300EFFB125A4C74050253EA124E739018DD53
:1038C3002274EC12036274ED1208EB8A828B83A3D9
:1038D300123B9CEA2408124B46FEE9FF85188285B9
:1038E3001983AC82AD838E828F83123BC4A3A3A3BF
:1038F300A3125543121887851882851983E07076C1
:103903008E828F83E0C3940B406C85088285098384
:10391300A3A3A3A3A3A3A3A3E0640270599018DFF6
:10392300E0FAE5082410F510E5093400F511E5087F
:103933002409125D6774026A604174066A603C90F0
:10394300189FE07002A3E06007123BD46401605447
:1039530074086A600574046A701C7402120AE8E051
:10396300F97407120AE8AC82AD83850C82850D8356
:1039730012554312188D74130264E990189FE07076
:1039830002A3E0701F750A00780A120846780A122B
:103993000846851082851183123B8E1244D3123B55
:1039A300BB12081F90192B1269AC90192B1264E1FA
:1039B300E508240DF50EE50912329380318E828FCE
:1039C30083E0F8A3123B8EE0687003A3E0697012F2
:1039D3008E828F83A3A3E0FA850E82850F83E06A2C
:1039E300606B8E0A8F0BEE126387EF1269A9EE707C
:1039F30001EF70C97A187B00120FD58A128B13AEB0
:103A030012AF13EE7001EF70030239797C18126B59
:103A130001125B55EE240C12329B74FFF0E508246F
:103A23000B126957123B85126BBCC4123B85A3A3CF
:103A3300F090192BE07002A3E0700590192B800A17
:103A4300E50A126387E50B12329E1267B9740112FD
:103A53000AE8123BA6A3F07402120AE8123BA6F08E
:103A6300850E82850F83123B97A3123BE5123B7CA5
:103A7300125350240DFAEF3400FB7402120AE8E0EB
:103A83006401600E7407120AE8AC82AD831210C59C
:103A930080097C087D0079FF120F3F7412120AE837
:103AA300E0C0E0EE241512329BD0E0123BDCFC9028
:103AB30019FAE0C39C4003023979126934E509120B
:103AC300329EA3E05480F9E47001E9700990177203
:103AD300E070030239797D00EE240CF8EF3400F92D
:103AE300EE240BFAEF3400FB90191CE06402701D06
:103AF3008A828B83E0F50AC39C500D7405120AE891
:103B0300E0C39405401B801AE50A6C701574051216
:103B13000AE8E0C0E088828983E0FCD0E0C39C50DF
:103B2300010D7404120AE8E06020ED601D8508822F
:103B3300850983126110ECF0A3ED123BDC8A828BC2
:103B430083F07405120AE8124D907406120AE8E035
:103B5300600D74018E828F83A3A3A3A3A3A3F07428
:103B630004120AE8E0700302397974018E828F83AC
:103B7300A3A3A3A3A3F0023979F8A3E0F98E828F5C
:103B83008322540F8E828F83A3A322E0F9850C82B4
:103B9300850D83221240F7A322A3A3E0F508A3E037
:103BA300F509221240F78021850C82850D83123B93
:103BB300C4124B658A828B83124A0D1219597402FF
:103BC30022E0F98A828B838002A3A3A3A3A3A3A3E6
:103BD3002290189F125007E022F0851082851183EE
:103BE300E022F0850C82850D83E02274F6120362D5
:103BF30074C91208EB9018DFE0640860629018F053
:103C0300E0F824EEF582E43419F583E0FA9018C164
:103C1300F0E824F4F582E43419F583E0FB9018BF4F
:103C2300F07508FF7509FFEA78081209FFE508F443
:103C3300FCE509F4FD3395E0FE9018E8123D8E751E
:103C430008FF7509FFEBC39A78081209FFE508F42A
:103C5300FCE509F4FD3395E0FE9018EC123D8EE48B
:103C630012588579041213599018F0E07009741EE4
:103C7300120AE874018006741E120AE8E4F0740F55
:103C8300851882851983F0901A32126104794612DD
:103C930013597401120AE8E4F0901A18E0C0E074B2
:103CA30002120AE8D0E0F09018CDE0C0E0740312ED
:103CB3000AE8D0E0F07404120AE8E4F07405120A8A
:103CC300E8E4F07407120AE8E4F09018F0E0FAC3AD
:103CD300940F74065006120AE8EA8005120AE87483
:103CE3000FF07CF17D187408120AE8AA82AB8312E4
:103CF30010C57C037D0079FF7410120AE8AA82AB19
:103D030083120F3F901929E0C0E07413120AE8D020
:103D1300E0125985120AE81259741219719018E4C5
:103D2300E0C0E0741C120AE8D0E0F09018E5E0C0AF
:103D3300E0741D120AE8D0E0F09018D2E0C0E074FD
:103D43001A120AE8D0E0F09018DD124B53741812DF
:103D53000AE8125A5B7420120AE8E4F09018E7E0CC
:103D6300C0E0741F120AE8D0E0F07434120AE8E4E9
:103D7300F07429120AE8E4123D997414120AE8AAAD
:103D830082AB831213777437025856ECF0A3EDF02D
:103D9300A3EEF0A3F022F07AD07B187953123DA45E
:103DA300221213597AD37B18794B12135922C082EA
:103DB300C0838A828B83A3E06007E49018DFF080DE
:103DC3004A74089018DFF09018F0E0701F9018A95B
:103DD300E07002A3E0600B79009018A912586212F8
:103DE3001EF89018DD124D757A05801A79001216A7
:103DF3009B9018D0124D757A067B00120EF790181F
:103E0300D3124D757A047B00120EF702487374F4D3
:103E130012036274EA1208EBEA2402FEEB3400FF99
:103E23000A0AFB1215878A088B09EA7001EB7003F3
:103E3300023EBA8A828B83124FE9600F74026A6072
:103E43000A74036A600574046A706CEEFCEFFD8506
:103E53001882851983125F22123EBF120AE8125A92
:103E63005B740A120AE87401F07413120AE812610F
:103E73000312136B890AAC0A7D007A077B00120ECA
:103E8300F7850882850983A3A3A3A3A3E0C2E0F077
:103E93007401850882850983A3A3A3A3A3A3A3A372
:103EA300A3126987120212E8850882850983A3A3F6
:103EB300A3A3A3A3A3A3F074160253EA124E73742D
:103EC300082274F012036274F81208EB8A0C8B0D4B
:103ED3008C0A8D0B890E851882851983AC82AD837C
:103EE3007583817582B57408120763F50FAC0CAD49
:103EF3000D851882851983AA82AB8312659370039B
:103F0300750F0190192B8030AC0CAD0DEE240DFA1A
:103F1300EF3400126BAF601A850882850983E06570
:103F23000E700F8E828F83E0650A7004A3E0650B29
:103F33006032EE241612329B1248677001EF602440
:103F4300EE24021244BAE50F70BE8E828F83E065C1
:103F53000A7004A3E0650B70D9850882850983E0A4
:103F6300650E70CEEEFAEFFB02533B74F712036259
:103F730090192BE0FAA3E0800CEA24161269A6122A
:103F83000FDBEEFAEFFBEA7001EB70ED90192BE417
:103F9300F0A3F00249CD74F41203628A088B09EA94
:103FA300240BFEEB3400FFEA2413F582EB126D447D
:103FB30064037009EEFAEFFB121587800CE06402CC
:103FC30070548E828F83126963EA7001EB6047EA53
:103FD3002406F8EB1228D5850882850983A3E070AF
:103FE30007E488828983802D64F16005E064E170D1
:103FF3001A88828983E0640170118A828B8312405C
:104003001C121EF8EEFAEFFB121593850A82850B3C
:1040130083E0600214F00253ED124A0D9018B712B8
:1040230058662274F11203628A088B09ECFEEDFFD5
:10403300890A8A828B831265168A828B831240F6E1
:10404300F0EEF8EFF9A30EAF838A828B83A3A3E08C
:10405300C454F0FA88828983E04A1241001240F77F
:104063001240FBE0333354FCFA8E828F83E04A1212
:1040730040FBA3E033333354F8FA8E828F83E04A54
:10408300F008EFF9A30EAF838508828B83A3A3A364
:10409300A3A3A3E0A2E0E492E013135480FA88827E
:1040A3008983E04AF0E5082407F50CEB125D6B7594
:1040B3000E00780C12083E7C0812515C12081F1285
:1040C3006500E508240F125D67780C12083E7C0337
:1040D30012515C12081FE50AC3940F4011E508242E
:1040E30012F582E50912329E123B97A3A3F07F07D4
:1040F30002056CA3E0023B80124100A322F0850875
:10410300828B83A3A3A32274F1120362EAFEEBFF63
:10411300890A8C088D098E828F83E08C828D8312AD
:104123005345AE82AF83E01254021241D9C41254F4
:10413300021241CDE054038C828D831241D7A2E257
:10414300E492E08C828D831241D6131313541F1211
:104153005402A31241D6A2E7E492E08C828D83A39A
:10416300A3A3A31241CD8E0C8F0D750E00780C12F4
:10417300083E7C087D00E50824071241C112081F90
:104183001265008E0C8F0D780C12083E7C037D00A7
:10419300E508240F1241C112081FE5082412F8E5AF
:1041A300093400F9E50AC3940F400A8E828F83A372
:1041B300A3A3E08001E488828983F00240F1FAE559
:1041C300093400FB120F33740322A3A31253490EC5
:1041D300AF8322A3A3A3A3F00265B174F412036215
:1041E30074F91208EBEAFEEBFF90189FE07002A34C
:1041F300E06010123BD464027009EEFAEFFB121A6E
:104203000D80629018DDE06E7003A3E06F7056744A
:10421300016960097AF17B1812659370487A007B13
:10422300021244DD7001EB703C9018E07808120A2A
:10423300918518828519837808120A829018E6E01E
:10424300C0E07404120AE8D0E0F07405120AE874BE
:1042530001F07406120AE87402126104121647E9A7
:10426300609812164D74070253EA9018DD124B69D9
:104273009018D322E0F902487374F612036290197E
:104283003DE0701F7C0079017A007B001218C3EABD
:104293007001EB600E8A828B83E07002A3E06003FF
:1042A300121809025859C082C08312470E40107970
:1042B300FF1218BDE9FA9022FFE493C39A500479E0
:1042C300018002790002487374EE1203628A088B3C
:1042D30009890D750E00EA2408F50AEB124D69E011
:1042E300F91218C98A108B11AE10AF11750C01EEBB
:1042F3007001EF6003024391850882850983A3A3BC
:10430300124D861252351255431218B18A0A8B0B7D
:10431300AE0AAF0BEE7001EF70030244AB8E828FD7
:1043230083A3A3A3A3E4F0A3F0E508240B1244CBD7
:10433300E0C0E0EE240B12329BD0E0F01219D1EE74
:10434300240C125D85E508240EF582E509124B5015
:10435300123298125A5B750E01EE2406F8EF1247DB
:104363001DE0547FF0A3E054FC124663E054046064
:1043730003024419901A111252267407780812097D
:10438300FF8A828B83E04508F0A3E04509F0EE2421
:10439300061244C28C828D8312554374805AF508E9
:1043A30074035BF50974077808120A73E508F510BE
:1043B300EE2404122B0924091244BAE50D6060743B
:1043C300028508828509831241DA240D124FF3E036
:1043D300A2E2500F9018CB124B53850A82850B83B0
:1043E300125A5BE5107003024478747F5AFA74FC26
:1043F3005BFB74FF2510F51074FF3400F51174078F
:1044030078101209FFE5104AF8E5114BF98C828DFB
:1044130083125A5B805FE04480F0A3E0024390E59F
:10442300107005750C00804DEA54206015120F5171
:104433008A10747F5510F8745F28850A82850B8370
:10444300801BEA5410600E120F518A10740F55101E
:10445300F8740A80E4850A82850B837401F0A3E46F
:10446300F07404850882850983F01244D97001EB46
:1044730070031258317401650E7030850A82850B02
:10448300831244D3E0F9EEFAEFFB1218B7E9601B8D
:10449300EE240C12329B1247A37001EB6003120F40
:1044A300DBEEFAEFFB120FDB750C00A90C80031295
:1044B300081F7F0A02056CF508EF3400F50922F89E
:1044C300EF124B48FCE9FD22FAE509340002466A83
:1044D300124B69025C1A7A207B0090192AE0F912C8
:1044E30010A1EA2274F612036274F71208EB7E003D
:1044F3001218C9EA7001EB70030245B48A828B83F8
:10450300A3A3A3A3A3A3A3A3A3E0640660030245F9
:10451300B48A828B83A3A3A3A3A3A3A3E0FF8A826A
:104523008B83125001E0C0E07408120AE8D0E01255
:104533004663125862125E9C125A5B1218E77408A3
:104543005FF9E47001E96067851882851983124D6C
:10455300757A007B001218ABEA7001EB705190186A
:10456300DD124B571213957C007D007A007B00808F
:10457300288E828F83125C0FE064FF7004A3E064D3
:10458300FF602C9018DD124D75120B25E9641A603B
:104593001E7C007D00EEFAEFFB1218AB8A088B0934
:1045A300AE08AF09EE7001EF70C7790012139B7E5E
:1045B30001EEF902585474F7120362EA7001EB70CA
:1045C3000590193E80068A828B83A3A31247A370AA
:1045D30001EB60288A828B83A3A3A3A3A3A3A3E0F5
:1045E3005408F9E47001E960DDEC7001ED6011122B
:1045F3004D976C7003A3E06D70CC80047A007B0050
:104603000249CD74F2120362EAFEEBFF890A8C08B9
:104613008D097A107B00120FD5EA7001EB603CE440
:104623008A828B83A3A3A3A3A3A3A3A3124670E5A8
:104633000A1249D8125B4D8A828B83A3A3A3A3E4F6
:10464300F01246701246611267B9EA240CF582EB48
:10465300126BB6124662A3A3F0A3F00225A3A3A391
:1046630012466722F08001FB8A828B8322A31249C0
:10467300DCA3A32274F5120362EAFEEBFF890A8C22
:10468300088D09EE7001EF60567401650A701479A4
:10469300011218BDE9FA902301E493C39A500F79EC
:1046A3001180657404650A703012470E40F18E82E2
:1046B3008F83A3A3A3A3A3A3A3A3A3E50A12535E78
:1046C300126E24E4F0A3F090193EE07002A3E09090
:1046D300193E6024124B53800A7402650A60CF7935
:1046E300C18025E824020808E912471D1248117009
:1046F30001E970EF8A828B831267B91244D9700182
:10470300EB700312583179000260FE79041218BD70
:10471300E9FA902300E493C39A22124B48FAE90280
:10472300466AC082C083E9FC790090193E801D8AE5
:10473300828B83A3A3A3A3A3A3A3A3A3E06C60057A
:1047430074FF6C7001098A828B83A3A31247A37041
:1047530001EB70DB02487374F7120362EA7001EB3A
:10476300700590193E80068A828B83A3A31247A308
:104773007001EB60248A828B83A3A3A3A3A3A3A3C7
:10478300A3A3E06970E1EC60148A828B83E0240DBB
:104793001265ABA2E240D080047A007B000249CDCF
:1047A300124A0DEA22C082C08390193E80068A8293
:1047B3008B83A3A31247A37001EB60128A828B83BE
:1047C300A3A3A3A3A3A3A3A3E06970E280047A0035
:1047D3007B00024873C082C08390193E80068882A2
:1047E3008983A3A31248117001E9601B888289831E
:1047F300E0FCA3E0F5838C82E06A7003A3E06B70B6
:10480300DDE8FAE9FB80047A007B00024873124E6C
:1048130073E82274F11203628A0A8B0B8C0C8D0DE0
:10482300750800750900EA7001EB603190193E804C
:10483300068E828F83A3A31248677001EF601EACBC
:104843000CAD0DEEFAEFFB850A82850B83121EF881
:10485300E9640170DCEEF8EFF988088909AA08AB6E
:10486300090240F1E0FEA3E0FFEE22740212081FEA
:10487300D083D082020807790002080774F7120375
:104883006290193E124B537C007D008007E8FCE9DF
:10489300FD124B53E87001E9603AE82402F582E91E
:1048A30012329EEA687002EB6970E2125543901966
:1048B3003E1269ACE86E7002E96F700990193EEA26
:1048C300F0A3EB800EEAF8EBF98C828D83A3A3E8C7
:1048D300F0A3E9F00249CD74F7120362EAFEEBFF9D
:1048E300EE7001EF60161218E11249E4EA7001EB71
:1048F3006003120FDBEEFAEFFB120FDB0249CD74FC
:10490300F7120362124D97FCA3E0FD90193E124B80
:10491300537508007E00803388828983A3A3A3A3F1
:10492300A3A3A3A3A3E0640570180E88828983E080
:10493300FFA3E0F5838F82E06C7003A3E06D700248
:10494300050888828983A3A3124B53E87001E97099
:10495300C7EA2404F8EB3400F99022F7E493FCE56A
:1049630008C39C500B9022F8E493FCEEC39C400BCD
:10497300888289837401F0A3E4800A9018CB1249DA
:10498300D2ECF0A3EDF074058A828B83A3A3A3A3D7
:10499300A3A3A3A3A31249D8E0F0A3E044081253AE
:1049A300578A828B83E064FF7004A3E064FF600E88
:1049B3009018DD124D7512138FE9641A7005790191
:1049C30012139B8005741F12081F7F0102056C12CE
:1049D3004B690267AE1249DC22F08A828B83023B69
:1049E300CD8E828F83E0241C124A13FAA3E0FB12BC
:1049F3000FDB8E828F83124A0D120FDBEE240C1213
:104A03004A0622F582EF3400F583E0FAA3E0FB22A5
:104A1300124FFBE022C082C083EAFCEBFDEC700185
:104A2300ED70047905804CEC24FBF582ED34FFF541
:104A330083E07002A3E07011EC24FFF8ED34FFF97A
:104A430088828983E064FF6005120F5D80D5901929
:104A53002A124D90902309E493F97A407B19120F9F
:104A63008DE96401700B7A007B2012583579008040
:104A730002790402487374F4120362A2AFE492E071
:104A8300F508C2AF9019401248677001EF603DEE20
:104A930024FBF582EF34FFF583E07002A3E07A0094
:104AA3007B2090192A60051258388005E0F9120F0F
:104AB30099750A00750B00780A120842EEFCEFFDA7
:104AC3007A407B19120F87740212081FE508A2E0CF
:104AD30092AFEEFAEFFB0253ED74F712036274E147
:104AE3001208EBEA2413F582EB126D44C0E0741153
:104AF300120AE8D0E0124E6A7409120AE8124E63F1
:104B0300124B40FCE9FD8C828D83124B53740B12C4
:104B13000AE8124E632414F582EB126D44C0E0746C
:104B230012120AE8D0E0F0EA240EF582EB1232A565
:104B33008C828D83124B5712179D0249C82404128D
:104B43004B4622F8EB3400F9E822F582EF12698232
:104B5300124E7322124B69851882851983AA82AB80
:104B63008322A3A3A3A3E0FCA3E0FD2274EE12031C
:104B73006274FC1208EBEAFEEBFF121899E9600578
:104B83007911024D64EE2412F510EF3400F511EEA5
:104B93002402F50AEF124D691262766008E485106B
:104BA30082851183F0EE2413125165700C9022FE5E
:104BB300E493850C82850D83F0EE2411F8EF125DEA
:104BC300707019901841E0600D9018C7E0700D8E59
:104BD300828F83E07006E488828983F0EE241408D0
:104BE3000808EF12695A700C9018BC124D90901877
:104BF300BCE004F0EE240F1244BAEE240B12329000
:104C03009018CAE0A2E1504F850A82850B83126295
:104C13007660448E828F83E0600B850E82850F83DE
:104C23001228EB6032850882850983E05440601ABC
:104C3300850C82850D83E06401700F8508828509E8
:104C430083E054FBF0A3E0F0800DEEFAEFFB1218C3
:104C5300FFE97003024B838E828F83E06401701A35
:104C6300850E82850F83124D9B6402700D85088229
:104C7300850983E04440F0A3E0F085088285098339
:104C8300E0544070529018CAE0A2E1504A750C00FB
:104C9300780C120846EE2406FCEF3400FD850A82E8
:104CA300850B83125543851082851183E0F9121712
:104CB300D9740112081FE9600CE485108285118301
:104CC300F0124D79F079008E828F83124D86123265
:104CD300DA6004124D79F0851882851983AC82ADB0
:104CE30083EEFAEFFB1219178A0C8B0D850A828566
:104CF3000B83124D75EA7001EB60628E828F83E045
:104D0300C0E07401120AE8D0E0F07402120AE8125B
:104D130067B97401120AE885820A85830B780A123F
:104D2300084285088285098312066FEE240E126DF0
:104D330041F50878081208469018D012066F7407D8
:104D4300120AE8E0F9121911740712081FE9FE7438
:104D5300106E700BAA0CAB0D120FDB80027E10EEEF
:104D6300F974040244B2126911850A82F58322128E
:104D7300697F124B6922850882850983E04420F00C
:104D8300A3E022124B65850A82850B8322E0888289
:104D93008983F0228A828B83124D9F2212586AE004
:104DA30022C082C08374DE1208EB8A828B83A3A3A2
:104DB300A3A3124B53740E120AE8E8F0A3E9124EB0
:104DC3006A740C120AE8124E63240DF582EB126D1D
:104DD30044C0E0741A120AE8D0E0F0EA126936EB34
:104DE300124B507420120AE8124E632415F582EB1D
:104DF300126D44C0E07408120AE8D0E0F0EA241C03
:104E0300F582EB124B507412120AE8124E6324110E
:104E1300F582EB126D44C0E07409120AE8D0E0F0A9
:104E230074FF851882851983F07401120AE874FFF0
:104E3300F07402120AE874FFF090821112066B7488
:104E430004120AE8AC82AD837407120AE8AA82ABA3
:104E53008312168F740412081F790074220248709B
:104E6300E8F0A3E9F0EA22124667A3A3124E7322E5
:104E7300124E7722E0F8A3E0F92274EA1203627477
:104E8300EE1208EB8A148B15ECFEEDFF890F7428E4
:104E9300120AE81264E1742A120AE8E0F50C742B92
:104EA300120AE8123B9E742D120AE8E0F512A3E001
:104EB300F513750D107A1E7B00120FD57402120ABA
:104EC300E8125D8C7402120AE8E07002A3E070033A
:104ED300024FDD750E00EEFAEFFB1215818A828B0D
:104EE30083E5827002E5836016124FE9600574035F
:104EF3006A700CE5085440700674044509F509749A
:104F0300045509F9E47001E96003750E01851882FF
:104F1300851983AA82AB83795012553A7402120A17
:104F2300E8125001A3125D8C7410120AE8E50AF02E
:104F3300A3E50BF07402120AE8E0240B124FF3749A
:104F430002F0120AE81250017402F0120AE8125831
:104F5300621267B97402120AE8125FACE50FF074CB
:104F630002120AE8E0240C124FF3E50CF07402126B
:104F73000AE8E0241C124FF3E514F0A3E515F074DE
:104F830008120AE8125B4D740A120AE8E50CF08570
:104F93001282851383C082C083740D120AE8AC8227
:104FA300AD83D083D0827403120763A90E740212F7
:104FB3000AE8AA82AB8312189FE964017011E50E17
:104FC3006008A90C1218C91218ED750D00800B7436
:104FD30002120AE8125543120FDBA90D74121208CC
:104FE3001F7F0E02056CA3A3A3A3E0FA74016A2238
:104FF300124FF722124FFB22F8A3E00267AB1250C5
:1050030007A3A322125E97023BCE74EA120362EA5D
:10501300FEEBFF8C088D098E828F83A385820A8520
:10502300830B7408F0EE2416125165600974108521
:105033000A82850B83F0EE2417F510EF125173608B
:105043000A850A82850B83E02408F0EE2411F8EF29
:1050530012695A6005750E0E8003750E00EE240D5D
:10506300F514EF3400F515850A82850B83E085146A
:1050730082851583FAE02A250E8C828D83126BBDFF
:1050830060139018C8E0F91214F7E9FA85088285CD
:105093000983E02AF0850882850983E0FAC39475C1
:1050A30040097508007509000251557B00126867B5
:1050B3007001EB7003025155EEFAEFFB12191DEA72
:1050C300850882850983125D8DEE2402F8125C1532
:1050D300125188F0EE24040808125C15A3A31251A0
:1050E30088A3A3F0EE241312517EF0EE2414125180
:1050F3007EA3F07A08850C82850D83E0600FEE2491
:1051030018124D72E50824081264D77A10851082AC
:10511300851183E0600FEE241A124D728A0CE508A4
:10512300250C1264D7EE240B126D41F510A3E0F5A4
:1051330011751200781012083E851482851583E0DC
:10514300FC7D00125547E50E28FAE439125161122D
:10515300081FAA08AB09024FE47D00EEFAEFFB0239
:1051630041C7F50CEF3400F50D850C82F583E02281
:105173003400F511851082F583E02212697F125104
:1051830092A3A3A322A3A3126922A312519222E002
:10519300850882850983A3A3A32274F61203628A76
:1051A300828B83E0FC9018CD125226740278081289
:1051B30009FFE5084CFCAD09EA24121252207406DB
:1051C30078081209FFE5084CFCE5094DFDEA2411B6
:1051D300125220740978081209FFE5094DFDEA24EB
:1051E30016125220740B78081209FFE5094DFDEAE7
:1051F3002417125220740C78081209FFE5094DFD9B
:105203008A828B83A3A3A3A3A3A3125226740A782F
:10521300081209FFECFAE5094DFB025859F582EB38
:10522300126982E0F50875090022F0851882851954
:105233008322E0F9025C1A74F01203628A088B0974
:10524300ECFEEDFF750A01E9C394085005790002ED
:105253005339E98E828F83125357121929E9600358
:10526300750A0012558CC0E0EE241112329BD0E077
:10527300125587C0E0EE241212329BD0E012534540
:10528300A882A9831255596010E5082408FAE50994
:105293003400FBEE241312536A8E828F83A3A3A3DD
:1052A300A3A3A3A3A3E0601588828983E0FAE5089A
:1052B3002AFAE5093400FBEE241512536AEE241989
:1052C300126BB3EE241B126BB3126BBCF50B8E8205
:1052D3008F83E0F50CC3950B5003025250850B0EE0
:1052E300E508250EF8E5093400F9EE241DFAEF343C
:1052F30000FBEAFCEBFD8C828D831253502417FADA
:10530300EF3400FB8A088B09E50CC3950B8A828B6B
:105313008312535EA3A3E0601B8A828B83E024F293
:10532300F0E8240EF8E9125563FA850882850983AB
:10533300E0C39AF0A90A8005740812081F7F0802C7
:10534300056C12534922F08E828F83A322E8F0A3C7
:10535300E9F0EE22124667124A0D2212536222F03E
:105363008E828F83023BCF12697FEAF0A3EB12692F
:1053730022E02408F02274F41203628A088B09EAFB
:10538300125409F0EA1313543F125402A3A3A3F0D7
:10539300EAC41313125409A3A3F0E48C828D83A3EC
:1053A300A3A3A3A3F08A0A8B0B7409780A120A73C6
:1053B3001253F7F0EC2418F582ED126BB68A0A8BC0
:1053C3000B740B780A120A731253F2F08A0A8B0BCE
:1053D300740C780A120A731253F2A3F0740D78084E
:1053E300120A73A908800312081F7F0402056C12B6
:1053F30053F7A322E50A54018C828D83023BCD54DB
:105403000F8C828D832254038C828D83A3A322C0AD
:1054130082C08379009018C7125BFCA3A3A3A3E007
:10542300600FEC70268A828B83A3A3E0701D098032
:105433001AEC60178A828B83A3A3A3A3A3A3A3A3BA
:10544300A31254517003A3E06B70E3024873124A32
:105453000D9018D0E06A2274EE1203628A088B0959
:10546300890CECFEEDFF8A828B83125543121929B6
:1054730012558CC0E0EE241112329BD0E0125587F6
:10548300C0E0EE241212329BD0E012534585820A0B
:1054930085830B1255596010E5082408F8E5093493
:1054A30000F9EE24131255798E828F83A3A3A3A34D
:1054B300A3A3A3A3E06009125547EE24151255795F
:1054C300EEFAEFFB12192FE9F50D7066850A828556
:1054D3000B83E0F50EF510E5082510FAE509340015
:1054E300FBEE2417F8EF3400F988088909EE241D30
:1054F3001244C28E828F83A3A3A3A3A3A3E070123B
:10550300EAF8EBF98C828D83125A5BE50CC3950E96
:105513008019EA240EF8EB125563FB850A82850B8A
:1055230083E0FAE50CC39A24F2C39B8508828509BC
:1055330083F0A90D0244B51213538518828519838C
:10554300124A0D22850A82850B83E0F8E50828F8C4
:10555300E5093400F9227408125362A3A3A3E022DD
:105563003400F98C828D83E8F0A3E9F09018C8E049
:10557300F91214F7E92212697FE8F0A3E91232F273
:105583002408F022125D5980D2850882850983A3FD
:10559300A31255C1E0F9EA8E828F83A3A3A3A3A329
:1055A300A3A3A3A31255C61255C1A3A3E0F9EAF816
:1055B300EE240B12697FE81255C6A3A3E022E0FA9A
:1055C300025193F0A3E9125D5D22C082C0837A4544
:1055D3007B1979E21213537A457B19024873C0820F
:1055E300C0839018D0125543024873C082C083749D
:1055F300FE1208EB851882851983AA82AB83794B47
:1056030012553A02486EC082C083794A121353027C
:10561300487374F612036290194DE0FE04F0EEF93C
:105623001218C9EA7001EB70EEEE60EBF9025859FB
:1056330074EC120362EAFEEBFF8C128D13890E7475
:1056430014120AE8E0F50A7415120AE8E0F50B757E
:105653000C00750D00121A498A088B09EA7001EBD8
:105663007017E50B6003025749A90EAC12AD13EE98
:10567300FAEFFB121A5B025802EA2402F8EB340039
:10568300F9E50E601688828983E0FAE50E2AFAE4CA
:10569300340013EA13F070037401F0E50B70030296
:1056A3005734901958E07002A3E06009901958121A
:1056B3005862121EF8E50A700EE485088285098394
:1056C300F0750D010257629018CAE0A2E14003028F
:1056D300576A90195AE07002A3E0600FA90AAA085A
:1056E300AB0990195A125862121EF885088285096F
:1056F30083E0FA902308126997EA98E499C365D086
:10570300335009850882850983E004F08508828582
:105713000983E0FA902308E4936A7043750C01EE61
:10572300FAEFFB1217EBE4850882850983A3F08067
:105733002E9019FAE0C0E088828983E0FAD0E0C3B2
:105743009A501C0256C47401650B7013E50E600F6A
:105753009018CAE0A2E15015EEFAEFFB1217EB9096
:1057630018CAE0A2E140257401650B701FE50A60C9
:105773001690195CE004F0C0E0901A12E0FAD0E051
:10578300C39A4008750C01E490195CF0E50D7004B0
:10579300E50C606B9018CAE0A2E15030EEFAEFFB23
:1057A3001215818A088B09A808A909E87001E96024
:1057B3001BE82405F582E912329EE50D6004E0C280
:1057C300E0F0E50C6039E0D2E0F08004E50C602FF6
:1057D3009018CAE0A2E15012EEFAEFFB12157BE932
:1057E3006008EEFAEFFB790080129018D3E06E7038
:1057F30003A3E06F7009EEFAEFFB79011216B90209
:1058030064ECC082C08374016A7001EB70077A0193
:105813001258338016901A09125D8CEA7001EB60FE
:105823000512274C80057A011225A80248737A20B5
:105833007B0090192AE0F9120F9322C082C0839053
:105843001A0B125D8C024873C082C083901A0D80BC
:10585300F1740912081F7F0202056C8E828F831276
:1058630058662212586A2212586E22E0F8A3E0F515
:1058730083888222A2F0E492E012588579521213AF
:105883005922851882851983F0024B601258857955
:10589300421213592274F412036274EC1208EB746B
:1058A30001120AE8AC82AD831259C290191CE0645C
:1058B3000270367A047900121569126916EA98EBB8
:1058C30099501712155DE970117405120AE87401F5
:1058D300F07407120AE8740180527405120AE8E4AE
:1058E300F07407120AE8E480439082117808120AE0
:1058F300917583187582E8780812092B60047A0180
:1059030080027A007405120AE8EAF090821178089E
:10591300120A917583187582EC780812092B6004BA
:105923007A0180027A007407120AE8EA1259851292
:105933000AE81259747407120AE8E0700B7405122E
:105943000AE8E07003E480027401851882851983F4
:10595300F0901A2EE0901A2DFAE05AFA85188285F3
:105963001983E05A12588B79411213597414025354
:10597300EAAA82AB831218817A2D7B197945121317
:1059830059221259B774012274F712036274ED128B
:1059930008EBE9FE901929125FB31259C27412126F
:1059A3000AE8EE1259B7851882851983125974745F
:1059B300130249CAF0901A32E0F97C2D7D19229026
:1059C3001A32E0F97A2D7B191218872274F4120324
:1059D30062EAFEEBFF901A34E064FE7004A3E06415
:1059E300FF705F7A16125BE77001EB605574018AF2
:1059F300828B8312693BA3A3A3A3A3E06004740275
:105A03008002740188828983125F2C8A828B83A32C
:105A1300A3A3A3A3A3A3A3A3125C21FCA3E0FDEA76
:105A230024020A0AEB1264DAE5082413F582E50975
:105A3300126BB6125A48EE240B12329B1260EC1210
:105A43005A5B0253EDAA08AB0990192AE0F9120F29
:105A53006322E0123B7CA3A3E8F0A3E9F02274F2F3
:105A630012036274FD1208EB8A088B09890A8C0BF6
:105A73007401120AE87404125D928A0C8B0DAE0C49
:105A8300AF0DEE7001EF7003025B1EEE240B124BA1
:105A93004D740788828983F0A3A882A983E508242B
:105AA300081244CB125B428A828B83A3125B42852A
:105AB3000882850983A3A3A3A3A3A3A3A3A3A312D8
:105AC3004D90EE2416125B3AEE241812329B125BB1
:105AD3004DEE2417F582EF12638CEE241A125D85C6
:105AE300125B291269777403650A60067401650AFB
:105AF30070087440F0A3740480057440F0A3E4F0CC
:105B0300901A34125A557401650B7006EE24111263
:105B13006BB3EEFAEFFB12163580027910901A344C
:105B2300125B5E02259EEE2413F582EF125B332295
