:020000040000FA
:06000000020A090201C022
:03002B000207DCED
:030033000205942F
:0300430002071998
:030053000200FDAB
:03006B0002056D1E
:10008300020154010101010503010F10FEFFFD11DF
:10009300FD11FD11FD11B910B310FD117C200000FD
:1000A30000001A20000000000C0000000C000100FA
:1000B300004713000000000000E3130000000000ED
:1000C3000000009A04FF0102001B110000008E11C2
:1000D3006400020200080000050107051E02051E58
:1000E300020A03B80B803E01FFFF14020206060654
:1000F30006060014141414140006C0E074F212036C
:10010300D4A2AFE492E0FED2AFE5A7FAE5A1FBEA01
:100113005B54106008121A3D75A1EF802AEAA2E031
:10012300C0D0EBA2E092F0120959158182F050176A
:10013300906198E0FA901469E0C39AA2D265D03333
:100143005002EAF075A1FEEEA2E092AF7F01020435
:100153008BC0E074F21203D4A2AFE492E0FED2AFFC
:100163009061A4E0FA759B00E5915A540860087504
:1001730091F7121A7F802AE5915A541060087591FD
:10018300EF121A85801BEAA2E0C0D0E591A2E092AB
:10019300F0120959158182F05007E0C2E0F0121BFA
:1001A300BD9061A3E0FAE5E95A5404600E121B9373
:1001B30075E9FB906193E0A2E640F2808AC0E074A7
:1001C300F21203D4A2AFE492E0FED2AF9061A5E0B5
:1001D300FAE5BF5A5404600675BFFB121BD5020132
:1001E3004AC3E498F8E499F91202258026C3E49AF5
:1001F300FAE49BFBE920E7E9120225E498F8E49985
:10020300F922C3E498F8E499F9120225E498F8E492
:1002130099F9C3E49AFAE49BFB22EB20E7CFE920A8
:10022300E7E0B90010BB0008E88AF084F8AAF022DE
:10023300E4FBC8FA22EB70227B10C833C8C933C968
:10024300335007C39AC3DBF280069A50012ADBEAD4
:10025300C833F4C8C933F4C9FA2275F008E4C833C3
:10026300C8C933C933C99AC99B5004C92AC93BD5E4
:10027300F0ECFBC833F4C8E4C9FA22080808EAC062
:10028300E0EBC0E086F0E7A4FA180986F0E7A42AB9
:10029300FA180986F0E7A42AFA180986F0E7A42ACF
:1002A300FA1986F0E7A4FBE5F02AFA190886F0E7C5
:1002B300A42BFBE5F03AFA190886F0E7A42BFBE53B
:1002C300F03AFA18180986F0E7A4C5F02BFBE43AD4
:1002D300FA1908E7C5F0C6A426F6E5F03BFBE43AB5
:1002E300FA1886F0E7A4F6E5F00826F6E43B08F6EC
:1002F300E43A08F6D0E0FBD0E0FA22E4CFC0E0E431
:10030300CEC0E0E4CDC0E0E4CCC0E075F020C3E6AD
:1003130033F608E633F608E633F608E633F618183C
:1003230018EC33FCED33FDEE33FEEF33FFC3EC97F4
:1003330009ED9709EE9709EF97191919400FFFEC8B
:1003430097FC09ED97FD09EE97FE191906D5F0BE46
:10035300ECF709EDF709EEF709EFF7191919D0E0F2
:10036300FCD0E0FDD0E0FED0E0FF222518C582C01E
:10037300E0E51934FFC583C0E0E518C3958224F88E
:10038300F8E4C5A8858319858218C5A8E8CEF0A32B
:10039300E520F0A37808E608F0A3DEFAEFF0A3E582
:1003A3008124FAF8E608F0A3E608F0A3E608F0A330
:1003B3000808E608F0A3E608F0A315811581D0E04C
:1003C300FED0E0F8158115811581E8C0E0EEC0E0AC
:1003D30022C0D02518C582C0E0E51934FFC583C00B
:1003E300E0E518C3958224F310AF0885831985824D
:1003F300188008858319858218D2AFC8F0A3E9F065
:10040300A3EAF0A3EBF0A37908E709F0A3D8FAEC89
:10041300F0A3EDF0A3EEF0A3EFF0A3D0E0F0A3D0B0
:10042300E0F0A3D0E0F0A3E520F0A3E5F0F0A322F1
:10043300120A53B90003020475E490030178C779E3
:10044300178002F0A3D8FCD9FA9019C7AA82AB830C
:10045300900086787879018015E493A3AC82AD830C
:100463008A828B83F0A3AA82AB838C828D83D8E9A3
:10047300D9E77582817583B574031207BE75825DF2
:1004830075831E74001207BE851983851882E0C028
:10049300E0A3E0F9A3E0FAA3E0FBA37808E0F60801
:1004A300A3DFFAE0FCA3E0FDA3E0FEA3E0FFA3E0EB
:1004B300C0E0A3E0C0E0A3E0F5D0A3E0F520A3E013
:1004C300A3F5F0E4C5A8858319858218C5A8D08251
:1004D300D083D0E0F8D0E032D083D082ECC0E0ED1E
:1004E300C0E0E493A3FCE493A3FDED4C600D12057F
:1004F300B3EC24FFFCED34FFFD80EFE493A3FCE4B5
:1005030093A3FDED4C600D1206C4EC24FFFCED3407
:10051300FFFD80EFD0E0FDD0E0FCE493A3C0E0E476
:1005230093C0E022D083D082E9C0E0E493A3C386E2
:10053300F0C5F095F0F908E493A386F0C5F095F0C3
:10054300700BE493A3C3994005E9048002A3E47507
:10055300F002A42582F582E5F03583F583D0E0F936
:10056300E493A3C0E0E493C0E022C0E074F212037A
:10057300D4A2AFE492E0FED2AFE589A2E150031228
:100583001911758900C2C5EEA2E092AF7F01020482
:100593008BC0E074F21203D4A2AFE492E0FED2AFB8
:1005A300E58BA2E05003121911758B00C2E880D7C6
:1005B300C0E0C3E49396087401939618400FE49344
:1005C30066700808740193661870007019A3A3C3BA
:1005D300E49396087401939618A3A3400DD0E0D03A
:1005E300E0D0E0020517A3A3A3A3A3A3D0E0228531
:1005F3001983851882E0A3FEE0A3F5207808E0A321
:10060300F608DFFAE0A3FFE0A3C0E0E0A3C0E0E068
:10061300A3C0E0E0A3C0E0E0A3C0E0E4C5A88582F6
:1006230018858319C5A8D083D0820207C4D083D08C
:1006330082C5F0E493A3C5F0C395F0F5F0E493A36A
:10064300C395F04005E5F0048001E475F002A425AC
:1006530082F582E5F03583F583E493A3C0E0E49368
:10066300C0E0227404800474028000CCC0E0EDC0BA
:10067300E0E518C39CCCAD1950011D10AF068C18D2
:100683008D1980068C188D19D2AF12075FD0E0FD4B
:10069300D0E0FC2274028000CCC0E0EDC0E0E5189D
:1006A300C39CCCAD1950011D10AF068C188D198059
:1006B300068C188D19D2AF12073DD0E0FDD0E0FCB7
:1006C30022C0E0C0F088F0E49366700808740193D8
:1006D30066187000A8F0A3A3700BD0F0D0E0D0E0B0
:1006E300D0E0020517A3A3D0F0D0E022D083D082BC
:1006F300CCC0E0E493A3600612079F1470FAE4935E
:10070300A3600612087B1470FAD0E0FCE493A3C044
:10071300E0E493C0E022C0E074F21203D4A2AFE499
:1007230092E0FED2AFC2C0E5D1A2E450031219B3E6
:10073300EEA2E092AF7F0102048BCAC0E0E493A370
:10074300C582CCC582C583CDC583F0A3C582CCC584
:1007530082C583CDC583DAE5D0E0CA22CAC0E0E012
:10076300A3C582CCC582C583CDC583F0A3C582CC86
:10077300C582C583CDC583DAE6D0E0CA22700908F5
:100783000808226016181818C6C333C608C633C62D
:1007930008C633C608C633C6D5E0EA22C0E0E493F0
:1007A300A3D39C5010E493A3C39C400AD0E0D0E0B1
:1007B300D0E002070CA3A3A3D0E022C09FF59FE4DF
:1007C30073D09F22D083D082C09FE493C0E0740192
:1007D30093C0E0740293F59F22C0E0C0D0EAC0E06A
:1007E300A2AFE492E0D2AFC2C7A2E092AFD0E0FAE8
:1007F300D0D0D0E0322518F58210AF08F5184002AA
:1008030015198008F51840021519D2AF85198322EE
:100813007404800A74038006740280027401C0E0C9
:10082300F4041207F8D0E0120A4622C0D0251810AB
:10083300AF08F518500205198008F518500205197C
:10084300D2AFD0D022BB0102E722C082C08389820B
:100853008A83BB0003E08002E493D083D0822260CA
:1008630016080808C6C313C618C613C618C613C687
:1008730018C613C6D5E0EA22C0E0E493A36C70095E
:10088300D0E0D0E0D0E002070CA3A3D0E0222518EB
:1008930010AF08F518400215198008F51840021525
:1008A30019D2AF22E066701008A3E066700A08A3AD
:1008B300E066700408A3E06622C3E7960809E7969A
:1008C3000809E7960809E796A2D265D03322C3E068
:1008D3009608A3E09608A3E09608A3E096A2D26543
:1008E300D03322C3E096F008A3E096F008A3E09685
:1008F300F008A3E096F022E026F008A3E036F00823
:10090300A3E036F008A3E036F022E026F608A3E0E1
:1009130036F608A3E036F608A3E036F622E627F615
:100923000809E637F60809E637F60809E637F62236
:10093300E657F60809E657F60809E657F60809E602
:1009430057F622E056F608A3E056F608A3E056F65B
:1009530008A3E056F622C0E0E8C0E0E58124FCF8F5
:10096300E6A2E7D0E0F8D0E022E046F008A3E046B4
:10097300F008A3E046F008A3E046F022E056F008B2
:10098300A3E056F008A3E056F008A3E056F022E6F1
:1009930047F60809E647F60809E647F60809E64771
:1009A300F622700422600D18C6C333C608C633C6C8
:1009B300D5E0F41822E4C396F608E496F608E49624
:1009C300F608E496F622600D08C6A2E713C618C619
:1009D30013C6D5E0F322C6F4C608C6F4C608C6F4A7
:1009E300C608C6F4C622C3E7960809E7960809E7CE
:1009F300960809E79622C3E09608A3E09608A3E0C9
:100A03009608A3E0962275D000758140751801758C
:100A1300190300020433E0F608A3E0F608A3E0F6A6
:100A230008A3E0F622600C08C6C313C618C613C693
:100A3300D5E0F422E6F008A3E6F008A3E6F008A365
:100A4300E6F022CAC0E0E6F0A308DAFAD0E0FA2220
:100A530074F855C74401F5C77901222518F582E4D6
:100A63003519F58322C2AF75D69F02000022120703
:100A7300C7DD82011207C7AF83011207C7208401B4
:100A83001207C73B84011207C75F84011207C79A85
:100A930084011207C7D784011207C7FA840112071A
:100AA300C74885011207C72286011207C7D38601EB
:100AB3001207C76387011207C75388011207C79636
:100AC30088011207C7BA88011207C70C89011207E8
:100AD300C73189011207C7638A011207C7908A01C8
:100AE3001207C7A28A011207C7AC8A011207C73FC0
:100AF3008B011207C7AE8B011207C7578C01120770
:100B0300C75F8C011207C7388D011207C7AE8D016D
:100B13001207C7EB8D011207C74E8E011207C7A438
:100B23008F011207C7C48F011207C726900112074E
:100B3300C7C390011207C71C91011207C7AB9101EC
:100B43001207C76792011207C7A592011207C714BC
:100B530093011207C76E93011207C7A693011207E9
:100B6300C7D894011207C71296011207C7739601DB
:100B73001207C7BC96011207C7E496011207C7679D
:100B830097011207C7E797011207C75A980112077F
:100B9300C77F98011207C7F398011207C78E9901FF
:100BA3001207C7149A011207C73B9A011207C760BD
:100BB3009B011207C7739B011207C7FA9B01120718
:100BC300C7299C011207C7C19C011207C7009D01D9
:100BD3001207C73B9D011207C71F9E011207C75B80
:100BE300A0011207C765A0011207C76FA001120772
:100BF300C779A0011207C783A0011207C79DA001EF
:100C03001207C7A7A0011207C7B1A0011207C7BBEC
:100C1300A0011207C7E0A0011207C736A1011207FE
:100C2300C744A1011207C768A1011207C78CA1011C
:100C33001207C7EBA1011207C742A2011207C7603F
:100C4300A2011207C7D0A2011207C70DA301120701
:100C5300C754A3011207C7BCA3011207C74BA401C2
:100C63001207C786A5011207C7D6A5011207C70C2D
:100C7300A7011207C770A8011207C7FCAA01120730
:100C8300C7CEAC011207C785AE011207C7EBAE0191
:100C93001207C7FBAF011207C7ACB0011207C7F1B8
:100CA300B0011207C7A2B1011207C730B201120780
:100CB300C758B2011207C71AB3011207C7F2B50129
:100CC3001207C717B6011207C769B6011207C7672C
:100CD300B7011207C79FB7011207C7DFB701120792
:100CE300C73EB8011207C75CB9011207C7BCB901F7
:100CF3001207C7A0BA011207C7AABC011207C7CCC3
:100D0300BC011207C75FBE011207C7A5BE011207C8
:100D1300C779BF011207C70CC0011207C73BC00147
:100D23001207C766C0011207C751C1011207C78D59
:100D3300C1011207C7EFC1011207C77DC201120724
:100D4300C780C2011207C7EFC2011207C77422008E
:100D53001207C7C622001207C71D25001207C7695D
:100D630025001207C75C26001207C7BF260012071B
:100D7300C70027001207C75628001207C7792A00A1
:100D83001207C7102B001207C7A42B001207C77343
:100D930032001207C70733001207C7843500120752
:100DA300C76836001207C71437001207C745380053
:100DB3001207C73B39001207C7653C001207C72853
:100DC3003E001207C7883E001207C73C3F001207C8
:100DD300C7673F001207C7F43F001207C7D8400098
:100DE3001207C7AC41001207C74042001207C76D84
:100DF30042001207C78F42001207C7AB4400120715
:100E0300C77D45001207C7CA45001207C73B460006
:100E13001207C7E946001207C71E47001207C76C2F
:100E230047001207C79C47001207C7DA470012079B
:100E3300C73E48001207C74348001207C79E480031
:100E43001207C7C648001207C7DC49001207C73D8F
:100E53004A001207C7A04A001207C7334B00120704
:100E6300C7684D001207C7414E001207C7D14F0094
:100E73001207C76151001207C7FE51001207C73D91
:100E830053001207C7D653001207C71E5400120798
:100E9300C79155001207C7A555001207C7B25500E1
:100EA3001207C7CD55001207C7D955001207C7F758
:100EB30055001207C71A58001207C70D5900120729
:100EC300C75159001207C7E359001207C7E85A0070
:100ED3001207C7B55B001207C71F5D001207C724BF
:100EE3005E001207C7BA5E001207C73D5F00120714
:100EF300C7545F001207C7785F001207C7825F00FD
:100F03001207C78E5F001207C7AC5F001207C7F056
:100F13005F001207C74160001207C79E60001207F7
:100F2300C7FF60001207C70662001207C7176300F6
:100F33001207C7B663001207C7A364001207C73AB4
:100F430065001207C7D165001207C7A16600120723
:100F5300C7D066001207C74267001207C7F06700D1
:100F63001207C71668001207C72E69001207C74D7C
:100F730069001207C7BC69001207C7356A00120768
:100F8300C75B6A001207C7876A001207C7D26A00E5
:100F93001207C7526B001207C7F96C001207C7226A
:100FA3006D001207C7A76D001207C7016E00120775
:100FB300C7266E001207C76C6E001207C7896E0042
:100FC3001207C7376F001207C7FFD5031207C74AB7
:100FD300D6031207C7BDC3011207C7F7C301120720
:100FE300C7CAC4011207C7A0C5011207C7CFC601EC
:100FF3001207C758C8011207C7D6C8011207C79CF2
:10100300C9011207C7BDCA011207C72FCB011207B7
:10101300C791CB011207C7F3CB011207C7FDCB0161
:101023001207C73BCC011207C7A4CC011207C74361
:10103300CD011207C7C1CD011207C774CE01120734
:10104300C7E6CE011207C70CCF011207C73CCF0179
:101053001207C769CF011207C70FD0011207C71FB5
:10106300D0011207C772D0011207C77ED001120741
:10107300C78AD0011207C793D0011207C7F6D00160
:101083001207C756D1011207C7A7D1011207C7C25A
:10109300D1011207C7F2D1011207C713D2011207F8
:1010A300C71FD2011207C7A6D3011207C7C4D301B2
:1010B3001207C72DD4011207C740D4011207C75125
:1010C300D4011207C7E4D4011207C7E7D5011207F9
:1010D300C7DDD6011207C760D7011207C769D70159
:1010E3001207C7CCD7011207C7E3D7011207C725D9
:1010F300D8011207C76AD8011207C799D801120786
:10110300C7D0D8011207C7EDD8011207C711D901FB
:101113001207C752D9011207C745DA011207C78B55
:10112300DA011207C7C6DA011207C725DB01120766
:10113300C74DDB011207C786DB011207C794DB012A
:101143001207C7F5DB011207C732DC011207C774A8
:10115300DC011207C7A5DC011207C7D9DC0112079E
:10116300C7E4DC011207C702DD011207C7CBDD01AB
:101173001207C7D5DD011207C71ADE011207C7849C
:10118300DE011207C798DE011207C790DF011207BD
:10119300C7A3DF011207C7B8DF011207C758E00171
:1011A3001207C7BCE0011207C783E1011207C78E0C
:1011B300E1011207C7ADE2011207C7C9E201120735
:1011C300C721E3011207C758E3011207C772E301FE
:1011D3001207C7E6E3011207C777E4011207C7BF87
:1011E300E4011207C7E4E6011207C74EE70112073D
:1011F300C7B9E7011207C7FFE9011207C70FEA01E1
:101203001207C712EA011207C71EEA011207C73203
:10121300EA011207C73AEA011207C77FEA01120778
:10122300C72DEB011207C79DEB011207C701EC01A4
:101233001207C79AEC011207C734ED011207C76200
:10124300ED011207C707EE011207C736EE011207B9
:10125300C739EE011207C7B0EE011207C7A0EF01AD
:101263001207C778F0011207C702F1011207C7235B
:10127300F2011207C7D5F2011207C70EF3011207D5
:10128300C73FF3011207C748F3011207C784F301ED
:101293001207C76BF4011207C7E7F4011207C777F8
:1012A300F5011207C741F6011207C7C5F601120778
:1012B300C7FBF6011207C744F7011207C70BE40285
:1012C3001207C71DE4021207C791E4021207C7C73A
:1012D300E4021207C71EE5021207C705E702120759
:1012E300C7E0E8021207C718EC021207C75BEC025B
:1012F3001207C775EC021207C7D7EC021207C71310
:10130300ED021207C743ED021207C77DED02120774
:10131300C77F7F001207C7F4CB031207C713CC03A1
:101323001207C75ECC031207C7A8CC031207C74B2B
:10133300CD031207C7FDD2031207C7DFC803120785
:10134300C71DCA031207C74D79001207C7CA790020
:101353001207C7EA79001207C7117A001207C725D7
:101363007A001207C77D7A001207C7AD7A00120709
:10137300C7537C001207C7187D001207C76A7D0098
:101383001207C7B47D001207C7F17D001207C754C7
:101393007E001207C7907E001207C7077F0012075F
:1013A300C7617F001207C725C5031207C73EC503E0
:1013B3001207C7EAC5031207C799C6031207C7B9BD
:1013C300A0021207C721B0031207C79CB00312077C
:1013D300C7A7B0031207C7CCB0031207C78AF70128
:1013E3001207C78DF7011207C738F8011207C76341
:1013F300F8011207C7BBF8011207C7E0F80112078B
:10140300C700F9011207C736F9011207C78BF901A3
:101413001207C7C4FA011207C75082011207C71C7B
:10142300FB011207C774FB011207C71BFC0112075C
:10143300C769FC011207C7ADFD011207C743FE01CF
:101443001207C757FF011207C782FF011207C7B46C
:10145300FF011207C7D9ED021207C7E3ED02120716
:10146300C72FEE021207C79FEE021207C7BCEE0298
:101473001207C77EEF021207C733F2021207C73CF7
:10148300F2021207C792F2021207C7BDF202120755
:10149300C722F3021207C7BEF3021207C7FBF30208
:1014A3001207C74CF4021207C7A6F4021207C7D6E5
:1014B300F4021207C758F5021207C7A5F50212076F
:1014C300C7D7F5021207C70CF6021207C71CF602AC
:1014D3001207C72CF6021207C74BF6021207C70200
:1014E300F7021207C73BF7021207C7FCD003120724
:1014F300C71DC3031207C781C3031207C7A8C303CA
:101503001207C7AEC4031207C788BC021207C7BCC1
:10151300BD021207C70CBE021207C7D1BF021207D2
:10152300C711C0021207C789C2021207C7D0C2027D
:101533001207C766C4021207C707C5021207C767A7
:10154300C5021207C7E9C5021207C71DC602120763
:10155300C760C6021207C7DEC7021207C772C902F5
:101563001207C7B3CB021207C7DDCB021207C71896
:10157300CC021207C722CC021207C77FCC02120784
:10158300C702CD021207C75BD0021207C7FDD703FC
:101593001207C713D8031207C7A5D6031207C7221A
:1015A300A6031207C73AA6031207C7E2A603120748
:1015B300C723A7031207C740A7031207C766A703DA
:1015C3001207C7ADA7031207C7E6A7031207C71A77
:1015D300A8031207C7ACA9031207C75FCD031207FD
:1015E300C791CD031207C7A7CD031207C7ECCD03DD
:1015F3001207C701CE031207C798CE031207C7A26B
:10160300CE031207C756AD031207C7FFAD03120778
:10161300C7D2AE031207C716AF031207C766AF03DD
:101623001207C7ABAF031207C7716F001207C7BF1B
:101633006F001207C7A570001207C73E710012079B
:10164300C78871001207C7D971001207C736720025
:101653001207C74A72001207C78372001207C794A2
:1016630073001207C70074001207C71B7400120728
:10167300C75C74001207C78F74001207C7E87400B1
:101683001207C70475001207C76875001207C7E57C
:1016930076001207C70677001207C73A77001207CA
:1016A300C76A77001207C77577001207C7CD77009F
:1016B3001207C76E78001207C79078001207C79AFF
:1016C30078001207C79D78001207C7067900120732
:1016D300C72379001207C74079001207C74379006F
:1016E3001207C79FFF021207C7B7FF021207C700FF
:1016F30080031207C75180031207C714820312071E
:10170300C7E283031207C72C84031207C765850347
:101713001207C7B486031207C7D286031207C72668
:1017230087031207C7AE87031207C7A1A2021207D6
:10173300C7CBA2021207C750A3021207C7D9A3023D
:101743001207C755A4021207C7BBA4021207C7FD9D
:10175300A4021207C774A5021207C709A60212073B
:10176300C78DA6021207C7C9A6021207C7A5AA02F8
:101773001207C750AC021207C776AC021207C74460
:10178300AD021207C747AD021207C706AE02120722
:10179300C730AF021207C7C0AF021207C723B20296
:1017A3001207C7B9B2021207C7D4B3021207C72080
:1017B300B7021207C730B7021207C78AB802120767
:1017C300C705B9021207C738BA021207C76CBB02B2
:1017D3001207C7E1BB021207C7DCD0021207C79882
:1017E300D1021207C70ED2021207C726D20212076E
:1017F300C7C2D2021207C705D3021207C701D40218
:101803001207C72DD4021207C798D4021207C7EADA
:10181300D4021207C747D5021207C71AD802120704
:10182300C7BCD8021207C738D9021207C7ADDA02FC
:101833001207C75ADB021207C701DC021207C75699
:10184300DC021207C7CCDC021207C7F6DD0212075F
:10185300C79EDF021207C7BDE0021207C75AE102A3
:101863001207C7CAE1021207C7CFE2021207C7492C
:10187300D8031207C74BD8031207C77FBA0312074F
:10188300C7AEBA031207C75DBB031207C7C3BB03C7
:101893001207C734BC031207C711B6031207C78266
:1018A300B7031207C7F6D3031207C707D4031207F8
:1018B300C7AFD4031207C718C7031207C726C70346
:1018C3001207C750D8031207C7C7D4031207C7D7D5
:1018D300D4031207C7F2D4031207C75AD50312075A
:1018E300C7E8CF031207C771D0031207C7E3D003BA
:1018F3001207C77ACA031207C798CA031207C7FB9E
:10190300CA031207C71BCB031207C769CB0312070E
:10191300C7C3CB031207C7D691031207C7EB9103C3
:101923001207C70493031207C74593031207C75F40
:1019330093031207C7E393031207C7DE9403120747
:10194300C75295031207C76E95031207C783950302
:101953001207C79195031207C7AB95031207C7C2B6
:1019630095031207C7E795031207C73896031207B3
:10197300C7DB9A031207C7E99A031207C7679B03DA
:101983001207C73B9C031207C76F9E031207C7E2E8
:1019930087031207C76188031207C7118903120758
:1019A300C78289031207C7888A031207C70C8C03EF
:1019B3001207C76C8C031207C7BE8C031207C7C775
:1019C3008C031207C7DD8C031207C7EF8C031207C2
:1019D300C7018D031207C70A8D031207C71C8D03A6
:1019E3001207C7718D031207C7858F031207C7BD7F
:1019F3008F031207C7E28F031207C7FB8F03120778
:101A0300C71490031207C70991031207C7979103DD
:101A13001207C711C1031207C754C1031207C765D1
:101A2300C1031207C798C1031207C7D0C103120726
:101A3300C708C2031207C770C2031207C7A3C203B2
:101A43001207C7D7B2031207C702B3031207C74966
:101A5300B3031207C758B3031207C777B3031207B9
:101A6300C7E1B3031207C7EAB3031207C74BB403B3
:101A73001207C76FB4031207C735B5031207C7426E
:101A8300B5031207C753B5031207C734D7031207A9
:101A9300C751D7031207C7DB9E031207C743A0032F
:101AA3001207C750A0031207C769A0031207C77C18
:101AB300A0031207C796A0031207C7B5A003120716
:101AC300C734A1031207C700A2031207C75DA2030D
:101AD3001207C76DA2031207C764D5031207C7898C
:101AE300D5031207C7B2D5031207C7DAD503120706
:101AF300C7BCBC031207C7E3BC031207C70ABD0375
:101B03001207C77ABD031207C71BB8031207C734EE
:101B1300B8031207C740B8031207C749B80312072F
:101B2300C76DB8031207C779B8031207C788B8038C
:101B33001207C7A6B8031207C7F8B8031207C732BC
:101B4300B9031207C767B9031207C7B6B903120768
:101B5300C702BA031207C71ABA031207C724BA0384
:101B63001207C735BA031207C779BA031207C75456
:101B7300D6031207C76FF7021207C79BF7021207B4
:101B8300C7B7F7021207C7CAF7021207C7E0F7027F
:101B93001207C74CF8021207C786F8021207C7F4E8
:101BA300FB021207C713FD021207C744FD02120707
:101BB300C7A6FD021207C781FE021207C7A9FE02CC
:101BC3001207C7BEFE021207C7CEFE021207C70FD7
:101BD300FF021207C764FF021207C774FF0212074E
:101BE300C7A5CE031207C7C0CE031207C7EACE03A9
:101BF3001207C707CF031207C72FCF031207C75117
:101C0300CF031207C76ACF031207C799CF0312077F
:101C1300C7B4CF031207C7F0D6031207C7C4A9037B
:101C23001207C7CBA9031207C7D8AA031207C70A0B
:101C3300AB031207C730AB031207C763AB0312072B
:101C4300C775AB031207C7B0AB031207C720AC03BA
:101C53001207C75DAC031207C7AAAC031207C7D8A4
:101C6300AC031207C7F8AC031207C7EABE03120797
:101C7300C726BF031207C729C0031207C70EC10334
:101C83001207C7FDD1031207C75BD2031207C79A16
:101C9300D2031207C7DBD2031207C77CA2031207C2
:101CA300C7A4A2031207C7EDA2031207C707A30322
:101CB3001207C736A3031207C743A3031207C7605C
:101CC300A3031207C74DA4031207C784A403120773
:101CD300C795A5031207C79EA5031207C7A7A503A8
:101CE3001207C7B0A5031207C7B9A5031207C76F29
:101CF30096031207C75C9A031207C76A9A0312076F
:101D0300C7A6D7031207C770D7031207C7D5D703D0
:101D13001207C71DD8031207C7479F021207C7C47C
:101D23009C021207C7D09B021207C7B19B0212077E
:101D3300C7399B021207C7E89A021207C7A09A0283
:101D43001207C7E099021207C7BF96021207C79787
:101D530096021207C73A96021207C7229602120783
:101D6300C76D95021207C70E95021207C763930248
:101D73001207C70793021207C70493021207C70D7E
:101D830092021207C7ED91021207C73D9102120793
:101D9300C7BF8F021207C7E481011207C7C58101BC
:101DA3001207C7B381011207C7868F021207C757ED
:101DB3008F021207C7548F021207C7468F021207FA
:101DC300C776A2021207C7328F021207C7258F02F6
:101DD3001207C7388E021207C7C48D021207C758ED
:101DE300A2021207C7FBFA011207C78A8D02120764
:101DF300C7328D021207C7018D021207C7318A024B
:101E03001207C71A8A021207C78D89021207C7DB96
:101E130088021207C77A86021207C7E383021207F2
:101E2300C7AD83021207C75382021207C706820295
:101E33001207C73F81021207C71281021207C76741
:101E430080021207C73A80021207C70080021207F6
:101E5300C755A1021207C7C6C60300000080FBE4F2
:101E63007300013636010100010201000103010084
:101E73000104010606050200000701003408010001
:101E83000F090401010D0100FF0E080000170200F5
:101E930000190100FF1A0100011B0100FE1C0100D3
:101EA300081D0200001F01000120010001210200A2
:101EB300002301000F240200002601000127010076
:101EC30008280200FF2A0100072B0102402C010011
:101ED300002D0100012E0100012F0100FF30010B35
:101EE3001C310800003A0100083B01000F2F0100DC
:101EF3000001017101010101011101010131010120
:101F03000101018001100161013B001400630173B1
:101F1300017201620143010001130106013D013514
:101F23000004011201000100010001000104010489
:101F330001330133013C0144013201360000010049
:101F43000165010001350081010001050182018362
:101F5300010001030471040204600411047004020B
:101F63000402040104020410046104000414046361
:101F7300047304720462044304000413040604009B
:101F830004000404041204000400040004000451C7
:101F9300046400000400040004440400040004007A
:101FA300040004650400043504810464000504008E
:101FB3000483040004030271023001600211027001
:101FC300020102020202028002100261023A00418F
:101FD30000630273027202620243020002130238B8
:101FE30000000200020402120200020002000200CA
:101FF3000204020402370037003C024402000239A3
:10200300000002000265020002350281020002059F
:10201300028202830200020103710301030103012F
:10202300030103010322030203010310030003005E
:10203300030003000300030003000342030003241F
:1020430003060300030003040312032503230325EC
:1020530003230304030403000300030003440300F6
:1020630003000323030003650321003503810300F9
:102073000305030003000300030300710030016044
:102083000011007000310220035004800010006131
:10209300000000140063007300720062004300003C
:1020A30000130006000000000004001200000000FE
:1020B300000000000004000400370037003C024425
:1020C30000000000000000000065000000350081F2
:1020D3000000000500000083000000360001000638
:1020E3000000000F000000000000000000000000DE
:1020F3000003FFFF00000403FFFF0000FFFF0FF4D6
:10210300010005C4040320000100000B00000000CF
:102113000000000003010F000015181300911701C0
:102123000015180200491703004F1704005517053F
:10213300005B17060067171100851714008B17152E
:10214300007917FFFF000001950D06C50D08BF0DAF
:102153000BD10D10FF0C029B0D05B30D07A10D0C48
:10216300770D0D890DFF00001311431119111F1174
:102173003D1131112B1149114F11551161112511C8
:102183000D11071103EAF5E5D5D5C5B5A5959585D7
:1021930085757565655555454535352525151505EC
:1021A30000160F00000B150B020002220F32000075
:1021B30006FD110F121512DD101B12D710E3105775
:1021C3001275127B125D1269126312171011104DF2
:1021D3001053104710FF0F00034948424D181725AD
:1021E300050200011916181616152303000C0E021A
:1021F3000B040B0A0708000F303016181920231A96
:102203001C1E30303017181921301B1D1F300038A9
:102213003C3E363B3B352B432C4B122112271233CA
:10222300122D1237115B116F1267116D1102040227
:102233000101010109020005150D0910080423100D
:1022430029101D1059100000000000002F1041102C
:1022530000BE040AE8030E00150004002800030969
:102263000105100A0309000008FF1E1E0F040810D1
:102273000CC082C083E99003CDF0E4900382F01296
:102283001C6B9003E1E4F0A3F09003CEF0A3F012F3
:102293000F69120ABF120C57121C71900342E4F02B
:1022A300A3F09003F3E07002A3E060099003F3123C
:1022B30057E4121E6290226FE493FA7902121CD142
:1022C30002483774F212036EEAFEEBFF74805FF983
:1022D300E47001E960619003CDE0F91214918A087A
:1022E3008B09EA7001EB60467B0080010BEB75F014
:1022F30003A4244AF8E5F03421F988828983E4931E
:10230300FA74FF6A6021850882850983E06A70DCBC
:10231300AA08AB0988828983A3E493C0E07401937C
:10232300F583D082121E62AA08AB09121485EEFA55
:1023330074806FFB02250674205FF9E47001E96085
:102343001D120E4F8A088B09EA7001EB600A120D09
:1023530089AA08AB09121485EEFA742080D4EE54CE
:10236300207003022437750C0012449D7001EB703A
:102373000B7C027D007A207B001268887C00790444
:102383007A007B00120E198A088B09800D7401886C
:10239300828983F0850A08850B09E5087002E5093F
:1023A300606D7C007904AA08AB09120E198A0A8BA6
:1023B3000B750C01E50824041268D324FFF0A3E095
:1023C30034FF126B357002A3E070C9E5082409F8E5
:1023D300E5093400F9850882850983A3A3A3A3A390
:1023E300A3A3A3A3A3E0640170A385088285098343
:1023F300A3A3A3A3A3A3E0540470927406888289C1
:1024030083F07AB785088285098312265180851265
:102413000DE97C0079017A007B00120E19EA700144
:10242300EB7009E50C70057A2012251274206EFA00
:10243300EF022336EE54106007120C8D741080EEF9
:10244300EE54406007120CE7744080E2EE54806063
:1024530007120BAF748080D674015FF9E47001E951
:10246300601A9003F5E07002A3E060099003F5128F
:1024730057E4121E62EEFA740102233574085FF901
:10248300E47001E9602D120C639011E9E0640170BE
:102493001B9011EAE06015FC75F0E8A4CCAAF07576
:1024A300F003A42AFD7A007B08126888EEFA740808
:1024B30002233574105FF9E47001E960129003DFC1
:1024C300E06005E4F0120C63EEFA74100223357435
:1024D300025FF9E47001E9600A120F63EEFA740215
:1024E30002233574045FF9E47001E96012125B871B
:1024F3001259DD790112365EEEFA74040223357A3D
:10250300007B008005740312082E7F060205F27B10
:10251300009003CDE0F91215C32274F712036E7411
:10252300E1120891EAFEEBFFEE7001EF60338518CC
:1025330082851983AC82AD83120E797406120A5E0A
:10254300E0601E7417120A5EE0FD7401120A5EE079
:10255300FCEEFAEFFB7900121DDFE9600479A48039
:1025630002790002498C74F512036EEAFEEBFF8ECA
:10257300828F83A3A3A3A3A3A3E054406018126193
:10258300F160067AFF7BFF806A8E828F83124D5F34
:10259300FAA3E0FB805390036DE0A2E15048125F81
:1025A3001D241CF8EB1244887508FE7509FF780892
:1025B30012081B1231FA12066A79008C828D83127B
:1025C3005E11A3A3A3E0F5088C828D83125B74A331
:1025D300A3E0FDAC088A828B83125507120C697441
:1025E3000412082E8003120E9D74FE6A700374FF9A
:1025F3006B60431257E0125D0E120F09E98E828F52
:1026030083600612264AE4800512264A7401F07C90
:10261300597D0D8E828F83125507121CCBE9F50865
:102623007017EE7001EF60097901EEFAEFFB120DFE
:10263300F5A9080260807508CDAA088E828F8312DF
:102643002651E960DD80EAE0240D124FBB22E0242D
:102653000C1249D7F9120D652274F612036EE9FEC6
:10266300EAFF7A0F7B0012147FEA7001EB601974A2
:102673000C8A828B83F0EEA3A3F0EF8A828B83A371
:10268300F01259CE79008028EEF9120E1F8A088BBA
:1026930009A808A909E87001E9601374068882890A
:1026A30083126B3AE0F9120CF9EEF9120DFB791073
:1026B3000257DB9003CDE0F91215B722C082C08325
:1026C3007900EA241DF582EB1232001255079003BC
:1026D3006DE0A2E18A828B83E0500E1206EF0101C6
:1026E3000AE92600FD260980111206EF010304E919
:1026F300260207E9260AE926FD2602483774EE1268
:10270300036EEAFEEBFF8C088D09890E7412120A20
:102713005EE0F510A3E0F511851082F583E4F0A3E4
:10272300F0122832EE241DF8EF3400F9880C890DDD
:10273300888212284B601F850A82850B83122B0A1D
:102743007014850A82850B83124B178510828511BD
:10275300831259DD8003750E00850C82850D83126B
:102763004D5F1206300109D12780279827A627B18C
:1027730027D127DB27D127F5270E28212878101208
:10278300081BAC08AD09EEFAEFFB120C75740212CC
:10279300082E02282AAC08AD09EEFAEFFB120C7BD7
:1027A30002282DA90EEEFAEFFB120F218079126C8D
:1027B300B664027019E50E700A12283F7003A3E095
:1027C300697067EEFAEFFBA90E120ED98059750EE8
:1027D300007901121C7D805212283F7003A3E06927
:1027E30070EC126CB6640270E5EEFAEFFB120EC1E8
:1027F30080389003F7E07002A3E0602EEEFAEFFB5F
:102803009003F71257E4121E62801F12283F7003D1
:10281300A3E06970B9EEFAEFFB120F2D800CEEFA0C
:10282300EFFBA90E120F39E9F50EA90E024479EE5A
:102833002409F8EF3400F9880A890B22850A828576
:102843000B83126079E06822F583124D63F9120E4F
:10285300EBE92274ED12036E74DE1208918A088B81
:1028630009EA2402F510EB125137F9120E1F8A0AF6
:102873008B0BAE0AAF0BEE7001EF700302293DE53F
:1028830008240C125CE9122A6824061231F2850826
:1028930082850983A3858208858309E064F1601733
:1028A300E064CD6012E0641A600DE064E96008E062
:1028B30064E160030229C7850E82850F83A3E05478
:1028C30008F9E47001E9607F7405850A82850B834A
:1028D300F09003FBE07002A3E060099003FB125742
:1028E300E4121E629003FDE07002A3E060339003E4
:1028F3006DE0A2E1502B8E828F831261EBA3A3A321
:10290300A3A3A3A312499612320CEA7001EB601140
:10291300850882850983E0F99003FD1257E4121EAE
:1029230062850A82850B83E0640270037406F08576
:102933001082851183E0F9120DFB120DE974221246
:10294300082E7F0B0205F27900120DF5E9607590F0
:10295300036DE0A2E140030228D41265B87002A31C
:10296300E070030228D47403120A5E12659F85087F
:1029730082850983E064E9701A122A7012081F85A0
:102983000882850983E0F512781212081F123C228F
:1029930012082E740C120A5E1255071257E0125DCC
:1029A3000E7900740E120A5E124D39740C120A5E0F
:1029B30012323C70030228D4850E82850F83124D98
:1029C300430228D3850882850983E0C0E07402129C
:1029D3000A5ED0E0F0126736EE240B126CB985184C
:1029E30082851983AA82AB837005120BD3800312ED
:1029F3000EE57402120A5EE064E97014122A701282
:102A0300081F7512E9781212081F123C2212082EB1
:102A130090036DE0A2E14003022924850A82850B1D
:102A230083E064027027850E82850F83E05404607F
:102A33001C1261F170131257E074FFF0A3F07405D8
:102A4300850A82850B83022931740380F38508820A
:102A5300850983E064E96003022924EEFAEFFB129F
:102A63000F3F022924EE2409126891EE22125F22FD
:102A730075120178122274F512036E8A088B097598
:102A83000A00EA2409124B0AFEE9FF8E828F8312A1
:102A93002B0A7003750A018E828F831254157003FB
:102AA300A3E06B7006E50AD2E1F50AE5082402FE0D
:102AB300E5093400FFE50A60138E828F83E0700618
:102AC300E50AD2E58004E50AD2E6F50A120F09E920
:102AD30064017006E50AD2E0F50A8E828F83E06016
:102AE30017E508241DF582E509340012284B64011B
:102AF3006006E50AC2E0F50AE50AA2E14004D2E76E
:102B0300F50AA90A0260801261FC640222C082C035
:102B13008379018A828B83A3A3E0C39402400119C2
:102B23008A828B83A3A3A3A3E0C394024002790008
:102B33008A828B83A3A3A3A3A3A3A3A3A3124D3925
:102B430074F86C700374FF6D601E74F96C70037419
:102B5300FF6D601474FA6C700374FF6D600A74FB8C
:102B63006C700374FF6D700279008A828B83A3A358
:102B7300A3E0FC900370E06C6002790090226EE4A5
:102B830093C394805018E493C333C0E0EA2411F54F
:102B930082EB126CBCFAD0E0C39A5002790002486F
:102BA3003774E812036E74DC120891EAFEEBFF74CB
:102BB30003120A5E125AE0751400751500740512AB
:102BC3000A5EAC82AD838E828F83A3A3A3125CFAC9
:102BD300125507120E79E9600F7405120A5EAA8274
:102BE300AB83120D83E970087901121C7D0231E871
:102BF300EE241B124B117412120A5E1259DD740B70
:102C0300120A5EE06023741C120A5EE0FD74061271
:102C13000A5EE0FC8E828F83A3A31255077901120B
:102C23001DDFE96004790280C17405120A5EAA827D
:102C3300AB83120D7DE9F508740B120A5EE070296F
:102C430090036AE06023742255086422601B744277
:102C53005508644270CF7422120A5E124D5FFA74F3
:102C6300066A600574076A70BCE9A2E6501274052F
:102C7300120A5EAA82AB83120D6BE97003022BEB7F
:102C8300EE2412F516EF3400F517EE242A122A6B00
:102C9300242C1231FD12370DE0687003A3E0697034
:102CA3001C750900780912081F780912081FEE2401
:102CB3002E123204123218123C3212082E740B12E6
:102CC3000A5EE07003022D6212321812320C8A0A75
:102CD3008B0BA80AA90BE87001E97003022E067496
:102CE30006120A5E123213FAA3E03400FB740D2AB3
:102CF300F582E43BF583E0FAE82404F50AE9126877
:102D030094E82403F582E9126CBC6A600DEAF09042
:102D130081A1780C120A1912325D79047406120A21
:102D23005E123213FCA3E034008C82F583A3AA82E3
:102D3300AB8312146D8A0C8B0D8C0E8D0F850A825A
:102D4300850B837810120A197810790C1209E9504F
:102D5300030231E890819D780C12090D12325DEE69
:102D630024241231F2EE2430F50CEF125CEDEE2444
:102D73002F12689190036DE0A2E15003022E9F9001
:102D83000382E0FA74046A600874096A600302311A
:102D9300E8E508A2E54003022E4C123244C0E07479
:102DA30001120A5ED0E0123C5CC0E07402120A5EBB
:102DB300D0E0F07416120A5EE06401702074101201
:102DC3000A5E1232287003A3E0697011740E120AAE
:102DD3005E122B0A70077416120A5EE4F0850E82E7
:102DE300850F831206667404120A5EAC82AD837487
:102DF30009120A5EAA82AB83120BD9740412082E3D
:102E03000231E89003C7E064016003022D6274227B
:102E1300120A5E124D5F64067009E508A2E65003CC
:102E2300022D627412120A5EE064FF7004A3E06470
:102E3300FF70030231E8EEFCEFFD7405120A5EAA8F
:102E430082AB83120D8F0231E8A2E640030231E820
:102E53007422120A5E123234701E741C120A5EE06F
:102E6300640260030231E87405120A5EAA82AB832E
:102E73007900120ED90231E874076A60030231E85F
:102E8300741C120A5EE0640460030231E8740512E4
:102E93000A5EAA82AB83120ECD0231E87416120ABF
:102EA3005EE0601D8E828F83A3A3123C4E141253E7
:102EB30009A3123C4EC0E07416120A5ED0E0F07013
:102EC30006E508C2E7F508900382E0FA74046A6035
:102ED3000574096A7061740E120A5E125415700348
:102EE300A3E06B6017120F09E96402600F740A1202
:102EF3000A5EE05403640160030231E87407120AB6
:102F03005EE0701B123244C0E07401120A5ED0E02E
:102F1300123C5CC0E07402120A5ED0E0022DDF7442
:102F230022120A5E1232347003022E5D74076A6045
:102F3300030231E8022E837509007461550870039A
:102F4300023053E508A2E05070851682851783127C
:102F53004D397405120A5EAA82AB83120CEDE97037
:102F630055120EA9E9F5097416120A5EE0700F7482
:102F730010120A5E1232287003A3E069603BA909AC
:102F8300851682851783124D397405120A5EAA824B
:102F9300AB83120CF3E96013740E120A5E1260F92C
:102FA300120A5E1259DD751404800EE508C2E5F5B8
:102FB30008750900800353089FE508A2E5503C12F9
:102FC3003244C0E07401120A5ED0E0123C5CC0E0FF
:102FD3007402120A5ED0E0F0850E82850F8312061A
:102FE300667404120A5EAC82AD837409120A5EAA87
:102FF30082AB83120BD9740412082EE508A2E640B3
:10300300030231207403120A5E85820A85830B78DA
:103013000A12081BA909851682851783124D397474
:1030230007120A5EAA82AB83120D71740212082E74
:10303300E9F50970030231207422120A5E124D5F12
:103043006401600302312074104514F51402312029
:103053007407120A5EE06401703B7422120A5E1266
:103063004D5F6405702F7403120A5E8582088583A1
:1030730009780812081B7900851682851783124D7B
:10308300397407120A5EAA82AB83120D717402129D
:10309300082E0231E87416120A5EE07012742212CE
:1030A3000A5E124D5F64036003022E390231E81297
:1030B3000DEFE960030231E8740E120A5E1260F943
:1030C300120A5E1259DD780912081F741E120A5E75
:1030D300AC82AD83740F120A5E125507740A120A8A
:1030E3005EE0F9120D2F740112082EE9600F7514BA
:1030F300208E828F83A3A3124D5F543FF079007417
:1031030010120A5E124D39740E120A5E12323C60BE
:103113000674204514F514120EA9E9F50974031277
:103123000A5EE064FE7004A3E064FF7003750900A7
:10313300E508A2E740030231E8E50970030231E83C
:103143008E828F83A3A3A3A3E0FA7B001214FD8ACC
:103153000A8B0BEA7001EB70030231E88E828F83D6
:10316300A3A3E0F50CA3E0F50D750E00780C12088F
:10317300178E828F83A3A3A3A3E0FC7D0012419546
:1031830012082E7407120A5EE0851882851983F0EF
:103193007401120A5EE4F0A31251F185820C858357
:1031A3000D780C12081B781412081BE509F5087832
:1031B3000812081F85168285178312066A8E828F6E
:1031C30083A3A3A3A3E0F9740A120A5E124D39AADA
:1031D3000AAB0B120E67740712082EE96007AA0ADE
:1031E300AB0B121503742412082E7F100205F2F59F
:1031F3000EEF3400F50F22EE240EF582EF1268FE77
:1032030022F582EF125BAFF9221249D1120F8D2200
:103213001264ED2A22850A82850B83124B2D8516B3
:103223008285178322124E37851682851783E068BD
:1032330022124D63FA74046A221249D1120C6FE907
:1032430022EE242E125BAC85188285198312325428
:1032530022F0850A82850B83E022850A82850B830F
:10326300E50CF0A3E50DF0A3E50EF0A3E50FF022C6
:1032730074F212036EEAFEEBFF8C088D09122832FA
:103283008882F5831255079011E9E060119003736A
:10329300E06A7003A3E06B7005120C63805379003E
:1032A300120D0B8A828B83E5827002E583603AA359
:1032B300A3A3A3A3A3E05418602FE508241BF5825E
:1032C300E50912320012066AE5082412F582E509BF
:1032D30012320012066AEE24181232041232F71266
:1032E3000D3B740412082E800879001232F7120C79
:1032F3008702250D850A82850B83124B2DEE240B45
:103303001249CA2274EE12036E74EA1208918A0CEF
:103313008B0DEA2402F50EEB1231F50A0AFB120AB1
:10332300E38A088B09AE08AF09750901850C82850C
:103333000D83A3E0F508750A01AC0EAD0F85188265
:10334300851983AA82AB83121C957408120A5E1234
:103353005AE0740A120A5E7402F07413120A5EE4ED
:10336300F0E50C240AF50CE50D125CED9019C9E0AB
:103373007010EE7001EF700AE50870067509C3025C
:1033830034DD900382E0640860067509C20234D913
:10339300850C82850D83E0A2E1500EA2E3500575F2
:1033A3000A04800C750A038007A2E35003750A021E
:1033B300EE7001EF60648E828F83A3A3A3A3E0FA70
:1033C30074046A600574036A700C7404650A601CF3
:1033D3007403650A601674026A600574016A7020DA
:1033E3007402650A60067401650A700F8E828F830A
:1033F300123F36120A5E1259DD801F74026A60059D
:1034030074016A700A8E828F83123FEA121E62AAC7
:103413000EAB0F120AEF7E007F007408120A5EE003
:1034230064FE7004A3E064FF7038120AB9E97032D5
:10343300E50860179003BFE06402700F9019D01283
:103443003F36120A5EE8F0A3E98016850C82850DEB
:1034530083E05402F9120C997408120A5EEAF0A38D
:10346300EBF07408120A5E12357D700374FF6B7003
:10347300057509C78060E508F50B780B12081F85F1
:103483000C82850D83E0F9AC0EAD0F120BF77401BE
:1034930012082EE97040A90AAC0EAD0F7408120A87
:1034A3005E1236578A108B11AE10AF11EE7001EF1A
:1034B300601C74026508700BEE2405126CB954FB92
:1034C3004408F0740A120A5EE4F0F50980087408EF
:1034D300120A5E125AE0E508700F85188285198377
:1034E300AA82AB83121CB38010FCA90A85188285BB
:1034F3001983AA82AB83120EC7E9FAEE7001EF605B
:103503003EEE2405F8EF3400F9E50860128882895D
:1035130083E0D2E6F0740265087004E0D2E5F0853A
:103523000C82850D83E0A2E6500888828983E0D26D
:10353300E7F08E828F83A3A3A3A3A3A3E004F0E504
:10354300097003EA602FFC7D007A017B10121C775F
:10355300EE7001EF6007AA0EAB0F120AEF740812A8
:103563000A5E12357D700374FF6B600990035A1273
:1035730057E4121E6274160244761249D174FE6A2D
:103583002274F612036E74F71208918A088B09905D
:103593000382E0FA74036A600D74016A60087409B7
:1035A3006A60030236548508828B83A3AE82AF839D
:1035B300E060030236397C007D007A027B00121C36
:1035C30077E508240212448F1260751259DD79538E
:1035D300121CAD790012365E900382E06409600923
:1035E300900380125507120F877401125811740447
:1035F300900382F07401120A5EAA82AB83794A12A5
:103603001CA77401120A5EAC82AD837A787B031225
:103613001C9579007401120A5EAC82AD8390037627
:1036230012365790036DE0A2E35004D2F08002C239
:10363300F01257F98018FC7D007A037B10121C7777
:103643008E828F83E0F912365EE4900382F0120DCE
:10365300CB0257D61249D1120AD1229003801249C4
:10366300D1120BF122C082C083900342E07002A307
:10367300E07041900382E01206EF0003018A3605F1
:10368300993606A836B73690034AE07002A3E06085
:103693007690034A806B900346E07002A3E0606774
:1036A300900346805C900348E07002A3E06058906A
:1036B3000348804D900342E07002A3E06009123C8E
:1036C3004BFC74016C702379009003CE800909EAE6
:1036D30012630AEB1232001247677001EB70EF902E
:1036E30003CE125507120BDF801D74026C70051296
:1036F3000F5780139003F9E07002A3E06009900371
:10370300F91257E4121E62024837124E37900380B3
:103713002274F412036E74EB120891EA124B04FA4A
:10372300E9FB8A828B837808120A1978081209D96F
:10373300900383780812097F7F7F7E7F7C00750862
:1037430001750900750A00750B00EC7808120780F3
:1037530090038378081209469081A178081208A77C
:10376300602A7D009003CE801288828983A3A3E020
:103773006C70010D126309E91232001247D5700112
:10378300E970E6EDC39F5004EDFFECFE0CECC3942F
:103793001B40AB8A828B837808120A199081A17827
:1037A300081208A760459003837808120A378A82B3
:1037B3008B837808120A1985188285198378081271
:1037C3000A377404120A5E7401F0900389E0C0E0C2
:1037D3007405120A5ED0E0F07407120A5E123933E0
:1037E300805B120C1B900380125D0E9003CE124778
:1037F300D57001E96022900380126729E06A7003A3
:10380300A3E06B700A88828983A3A3E06E60D3125E
:103813006309E912320080D6EE900375F0120DB9F8
:10382300E9601AE4900382F090034CE07002A3E095
:10383300600B79C490034C1257E4121E6274150294
:1038430053AE74F012036E74EB1208918A828B8369
:10385300A3A3A3A3A3A3A3A3A31247D5FAE9FB7C22
:1038630000750C01750D00750E00750F00EC780CDA
:10387300120780850C08850D09850E0A850F0B90AC
:10388300038378081209469081A178081208A7607B
:10389300259019CFE0C0E08C08EA2508F582EB12E9
:1038A3006CBCFDD0E0C39D500D780C1209D9900378
:1038B30083780C12097F0CECC3941B40A490038300
:1038C3007808120A199081A178081208A76039852F
:1038D30018828519837808120A377404120A5E74F1
:1038E30001F07407120A5E7401F0900389E0C0E0EE
:1038F3007405120A5ED0E0F07407120A5E123933BF
:103903007406900382F08023E4900382F0FCFD7A36
:10391300047B10121C7790034CE07002A3E0600B51
:1039230079C490034C1257E4121E627415025301BA
:10393300E412608A121CBF2274EC12036E74ED123F
:1039430008918A828B83A3123C13EA2408124B0A40
:10395300FEE9FF851882851983AC82AD838E828F41
:1039630083123C3BA3A3A3A3125507120DDD8518B5
:1039730082851983E070768E828F83E0C3940B4037
:103983006C850882850983A3A3A3A3A3A3A3A3E0B0
:1039930064027059900382E0FAE5082410F510E5FB
:1039A300093400F511E5082409125CE974026A6020
:1039B3004174066A603C900342E07002A3E0600732
:1039C300123C4B6401605474086A600574046A70A5
:1039D3001C7402120A5EE0F97407120A5EAC82AD2F
:1039E30083850C82850D83125507120DE374130230
:1039F300646C900342E07002A3E0701F750A0078C4
:103A03000A12081F780A12081F8510828511831273
:103A13003C05124497123C3212082E9003CE1269D1
:103A2300289003CE126464E508240DF50EE509120F
:103A330031F580318E828F83E0F8A3123C05E06874
:103A43007003A3E06970128E828F83A3A3E0FA85CB
:103A53000E82850F83E06A606B8E0A8F0BEE126312
:103A63000AEF126925EE7001EF70C97A187B001214
:103A730014FD8A128B13AE12AF13EE7001EF7003B5
:103A83000239F07C18126A7D125AD7EE240C1231D7
:103A9300FD74FFF0E508240B1268D3123BFC126B94
:103AA30034C4123BFCA3A3F09003CEE07002A3E066
:103AB30070059003CE800AE50A12630AE50B123201
:103AC3000012673C7401120A5E123C1DA3F07402DB
:103AD300120A5E123C1DF0850E82850F83123C0E86
:103AE300A3123C5C123BF3125314240DFAEF34007F
:103AF300FB7402120A5EE06401600E7407120A5E30
:103B0300AC82AD83121C9580097C087D0079FF127D
:103B130014677412120A5EE0C0E0EE24151231FD40
:103B2300D0E0123C53FC901A3DE0C39C40030239A1
:103B3300F01268B0E509123200A3E05480F9E47092
:103B430001E97009901112E070030239F07D00EE73
:103B5300240CF8EF3400F9EE240BFAEF3400FB9059
:103B630003BFE06402701D8A828B83E0F50AC39C65
:103B7300500D7405120A5EE0C39405401B801AE5DC
:103B83000A6C70157405120A5EE0C0E088828983AE
:103B9300E0FCD0E0C39C50010D7404120A5EE060A7
:103BA30020ED601D850882850983126092ECF0A3E5
:103BB300ED123C538A828B83F07405120A5E124D18
:103BC300547406120A5EE0600D74018E828F83A323
:103BD300A3A3A3A3A3F07404120A5EE07003023943
:103BE300F074018E828F83A3A3A3A3A3F00239F001
:103BF300F8A3E0F98E828F8322540F8E828F83A3E2
:103C0300A322E0F9850C82850D83221240C5A322ED
:103C1300A3A3E0F508A3E0F509221240C58021859E
:103C23000C82850D83123C3B124B298A828B8312B3
:103C330049D1120EAF740222E0F98A828B8380028B
:103C4300A3A3A3A3A3A3A322900342124FCBE022D7
:103C5300F0851082851183E022F0850C82850D8327
:103C6300E02274F612036E74C9120891900382E085
:103C730064086062900393E0F82431F582E4341A17
:103C8300F583E0FA900364F0E82437F582E4341A0C
:103C9300F583E0FB900362F07508FF7509FFEA788E
:103CA300081209A5E508F4FCE509F4FD3395E0FEE7
:103CB30090038B123E057508FF7509FFEBC39A78D5
:103CC300081209A5E508F4FCE509F4FD3395E0FEC7
:103CD30090038F123E05E41258077904121CAD902D
:103CE3000393E07009741E120A5E74018006741E49
:103CF300120A5EE4F0740F851882851983F0901917
:103D0300CE1260867946121CAD7401120A5EE4F08D
:103D1300901A1DE0C0E07402120A5ED0E0F0900336
:103D230070E0C0E07403120A5ED0E0F07404120A7B
:103D33005EE4F07405120A5EE4F07407120A5EE4AE
:103D4300F0900393E0FAC3940F74065006120A5ED0
:103D5300EA8005120A5E740FF07C947D03740812E6
:103D63000A5EAA82AB83121C957C037D0079FF74E3
:103D730010120A5EAA82AB831214679003CCE0C0D0
:103D8300E07413120A5ED0E0125907120A5E125849
:103D9300F6120EB5900387E0C0E0741C120A5ED0E1
:103DA300E0F0900388E0C0E0741D120A5ED0E0F0FA
:103DB300900375E0C0E0741A120A5ED0E0F090033D
:103DC30080124B177418120A5E1259DD7420120AFE
:103DD3005EE4F090038AE0C0E0741F120A5ED0E054
:103DE300F07434120A5EE4F07429120A5EE4123E9F
:103DF300107414120A5EAA82AB83121CC5743702B4
:103E030057D8ECF0A3EDF0A3EEF0A3F022F07A7311
:103E13007B037953123E1B22121CAD7A767B037906
:103E23004B121CAD22C082C0838A828B83A3E060C5
:103E330007E4900382F0804A7408900382F09003B1
:103E430093E0701F90034CE07002A3E0600B7900D5
:103E530090034C1257E4121E62900380124D397A7C
:103E630005801A7900120BEB900373124D397A0611
:103E73007B00121C77900376124D397A047B001273
:103E83001C7702483774F412036E74EA120891EA3D
:103E93002402FEEB3400FF0A0AFB120AE38A088BB2
:103EA30009EA7001EB7003023F318A828B83124F60
:103EB300AD600F74026A600A74036A600574046A71
:103EC300706CEEFCEFFD851882851983125EA412D7
:103ED3003F36120A5E1259DD740A120A5E7401F04B
:103EE3007413120A5E126085121CB9890AAC0A7D2A
:103EF300007A077B00121C77850882850983A3A3B8
:103F0300A3A3A3E0C2E0F07401850882850983A31B
:103F1300A3A3A3A3A3A3A3A312690312021DE8856A
:103F23000882850983A3A3A3A3A3A3A3A3F0741661
:103F33000253AE124E3774082274F712036E9003C5
:103F4300CEE0FAA3E0800CEA2416126922121503CC
:103F5300EEFAEFFBEA7001EB70ED9003CEE4F0A311
:103F6300F002499174F412036E8A088B09EA240B58
:103F7300FEEB3400FFEA2413F582EB126CBC6403FE
:103F83007009EEFAEFFB120AE3800CE0640270544E
:103F93008E828F831268DFEA7001EB6047EA2406A2
:103FA300F8EB122837850882850983A3E07007E4BC
:103FB30088828983802D64F16005E064E1701A884A
:103FC300828983E0640170118A828B83123FEA1233
:103FD3001E62EEFAEFFB120AEF850A82850B83E07D
:103FE300600214F00253B11249D190035A1257E8F8
:103FF3002274F112036E8A088B09ECFEEDFF890A25
:104003008A828B831264998A828B831240C4F0EE76
:10401300F8EFF9A30EAF838A828B83A3A3E0C45482
:10402300F0FA88828983E04A1240CE1240C51240DA
:10403300C9E0333354FCFA8E828F83E04A1240C9BD
:10404300A3E033333354F8FA8E828F83E04AF008C7
:10405300EFF9A30EAF838508828B83A3A3A3A3A346
:10406300A3E0A2E0E492E013135480FA88828983E8
:10407300E04AF0E5082407F50CEB125CED750E0041
:10408300780C1208177C0812512012082E12648330
:10409300E508240F125CE9780C1208177C0312510F
:1040A3002012082EE50AC3940F4011E5082412F5E7
:1040B30082E509123200123C0EA3A3F07F0702052A
:1040C300F2A3E0023BF71240CEA322F08508828BD5
:1040D30083A3A3A32274F112036EEAFEEBFF890A02
:1040E3008C088D098E828F83E08C828D8312530915
:1040F300AE82AF83E01253C61241A7C41253C61255
:10410300419BE054038C828D831241A5A2E2E49289
:10411300E08C828D831241A4131313541F1253C6D0
:10412300A31241A4A2E7E492E08C828D83A3A3A30C
:10413300A312419B8E0C8F0D750E00780C1208177D
:104143007C087D00E508240712418F12082E1264B3
:10415300838E0C8F0D780C1208177C037D00E50805
:10416300240F12418F12082EE5082412F8E50934B2
:1041730000F9E50AC3940F400A8E828F83A3A3A399
:10418300E08001E488828983F00240BFFAE50934C4
:1041930000FB12145B740322A3A312530D0EAF830F
:1041A30022A3A3A3A3F002653474F412036E74F97B
:1041B300120891EAFEEBFF900342E07002A3E06075
:1041C30010123C4B64027009EEFAEFFB120F5180A0
:1041D30062900380E06E7003A3E06F705674016910
:1041E30060097A947B0312651670487A007B021289
:1041F30044A17001EB703C9003837808120A19857F
:1042030018828519837808120A37900389E0C0E081
:104213007404120A5ED0E0F07405120A5E7401F0B1
:104223007406120A5E7402126086120B9DE960988E
:10423300120BA374070253AEE0F902483774F61267
:10424300036E9003E0E0701F7C0079017A007B002D
:10425300120E19EA7001EB600E8A828B83E0700202
:10426300A3E06003120D5F0257DBC082C0831246D6
:10427300D2401079FF120E13E9FA902273E493C32C
:104283009A500479018002790002483774EE1203D0
:104293006E8A088B09890D750E00EA2408F50AEB6E
:1042A300124D2DE0F9120E1F8A108B11AE10AF11B3
:1042B300750C01EE7001EF6003024355850882859A
:1042C3000983A3A3124D4A1251F9125507120E077F
:1042D3008A0A8B0BAE0AAF0BEE7001EF7003024438
:1042E3006F8E828F83A3A3A3A3E4F0A3F0E5082436
:1042F3000B12448FE0C0E0EE240B1231FDD0E0F04E
:10430300120F15EE240C125D07E508240EF582E565
:1043130009124B141231FA1259DD750E01EE2406FF
:10432300F8EF1246E1E0547FF0A3E054FC12462775
:10433300E0540460030243DD901A161251EA740735
:1043430078081209A58A828B83E04508F0A3E0452B
:1043530009F0EE24061244868C828D83125507746D
:10436300805AF50874035BF50974077808120A2864
:10437300E508F510EE2404122A6B240912447EE5A5
:104383000D606074028508828509831241A8240D9B
:10439300124FB7E0A2E2500F90036E124B17850A3B
:1043A30082850B831259DDE510700302443C747F50
:1043B3005AFA74FC5BFB74FF2510F51074FF34008C
:1043C300F511740778101209A5E5104AF8E5114BA9
:1043D300F98C828D831259DD805FE04480F0A3E085
:1043E300024354E5107005750C00804DEA542060BB
:1043F300151214798A10747F5510F8745F28850A92
:1044030082850B83801BEA5410600E1214798A1084
:10441300740F5510F8740A80E4850A82850B83743F
:1044230001F0A3E4F07404850882850983F0124443
:104433009D7001EB70031257C97401650E703085CE
:104443000A82850B83124497E0F9EEFAEFFB120E12
:104453000DE9601BEE240C1231FD1247677001EB6E
:104463006003121503EEFAEFFB121503750C00A996
:104473000C800312082E7F0A0205F2F508EF3400C0
:10448300F50922F8EF124B0CFCE9FD22FAE5093499
:104493000002462E124B2D025B9C7A207B00900378
:1044A300CDE0F91215C9EA2274F612036E74F712FD
:1044B30008917E00120E1FEA7001EB70030245782B
:1044C3008A828B83A3A3A3A3A3A3A3A3A3E06406CA
:1044D30060030245788A828B83A3A3A3A3A3A3A328
:1044E300E0FF8A828B83124FC5E0C0E07408120A92
:1044F3005ED0E01246271257E4125E1E1259DD12F7
:104503000E3D74085FF9E47001E9606785188285E0
:104513001983124D397A007B00120E01EA7001EB08
:104523007051900380124B1B121CDD7C007D007ABE
:10453300007B0080288E828F83125B91E064FF7082
:1045430004A3E064FF602C900380124D391219E339
:10455300E9641A601E7C007D00EEFAEFFB120E0187
:104563008A088B09AE08AF09EE7001EF70C77900B6
:10457300121CE37E01EEF90257D674F712036EEABA
:104583007001EB70059003E180068A828B83A3A3FD
:104593001247677001EB60288A828B83A3A3A3A3CE
:1045A300A3A3A3E05408F9E47001E960DDEC700112
:1045B300ED6011124D5B6C7003A3E06D70CC800451
:1045C3007A007B0002499174F212036EEAFEEBFF5C
:1045D300890A8C088D097A107B001214FDEA700198
:1045E300EB603CE48A828B83A3A3A3A3A3A3A3A32B
:1045F300124634E50A12499C125ACF8A828B83A34E
:10460300A3A3A3E4F012463412462512673CEA241E
:104613000CF582EB126B2E124626A3A3F0A3F00235
:10462300250DA3A312462B22F08001FB8A828B83E4
:1046330022A31249A0A3A32274F512036EEAFEEB90
:10464300FF890A8C088D09EE7001EF6056740165CD
:104653000A70147901120E13E9FA90226BE493C3E2
:104663009A500F791180657404650A70301246D22E
:1046730040F18E828F83A3A3A3A3A3A3A3A3A3E544
:104683000A125322126D9CE4F0A3F09003E1E07050
:1046930002A3E09003E16024124B17800A740265C1
:1046A3000A60CF79C18025E824020808E91246E1AF
:1046B3001247D57001E970EF8A828B8312673C122F
:1046C300449D7001EB70031257C979000260807931
:1046D30004120E13E9FA902264E493C39A22124B54
:1046E3000CFAE902462EC082C083E9FC79009003EC
:1046F300E1801D8A828B83A3A3A3A3A3A3A3A3A364
:10470300E06C600574FF6C7001098A828B83A3A33C
:104713001247677001EB70DB02483774F712036EC0
:10472300EA7001EB70059003E180068A828B83A314
:10473300A31247677001EB60248A828B83A3A3A330
:10474300A3A3A3A3A3A3E06970E1EC60148A828B03
:1047530083E0240D12652EA2E240D080047A007B10
:10476300000249911249D1EA22C082C0839003E139
:1047730080068A828B83A3A31247677001EB6012C2
:104783008A828B83A3A3A3A3A3A3A3A3E06970E259
:1047930080047A007B00024837C082C0839003E123
:1047A300800688828983A3A31247D57001E9601B21
:1047B30088828983E0FCA3E0F5838C82E06A70033E
:1047C300A3E06B70DDE8FAE9FB80047A007B00026A
:1047D3004837124E37E82274F112036E8A0A8B0BA4
:1047E3008C0C8D0D750800750900EA7001EB6031C2
:1047F3009003E180068E828F83A3A312482B70015E
:10480300EF601EAC0CAD0DEEFAEFFB850A82850B53
:1048130083121E62E9640170DCEEF8EFF9880889FF
:1048230009AA08AB090240BFE0FEA3E0FFEE227431
:104833000212082ED083D0820207C479000207C473
:1048430074F712036E9003E1124B177C007D008016
:1048530007E8FCE9FD124B17E87001E9603AE82428
:1048630002F582E9123200EA687002EB6970E21223
:1048730055079003E1126928E86E7002E96F700929
:104883009003E1EAF0A3EB800EEAF8EBF98C828D5A
:1048930083A3A3E8F0A3E9F002499174F712036E2E
:1048A300EAFEEBFFEE7001EF6016120E371249A815
:1048B300EA7001EB6003121503EEFAEFFB12150326
:1048C30002499174F712036E124D5BFCA3E0FD9055
:1048D30003E1124B177508007E00803388828983B9
:1048E300A3A3A3A3A3A3A3A3A3E0640570180E88A3
:1048F300828983E0FFA3E0F5838F82E06C7003A3DA
:10490300E06D7002050888828983A3A3124B17E820
:104913007001E970C7EA2404F8EB3400F9902261CE
:10492300E493FCE508C39C500B902262E493FCEEF5
:10493300C39C400B888289837401F0A3E4800A90AE
:10494300036E124996ECF0A3EDF074058A828B8313
:10495300A3A3A3A3A3A3A3A3A312499CE0F0A3E04F
:10496300440812531B8A828B83E064FF7004A3E024
:1049730064FF600E900380124D39121CD7E9641A4C
:1049830070057901121CE38005741F12082E7F0144
:104993000205F2124B2D0267311249A022F08A82DE
:1049A3008B83023C448E828F83E0241C1249D7FA06
:1049B300A3E0FB1215038E828F831249D1121503D4
:1049C300EE240C1249CA22F582EF3400F583E0FA93
:1049D300A3E0FB22124FBFE022C082C083EAFCEBBC
:1049E300FDEC7001ED70047905804CEC24FBF5823D
:1049F300ED34FFF583E07002A3E07011EC24FFF8BF
:104A0300ED34FFF988828983E064FF600512148521
:104A130080D59003CD124D54902266E493F97AE346
:104A23007B031214B5E96401700B7A007B201257E3
:104A3300CD79008002790402483774F412036EA220
:104A4300AFE492E0F508C2AF9003E312482B700184
:104A5300EF603DEE24FBF582EF34FFF583E0700257
:104A6300A3E07A007B209003CD60051257D0800528
:104A7300E0F91214C1750A00750B00780A12081BBD
:104A8300EEFCEFFD7AE37B031214AF740212082EDF
:104A9300E508A2E092AFEEFAEFFB0253B174F7120E
:104AA300036E74E1120891EA2413F582EB126CBCD5
:104AB300C0E07411120A5ED0E0124E2E7409120A7D
:104AC3005E124E27124B04FCE9FD8C828D83124B40
:104AD30017740B120A5E124E272414F582EB126C24
:104AE300BCC0E07412120A5ED0E0F0EA240EF58234
:104AF300EB1232078C828D83124B1B120CF302498B
:104B03008C2404124B0A22F8EB3400F9E822F582D4
:104B1300EF1268FE124E3722124B2D85188285192B
:104B230083AA82AB8322A3A3A3A3E0FCA3E0FD2279
:104B330074EE12036E74FC120891EAFEEBFF120D81
:104B4300EFE960057911024D28EE2412F510EF34D8
:104B530000F511EE2402F50AEF124D2D1261F860F3
:104B630008E4851082851183F0EE24131251297015
:104B73000C90226EE493850C82850D83F0EE241154
:104B8300F8EF125CF270199011E0E0600D90036A87
:104B9300E0700D8E828F83E07006E488828983F053
:104BA300EE2414080808EF1268D6700C90035F1205
:104BB3004D5490035FE004F0EE240F12447EEE2484
:104BC3000B1231F290036DE0A2E1504F850A82850A
:104BD3000B831261F860448E828F83E0600B850E35
:104BE30082850F8312284D6032850882850983E010
:104BF3005440601A850C82850D83E06401700F8533
:104C03000882850983E054FBF0A3E0F0800DEEFAFF
:104C1300EFFB120E55E97003024B478E828F83E040
:104C23006401701A850E82850F83124D5F640270D2
:104C33000D850882850983E04440F0A3E0F08508F0
:104C430082850983E05440705290036DE0A2E150E5
:104C53004A750C00780C12081FEE2406FCEF340092
:104C6300FD850A82850B8312550785108285118382
:104C7300E0F9120D2F740112082EE9600CE485107F
:104C830082851183F0124D3DF079008E828F83125D
:104C93004D4A12323C6004124D3DF085188285194D
:104CA30083AC82AD83EEFAEFFB120E6D8A0C8B0D93
:104CB300850A82850B83124D39EA7001EB60628E9F
:104CC300828F83E0C0E07401120A5ED0E0F07402C8
:104CD300120A5E12673C7401120A5E85820A85839A
:104CE3000B780A12081B85088285098312066AEE6F
:104CF300240E126CB9F508780812081F900373127A
:104D0300066A7407120A5EE0F9120E677407120846
:104D13002EE9FE74106E700BAA0CAB0D12150380F6
:104D2300027E10EEF97404024476126894850A82B6
:104D3300F583221268FB124B2D2285088285098395
:104D4300E04420F0A3E022124B29850A82850B83DD
:104D530022E088828983F0228A828B83124D632228
:104D63001257ECE022C082C08374DE1208918A825B
:104D73008B83A3A3A3A3124B17740E120A5EE8F04E
:104D8300A3E9124E2E740C120A5E124E27240DF55F
:104D930082EB126CBCC0E0741A120A5ED0E0F0EA37
:104DA3001268B2EB124B147420120A5E124E2724BF
:104DB30015F582EB126CBCC0E07408120A5ED0E0F9
:104DC300F0EA241CF582EB124B147412120A5E12E1
:104DD3004E272411F582EB126CBCC0E07409120A51
:104DE3005ED0E0F074FF851882851983F074011298
:104DF3000A5E74FFF07402120A5E74FFF09081A1E0
:104E03001206667404120A5EAC82AD837407120A3A
:104E13005EAA82AB83120BD9740412082E79007434
:104E230022024834E8F0A3E9F0EA2212462BA3A3B6
:104E3300124E3722124E3B22E0F8A3E0F92274EA25
:104E430012036E74EE1208918A148B15ECFEEDFFBB
:104E5300890F7428120A5E126464742A120A5EE0CF
:104E6300F50C742B120A5E123C15742D120A5EE0C7
:104E7300F512A3E0F513750D107A1E7B001214FDD5
:104E83007402120A5E125D0E7402120A5EE0700270
:104E9300A3E07003024FA1750E00EEFAEFFB120AB6
:104EA300DD8A828B83E5827002E5836016124FAD43
:104EB300600574036A700CE5085440700674044579
:104EC30009F50974045509F9E47001E96003750EE5
:104ED30001851882851983AA82AB8379501254FE07
:104EE3007402120A5E124FC5A3125D0E7410120AE9
:104EF3005EE50AF0A3E50BF07402120A5EE0240BF0
:104F0300124FB77402F0120A5E124FC57402F01208
:104F13000A5E1257E412673C7402120A5E125F2E95
:104F2300E50FF07402120A5EE0240C124FB7E50C91
:104F3300F07402120A5EE0241C124FB7E514F0A3CA
:104F4300E515F07408120A5E125ACF740A120A5E4B
:104F5300E50CF0851282851383C082C083740D1221
:104F63000A5EAC82AD83D083D082740312075FA93B
:104F73000E7402120A5EAA82AB83120DF5E9640174
:104F83007011E50E6008A90C120E1F120E43750D69
:104F930000800B7402120A5E125507121503A90D45
:104FA300741212082E7F0E0205F2A3A3A3A3E0FA44
:104FB30074016A22124FBB22124FBF22F8A3E002F0
:104FC300672E124FCBA3A322125E19023C4574EA4B
:104FD30012036EEAFEEBFF8C088D098E828F83A38A
:104FE30085820A85830B7408F0EE2416125129601A
:104FF300097410850A82850B83F0EE2417F510EFF0
:10500300125137600A850A82850B83E02408F0EE8B
:105013002411F8EF1268D66005750E0E8003750E25
:1050230000EE240DF514EF3400F515850A82850B87
:1050330083E0851482851583FAE02A250E8C828D00
:1050430083126B35601390036BE0F9121DC1E9FA0B
:10505300850882850983E02AF0850882850983E033
:10506300FAC3947540097508007509000251197B4C
:10507300001267EA7001EB7003025119EEFAEFFBBD
:10508300120E73EA850882850983125D0FEE2402EE
:10509300F8125B9712514CF0EE24040808125B9748
:1050A300A3A312514CA3A3F0EE2413125142F0EE2A
:1050B3002414125142A3F07A08850C82850D83E0F3
:1050C300600FEE2418124D36E508240812645A7A4C
:1050D30010851082851183E0600FEE241A124D367D
:1050E3008A0CE508250C12645AEE240B126CB9F5F0
:1050F30010A3E0F5117512007810120817851482B9
:10510300851583E0FC7D0012550BE50E28FAE43982
:1051130012512512082EAA08AB09024FA87D00EEF2
:10512300FAEFFB024195F50CEF3400F50D850C8287
:10513300F583E0223400F511851082F583E0221215
:1051430068FB125156A3A3A322A3A31268A5A3121B
:10515300515622E0850882850983A3A3A32274F60E
:1051630012036E8A828B83E0FC9003701251EA74FF
:105173000278081209A5E5084CFCAD09EA241212CD
:1051830051E4740678081209A5E5084CFCE5094DBD
:10519300FDEA24111251E4740978081209A5E509FE
:1051A3004DFDEA24161251E4740B78081209A5E5A3
:1051B300094DFDEA24171251E4740C78081209A56D
:1051C300E5094DFD8A828B83A3A3A3A3A3A3125155
:1051D300EA740A78081209A5ECFAE5094DFB0257AF
:1051E300DBF582EB1268FEE0F50875090022F08515
:1051F300188285198322E0F9025B9C74F012036E16
:105203008A088B09ECFEEDFF750A01E9C394085087
:105213000579000252FDE98E828F8312531B120E11
:105223007FE96003750A00125550C0E0EE241112A5
:1052330031FDD0E012554BC0E0EE24121231FDD007
:10524300E0125309A882A98312551D6010E50824B2
:1052530008FAE5093400FBEE241312532E8E828FD5
:1052630083A3A3A3A3A3A3A3A3E060158882898335
:10527300E0FAE5082AFAE5093400FBEE2415125397
:105283002EEE2419126B2BEE241B126B2B126B3494
:10529300F50B8E828F83E0F50CC3950B50030252FE
:1052A30014850B0EE508250EF8E5093400F9EE2404
:1052B3001DFAEF3400FBEAFCEBFD8C828D83125365
:1052C300142417FAEF3400FB8A088B09E50CC39505
:1052D3000B8A828B83125322A3A3E0601B8A828BE7
:1052E30083E024F2F0E8240EF8E9125527FA850842
:1052F30082850983E0C39AF0A90A8005740812081D
:105303002E7F080205F212530D22F08E828F83A3A3
:1053130022E8F0A3E9F0EE2212462B1249D1221221
:10532300532622F08E828F83023C461268FBEAF0FA
:10533300A3EB1268A5E02408F02274F412036E8A2A
:10534300088B09EA1253CDF0EA1313543F1253C6E4
:10535300A3A3A3F0EAC413131253CDA3A3F0E48CC5
:10536300828D83A3A3A3A3A3F08A0A8B0B7409786A
:105373000A120A281253BBF0EC2418F582ED126BC3
:105383002E8A0A8B0B740B780A120A281253B6F072
:105393008A0A8B0B740C780A120A281253B6A3F0EC
:1053A300740D7808120A28A908800312082E7F04B6
:1053B3000205F21253BBA322E50A54018C828D83AA
:1053C300023C44540F8C828D832254038C828D8340
:1053D300A3A322C082C083790090036A125B7EA3D9
:1053E300A3A3A3E0600FEC70268A828B83A3A3E0C0
:1053F300701D09801AEC60178A828B83A3A3A3A371
:10540300A3A3A3A3A31254157003A3E06B70E30239
:1054130048371249D1900373E06A2274EE12036E87
:105423008A088B09890CECFEEDFF8A828B83125567
:1054330007120E7F125550C0E0EE24111231FDD039
:10544300E012554BC0E0EE24121231FDD0E01253AE
:105453000985820A85830B12551D6010E50824080F
:10546300F8E5093400F9EE241312553D8E828F833B
:10547300A3A3A3A3A3A3A3A3E0600912550BEE2444
:105483001512553DEEFAEFFB120E85E9F50D706628
:10549300850A82850B83E0F50EF510E5082510FAE1
:1054A300E5093400FBEE2417F8EF3400F988088986
:1054B30009EE241D1244868E828F83A3A3A3A3A384
:1054C300A3E07012EAF8EBF98C828D831259DDE5C3
:1054D3000CC3950E8019EA240EF8EB125527FB85B1
:1054E3000A82850B83E0FAE50CC39A24F2C39B85F9
:1054F3000882850983F0A90D024479121CA7851837
:10550300828519831249D122850A82850B83E0F8AB
:10551300E50828F8E5093400F9227408125326A394
:10552300A3A3E0223400F98C828D83E8F0A3E9F091
:1055330090036BE0F9121DC1E9221268FBE8F0A3A6
:10554300E91232542408F022125CDB80D2850882EF
:10555300850983A3A3125585E0F9EA8E828F83A37D
:10556300A3A3A3A3A3A3A3A312558A125585A3A3FD
:10557300E0F9EAF8EE240B1268FBE812558AA3A3BC
:10558300E022E0FA025157F0A3E9125CDF22C08265
:10559300C0837AE87B0379E2121CA77AE87B0302D3
:1055A3004837C082C083900373125507024837C03F
:1055B30082C08374FE120891851882851983AA829A
:1055C300AB83794B1254FE024832C082C083794ABE
:1055D300121CA702483774F612036E9003F0E0FE24
:1055E30004F0EEF9120E1FEA7001EB70EEEE60EBC1
:1055F300F90257DB74EC12036EEAFEEBFF8C128D9B
:1056030013890E7414120A5EE0F50A7415120A5E09
:10561300E0F50B750C00750D00120F8D8A088B09D0
:10562300EA7001EB7017E50B600302570DA90EAC8E
:1056330012AD13EEFAEFFB120F9F0257C6EA2402D4
:10564300F8EB3400F9E50E601688828983E0FAE509
:105653000E2AFAE4340013EA13F070037401F0E540
:105663000B70030256F89003FBE07002A3E060099D
:105673009003FB1257E4121E62E50A700EE48508DC
:1056830082850983F0750D0102572690036DE0A210
:10569300E1400302572E9003FDE07002A3E0600F88
:1056A300A90AAA08AB099003FD1257E4121E6285EA
:1056B3000882850983E0FA902267126913EA98E465
:1056C30099C365D0335009850882850983E004F0C6
:1056D300850882850983E0FA902267E4936A704320
:1056E300750C01EEFAEFFB120D41E4850882850982
:1056F30083A3F0802E901A3DE0C0E088828983E086
:10570300FAD0E0C39A501C0256887401650B7013DB
:10571300E50E600F90036DE0A2E15015EEFAEFFB8A
:10572300120D4190036DE0A2E140257401650B70F9
:105733001FE50A60169003FFE004F0C0E0901A171B
:10574300E0FAD0E0C39A4008750C01E49003FFF03F
:10575300E50D7004E50C606B90036DE0A2E1503041
:10576300EEFAEFFB120ADD8A088B09A808A909E8FB
:105773007001E9601BE82405F582E9123200E50DAA
:105783006004E0C2E0F0E50C6039E0D2E0F08004B0
:10579300E50C602F90036DE0A2E15012EEFAEFFBEF
:1057A300120AD7E96008EEFAEFFB79008012900342
:1057B30076E06E7003A3E06F7009EEFAEFFB7901F8
:1057C300120C0902646F7A207B009003CDE0F9127A
:1057D30014BB22740912082E7F020205F28E828FF7
:1057E300831257E8221257EC221257F022E0F8A353
:1057F300E0F583888222A2F0E492E01258077952FE
:10580300121CAD22851882851983F0024B2412588D
:10581300077942121CAD2274F412036E74EC120861
:10582300917401120A5EAC82AD831259449003BF96
:10583300E0640270367A047900120AC5126899EAA4
:1058430098EB995017120AB9E970117405120A5EA0
:105853007401F07407120A5E740180527405120A0F
:105863005EE4F07407120A5EE480439081A1780835
:10587300120A1975830375828B78081208A76004CE
:105883007A0180027A007405120A5EEAF09081A11F
:105893007808120A1975830375828F78081208A78E
:1058A30060047A0180027A007407120A5EEA1259D0
:1058B30007120A5E1258F67407120A5EE0700B7440
:1058C30005120A5EE07003E4800274018518828584
:1058D3001983F09019CAE09019C9FAE05AFA8518A9
:1058E30082851983E05A12580D7941121CAD741444
:1058F3000253AEAA82AB83120DD77AD07B037945CC
:10590300121CAD2212593974012274F712036E74FA
:10591300ED120891E9FE9003CC125F3512594474DD
:1059230012120A5EEE1259398518828519831258AC
:10593300F6741302498EF09019CEE0F97CD07D0302
:10594300229019CEE0F97AD07B03120DDD2274F494
:1059530012036EEAFEEBFF9019D0E064FE7004A31D
:10596300E064FF705F7A16125B697001EB60557437
:10597300018A828B831268B7A3A3A3A3A3E0600465
:1059830074028002740188828983125EAE8A828BDC
:1059930083A3A3A3A3A3A3A3A3A3125BA3FCA3E037
:1059A300FDEA24020A0AEB12645DE5082413F5827A
:1059B300E509126B2E1259CAEE240B1231FD126047
:1059C3006E1259DD0253B1AA08AB099003CDE0F979
:1059D30012148B22E0123BF3A3A3E8F0A3E9F02215
:1059E30074F212036E74FD1208918A088B09890AF6
:1059F3008C0B7401120A5E7404125D148A0C8B0DF5
:105A0300AE0CAF0DEE7001EF7003025AA0EE240B43
:105A1300124B11740788828983F0A3A882A983E5B6
:105A230008240812448F125AC48A828B83A3125A01
:105A3300C4850882850983A3A3A3A3A3A3A3A3A3C4
:105A4300A3124D54EE2416125ABCEE24181231FD43
:105A5300125ACFEE2417F582EF12630FEE241A12B7
:105A63005D07125AAB1268F37403650A600674018A
:105A7300650A70087440F0A3740480057440F0A3B1
:105A8300E4F09019D01259D77401650B7006EE2417
:105A930011126B2BEEFAEFFB120B9180027910902F
:105AA30019D0125AE0022508EE2413F582EF125A98
:105AB300B5223400F583740122F582EF125AB5F052
:105AC30022E088828983F0A308A98322E508F0A352
:105AD300E509F022A3A3A3A3A3A3A3A3A374FEF0A6
:105AE300A374FFF02274F412036EEAFEEBFF7A0054
:105AF3007B04122514125B871259DD74099003820B
:105B0300F0120E918A088B09AC08AD09EE2413122A
:105B130031FD125507126516640170477A0F125B47
:105B2300697001EB603D74028A828B83F0EE241D61
