:020000040000FA
:060000000209E90201B350
:03002B000207CFFA
:030033000205873C
:0300430002070CA5
:030053000200F0B8
:03006B000205602B
:100083000201470101050301970F970F970F970F80
:10009300530E4D0E970FCE1B00000000301C0000C6
:1000A30000000C0000000C00010000E7100000003D
:1000B300000000831100000000000000006504FF41
:1000C30001010100E60C000000360DE80364006442
:1000D30000B801020200080000050107051E020521
:1000E3001E0A03B80B01FFFF0202020612C0E074EE
:1000F300F21203C7A2AFE492E0FED2AFE5A7FAE59E
:10010300A1FBEA5B5410600812172975A1EF802A3E
:10011300EAA2E0C0D0EBA2E092F012093915818285
:10012300F05017906198E0FA901010E0C39AA2D2B1
:1001330065D0335002EAF075A1FEEEA2E092AF7FE4
:100143000102047EC0E074F21203C7A2AFE492E09E
:10015300FED2AF9061A4E0FA759B00E5915A540872
:1001630060087591F712176B802AE5915A54106055
:10017300087591EF121771801BEAA2E0C0D0E591D8
:10018300A2E092F0120939158182F05007E0C2E033
:10019300F01218A99061A3E0FAE5E95A5404600E3D
:1001A30012187F75E9FB906193E0A2E640F2808A22
:1001B300C0E074F21203C7A2AFE492E0FED2AF90A4
:1001C30061A5E0FAE5BF5A5404600675BFFB121837
:1001D300C102013DC3E498F8E499F912021880269C
:1001E300C3E49AFAE49BFBE920E7E9120218E498D6
:1001F300F8E499F922C3E498F8E499F9120218E4AF
:1002030098F8E499F9C3E49AFAE49BFB22EB20E71C
:10021300CFE920E7E0B90010BB0008E88AF084F8D2
:10022300AAF022E4FBC8FA22EB70227B10C833C881
:10023300C933C9335007C39AC3DBF280069A50010E
:100243002ADBEAC833F4C8C933F4C9FA2275F008C3
:10025300E4C833C8C933C933C99AC99B5004C92AEE
:10026300C93BD5F0ECFBC833F4C8E4C9FA2208084B
:1002730008EAC0E0EBC0E086F0E7A4FA180986F0CC
:10028300E7A42AFA180986F0E7A42AFA180986F0DF
:10029300E7A42AFA1986F0E7A4FBE5F02AFA19087D
:1002A30086F0E7A42BFBE5F03AFA190886F0E7A4F9
:1002B3002BFBE5F03AFA18180986F0E7A4C5F02BF2
:1002C300FBE43AFA1908E7C5F0C6A426F6E5F03BC5
:1002D300FBE43AFA1886F0E7A4F6E5F00826F6E41C
:1002E3003B08F6E43A08F6D0E0FBD0E0FA22E4CF8C
:1002F300C0E0E4CEC0E0E4CDC0E0E4CCC0E075F003
:1003030020C3E633F608E633F608E633F608E633A9
:10031300F6181818EC33FCED33FDEE33FEEF33FF24
:10032300C3EC9709ED9709EE9709EF97191919404F
:100333000FFFEC97FC09ED97FD09EE97FE191906DF
:10034300D5F0BEECF709EDF709EEF709EFF7191948
:1003530019D0E0FCD0E0FDD0E0FED0E0FF2225186C
:10036300C582C0E0E51934FFC583C0E0E518C39535
:100373008224F8F8E4C5A8858319858218C5A8E8FE
:10038300CEF0A3E520F0A37808E608F0A3DEFAEFA9
:10039300F0A3E58124FAF8E608F0A3E608F0A3E663
:1003A30008F0A30808E608F0A3E608F0A3158115F2
:1003B30081D0E0FED0E0F8158115811581E8C0E019
:1003C300EEC0E022C0D02518C582C0E0E51934FF95
:1003D300C583C0E0E518C3958224F310AF08858375
:1003E300198582188008858319858218D2AFC8F0D1
:1003F300A3E9F0A3EAF0A3EBF0A37908E709F0A3DC
:10040300D8FAECF0A3EDF0A3EEF0A3EFF0A3D0E065
:10041300F0A3D0E0F0A3D0E0F0A3E520F0A3E5F053
:10042300F0A322120A33B90003020468E490030123
:10043300784679128002F0A3D8FCD9FA901446AA20
:1004430082AB83900086786B79018015E493A3AC2B
:1004530082AD838A828B83F0A3AA82AB838C828D45
:1004630083D8E9D9E77582FD7583D974021207B180
:1004730075823775831B74001207B185198385183C
:1004830082E0C0E0A3E0F9A3E0FAA3E0FBA37808CD
:10049300E0F608A3DFFAE0FCA3E0FDA3E0FEA3E09F
:1004A300FFA3E0C0E0A3E0C0E0A3E0F5D0A3E0F544
:1004B30020A3E0A3F5F0E4C5A8858319858218C5B8
:1004C300A8D082D083D0E0F8D0E032D083D082ECC1
:1004D300C0E0EDC0E0E493A3FCE493A3FDED4C6026
:1004E3000D1205A6EC24FFFCED34FFFD80EFE49331
:1004F300A3FCE493A3FDED4C600D1206B7EC24FFBF
:10050300FCED34FFFD80EFD0E0FDD0E0FCE493A3ED
:10051300C0E0E493C0E022D083D082E9C0E0E4935A
:10052300A3C386F0C5F095F0F908E493A386F0C55C
:10053300F095F0700BE493A3C3994005E90480029E
:10054300A3E475F002A42582F582E5F03583F583F3
:10055300D0E0F9E493A3C0E0E493C0E022C0E074E8
:10056300F21203C7A2AFE492E0FED2AFE589A2E1A3
:100573005003121603758900C2C5EEA2E092AF7F45
:100583000102047EC0E074F21203C7A2AFE492E05A
:10059300FED2AFE58BA2E05003121603758B00C2A7
:1005A300E880D7C0E0C3E49396087401939618409B
:1005B3000FE493667008087401936618700070194D
:1005C300A3A3C3E49396087401939618A3A3400DC1
:1005D300D0E0D0E0D0E002050AA3A3A3A3A3A3D055
:1005E300E022851983851882E0A3FEE0A3F5207835
:1005F30008E0A3F608DFFAE0A3FFE0A3C0E0E0A36E
:10060300C0E0E0A3C0E0E0A3C0E0E0A3C0E0E4C535
:10061300A8858218858319C5A8D083D0820207B71D
:10062300D083D082C5F0E493A3C5F0C395F0F5F071
:10063300E493A3C395F04005E5F0048001E475F06D
:1006430002A42582F582E5F03583F583E493A3C004
:10065300E0E493C0E0227404800474028000CCC000
:10066300E0EDC0E0E518C39CCCAD1950011D10AFFF
:10067300068C188D1980068C188D19D2AF1207526B
:10068300D0E0FDD0E0FC2274028000CCC0E0EDC0DD
:10069300E0E518C39CCCAD1950011D10AF068C18B2
:1006A3008D1980068C188D19D2AF120730D0E0FD5A
:1006B300D0E0FC22C0E0C0F088F0E4936670080844
:1006C30074019366187000A8F0A3A3700BD0F0D048
:1006D300E0D0E0D0E002050AA3A3D0F0D0E022D01E
:1006E30083D082CCC0E0E493A36006120792147017
:1006F300FAE493A3600612086E1470FAD0E0FCE4E7
:1007030093A3C0E0E493C0E022C0E074F21203C7F5
:10071300A2AFE492E0FED2AFC2C0E5D1A2E450039F
:1007230012169FEEA2E092AF7F0102047ECAC0E0E0
:10073300E493A3C582CCC582C583CDC583F0A3C58D
:1007430082CCC582C583CDC583DAE5D0E0CA22CA8F
:10075300C0E0E0A3C582CCC582C583CDC583F0A329
:10076300C582CCC582C583CDC583DAE6D0E0CA2273
:100773007009080808226016181818C6C333C6087B
:10078300C633C608C633C608C633C6D5E0EA22C098
:10079300E0E493A3D39C5010E493A3C39C400AD0FA
:1007A300E0D0E0D0E00206FFA3A3A3D0E022C09FE5
:1007B300F59FE473D09F22D083D082C09FE493C07F
:1007C300E0740193C0E0740293F59F22C0E0C0D0AF
:1007D300EAC0E0A2AFE492E0D2AFC2C7A2E092AF18
:1007E300D0E0FAD0D0D0E0322518F58210AF08F56A
:1007F30018400215198008F51840021519D2AF8563
:100803001983227404800A740380067402800274BC
:1008130001C0E0F4041207EBD0E0120A2622C0D094
:10082300251810AF08F518500205198008F518505F
:10083300020519D2AFD0D022BB0102E722C082C089
:100843008389828A83BB0003E08002E493D083D050
:1008530082226016080808C6C313C618C613C61832
:10086300C613C618C613C6D5E0EA22C0E0E493A3B4
:100873006C7009D0E0D0E0D0E00206FFA3A3D0E083
:1008830022251810AF08F518400215198008F5182D
:1008930040021519D2AF22E066701008A3E066701B
:1008A3000A08A3E066700408A3E06622C3E796087B
:1008B30009E7960809E7960809E796A2D265D033B7
:1008C30022C3E09608A3E09608A3E09608A3E09667
:1008D300A2D265D03322C3E096F008A3E096F008D5
:1008E300A3E096F008A3E096F022E627F60809E6CF
:1008F30037F60809E637F60809E637F622E026F662
:1009030008A3E036F608A3E036F608A3E036F6229D
:10091300E026F008A3E036F008A3E036F008A3E0F1
:1009230036F022E657F60809E657F60809E657F6C1
:100933000809E657F622C0E0E8C0E0E58124FCF8A8
:10094300E6A2E7D0E0F8D0E022E647F60809E6475A
:10095300F60809E647F60809E647F622E056F608E0
:10096300A3E056F608A3E056F608A3E056F622E005
:1009730056F008A3E056F008A3E056F008A3E056AB
:10098300F022700422600D18C6C333C608C633C6EE
:10099300D5E0F41822E4C396F608E496F608E49644
:1009A300F608E496F622600D08C6A2E713C618C639
:1009B30013C6D5E0F322C6F4C608C6F4C608C6F4C7
:1009C300C608C6F4C622C3E7960809E7960809E7EE
:1009D300960809E79622C3E09608A3E09608A3E0E9
:1009E3009608A3E0962275D00075814075180175AD
:1009F300190300020426E0F608A3E0F608A3E0F6D4
:100A030008A3E0F622600C08C6C313C618C613C6B3
:100A1300D5E0F422E6F008A3E6F008A3E6F008A385
:100A2300E6F022CAC0E0E6F0A308DAFAD0E0FA2240
:100A330074F855C74401F5C77901222518F582E4F6
:100A43003519F58322C2AF75D69F02000022120723
:100A5300BAA64F001207BAC54F001207BA315000A9
:100A63001207BAC850001207BA9A51001207BA0AFD
:100A730052001207BA2552001207BA495200120750
:100A8300BA8452001207BAC652001207BA125300B0
:100A93001207BAEA53001207BA8D54001207BA1D9F
:100AA30055001207BA4156001207BA5356001207EF
:100AB300BA4257001207BAB857001207BAF55700DF
:100AC3001207BA5558001207BAAE59001207BACE28
:100AD30059001207BA305A001207BACA5A0012074D
:100AE300BA235B001207BAB25B001207BA6E5C004E
:100AF3001207BAAC5C001207BA1F5D001207BA797D
:100B03005D001207BAB15D001207BAE35E00120777
:100B1300BA1460001207BA7360001207BABC60000F
:100B23001207BAE460001207BA6761001207BAE459
:100B330061001207BA5762001207BA68620012070F
:100B4300BADC62001207BA8563001207BAC76300F2
:100B53001207BA4D64001207BA8964001207BAD2A9
:100B630064001207BA5166001207BA03680012073D
:100B7300BAE768001207BA1A6B001207BA246B00AF
:100B83001207BA2E6B001207BA386B001207BA426B
:100B93006B001207BA4C6B001207BA566B001207B0
:100BA300BA866B001207BAAA6B001207BACE6B00A3
:100BB3001207BA2D6C001207BA806C001207BA9E96
:100BC3006C001207BA0E6D001207BA4B6D001207C4
:100BD300BA936D001207BAF76D001207BA216F00BE
:100BE3001207BAE46F001207BA8C70001207BA5AE0
:100BF30073001207BA7F73001207BAD17400120789
:100C0300BA0675001207BA4C75001207BA207600AF
:100C13001207BABC76001207BAF976001207BAFCBB
:100C230076001207BABB1E001207BA071F0012078D
:100C3300BAD920001207BA1721001207BA6321009C
:100C43001207BA0722001207BA6122001207BA99E3
:100C530022001207BAD022001207BAC023001207DB
:100C6300BA5824001207BAF024001207BA5A28000F
:100C73001207BAF128001207BAE529001207BA8A47
:100C83002A001207BAA02B001207BAC22E001207BD
:100C9300BA682F001207BAA72F001207BA783000DC
:100CA3001207BA0F31001207BA5931001207BA8678
:100CB30031001207BAA831001207BABF3300120776
:100CC300BA9134001207BAE234001207BA5635005B
:100CD3001207BA0436001207BA3936001207BA8768
:100CE30036001207BABC36001207BA1E37001207C5
:100CF300BA7937001207BAFA37001207BA5B38001D
:100D03001207BADF38001207BA393A001207BA03DA
:100D13003B001207BA423C001207BAC53D00120756
:100D2300BA633E001207BAA83F001207BA41400057
:100D33001207BA8940001207BA0342001207BA1712
:100D430042001207BA2442001207BA58420012079F
:100D5300BA6442001207BA8242001207BA4843003B
:100D63001207BA7F43001207BA8C43001207BA1066
:100D730044001207BAFD44001207BA0746001207DF
:100D8300BA9E46001207BA1547001207BA2C47004D
:100D93001207BA5047001207BA6E47001207BAB2D9
:100DA30047001207BAF347001207BA504800120768
:100DB300BA5A49001207BA6C4A001207BAD94A0054
:100DC3001207BA874B001207BAAD4B001207BAAB32
:100DD3004C001207BACA4C001207BA394D00120769
:100DE300BAB84D001207BAE44D001207BA2F4E00ED
:100DF3001207BA784E001207BAFA4E001207BA5A0F
:100E03004F001207BA96FF011207BAE1FF0112075A
:100E1300BAAF82011207BA1283011207BA728301B1
:100E23001207BAC383011207BADE83011207BA0E8F
:100E330084011207BA2F84011207BA3B84011207F7
:100E4300BAC285011207BAE085011207BA498601C1
:100E53001207BA5C86011207BA6D86011207BA003F
:100E630087011207BA0388011207BAF9880112072A
:100E7300BA7C89011207BA8589011207BAE8890188
:100E83001207BAFF89011207BA418A011207BA860B
:100E93008A011207BAB58A011207BAEC8A0112074E
:100EA300BA098B011207BA2D8B011207BA6E8B0197
:100EB3001207BA618C011207BAA78C011207BAE2B2
:100EC3008C011207BA3F8D011207BA678D01120711
:100ED300BAA08D011207BAAE8D011207BA0F8E01A7
:100EE3001207BA4C8E011207BA8E8E011207BABFCF
:100EF3008E011207BAF38E011207BAFE8E01120792
:100F0300BA1C8F011207BAE58F011207BAEF8F01DE
:100F13001207BA2E90011207BA4490011207BA4D74
:100F230090011207BAB790011207BACB90011207CA
:100F3300BAC391011207BAD691011207BAEB910114
:100F43001207BA8B92011207BAEF92011207BAB6CF
:100F530093011207BAC193011207BAE09401120771
:100F6300BAFC94011207BA5495011207BA8B950182
:100F73001207BAA595011207BAE495011207BA0937
:100F830098011207BA7398011207BADE9801120783
:100F9300BA229B011207BA329B011207BA359B0191
:100FA3001207BA419B011207BA559B011207BA5D9A
:100FB3009B011207BAA29B011207BA509C011207A8
:100FC300BAC09C011207BA249D011207BABD9D0144
:100FD3001207BA579E011207BA7E9E011207BA1D65
:100FE3009F011207BA299F011207BA589F011207DE
:100FF300BA5B9F011207BAD29F011207BAC2A001BE
:101003001207BA9AA1011207BA24A2011207BA451C
:10101300A3011207BAF7A3011207BA30A4011207FA
:10102300BA61A4011207BA6AA4011207BAA6A401FD
:101033001207BA8DA5011207BA09A6011207BA96BB
:10104300A6011207BA60A7011207BAE4A7011207A3
:10105300BA1AA8011207BA63A8011207BA788F0255
:101063001207BA8A8F021207BAFE8F021207BA3426
:1010730090021207BA8B90021207BA7292021207F9
:10108300BA4D94021207BA8597021207BAC897029B
:101093001207BAE297021207BA4498021207BA80FB
:1010A30098021207BAB098021207BAEA9802120716
:1010B300BA7EFA021207BAECEF021207BA0BF00279
:1010C3001207BA56F0021207BAA0F0021207BA4387
:1010D300F1021207BAF2F6021207BAD7EC021207AC
:1010E300BA15EE021207BABBAA021207BA38AB024C
:1010F3001207BA58AB021207BA7FAB021207BA93B0
:10110300AB021207BAEBAB021207BA1BAC0212070F
:10111300BAC1AD021207BA86AE021207BAD8AE023E
:101123001207BA22AF021207BA5FAF021207BAC29E
:10113300AF021207BAFEAF021207BA75B002120766
:10114300BACFB0021207BA7AE7021207BA93E702DC
:101153001207BA3FE8021207BAEEE8021207BA1BF7
:10116300E9021207BA9DD4021207BA18D502120770
:10117300BA23D5021207BA48D5021207BA8A7700F2
:101183001207BA8D77001207BA3878001207BA63CC
:1011930078001207BABB78001207BAE0780012078A
:1011A300BA0079001207BA3679001207BA8B7900B0
:1011B3001207BAC47A001207BAFB7A001207BA1CE4
:1011C3007B001207BA747B001207BA1B7C0012075C
:1011D300BA697C001207BAAD7D001207BA437E00DC
:1011E3001207BA577F001207BA827F001207BAB4F8
:1011F3007F001207BA4699021207BA5099021207E2
:10120300BA9C99021207BA0C9A021207BA299A02D7
:101213001207BAEB9A021207BAA09D021207BA93F9
:10122300C5011207BAFF9D021207BA2A9E021207CE
:10123300BA8F9E021207BA2B9F021207BA689F0247
:101243001207BAB99F021207BA20A0021207BAA264
:10125300A0021207BAEFA0021207BA21A1021207D5
:10126300BA56A1021207BA66A1021207BA76A10200
:101273001207BA944F001207BA57A2021207BAF123
:10128300F4021207BA72E5021207BAD6E502120790
:10129300BAFDE5021207BA03E7021207BA37CC0117
:1012A3001207BA6BCD011207BABBCD011207BA8080
:1012B300CF011207BAC0CF011207BA38D201120701
:1012C300BA7FD2011207BA15D4011207BAB6D401F4
:1012D3001207BA16D5011207BA98D5011207BACC6C
:1012E300D5011207BA0FD6011207BA8DD70112071B
:1012F300BA21D9011207BA62DB011207BA8CDB01EA
:101303001207BAC7DB011207BAD1DB011207BA2EE3
:10131300DC011207BAB1DC011207BA0AE0011207B5
:10132300BAD6FC021207BA4FFB021207BA9ECA02D0
:101333001207BAB6CA021207BA5ECB021207BA9FE5
:10134300CB021207BABCCB021207BAE2CB021207D6
:10135300BA29CC021207BA62CC021207BA96CC029F
:101363001207BA28CE021207BA9AF2021207BACCAF
:10137300F2021207BAE2F2021207BA27F3021207C5
:10138300BA3CF3021207BAD3F3021207BAD2D1025C
:101393001207BA7BD2021207BA4ED3021207BA92CD
:1013A300D3021207BAE2D3021207BA27D4021207F2
:1013B300BA10F1011207BA5EF1011207BA08F2017D
:1013C3001207BA95F2011207BAE4F2011207BA4101
:1013D300F3011207BA55F3011207BA25F5011207F3
:1013E300BAABF5011207BAD5F5011207BA85F701B1
:1013F3001207BAA0F7011207BAE1F7011207BA14EC
:10140300F8011207BA6DF8011207BA89F801120739
:10141300BAEDF8011207BA6EFA011207BAA4FA017B
:101423001207BACDFA011207BA2AFB011207BA440E
:10143300FB011207BA47FB011207BA4AFB01120765
:10144300BABFFB011207BAE1FB011207BA48FC015C
:101453001207BA7BFC011207BAF4F9021207BA00A9
:10146300FA021207BA48FA021207BA0080021207F8
:10147300BA2B80021207BAE480021207BA72810201
:101483001207BAD881021207BA2482021207BA914C
:1014930082021207BA2683021207BAAA830212072C
:1014A300BAE683021207BAC287021207BA6D89022B
:1014B3001207BA9689021207BA4C8A021207BA0BAC
:1014C3008B021207BAE88C021207BA638D02120765
:1014D300BA8BE0011207BA47E1011207BABDE10175
:1014E3001207BAD5E1011207BA71E2011207BAB4C1
:1014F300E2011207BAB0E3011207BADCE3011207F3
:10150300BA47E4011207BA99E4011207BAF6E401F3
:101513001207BA2DE6011207BAC7E6011207BA434A
:10152300E7011207BABAE8011207BA62E901120722
:10153300BA09EA011207BA65EA011207BADBEA013E
:101543001207BAF9EB011207BAB1ED011207BA4E4D
:10155300EE011207BAC7EE011207BACCEF01120768
:10156300BACEFC021207BAD1FC021207BAFBDE02A2
:101573001207BA2ADF021207BAD9DF021207BA3FEB
:10158300E0021207BAB0E0021207BA8DDA021207BC
:10159300BAFEDB021207BAEBF7021207BAFCF70234
:1015A3001207BAA4F8021207BA6DE9021207BA7B4E
:1015B300E9021207BAEBFF011207BABCF8021207DD
:1015C300BACCF8021207BAE7F8021207BA4FF902C7
:1015D3001207BADDF3021207BA66F4021207BAD889
:1015E300F4021207BA72EE021207BA90EE02120761
:1015F300BAF3EE021207BA13EF021207BA61EF024F
:101603001207BABBEF021207BA3DC3021207BA525E
:10161300C3021207BA6BC4021207BAACC4021207A0
:10162300BAC6C4021207BA65C5021207BAD9C502FF
:101633001207BAF5C5021207BA0AC6021207BA1888
:10164300C6021207BA32C6021207BA49C602120705
:10165300BA6EC6021207BABFC6021207BA44BF0265
:101663001207BA52BF021207BAD0BF021207BAA4B6
:10167300C0021207BAD8C2021207BAEDB0021207AB
:10168300BA6CB1021207BA1CB2021207BA8DB202C7
:101693001207BA93B3021207BA17B5021207BA7741
:1016A300B5021207BAC9B5021207BAD2B5021207B8
:1016B300BAE8B5021207BAFAB5021207BA0CB602B3
:1016C3001207BA15B6021207BA27B6021207BA7C76
:1016D300B6021207BA90B8021207BAC8B8021207C4
:1016E300BAEDB8021207BA06B9021207BA1FB90255
:1016F3001207BA14BA021207BAA2BA021207BA66DA
:10170300E3021207BAA9E3021207BABAE302120705
:10171300BAEDE3021207BA25E4021207BA5DE40246
:101723001207BAC5E4021207BAF8E4021207BA5361
:10173300D7021207BA7ED7021207BAC5D702120719
:10174300BAD4D7021207BAF3D7021207BA5DD80286
:101753001207BA66D8021207BAC7D8021207BAEB41
:10176300D8021207BAB1D9021207BABED9021207B8
:10177300BACFD9021207BAD9FB021207BAF6FB0293
:101783001207BAFDC6021207BA65C8021207BA7277
:10179300C8021207BA8BC8021207BA9EC802120700
:1017A300BAB8C8021207BAD7C8021207BA56C90292
:1017B3001207BA22CA021207BA7FCA021207BA8FE5
:1017C300CA021207BA59F9021207BA7EF9021207BE
:1017D300BAA7F9021207BACFF9021207BA38E1021F
:1017E3001207BA5FE1021207BA86E1021207BAF6DC
:1017F300E1021207BA97DC021207BAB0DC02120741
:10180300BABCDC021207BAC5DC021207BAE9DC0271
:101813001207BAF5DC021207BA04DD021207BA2274
:10182300DD021207BA74DD021207BAAEDD02120737
:10183300BAE3DD021207BA32DE021207BA7EDE0213
:101843001207BA96DE021207BAA0DE021207BAB175
:10185300DE021207BAF5DE021207BAFEFA02120717
:10186300BA8BA2021207BAB7A2021207BAD3A20214
:101873001207BAE6A2021207BAFCA2021207BA685A
:10188300A3021207BAA2A3021207BA10A7021207F1
:10189300BA2FA8021207BA60A8021207BAC2A80296
:1018A3001207BA9DA9021207BAC5A9021207BADA2A
:1018B300A9021207BAEAA9021207BA2BAA0212074F
:1018C300BA80AA021207BA90AA021207BA57F10203
:1018D3001207BA72F1021207BA9CF1021207BAB9DF
:1018E300F1021207BAE1F1021207BA03F202120778
:1018F300BA1CF2021207BA4BF2021207BA66F202DC
:101903001207BA95FB021207BA40CE021207BA4772
:10191300CE021207BA54CF021207BA86CF021207B9
:10192300BAACCF021207BADFCF021207BAF1CF0265
:101933001207BA2CD0021207BA9CD0021207BAD9E6
:10194300D0021207BA26D1021207BA54D1021207E3
:10195300BA74D1021207BA34EB021207BA46EB0289
:101963001207BA46EC021207BAD4EC021207BAF213
:10197300F5021207BA50F6021207BA8FF6021207DF
:10198300BAD0F6021207BA8AFC011207BAAFFC01F9
:101993001207BAF8FC011207BA12FD011207BA3A8C
:1019A300FD011207BA61FD011207BA4EFE011207CB
:1019B300BA58FE011207BA65FE011207BA76FF0193
:1019C3001207BA7FFF011207BA88FF011207BAE1B3
:1019D300BA021207BACEBE021207BAD3BE02120768
:1019E300BA4BFC021207BA15FC021207BA7AFC02C0
:1019F3001207BAA2FC021207BA6BC5011207BA0298
:101A0300C5011207BAB1C4011207BA69C4011207AA
:101A1300BAA9C3011207BA7AC0011207BA52C001A8
:101A23001207BA04C0011207BAECBF011207BAF7D2
:101A3300BE011207BA98BE011207BAFDBC01120714
:101A4300BAA1BC011207BA9EBC011207BA8EBB0130
:101A53001207BA6EBB011207BAC7BA011207BA4A14
:101A6300B9011207BA11B9011207BAE2B801120794
:101A7300BA0CCC011207BAEECB011207BAEACA01BB
:101A83001207BADFB8011207BAD1B8011207BABDFB
:101A9300B8011207BAACB8011207BA58CA01120743
:101AA300BAB1B7011207BA41B7011207BA0EB701AB
:101AB3001207BAB0B6011207BA01C9011207BA95E3
:101AC300A1021207BA7FB6011207BA9AB30112072D
:101AD300BAA7B2011207BA3DB2011207BAFDB101AA
:101AE3001207BAF1B1011207BA64B1011207BAB20F
:101AF300B0011207BAE6AE011207BA58AC011207D9
:101B0300BA22AC011207BAC8AA011207BA7BAA010A
:101B13001207BAA8A9011207BA0AA9011207BAE360
:101B2300A8011207BAA9A8011207BA87C6011207AA
:101B3300BAA99D0200000080FBE473000136360160
:101B43000100010201000103010001040106060571
:101B5300020000070100340801000F090401010D10
:101B63000100FF0E08000017020000190100FF1A10
:101B73000100011B0100FE1C0100081D0200001FE3
:101B830001000120010001210200002301000F24B4
:101B93000200002601000127010008280200FF2A95
:101BA3000100072B0102402C0100002D0100012E32
:101BB3000100012F0100FF30010B1C310800003A26
:101BC3000100083B01000F2F0100000300710030EA
:101BD30001600011007000310220035004800010E6
:101BE3000061000000140063007300720062004390
:101BF30000000013000600000000000400120000B3
:101C03000000000000000004000400370037003C1F
:101C130002440000000000000000006500000035E1
:101C23000081000000050000008300000001037133
:101C3300030103010301030103010322030203015F
:101C43000310030003000300030003000300030069
:101C530003420300032403060300030003040312E7
:101C630003250323032503230304030403000300C1
:101C7300030003440300030003230300036503215C
:101C8300003503810300030503000300030003037E
:101C930002710230016002110270020102020202AB
:101CA300028002100261023A004100630273027271
:101CB300026202430200021302380000020002041F
:101CC30002120200020002000200020402040237B0
:101CD3000037003C024402000239000002000265A2
:101CE3000200023502810200020502820283020021
:101CF3000201017101010101011101010131010120
:101D03000101018001100161013B001400630173B3
:101D1300017201620143010001130106013D013516
:101D2300000401120100010001000100010401048B
:101D330001330133013C014401320136000001004B
:101D43000165010001350081010001050182018364
:101D530001000136000100060000000F0000000032
:101D630000000000000000000003FFFF0000040368
:101D7300FFFF0000FFFF0FF4010005C40403200070
:101D83000100000B000000000000000003010F0130
:101D9300000D15020083140300891404008F140539
:101DA3000095140600A1141100B9141400BF1415F2
:101DB30000B314FFFF000003EAF5E5D5D5C5B5A5CB
:101DC3009595858575756565555545453535252540
:101DD300151505AD0EDD0EB30EB90ED70ECB0EC520
:101DE3000EE30EE90EEF0EFB0EBF0EA70EA10E0AB9
:101DF300A30C02730C05850C07790C0C550C0D67AD
:101E03000CFF000000160F00000B150B020002224E
:101E13000F32000006970FA90FAF0F770EB50F71A2
:101E23000E7D0EF70F15101B10FD0F091003100C7C
:101E33000E020B040B0A0708000F30301718192184
:101E4300301B1D1F3000383C3E363B3B352B432CAB
:101E530000011916181616152303000003494842FA
:101E63004D1817250502303016181920231A1C1E89
:101E730030EB0FBB0FC10FCD0FC70FD10EF50E0FF8
:101E830010010F070F0204020101010109020005FD
:101E9300150D0910080400000000000000BE040A2C
:101EA300E803040015000E002800080C0A030908C3
:101EB300FF1E1E0F04041005C082C083E99003B9FE
:101EC300F0E490036EF01219579003BEE4F0A3F010
:101ED3009003BAF0A3F0120DCF12195D90033DE405
:101EE300F0A3F09003D0E07002A3E060099003D068
:101EF3001243B4121B3C901EB6E493FA79021219F2
:101F0300BD02371774F2120361EAFEEBFF74805FC0
:101F1300F9E47001E960619003B9E0F91212318AC2
:101F2300088B09EA7001EB60467B0080010BEB75BF
:101F3300F003A424F2F8E5F0341DF988828983E4E0
:101F430093FA74FF6A6021850882850983E06A70C9
:101F5300DCAA08AB0988828983A3E493C0E07401F7
:101F630093F583D082121B3CAA08AB09121225EE0B
:101F7300FA74806FFB0220CC74205FF9E47001E9EE
:101F8300601D120CFD8A088B09EA7001EB600A12CE
:101F93000C67AA08AB09121225EEFA742080D4EE5E
:101FA300A2E0501A900373E0640F700B7900120CD7
:101FB30031E960031220CF74016EFAEF80B654202A
:101FC3007003022098750C001233B17001EB70108E
:101FD3007C027D007A207B009003B9E0F912134B59
:101FE3007C0079047A007B00120CD98A088B098063
:101FF3000D740188828983F0850A08850B09E50839
:102003007002E509606D7C007904AA08AB09120C23
:10201300D98A0A8B0B750C01E5082404124C42245F
:10202300FFF0A3E034FF124E5B7002A3E070C9E53A
:10203300082409F8E5093400F9850882850983A392
:10204300A3A3A3A3A3A3A3A3A3E0640170A38508ED
:1020530082850983A3A3A3A3A3A3E054047092746A
:102063000688828983F07AB78508828509831221DD
:10207300FB8085120CA97C0079017A007B00120C8D
:10208300D9EA7001EB7009E50C70057A2012433D23
:102093007420021FBC74025FF9E47001E9600A1244
:1020A3000DC9EEFA7402021F7674045FF9E470013D
:1020B300E960121244AB12418779011229DBEEFA6F
:1020C3007404021F767A007B000245FC90148E1282
:1020D30037ED120C4922C082C08374EA120884854A
:1020E3001882851983AA82AB83794B1219937408DA
:1020F300120A3E7402F07409120A3EAA82AB837973
:10210300501219937413120A3E1247D81219B1745C
:102113001602371474F712036174E1120884EAFE9D
:10212300EBFFEE7001EF6033851882851983AC8273
:10213300AD83120D217406120A3EE0601E7417125D
:102143000A3EE0FD7401120A3EE0FCEEFAEFFB7971
:1021530000121A77E9600479A4800279000237A19A
:1021630074F6120361EAFEEBFF8E828F83A3A3A3AF
:10217300A3A3A3E05440601A1243B01244E96006DB
:102183007AFF7BFF80198E828F83122855A3E0FB91
:102193008003120D4574FE6A700374FF6B60411275
:1021A30043B012439C120D99E98E828F836006120D
:1021B30021F4E480051221F47401F07C377D0C8E48
:1021C300828F831242541219B7E9F5087015EE7025
:1021D30001EF60097901EEFAEFFB120CB50243A29D
:1021E3007508CDAA088E828F831221FBE960DF80F8
:1021F300ECE0240D123C2F22E0240C123C2FE0F9DA
:10220300120C432274F6120361E9FEEAFF7A0F7B94
:1022130000121B31EA7001EB6019740C8A828B8304
:10222300F0EEA3A3F0EF8A828B83A3F01243EA7943
:10223300008028EEF9120CDF8A088B09A808A90987
:10224300E87001E96013740688828983124E60E0A6
:10225300F9120BFBEEF9120CBB79100243ABC082EF
:10226300C083900373E0640F7018EA7001EB60128F
:1022730090036EE0FC74086C600574046C700312C8
:102283002288023717EAFCEBFD7A017B009003B941
:10229300E0F912134522C082C0837900EA241DF5B8
:1022A30082EB1237B51206E2010304B9220207B921
:1022B300220AB922BA22090237171244CC64022235
:1022C300EE2409F8EF3400F9880A890B2274F2121C
:1022D300036174FD1208848A0A8B0BEA2402F50851
:1022E300EB12282FF9120CDF8A0C8B0DAE0CAF0DFD
:1022F300EE7001EF70030223A8850A82850B83A386
:1023030085820C85830DE064F16014E064CD600F79
:10231300E0641A600AE064E96005E064E17008794A
:1023230000120CB5E97068850C82850D83E0C0E06E
:102333007402120A3ED0E0F0124ACD124C27EF127B
:1023430024EC851882851983AA82AB837005120B4E
:102353006B8003120D817402120A3EE064E9702F50
:102363001223B4750C01780C120812750CE9780C61
:10237300120812E50A240CF582E50B12282B122E03
:102383007EFCA3E0FD8A828B83122E98120821EE35
:1023930024091222BD70037406F08508828509831F
:1023A300E0F9120CBB120CA99014921220D2024530
:1023B300F78E828F83123AFDE8FAE9FB2274F51255
:1023C30003618A088B09750A00EA24091238CAFED8
:1023D300E9FF8E828F831224527003750A018E8265
:1023E3008F831240807003A3E06B7006E50AD2E18D
:1023F300F50AE5082402FEE5093400FFE50A601347
:102403008E828F83E07006E50AD2E58004E50AD266
:10241300E6F50A120D99E964017006E50AD2E0F5C2
:102423000A8E828F83E06017E508241DF582E50993
:10243300340012244764016006E50AC2E0F50AA9E4
:102443000A0247D3F5831237BCF9120D87E922122A
:1024530044ED640222C082C08379018A828B83A304
:10246300A3E0C394024001198A828B83A3A3A3A38D
:10247300E0C39402400279008A828B83A3A3A3A3BF
:10248300A3A3A3A3A3123A2874F86C700374FF6D7B
:10249300601E74F96C700374FF6D601474FA6C70D1
:1024A3000374FF6D600A74FB6C700374FF6D70023C
:1024B30079008A828B83A3A3A3E0FC90035CE06C86
:1024C30060027900901EB5E493C394805015E493A1
:1024D300C333C0E0EA24111224E9FAD0E0C39A50CE
:1024E300027900023717F582EB1244CF2274E81207
:1024F300036174DE120884EAFEEBFFEE2404F508A0
:10250300EF12282F6010901490E07002A3E0600691
:102513009014901220D2EE2402F50CEF122FA27425
:1025230003120A3EAC82AD83850882850983122E8D
:1025330074FAA3E0FB120D21E9600F7403120A3E43
:10254300AA82AB83120C61E970087901121969023E
:10255300281BEE241B1237AB7410120A3E1241875C
:102563007409120A3EE0601D741A120A3EE0FD74FB
:1025730004120A3EE0FC12424E7901121A77E96016
:1025830004790280C77403120A3EAA82AB83120C39
:102593005BE9F50A7409120A3EE07028900356E0DD
:1025A30060227422550A6422601A7442550A6442F6
:1025B30070CF7420120A3E12285574066A6005749F
:1025C300076A70BDE9A2E650127403120A3EAA829A
:1025D300AB83120C4FE9700302254DEE2412F51460
:1025E300EF3400F515EE242A1233A9EE242EF51646
:1025F300EF3400F517EE242C122828122B99E068EB
:102603007003A3E069701E750B00780B1208127833
:102613000B120812851682851783E0F912284512DA
:102623002E981208217409120A3EE070030226EC68
:10263300122845124254120DED8A088B09A808A9E5
:1026430009E87001E970030227937404120A3E1229
:10265300283AFAA3E03400FB740D2AF582E43BF533
:1026630083E0FAE82404F508E91233ACE82403F51F
:1026730082E91224EC6A601FEAF090813978101223
:1026830009F9850882850983E510F0A3E511F0A314
:10269300E512F0A3E513F07904E9120A3E12283A91
:1026A300FCA3E034008C82F583A3AA82AB831212CD
:1026B3000D8A0C8B0D8C0E8D0F850882850983780E
:1026C300101209F97810790C1209C9500302281B5A
:1026D300908155780C120900850882850983124A76
:1026E3003CA3E50EF0A3E50FF090036EE0FA74044B
:1026F3006A600874096A600302281BE50AA2E540C0
:10270300030227D5851682851783E08518828519EC
:1027130083F0EE242FF582EF1224ECC0E074011253
:102723000A3ED0E0F0EE2430F582EF1224ECC0E054
:102733007402120A3ED0E0F07414120A3EE06401FF
:102743007028740E120A3E1237B1851482851583E0
:10275300E0687003A3E0697011740C120A3E12243E
:102763005270077414120A3EE4F0EE24241228284F
:102773001206597404120A3EAC82AD837407120A1E
:102783003EAA82AB83120B71740412082102281B28
:102793009003B3E0640160030226EC7420120A3E46
:1027A3001237B864067009E50AA2E650030226EC64
:1027B3007410120A3EE064FF7004A3E064FF6058E3
:1027C300EEFCEFFD7403120A3EAA82AB83120C6D7A
:1027D3008046A2E650427420120A3E122855740421
:1027E3006A701A741A120A3EE06402702B740312A0
:1027F3000A3EAA82AB837900120D75801B74076AA7
:102803007016741A120A3EE06404700C7403120A00
:102813003EAA82AB83120D6F74221208217F10022D
:1028230005E5EE240DF582EF124C7F223400F50905
:10283300850882F583E022E0FA850C82850D83E02A
:102843002A22850882850983123A2C8514828515EC
:1028530083221237BCFA2274F2120361EAFEEBFF01
:102863008C088D091222C38882F583124254900D7D
:1028730091E0601190035FE06A7003A3E06B700561
:10288300120BDD80567900120C078A828B83E58256
:102893007002E583603DA3A3A3A3A3A3E054186040
:1028A30032E508241BF582E50912282B12065DE5A3
:1028B300082412F582E50912282B12065DEE24186E
:1028C300F582EF1238C51228E1120C1974041208AC
:1028D30021800879001228E1120BE30245FC850AE6
:1028E30082850B83123A2CEE240B1237E62274F600
:1028F30012036174F71208848A088B0990036EE04F
:10290300FA74036A600D74016A600874096A6003EB
:102913000229D08508828B83A3AE82AF83E0600354
:102923000229B57C007D007A027B00121963E50859
:1029330024021229D31237B190035F1241877953CE
:1029430012199979001229DB90036EE0640960097A
:1029530090036C124254120DE774011243DD7404A8
:1029630090036EF07401120A3EAA82AB83794A1275
:1029730019937401120A3EAC82AD837A647B03120D
:10298300198190035F123A287A037B00121963902E
:102993000362123A287A047B00121963900359E008
:1029A300A2E35004D2F08002C2F01243C51220CF3A
:1029B3008018FC7D007A037B101219638E828F834B
:1029C300E0F91229DBE490036EF0120C910243A6A6
:1029D300FAE509340002354990036C1237ED120B06
:1029E3007D22C082C08390033DE07002A3E070416A
:1029F30090036EE01206E2000301072A05162A0679
:102A0300252A342A900345E07002A3E06076900300
:102A130045806B900341E07002A3E060679003413F
:102A2300805C900343E07002A3E06058900343800E
:102A33004D90033DE07002A3E06009123107FC747E
:102A4300016C702379009003BA800909EA12494D99
:102A5300EB12282B1236827001EB70EF9003BA123F
:102A63004254120B77801D74026C7005120DBD80E9
:102A7300139003D4E07002A3E060099003D41243DF
:102A8300B4121B3C02371774F412036174FB12086F
:102A9300848A088B097A0F7B00121B318A0A8B0BFD
:102AA300AE0AAF0BEE7001EF7003022B9474028E2B
:102AB300828F831247D97950121993850882850929
:102AC30083A3858208858309E06003022B7D90033D
:102AD3006C124C20700374FF69602F74FE687003DE
:102AE30074FF696025851882851983E0687003A3E4
:102AF300E069601674EA850882850983122EAA7A32
:102B03006C7B03795012199980708518828519831B
:102B1300122B991241877A5F7B0379531219939091
:102B2300035F1241827A627B03794B1219937A61B4
:102B33007B0379E1121993900373E0C3940F50223E
:102B4300900361E0C0E07402120A3ED0E0F0740426
:102B5300120A3E7401F07402120A3EAA82AB831277
:102B630019AB750A00780A120812780A1208129033
:102B730014AEE0F9122E8F1208218508828509838D
:102B8300122E5FF0740390036EF0EEFAEFFB124324
:102B9300EA74050238BD123AFD90036C2274EC12FC
:102BA300036174ED1208848A828B83A3122E64EA74
:102BB30024081238CAFEE9FF851882851983AC827E
:102BC300AD838E828F83122E7EFAA3E0FB120C97C5
:102BD300851882851983E070708E828F83E0C39499
:102BE3000B4066850882850983A3A3A3A3A3A3A39C
:102BF300A3E06402705390036EE0FAE5082410F535
:102C030010E5093400F511E5082409122F9E74021A
:102C13006A603B74066A603690033DE07002A3E08D
:102C230060071231076401605574086A6005740413
:102C33006A70167402120A3EE0F97407120A3EAC77
:102C430082AD8312424E120C9D7413024A0D9003FF
:102C53003DE07002A3E07026750A00780A1208129C
:102C6300780A120812851082851183122E74FCA330
:102C7300E0FD850882850983122E981208219003AE
:102C8300BA124CA59003BA124A05E508240DF50EB5
:102C9300E5093400F50F80308E828F83E0F8A312AC
:102CA3002E74687003A3E06970128E828F83A3A3CE
:102CB300E0FA850E82850F83E06A606B8E0A8F0BC4
:102CC300EE12494DEF124CA2EE7001EF70CA7A1862
:102CD3007B001212918A128B13AE12AF13EE7001A6
:102CE300EF7003022C4C7C18124DDA1243FFEE24D2
:102CF3000C12282874FFF0E508240B124C42122E04
:102D030056124E5AC4122E56A3A3F09003BAE07083
:102D130002A3E070059003BA800AE50A12494DE563
:102D23000B12282B124AD37401120A3E122E6EA3E1
:102D3300F07402120A3E122E6EF0850E82850F8306
:102D4300122E5FA3F0124C62123F85240DFAEF346A
:102D530000FB7402120A3EE06401600E7407120A5B
:102D63003EAC82AD8312198180097C087D0079FF16
:102D73001212077412120A3EE0C0E0EE2415122864
:102D830028D0E0122EA1FC9014AEE0C39C400302B5
:102D93002C4CE508124C28E50912282BA3E054809B
:102DA300F9E47001E97009900CDDE07003022C4C2A
:102DB3007D00EE240CF8EF3400F9EE240BFAEF3427
:102DC30000FB9003ABE06402701D8A828B83E0F505
:102DD3000AC39C500D7405120A3EE0C39405401BC0
:102DE300801AE50A6C70157405120A3EE0C0E0888B
:102DF300828983E0FCD0E0C39C50010D7406120A63
:102E03003EE06035ED60258508828509831247E73A
:102E1300ECF0A3ED122EA18A828B83F07405120AC3
:102E23003E123A327406120A3EE0600D74018E823D
:102E33008F83A3A3A3A3A3A3F07404120A3EE07099
:102E430003022C4C74018E828F83A3A3A3A3A3F04C
:102E5300022C4C540F8E828F83A3A322122F98A38C
:102E630022A3A3E0F508A3E0F50922122F9802405C
:102E730029E0F9850C82850D83E022E0F98A828BB3
:102E830083A3A3A3A3A3A3A3A3A3E02290036C12EE
:102E93003A2C9003621237ED120D57740222F0851B
:102EA3001082851183E022F07A5F7B037953122E1F
:102EB300B5221219997A627B03794B1219992274FC
:102EC300F012036174F81208848A0C8B0D8C0A8D3E
:102ED3000B890E851882851983AC82AD8375838037
:102EE3007582F27408120752F50FAC0CAD0D8518FC
:102EF30082851983AA82AB83124A4E7003750F0130
:102F03009003BA8030AC0CAD0DEE240DFAEF340013
:102F1300124E56601A850882850983E0650E700F8C
:102F23008E828F83E0650A7004A3E0650B602FEE49
:102F3300241612282812370D7001EF60211233A6D0
:102F4300E50F70C18E828F83E0650A7004A3E0658C
:102F53000B70DC850882850983E0650E70D1EEFA7B
:102F6300EFFB023F6474F71203619003BA123E55FC
:102F7300800CEA2416124C9F121297EEFAEFFBEA2A
:102F83007001EB70ED9003BAE4F0A3F00237A67F73
:102F9300070205E5A3E08E828F8322F50CE5093451
:102FA30000F50D2274F1120361EAFEEBFF890A8C2E
:102FB300088D098E828F83E08C828D83123F6EAEE3
:102FC30082AF83E012403A123073C412403A123097
:102FD30067E054038C828D83123071A2E2E492E0A5
:102FE3008C828D83123070131313541F12403AA333
:102FF300123070A2E7E492E08C828D83A3A3A3A393
:103003001230678E0C8F0D750E00780C12080A7C37
:10301300087D00E508240712305E120821124A24B5
:103023008E0C8F0D780C12080A7C037D00E50824B2
:103033000F12305E120821E5082412F8E509340066
:10304300F9E50AC3940F400A8E828F83A3A3A3E0FA
:103053008001E488828983F0022F92FAE509340023
:10306300123D9F22A3A3123F720EAF8322A3A3A3F9
:10307300A3F0024A5974F412036174F9120884EA42
:10308300FEEBFF90033DE07002A3E06010123107F6
:1030930064027009EEFAEFFB120DB7806290036CC5
:1030A300E06E7003A3E06F705674016960097A8063
:1030B3007B03124A4E70487A007B021233B57001CB
:1030C300EB703C90036F78081209F9851882851913
:1030D300837808120A17900375E0C0E07404120A9B
:1030E3003ED0E0F07405120A3E7401F07406120A31
:1030F3003E74021247D9120B4DE96098120B5374B8
:10310300070238BD90033D123C3CE02274F71203E2
:10311300618A828B83A3AE82AF83E0F9120B958E13
:10312300828F83E0FA74EB6A600574E16A7002E4EB
:10313300F01220CF75080178081208128E828F834F
:10314300E0F50878081208127900122E8F12082170
:10315300120CA90237A674F61203619003BDE07046
:103163001F7C0079017A007B00120CD9EA7001EB15
:10317300600E8A828B83E07002A3E06003120C3D31
:103183000243ABC082C0831235ED401079FF120CAD
:10319300D3E9FA901EAEE493C39A500479018002F6
:1031A300790002371774EE1203618A088B09890DBF
:1031B300750E00EA2408F50AEB123A17850A82F520
:1031C30083E0F9120CDF8A108B11AE10AF11750C6E
:1031D30001EE7001EF600302328185088285098365
:1031E300A3A3A3A3A3A3123A28850A82850B831260
:1031F3003E5A124254120CC78A0A8B0BAE0AAF0B0B
:10320300EE7001EF700302339E8E828F83A3A3A31C
:10321300A3E4F0A3F0E508240BFAE509124A5FC022
:10322300E0EE240B122828D0E0F0120D9FEE240CC0
:10323300124395E508240EF582E5091237AEEE2414
:103243000E122828124187750E01EE2406F8EF129C
:1032530035FCE0547FF0A3E054FC123F9454046027
:1032630003023306901496123E4E7407780812092F
:10327300858A828B83E04508F0A3E04509F0EE24BC
:1032830006124C4E12425474805AF50874035BF5CF
:103293000974077808120A08E508F510EE240412E9
:1032A3003A14EE24091233A9E50D6060740285080F
:1032B30082850983123074240D123C2BE0A2E25064
:1032C3000F90035A1237B1850A82850B8312418707
:1032D300E5107003023365747F5AFA74FC5BFB7468
:1032E300FF2510F51074FF3400F5117407781012E0
:1032F3000985E5104AF8E5114BF98C828D8312415B
:1033030087805FE04480F0A3E0023280E51070051F
:10331300750C00804DEA542060151212198A10743E
:103323007F5510F8745F28850A82850B83801BEA1A
:103333005410600E1212198A10740F5510F8740A83
:1033430080E4850A82850B837401F0A3E4F074049E
:10335300850882850983F01233B17001EB70031283
:1033630043727401650E7036850A82850B83123AA7
:1033730028850882850983E0F9EEFAEFFB120CCD6C
:10338300E9601BEE240C1228281236827001EB60D0
:1033930003121297EEFAEFFB121297750C00A90CA9
:1033A30002416BEE2402F508EF3400F509227A207E
:1033B3007B009003B9E0F9121357EA2274F6120363
:1033C3006174F71208847E00120CDFEA7001EB705F
:1033D3000302348C8A828B83A3A3A3A3A3A3A3A3F3
:1033E300A3E06406600302348C8A828B83A3A3A3C5
:1033F300A3A3A3A3E0FF8A828B83123C36E0C0E041
:103403007408120A3ED0E01235461243B412460144
:10341300124187120CF174085FF9E47001E96067E7
:10342300851882851983123A287A007B00120CC111
:10343300EA7001EB705190036C1238D11219C37CFE
:10344300007D007A007B0080288E828F831244B532
:10345300E064FF7004A3E064FF602C90036C123AF5
:10346300281216CFE9641A601E7C007D00EEFAEF85
:10347300FB120CC18A088B09AE08AF09EE7001EF8D
:1034830070C779001219C97E01EEF90243A674F7D9
:10349300120361EA7001EB70059003BE80068A8215
:1034A3008B83A3A31236827001EB602C8A828B83F9
:1034B300A3A3A3A3A3A3A3E05408F9E47001E960C1
:1034C300DDEC7001ED60158A828B831237B86C7066
:1034D30003A3E06D70C880047A007B000237A674F2
:1034E300F2120361EAFEEBFF890A8C088D097A1058
:1034F3007B00121291EA7001EB603AE48A828B83BB
:10350300A3A3A3A3A3A3A3A312354FE50A1237C111
:10351300E508F0A3E509124C16E4F012354FA3A316
:10352300123546124AD3EA240CF582EB123A1F12E3
:10353300353BF0A3F00245FCA31235402212354679
:10354300A3A322F08001FB8A828B8322A31237C5B7
:10355300A3A32274F5120361EAFEEBFF890A8C0828
:103563008D09EE7001EF60567401650A70147901DC
:10357300120CD3E9FA901EB2E493C39A500F791157
:1035830080657404650A70301235ED40F18E828FC8
:1035930083A3A3A3A3A3A3A3A3A3E50A123F79121F
:1035A3004EEFE4F0A3F09003BEE07002A3E09003BB
:1035B300BE60241237B1800A7402650A60CF79C1F4
:1035C3008025E824020808E91235FC1236B7700199
:1035D300E970EF8A828B83124AD31233B17001EB05
:1035E300700312437279000247D37904120CD3E9B2
:1035F300FA901EBAE493C39A221238CCFAE9023540
:1036030049C082C083E9FC79009003BE801D8A8291
:103613008B83A3A3A3A3A3A3A3A3A3E06C600574B9
:10362300FF6C7001098A828B83A3A3123682700117
:10363300EB70DB02371774F7120361EA7001EB706A
:10364300059003BE80068A828B83A3A31236827001
:1036530001EB60248A828B83A3A3A3A3A3A3A3A3C5
:10366300A3E06970E1EC60148A828B83E0240D127D
:103673004A53A2E240D080047A007B000237A612AC
:1036830037EDEA22C082C0839003BE80068A828B14
:1036930083A3A31236827001EB60128A828B83A309
:1036A300A3A3A3A3A3A3A3E06970E280047A007B8E
:1036B30000023717123AFDE82274F11203618A0AF5
:1036C3008B0B8C0C8D0D750800750900EA7001EBEE
:1036D30060319003BE80068E828F83A3A312370DC1
:1036E3007001EF601EAC0CAD0DEEFAEFFB850A82A4
:1036F300850B83121B3CE9640170DCEEF8EFF9885B
:10370300088909AA08AB09022F92E0FEA3E0FFEEA5
:1037130022120821D083D0820207B774F712036103
:103723009003BE1237B17C007D008007E8FCE9FD01
:103733001237B1E87001E9603AE82402F582E91230
:10374300282BEA687002EB6970E21242549003BEC0
:10375300124CA5E86E7002E96F70099003BEEAF09F
:10376300A3EB800EEAF8EBF98C828D83A3A3E8F038
:10377300A3E9F00237A674F7120361EAFEEBFFEE4A
:103783007001EF6016120CEB1237CBEA7001EB609D
:1037930003121297EEFAEFFB1212970237A6741F69
:1037A3001208217F010205E5F582EF124C7F123AE0
:1037B300FD22124C7F1237BC221243BCE022123787
:1037C300C52212354602402A8E828F83E0241C12C2
:1037D3003C2F1237F28E828F831237F2EE240C12B3
:1037E30037E622F582EF3400F583123E55FB2212B1
:1037F3003E55FB12129722C082C083EAFCEBFDEC1C
:103803007001ED70047905804CEC24FBF582ED34F6
:10381300FFF583E07002A3E07011EC24FFF8ED34B0
:10382300FFF988828983E064FF600512122580D541
:103833009003B9123A32901EAFE493F97AC07B0336
:1038430012124FE96401700B7A007B2012437679E0
:10385300008002790402371774F4120361A2AFE403
:1038630092E0F508C2AF9003C012370D7001EF600C
:103873003DEE24FBF582EF34FFF583E07002A3E015
:103883007A007B209003B960051243798005E0F943
:1038930012125B750A00750B00780A12080EEEFC13
:1038A300EFFD7AC07B031212497402120821E50866
:1038B300A2E092AFEEFAEFFB80031208217F04022D
:1038C30005E51244CFF922F8EB3400F9E822123A65
:1038D3002C851882851983AA82AB832274F0120384
:1038E3006174FC120884EAFEEBFF120CAFE9600579
:1038F3007911023A0F1233A6850882F5831244E93F
:103903006006EE2412123A1CEE2413F8EF124C4513
:10391300700A901EB5E49388828983F0EE2411180F
:1039230018EF1244E37019900D88E0600D90035670
:10393300E0700D8E828F83E07006E488828983F0C5
:10394300EE2414080808EF124C45700C90034B1238
:103953003A3290034BE004F0EE240F123A148E82B5
:103963008F83E064017018124C27EF1237B564029D
:10397300700D850A82850B83E04440F0A3E0F08557
:103983001882851983AC82AD83EEFAEFFB120D1515
:103993008A0C8B0D850882850983123A28EA700107
:1039A300EB60658E828F83E0C0E07401120A3ED023
:1039B300E0F07402120A3E124AD37401120A3E85E1
:1039C3008208858309780812080E850A82850B838D
:1039D30012065DEE240EF582EF1224ECF50878084A
:1039E30012081290035F12065D7407120A3EE0F993
:1039F300120D0F7407120821E9FE74106E700BAAE2
:103A03000CAB0D12129780027E10EEF97404023F84
:103A130066F50AEF3400F50B22F582EF124C7FE4D2
:103A2300F022124C7C123A2C22E0FCA3E0FD22E0AF
:103A330088828983F022C082C08374DE1208848A5C
:103A4300828B83A3A3A3A31237B1740E120A3EE899
:103A5300F0A3E9123AF6740C120A3E123AEF240D5F
:103A63001224E9C0E0741A120A3ED0E0F0EA124CC4
:103A730028EB1237AE7420120A3E123AEF241512C5
:103A830024E9C0E07408120A3ED0E0F0EA241CF5F1
:103A930082EB1237AE7412120A3E123AEF2411125D
:103AA30024E9C0E07409120A3ED0E0F074FF8518DF
:103AB30082851983F07401120A3E74FFF0740212B6
:103AC3000A3E74FFF09081391206597404120A3EBB
:103AD300AC82AD837407120A3EAA82AB83120B71C8
:103AE300740412082179007422023714E8F0A3E960
:103AF300F0EA22123540123AFD22E0F8A3E0F9225F
:103B030074ED12036174EE1208848A0E8B0FECFEBF
:103B1300EDFF89127425120A3EE0F50CA3E0F50DC2
:103B23007427120A3EE0F5117428120A3E124A0560
:103B3300742A120A3E122E667510107A1E7B00122A
:103B430012917402120A3E12439C7402120A3EE05E
:103B53007002A3E07003023C1F851882851983AAB3
:103B630082AB8379501242441242547402120A3EC9
:103B7300123C36A312439C7410120A3E124A3C7440
:103B830002120A3EE0240B123C2B7402F0120A3E8E
:103B9300123C367402F0120A3E1243B4124AD37432
:103BA30002120A3E124702E512F07402120A3EE0C4
:103BB300240C123C2BE511F07402120A3EE0241C83
:103BC300123C2BE50EF0A3E50FF07408120A3EE554
:103BD3000AF0A3E50BF0740A120A3EE511F085081A
:103BE30082850983C082C083740D120A3EAC82AD04
:103BF30083D083D0827403120752F97402120A3EEF
:103C0300AA82AB83120CB5E96401700575100080BC
:103C13000B7402120A3E124254121297A910741224
:103C23001208217F0B0205E5123C2F22F8A3E012B4
:103C33004F4F22123C3CA3A3221243BC02402A74DE
:103C4300EA120361EAFEEBFF8C088D098E828F83F3
:103C5300A385820A85830B7408F0EE2416F50CEF16
:103C6300124C38E060097410850A82850B83F0EEEC
:103C73002417F510EF3400F511851082F583E06009
:103C83000A850A82850B83E02408F0EE2411F8EFFD
:103C9300124C456005750E0E8003750E00EE240D63
:103CA300F514EF3400F515850A82850B83E085143E
:103CB30082851583FAE02A250E8C828D83124E5B52
:103CC3006013900357E0F9121A71E9FA85088285A7
:103CD3000983E02AF0850882850983E0FAC3947595
:103CE3004009750800750900023D967B00124B815F
:103CF3007001EB7003023D96EEFAEFFB120D1BEA27
:103D030085088285098312439DEE2402F81244BB81
:103D1300123DB0F0EE240408081244BBA3A3123DE5
:103D2300B0A3A3F0EE2413123DA6F0EE2414123D2B
:103D3300A6A3F07A08850C82850D83E0600FEE243C
:103D430018123A25E50824081249FB7A10851082D7
:103D5300851183E0600FEE241A123A258A0CE508D8
:103D6300250C1249FB124C27EF1224ECF510A3E0AB
:103D7300F511751200781012080A851482851583CF
:103D8300E0FC7D00124170E50E28FAE439123D9FF4
:103D9300120821AA08AB097F0E0205E5FB1211FBED
:103DA300740322124C7C123DBAA3A3A322A3A31231
:103DB3004C1CA3123DBA22E0850882850983A3A384
:103DC300A32274F61203618A828B83E0FC90035C66
:103DD300123E4E74027808120985E5084CFCAD09C1
:103DE300EA2412123E4874067808120985E5084C45
:103DF300FCE5094DFDEA2411123E487409780812C6
:103E03000985E5094DFDEA2416123E48740B78082E
:103E1300120985E5094DFDEA2417123E48740C7812
:103E230008120985E5094DFD8A828B83A3A3A3A309
:103E3300A3A3123E4E740A7808120985ECFAE50929
:103E43004DFB0243ABF582EB124C7FE0F50875099D
:103E53000022E0FAA3E022E0F985088285098322A3
:103E630074F01203618A088B09ECFEEDFF750A01F9
:103E7300E9C3940850057900023F62E98E828F837B
:103E8300123F8C120D27E96003750A001241C2C06C
:103E9300E0EE2411122828D0E01241BCC0E0EE2449
:103EA30012122828D0E0123F6EA882A98312418DF6
:103EB3006010E5082408FAE5093400FBEE24131228
:103EC3003F998E828F83A3A3A3A3A3A3A3A3E0609D
:103ED3001588828983E0FAE5082AFAE5093400FBAC
:103EE300EE2415123F99EE2419123A1CEE241B12EC
:103EF3003A1C124E5AF50B8E828F83E0F50CC39554
:103F03000B5003023E79850B0EE508250EF8E509F3
:103F13003400F9EE241DFAEF3400FBEAFCEBFD8CD0
:103F2300828D83123F852417FAEF3400FB8A088BB6
:103F330009E50CC3950B8A828B83123F79A3A3E017
:103F4300601B8A828B83E024F2F0E8240EF8E912E6
:103F53004195FA850882850983E0C39AF0A90A800E
:103F63000574081208217F080205E5123F7222F04A
:103F73008E828F83A322123F7D22F08E828F830253
:103F8300402CE8F0A3E9F0EE22123F94FAA3E0FB01
:103F930022123546E022124C7CEAF0A3EB124C1CB1
:103FA300E02408F02274F41203618A088B09EA12F0
:103FB3004031F0EA1313543F12403AA3A3A3F0EAAB
:103FC300C41313124031A3A3F0E48C828D83A3A303
:103FD300A3A3A3F08A0A8B0B7409780A120A0812A6
:103FE300401FF0EC2418F582ED123A1F8A0A8B0B5E
:103FF300740B780A120A0812401AF08A0A8B0B749F
:104003000C780A120A0812401AA3F0740D780812E9
:104013000A08A9080238C012401FA322E50A540166
:104023008C828D838001A3A3A3A3A3A3A322540300
:104033008C828D83A3A322540F8C828D8322C08212
:10404300C08379009003561244A2A3A3A3A3E06004
:104053000FEC70268A828B83A3A3E0701D09801A5C
:10406300EC60178A828B83A3A3A3A3A3A3A3A3A315
:104073001240807003A3E06B70E30237171237ED31
:1040830090035FE06A2274EE1203618A088B098948
:104093000CECFEEDFF8A828B83124254120D271221
:1040A30041C2C0E0EE2411122828D0E01241BCC066
:1040B300E0EE2412122828D0E0123F6E85820A8592
:1040C300830B12418D6010E5082408F8E5093400DC
:1040D300F9EE24131241AB8E828F83A3A3A3A3A370
:1040E300A3A3A3E06009124170EE24151241ABEEC5
:1040F300FAEFFB120D2DE9F50D706B850A82850B26
:1041030083E0F50EF510E5082510FAE5093400FB08
:10411300EE2417F8EF3400F988088909EE241DF816
:10412300EF1238CCFCE9FD8E828F83A3A3A3A3A354
:10413300A3E07012EAF8EBF98C828D83124187E5D4
:104143000CC3950E8019EA240EF8EB124195FB85FA
:104153000A82850B83E0FAE50CC39A24F2C39B859C
:104163000882850983F0A90D7F0A0205E5850A8285
:10417300850B83E0F8E50828F8E5093400F92212F5
:104183004C6CA3A3E8F0A3E9F0227408123F7D026C
:104193002E8A3400F98C828D83E8F0A3E9F0900332
:1041A30057E0F9121A71E922124C7CE8F0A3E9F006
:1041B300850A82850B83023FA31244D5022E8A858A
:1041C3000882850983A3A31241F7E0F9EA8E828F5F
:1041D30083A3A3A3A3A3A3A3A3A31241FC1241F705
:1041E300A3A3E0F9EAF8EE240B124C7CE81241FC9D
:1041F300A3A3E022E0FA023DBBF0A3E91244D922D3
:10420300C082C0837AC57B0379E21219937AC57B96
:1042130003023717C082C08390035F1242540237F0
:1042230017C082C08374FE1208848518828519839F
:10423300AA82AB83794B124244124254740202376E
:104243001412199385188285198322850C82850D92
:10425300831237ED22C082C083794A121993023741
:104263001774F61203619003CDE0FE04F0EEF91229
:104273000CDFEA7001EB70EEEE60EBF90243AB7416
:10428300EE120361EAFEEBFF8C088D09890E7412AE
:10429300120A3EE0F50A7413120A3EE0F50B750CA0
:1042A30000750D00120DEDEA7001EB7013E50B7054
:1042B3003BA90EAC08AD09EEFAEFFB120DF38075C6
:1042C300E50E6017EA24021224E9F8E50E28F8E463
:1042D300340013E813F070037401F0E50B6056E546
:1042E3000A7009E48A828B83F0750D017401650BF2
:1042F300701FE50A60169003D6E004F0C0E0901446
:1043030097E0FAD0E0C39A4008750C01E49003D615
:10431300F0E50D7004E50C601CE50C601890036279
:10432300E06E7003A3E06F700CEEFAEFFB790112FD
:104333000B8F12433B02416B7A017B009003B9E080
:10434300F912135122C082C08374016A7001EB70A9
:10435300077A01124374801490148E12439CEA70FE
:1043630001EB6005122288800312433B0237177A60
:10437300207B009003B9E0F912125522C082C0835A
:1043830090149012439C023717C082C083901492FA
:1043930080F1F582EF3400F583EAF0A3EBF022A974
:1043A30008800574091208217F020205E58E828FB9
:1043B300831243B8221243BC22E0F8A3E0F58388BA
:1043C3008222A2F0E492E01243D379521219992285
:1043D300851882851983F00238DA1243D3794212A1
:1043E300199922AA08AB099003B9E0F912122B22FA
:1043F3003400F5837401221243F3F022A3A3A3A391
:10440300A3A3A3A3A374FEF0A374FFF02274F41276
:104413000361EAFEEBFF7A007B0412433F1244ABD5
:10442300124187740990036EF0120D398A088B09C3
:10443300AC08AD09EE2413122828124254124A4E36
:104443006401704D7A0F1244977001EB604374025C
:104453008A828B83F0EE241DF8EF124F4B1244B582
:10446300A31244A2E0FBEC850882850983A3A3F091
:10447300A3EB124E5BF8A3E0F5838882A3A3A312F8
:1044830044BF1244C3FAA3E0FB794A1219991243B9
:10449300E60238C07B00121B318A088B09EA22E04E
:1044A300FC8A828B83A3A32290033F123AFD9014CC
:1044B30092221237ED02354AEF124F4FE0023E5C73
:1044C300A3F0EE24151244CC22F582EF3400F583D9
:1044D300E0221244D922F085088285098302402C08
:1044E300124C496401221244ED22123E55FB120D77
:1044F30099E9221247E1120D8D2274F212036174BD
:10450300F3120884890AEAFEEBFF7C0D7D00790033
:10451300851882851983AA82AB83121207EE241DA4
:104523001228281243B4A3E0FA741F5A600A7901CF
:1045330012196979000245F3EAA2E55008740C12D6
:104543000A3E7401F0EAA2E75008740B120A3E74A3
:1045530001F0EAA2E6740A5008120A3E7401F080E0
:1045630008120A3EE064017005EE24138003EE2472
:1045730015123A257402120A3EAA82AB83121981DC
:10458300EE240BF8EF3400F9880889098882F58353
:10459300124601124187740A120A3EE06401704117
:1045A3008E828F83A3A3A3A3A3A3A3A3A31244E9EC
:1045B300703C120D458A0C8B0DA80CA90D85088241
:1045C300850983E0687003A3E0697022120D39EA5C
:1045D300FCEBFD7402120A3EAA82AB83124A4E60C0
:1045E3000D851882851983AA82AB83120B89A90AC8
:1045F300740D800274031208217F060205E5123A46
:10460300FD02424774F612036174F31208848A08A8
:104613008B09ECFEEDFF7C0D7D007900851882850A
:104623001983AA82AB83124DDEA3A3A3A3A3A3A3DF
:10463300A3A3124601E8F0A3E9124691FAA2E550BA
:1046430008740B120A3E7401F0EAA2E75008740AD8
:10465300120A3E7401F0EAA2E6EE5004241380022B
:104663002415123A257402120A3E124687A3A3E0C8
:10467300C0E0740C120A3ED0E01247D9120B8374C7
:104683000D0243A8AA82AB83121981023E5CF0EEAD
:10469300241D124C7C1243B8A3E02274F712036169
:1046A30074E1120884EAFEEBFF1223B4EA2406F84D
:1046B300EB124C45A2E0504454FEF0A3E01247092C
:1046C3008A828B83124702E0F98A828B83E0241C5F
:1046D300FAA3E01229D6124254120D33E9701D7465
:1046E3001D120A3E1237B8640470118518828519A9
:1046F30083AC82AD83EEFAEFFB120D7B0237A1E0B0
:10470300241B123C2F22124711AC82AD8322F002EC
:104713004247E9FA790074046A600A740A6A600518
:1047230074036A7001090207B774F61203617420F7
:104733008A828B83F07401A3A3F0120B41EA700108
:10474300EB600774018A828B83F00243ABC082C0A3
:104753008374019003C2F0E9A2E350037403F0E908
:10476300A2E15004E0D2E2F002371774F6120361BB
:1047730079007C008A088B09780812051AF8FF076C
:10478300A1479F479F479F479F4798479C47A147FC
:1047930095470C80097C0480050C80F67C08900307
:1047A300C2E05C6003098003EC6001090243AB745F
:1047B300F61203618A828B83E0700EA31236827035
:1047C30001EB6005121AA180047A007B000243AB5F
:1047D3007F030205E5E41247DD221247E122124777
:1047E300110238DA123A2C8E828F83A3A302402956
:1047F30074F212036174FD1208848A088B09ECFEBB
:10480300EDFF890A750B017401120A3E7404124C00
:104813002D7001EB6032EA124C28EB1237AE7403B1
:1048230088828983F0A3E50AF0EE88828983A3A3B3
:10483300F0EF88828983A3A312353BE508F0A3E553
:1048430009F0120B3BE9F50BA90B0245F774EC12C7
:10485300036174F51208848A0C8B0D89108C0A8D00
:104863000B741F120A3EE0F5117420120A3EE0F5A4
:104873000EA3E0F50F7E01EE120A3E740AF0E97012
:1048830007E511C333240AF0851882851983AA82A8
:10489300AB83120D8D8A088B09EA7001EB7003025A
:1048A3004946124C9C7409124A2D4511124A47ACD1
:1048B3000AAD0B124A15E510702D7C008023ECC362
:1048C30033F8E433F9E50E28F8E50F39F9888289DE
:1048D30083124A4488828983122F97F0A30EAF83F1
:1048E3000CECC3951140D7E5082417F582E50912AE
:1048F3004952E508241AF582E50912439874031214
:104903000A3EAC82AD83AA0CAB0D120A7BE960218F
:10491300E50812494DE5091243FA7403120A3EA849
:1049230082A983E5082418F582E50912282B124190
:1049330087850882850983124A3AAA08AB09120BB4
:104943003BE9FEEEF9740B024A0D2416F58222129E
:1049530043F3F0120D392274EC1203618A0C8B0DB0
:1049630089118C0E8D0F7414120A3EE0F510741524
:10497300120A3E124A05900CFAE07002A3E0607539
:10498300E510C333F508E433F509740E2508FAE49A
:104993003509FB121B318A128B13AE12AF13EE7063
:1049A30001EF605174D48E828F83F0124A3A8E8263
:1049B3008F83A3A3A3A3E511F0AC0EAD0FEE2405E3
:1049C300FAEF1249FE122825E510F0850A0C850B33
:1049D3000D750E00780C12080AAC08AD09EE240E12
:1049E300FAEF123061120821EEFAEFFB900CFA1283
:1049F30043B4121B3C024A10FAE5093400FB1219B6
:104A03008122E0F50AA3E0F50B221208217F0C02B4
:104A130005E5EEFAEFFB124A1D22121981124A2410
:104A230022EE2408FEEF3400FF228E828F83F0A350
:104A3300E510C43354E022A3A3E50CF0A3E50DF085
:104A430022122F98F0A3AE82AF832212197BE922A0
:104A5300FEA3E03400FF8E828F83E022124A63229A
:104A63003400FB8A828B83E02274F6120361EAFE30
:104A7300EBFF9003C3801388828983E06E7003A3E6
:104A8300E06F603B88828983A3A31236B77001E984
:104A930070E57A047B001212918A088B09A808A991
:104AA30009E87001E9601888828983124AD3900368
:104AB300C3124AC5A3A312439C9003C312418702A6
:104AC30043AB1237ED888289832285188285198347
:104AD300EEF0A3EFF02274F41203617E009003C39F
:104AE30080070E88828983A3A31236B77001E97009
:104AF300F1EEC333FAE433FB124B817001EB6078C0
:104B03007F009003C3802488828983123A28EFC3ED
:104B130033FAE433FBE5082AF582E5093BF583EC38
:104B2300F0A3EDF00F88828983A3A31236B7700137
:104B3300E970D49003B41240807003A3E06B78084B
:104B4300701612080EEEF50A780A1208127C807DA0
:104B5300037900120DB1801412080EEEF50A780ADB
:104B63001208127C807D037900120DAB74031208C6
:104B730021AA08AB09121297120B530238C0121262
:104B83009102449CC082C08380128A828B83A3A338
:104B93001237B19003C31241871212979003C312C5
:104BA30036827001EB70E302371774F612036190DB
:104BB300036C124CA59003CE122B991241877ACE27
:104BC3007B0379501219999003CE124C5A120DF9A6
:104BD3009003CE124CA5900CFCE07002A3E0603071
:104BE3007A067B00121B31EA7001EB602374D58ACD
:104BF300828B83F0E4A3A3F074018A828B83A3A343
:104C0300A3124C16124AD3900CFC1243B4121B3C51
:104C13000243AB123540A3A322F0024AC8123AFD65
:104C230074FF6822EE240BF582221244F6EA22086E
:104C3300E93400F9223400F50D850C82F58322F85E
:104C4300E509124C4922124F4FE022F8EF3400F9E4
:104C5300E8FCE9FD02403C123A2CEEFAEFFB228518
:104C63000C82850D83124C6C22E0F8A3E0F9022F2D
:104C730099F0EE240F124C7C22F582EF3400F58379
:104C830022F0901EB0124C8C22E493F87401280891
:104C9300E43400F97A027B0022EA240BF582EB125A
:104CA3004C7FE0FEA3E0FF2274F71203617E0080D5
:104CB30008EE124E22120DE10E901EB8E493FAEEA6
:104CC300C39A40ED0237A674F712036178007900A6
:104CD3008003124DB2901EB8E493FEC3E89EE9949C
:104CE30000504CE8FEE9FFEE75F017A4FE85F008CE
:104CF30075F017EFA42508FFEE24EEFEEF124F55D3
:104D03006A7003A3E06B70CA8E828F83A3A3A3A3ED
:104D1300A3A3A3A3A3A3E06C7003A3E06D600A7431
:104D2300FF6C700374FF6D70A9EEFAEFFB80047AD9
:104D3300007B000237A674F61203617CFF7DFF7AC5
:104D4300FE7BFF120DD5EA7001EB706075080075EC
:104D530009008048E50875F017A4F8ACF075F01762
:104D6300E509A42CF9E824EEFEE93411FFEE240F43
:104D7300F582EF1224EC600BEE240EF582EF122481
:104D8300EC700E8E828F83124254120C1FEEFAEFD8
:104D9300FBE5082401F508E5091233AC901EB8E4DD
:104DA30093F8C3E50898E509940040A80243ABE8EB
:104DB3002401024C3274F7120361EAFEEBFFEE703A
:104DC30001EF600E124DD81244088E828F83A31216
:104DD30043FF0237A67C177D007900121207022FCA
:104DE3009974F7120361EAFEEBFF7508008021E571
:104DF30008124E228A828B83A3A3A3A3A3A3A3A3F4
:104E0300A3A3E06E7003A3E06F6003120DE1050836
:104E1300901EB8E493FAE508C39A40D30237A67507
:104E2300F017A424EEFAE5F03411FB2274F6120312
:104E330061120DD58A088B09A808A909E87001E950
:104E4300600AE8240DFAE93400FB80047A007B0051
:104E53000243ABFB024A4EA3124C1CE022A3A3A3C2
:104E6300A3A3A3A3124E6D02402BA3A3F0888289B0
:104E730083A3A3A32274F01203618A088B098C0A0B
:104E83008D0B890C124EE27001EF6050124DD81257
:104E93004EEFA3A3A3A3A3A3A3A3E50AF0A3E50B48
:104EA300124C74E50C70027401F0EE240EF8EF342A
:104EB30000F99003D2E07002A3E0600F9003B3E027
:104EC30064017003E4800674078002740188828998
:104ED30083124C84120210122825E8F0023F691253
:104EE3000DDB8A0E8B0FAE0EAF0FEE22E508F0A39B
:104EF300E509123F72A32274F51203618A088B0934
:104F0300ECFEEDFF750A00800DEE6C7002EF6D6034
:104F130003120DE1050A901EB8E493FAE50AC39A59
:104F23005021E50A124E22EA240A124F49123A2866
:104F3300E5086C7003E5096D70CF88828983124A96
:104F4300D380D10247D3F8EB124F4F223400F9023A
:104F53004AC83411024A58C082C08374F8120884C4
:104F6300851882851983AC82AD837583807582FA37
:104F73007408120752851882851983AC82AD831297
:104F83004A4E640170047900800279017408023783
:104F930014C082C0838A828B83E0D2E7F012143577
:104FA3000267F8C082C0837900126F9F90032A12B0
:104FB3006FCCC3EA9CEB9D500612560D60010902AB
:104FC30067F874F712036112732D1251E6AEF07590
:104FD300F00BEDA42EFD90032CE02CFEA3E03DFF8F
:104FE300EA2403FCEB3400FD740169600574026973
:104FF30070278A828B83A3126FA88E828F83A3125A
:10500300664B740269701DECFAEDFB120A75E970C8
:1050130013E48E828F83F0800BEE2403FAEF3400C7
:10502300FB120A6FEEFAEFFB121273025A2B74F2A1
:105033001203618A088B09EA240BF50CEB12730F38
:1050430079008A828B83E0606C890A890B805BE537
:105053000A75F00BA4FAACF075F00BE50B1253D5FF
:105063007045AE82AF838508828509831274B512B9
:10507300637812706D1267C0E5082403FCE50934F8
:1050830000FDEE24030A0A0AEF3400FB120A6F85BF
:105093000C82850D83125628EEFAEFFB12127379F8
:1050A3000190032A126F8A1250BB1253CDE50A9A5C
:1050B300E50B9B409A025C55E50A2401F50AE50BD2
:1050C3003400F50B2274F1120361EAFEEBFF740F57
:1050D300120A3E125FE0750E01850882F583A385EF
:1050E300820C85830DEE240BF8EF3400F9EC70018C
:1050F300ED6030EC126FC4ED1266417901EEFAEF08
:10510300FB120A57E5087002E50970030251938503
:105113000C82850D831273147902AA08AB09120A53
:1051230057806DEE2403F50AEF1250C3E5087002B1
:10513300E5096033126FC2E509126641E5082403ED
:10514300FAE50934001253C5700CEEFAEFFB120AAC
:105153005DE9F50E80B9AA0AAB0B1253C67031791B
:1051630003EEFAEFFB80B78E828F83A3E064FE70B9
:1051730004A3E064FF700A0A0A0AAB0B1253C67059
:105183000CEEFAEFFB120A5DE9F50E8003750E00D3
:10519300A90E7F070205E574F712036190032A1233
:1051A300664BEA7001EB6031EA75F00BA4FAACF0E0
:1051B30075F00BEBA42CFBEAFEEBFF1212919003AC
:1051C3002C12664B90032CE07002A3E06012EEFCFD
:1051D300EFFD7900121207800790032CE4F0A3F08F
:1051E300025A2B1272B0EC75F00BA4FC22E875F096
:1051F3000BA4F8AAF075F00BE9A42AF990032CE0AC
:105203002822EE98EF9922C082C083EC7001ED60F2
:105213000512198180097C087D00790012120702AA
:1052230067F874F61203617900EA7001EB60147C8D
:10523300008C08127057600479017C080CECC3944D
:105243000840EE025D6A74F712036174F312088476
:10525300ECFEEDFFE4851882851983F07401120AD0
:105263003E12600C120A8D7403120A3EAC82AD83A7
:10527300EEFAEFFB120A6FEEFAEFFB120A75025A0F
:105283002674F712036174F3120884ECFEEDFFE455
:10529300851882851983F0EAFCEBFD7403120A3E3C
:1052A3001260417401120A3E1267B974FE687003FA
:1052B30074FF696004790180027900025A26A90803
:1052C300025A2B74F7120361EAFEEBFF7508008E96
:1052D300828F83E060171252F270121252FDFC8A21
:1052E300828B83E05C7006E04CF012127380CF1265
:1052F3000A51E9F508740165082212733BEF127332
:10530300361267E01251F0FAA3E039FB025D19741B
:10531300F01203618A088B09EA2403FEEB3400FFD1
:105323007C007D000A0A0AFB120A6FE508240BF5CC
:105333000CE50912730F7900850882850983A3851B
:10534300820A85830BE064FE7004A3E064FF60655A
:10535300890889098054E50875F00BA4FAACF07547
:10536300F00BE5091253D5603E850A82850B831243
:1053730074F3A3E06C7003A3E06D702BEA2403F5D0
:105383000EEB3400F50F1253C2700BAC0EAD0FEEE3
:10539300FAEFFB120A6F850C82850D831272D9799D
:1053A3000190032A125FE012704A1253CDE5089A66
:1053B300E5099B40A180031208217F080205E50A45
:1053C3000A0AFB120A75E964012290032A126FACE0
:1053D300C322A42CFB90032CE02AFAA3E03BFB8A14
:1053E300828B83E0540F2274EF1203618A828B83D2
:1053F300A385820E85830F127314EA240BF508EB41
:10540300127052850882127312751000EA2403F594
:105413000CEB3400F50D1253C27063750A00750B63
:10542300008053E50A75F00BA4F8AAF075F00BE5BC
:105433000B125488540F603BAE82AF83EE2403FCFF
:10544300EF3400FDAA0CAB0D12197BE96401702344
:105453008E828F83A312663D850E82850F8312672A
:10546300C085088285098312562875100190032A86
:10547300126F8A1250BB90032A125ED040A5A91066
:105483007F090205E512550BE02274F3120361EA6A
:10549300FEEBFF8E828F83A385820A85830B1273B3
:1054A30014EE2403F508EF1270527C007D000A0A03
:1054B3000AFB120A6FEEFAEFFB120A51E9F50C74BC
:1054C30001650C703EEE126FC4EF12551575F00BAB
:1054D300A4F8AAF075F00BE912550BA3126FA88577
:1054E3000A82850B8312664BE82403FEE93400FF2E
:1054F300EEFAEF1253C5700BEEFCEFFDAA08AB09F1
:10550300120A6FA90C025AC51251FCF8A3E0390222
:1055130073041273361267E0E82274EE12036174A7
:10552300E6120884EAFEEBFFEE240BF50AEF1250B5
:10553300C3850A82127312750E017508007509007E
:10554300751000751100E4851882851983F0EE2427
:1055530003FCEF3400FD7403120A3EAA82AB8312EC
:105563000A6F8E828F83A385820C85830D851882B3
:10557300851983AA82AB83120A93E9640170347498
:105583000B120A3E12663D850A82850B831267C0A1
:105593007401120A3E12663D850C82850D83E06814
:1055A3007003A3E069605585188285198385820895
:1055B300858309740D120A3EE41272CAF8A3E0F956
:1055C300740E120A3E1267C0740D120A3EAA82AB11
:1055D30083120A8DE96401700B740D120A3E8582F1
:1055E30010858311781012080EAC08AD09EEFAEF9E
:1055F300FB120A637402120821E9F50EEEFAEFFBBF
:10560300120A87A90E741A026F71EA75F00BA4FAD5
:10561300ACF075F00BEBA42CFB90032C1276B3F5D6
:1056230083E0540F22E50AF0A3E50BF02212604851
:10563300120A9F22120AA58A828B83E58222C082E4
:10564300C083EAFCEBFD7A007B00120AAB0267F829
:1056530074F212036174F31208848A0C8B0D8C0AA2
:105663008D0BC3EC94F8ED94FF4006EA7001EB60F8
:105673005F7E007F00802112572C120A3E1256DAF9
:1056830060137403120A3EAC82AD83AA0CAB0D12F5
:10569300197BE97035125C43901EA7125C375030BA
:1056A3001256F060F0E50C7002E50D70CA74FF65E8
:1056B3000A700474FF650B60DC850882850983E04A
:1056C300650A7004A3E0650B70CBAA08AB098004DC
:1056D3007A007B00025C50E8F0A3E912606C120AC6
:1056E30099E922E493F508740193F50922EEF8EFA2
:1056F300F9E875F012A4F8AAF075F012E91257143C
:10570300A3A3A3A3E064FF22EC24010CED3400FD6A
:1057130022A42AF9E82474F508E93410F509850868
:1057230082F58322E4125C3E227401851882851976
:105733008312573D1267E0740B2212637CA3227419
:10574300F6120361125D6F12728F8508F0A4CCAA62
:10575300F08509F0A42AFA8508F0EDA42AFD79FF63
:105763007AAB7B1312120790032F74C3F0A3740A4E
:10577300F090033174BDF0A3740AF090033374E71F
:10578300F0A3740AF090033574F9F0A3740AF0904F
:10579300033774FFF0A3740AF09003397405F0A380
:1057A300740BF090033B740BF0A3740BF0E49003C1
:1057B3002EF0025D6AC082C08378007900800312F4
:1057C300584C1272F05024E8FAE9FBEA75F00EA483
:1057D300FAACF075F00EEBA42CFBEA24ABF582EBEC
:1057E30012624F70DAAA82AB8380047A007B0002D4
:1057F30067F874F71203617A007B00780079008000
:105803002FE8FCE9FDEC75F00EA4FCAEF075F00E8C
:10581300EDA42EFDEC24ABF582ED12624F600EA3D6
:10582300A3A3A3A3E0FCEA2CFAEB3400FB12584C2D
:10583300901EA512583E40C9025A2B1259C6C3E8FE
:105843009CE99D227F030205E5E8240108E9340071
:10585300F92274EC12036189108A088B098C0D8D6F
:105863000C7414120A3E126F8A7E007F00120B23FF
:10587300AA08AB09120B298A0E8B0F8508828509AA
:1058830083A3A3A3A3A3A3A3A3E064017007750841
:10589300018E0980058E08850D0974FE650E70045E
:1058A30074FF650F70030259A08E0D8002050D85EC
:1058B3000D12901EA51274C8507AE50D75F00EA452
:1058C30024ABFEE5F0125D16651070E1A3E06508F8
:1058D30070DB8E828F83A3A3E0650E7004A3E06563
:1058E3000F70CA8E828F83A3A3A3A3E0650970BD43
:1058F300750D00E50DC3950C40030259A0E50DC3DA
:1059030033F8E433F9E50A28F508E50B39F5098599
:105913000882F5831274AD120ACFE97013850882E9
:105923008509831274AD120ADBE970047E007F00DF
:10593300050D80BF120AB78A128B13AE12AF13EE96
:105943007001EF60588E828F83E510F0A3E5081293
:1059530059A9E50EF0A3E50F1259A9A3A3E509F090
:10596300901EB7E493C3950C5004E493F50C8E8218
:105973008F83A3A3A3A3A3E50CF0850A08850B09D2
:10598300750A00780812080AE50CC333FCE433FDFA
:10599300EE2406FAEF34001272E1120821EEFAEF58
:1059A300FB7F0C0205E51267E6A322C082C08312C7
:1059B30059BF79FF12120779010267F8901EA912E5
:1059C30059C622E493FC740193FD2274F712036118
:1059D300EA7001EB60498A828B83A3A3A3A3A3A3E9
:1059E300E5827002E58360377E0080010E8A828B38
:1059F30083A3A3A3A3A3E0FFEEC39F5022EEC3336D
:105A0300F8E433F9EA28F582EB39F583A3A3A3A3DA
:105A1300A3A3E06C7003A3E06D70D17901800279D8
:105A2300008005740D1208217F010205E574F3124D
:105A33000361EA2405F8EB3400F9E8FEE9FFEA70B4
:105A430001EB606F8E828F83E06073EA240608EBBC
:105A53003400F9E0F50B750A00800B8E828F83E02A
:105A630014F0605A050AE50AC3950B5046E50AC3CC
:105A730033F508E433F509EA2508F508EB3509F5AC
:105A83000974062508F508E43509F509850882F542
:105A930083E06C7003A3E06D60C185088285098390
:105AA300E0F508A3E01272D3E824020808E9340001
:105AB300F980B18E828F83E06004790180027900DE
:105AC30080007F050205E574F7120361EA7001EBBC
:105AD300603AEA2405125B14C0E0901EB7E493FE1B
:105AE300D0E0C39E502688828983E0C333FEE4332B
:105AF300FFEA2EF582EB3FF583A3A3A3A3A3A3ECB5
:105B0300F0A3ED12749804F0790180027900025A2F
:105B13002BF8EB125B1A223400F988828983E02286
:105B230074F212036189088C09125C5A7005126FB2
