:020000040000FA
:06000000020A110201C812
:03002B000207E4E5
:0300330002059C27
:0300430002072190
:03005300020105A2
:03006B0002057516
:1000830002015C010101010503010F10FEFF1D12B6
:100093001D121D121D12D310CD101D128A20000037
:1000A30000002820000000000C0000000C000100EC
:1000B300006D1300000000000009140000000000A0
:1000C3000000009A04FF010101001D1100000091CE
:1000D30011E80364006400B801020200080000058F
:1000E3000107051E02051E020A03B80B803E01FF2D
:1000F300FF01140202060606060600141414141463
:100103000006C0E074F21203DCA2AFE492E0FED278
:10011300AFE5A7FAE5A1FBEA5B54106008121A3FAA
:1001230075A1EF802AEAA2E0C0D0EBA2E092F01220
:100133000961158182F05017906198E0FA90146B71
:10014300E0C39AA2D265D0335002EAF075A1FEEE65
:10015300A2E092AF7F01020493C0E074F21203DCC9
:10016300A2AFE492E0FED2AF9061A4E0FA759B00E7
:10017300E5915A540860087591F7121A81802AE5AF
:10018300915A541060087591EF121A87801BEAA2E6
:10019300E0C0D0E591A2E092F0120961158182F0EE
:1001A3005007E0C2E0F0121BBF9061A3E0FAE5E95B
:1001B3005A5404600E121B9575E9FB906193E0A2FB
:1001C300E640F2808AC0E074F21203DCA2AFE4924C
:1001D300E0FED2AF9061A5E0FAE5BF5A5404600691
:1001E30075BFFB121BD7020152C3E498F8E499F9D7
:1001F30012022D8026C3E49AFAE49BFBE920E7E987
:1002030012022DE498F8E499F922C3E498F8E499EA
:10021300F912022DE498F8E499F9C3E49AFAE49BFD
:10022300FB22EB20E7CFE920E7E0B90010BB000891
:10023300E88AF084F8AAF022E4FBC8FA22EB7022E1
:100243007B10C833C8C933C9335007C39AC3DBF221
:1002530080069A50012ADBEAC833F4C8C933F4C9CB
:10026300FA2275F008E4C833C8C933C933C99AC937
:100273009B5004C92AC93BD5F0ECFBC833F4C8E44E
:10028300C9FA22080808EAC0E0EBC0E086F0E7A458
:10029300FA180986F0E7A42AFA180986F0E7A42ACF
:1002A300FA180986F0E7A42AFA1986F0E7A4FBE511
:1002B300F02AFA190886F0E7A42BFBE5F03AFA19BD
:1002C3000886F0E7A42BFBE5F03AFA18180986F044
:1002D300E7A4C5F02BFBE43AFA1908E7C5F0C6A476
:1002E30026F6E5F03BFBE43AFA1886F0E7A4F6E5D8
:1002F300F00826F6E43B08F6E43A08F6D0E0FBD033
:10030300E0FA22E4CFC0E0E4CEC0E0E4CDC0E0E414
:10031300CCC0E075F020C3E633F608E633F608E612
:1003230033F608E633F6181818EC33FCED33FDEE1C
:1003330033FEEF33FFC3EC9709ED9709EE9709EF0F
:1003430097191919400FFFEC97FC09ED97FD09EE7A
:1003530097FE191906D5F0BEECF709EDF709EEF78C
:1003630009EFF7191919D0E0FCD0E0FDD0E0FED079
:10037300E0FF222518C582C0E0E51934FFC583C01C
:10038300E0E518C3958224F8F8E4C5A885831985A8
:100393008218C5A8E8CEF0A3E520F0A37808E60804
:1003A300F0A3DEFAEFF0A3E58124FAF8E608F0A360
:1003B300E608F0A3E608F0A30808E608F0A3E608B9
:1003C300F0A315811581D0E0FED0E0F815811581E9
:1003D3001581E8C0E0EEC0E022C0D02518C582C078
:1003E300E0E51934FFC583C0E0E518C3958224F323
:1003F30010AF088583198582188008858319858243
:1004030018D2AFC8F0A3E9F0A3EAF0A3EBF0A37905
:1004130008E709F0A3D8FAECF0A3EDF0A3EEF0A3FC
:10042300EFF0A3D0E0F0A3D0E0F0A3D0E0F0A3E599
:1004330020F0A3E5F0F0A322120A5BB90003020443
:100443007DE490030178C979178002F0A3D8FCD921
:10045300FA9019C9AA82AB839000867880790180CB
:1004630015E493A3AC82AD838A828B83F0A3AA8223
:10047300AB838C828D83D8E9D9E775823B7583B5CD
:1004830074031207C675826B75831E74001207C648
:10049300851983851882E0C0E0A3E0F9A3E0FAA3FD
:1004A300E0FBA37808E0F608A3DFFAE0FCA3E0FD95
:1004B300A3E0FEA3E0FFA3E0C0E0A3E0C0E0A3E06D
:1004C300F5D0A3E0F520A3E0A3F5F0E4C5A8858368
:1004D30019858218C5A8D082D083D0E0F8D0E03245
:1004E300D083D082ECC0E0EDC0E0E493A3FCE493BE
:1004F300A3FDED4C600D1205BBEC24FFFCED34FFB6
:10050300FD80EFE493A3FCE493A3FDED4C600D1297
:1005130006CCEC24FFFCED34FFFD80EFD0E0FDD0F2
:10052300E0FCE493A3C0E0E493C0E022D083D08254
:10053300E9C0E0E493A3C386F0C5F095F0F908E4BD
:1005430093A386F0C5F095F0700BE493A3C3994091
:1005530005E9048002A3E475F002A42582F582E58F
:10056300F03583F583D0E0F9E493A3C0E0E493C0CE
:10057300E022C0E074F21203DCA2AFE492E0FED208
:10058300AFE589A2E15003121913758900C2C5EEC4
:10059300A2E092AF7F01020493C0E074F21203DC85
:1005A300A2AFE492E0FED2AFE58BA2E050031219B2
:1005B30013758B00C2E880D7C0E0C3E49396087438
:1005C30001939618400FE4936670080874019366CC
:1005D3001870007019A3A3C3E4939608740193964B
:1005E30018A3A3400DD0E0D0E0D0E002051FA3A3E1
:1005F300A3A3A3A3D0E022851983851882E0A3FED9
:10060300E0A3F5207808E0A3F608DFFAE0A3FFE013
:10061300A3C0E0E0A3C0E0E0A3C0E0E0A3C0E0E04B
:10062300A3C0E0E4C5A8858218858319C5A8D08333
:10063300D0820207CCD083D082C5F0E493A3C5F067
:10064300C395F0F5F0E493A3C395F04005E5F004FA
:100653008001E475F002A42582F582E5F03583F587
:1006630083E493A3C0E0E493C0E0227404800474A1
:10067300028000CCC0E0EDC0E0E518C39CCCAD190E
:1006830050011D10AF068C188D1980068C188D191A
:10069300D2AF120767D0E0FDD0E0FC2274028000E5
:1006A300CCC0E0EDC0E0E518C39CCCAD1950011DF2
:1006B30010AF068C188D1980068C188D19D2AF12C5
:1006C3000745D0E0FDD0E0FC22C0E0C0F088F0E4B4
:1006D300936670080874019366187000A8F0A3A3CA
:1006E300700BD0F0D0E0D0E0D0E002051FA3A3D080
:1006F300F0D0E022D083D082CCC0E0E493A36006A4
:100703001207A71470FAE493A36006120883147007
:10071300FAD0E0FCE493A3C0E0E493C0E022C0E09D
:1007230074F21203DCA2AFE492E0FED2AFC2C0E5E2
:10073300D1A2E450031219B5EEA2E092AF7F0102F9
:100743000493CAC0E0E493A3C582CCC582C583CD1C
:10075300C583F0A3C582CCC582C583CDC583DAE545
:10076300D0E0CA22CAC0E0E0A3C582CCC582C5835B
:10077300CDC583F0A3C582CCC582C583CDC583DA3D
:10078300E6D0E0CA22700908080822601618181873
:10079300C6C333C608C633C608C633C608C633C67F
:1007A300D5E0EA22C0E0E493A3D39C5010E493A3E2
:1007B300C39C400AD0E0D0E0D0E0020714A3A3A377
:1007C300D0E022C09FF59FE473D09F22D083D082D4
:1007D300C09FE493C0E0740193C0E0740293F59F5B
:1007E30022C0E0C0D0EAC0E0A2AFE492E0D2AFC240
:1007F300C7A2E092AFD0E0FAD0D0D0E0322518F50E
:100803008210AF08F518400215198008F518400248
:100813001519D2AF851983227404800A74038006E4
:10082300740280027401C0E0F404120800D0E012E4
:100833000A4E22C0D0251810AF08F518500205192A
:100843008008F51850020519D2AFD0D022BB01029F
:10085300E722C082C08389828A83BB0003E08002CF
:10086300E493D083D082226016080808C6C313C657
:1008730018C613C618C613C618C613C6D5E0EA228F
:10088300C0E0E493A36C7009D0E0D0E0D0E00207AD
:1008930014A3A3D0E022251810AF08F518400215C1
:1008A300198008F51840021519D2AF22E0667010BE
:1008B30008A3E066700A08A3E066700408A3E06674
:1008C30022C3E7960809E7960809E7960809E79619
:1008D300A2D265D03322C3E09608A3E09608A3E032
:1008E3009608A3E096A2D265D03322C3E096F0081F
:1008F300A3E096F008A3E096F008A3E096F022E0C8
:1009030026F008A3E036F008A3E036F008A3E036AB
:10091300F022E026F608A3E036F608A3E036F60850
:10092300A3E036F622E627F60809E637F60809E6D5
:1009330037F60809E637F622E657F60809E657F6CA
:100943000809E657F60809E657F622E056F608A323
:10095300E056F608A3E056F608A3E056F622C0E0F8
:10096300E8C0E0E58124FCF8E6A2E7D0E0F8D0E0B7
:1009730022E046F008A3E046F008A3E046F008A30F
:10098300E046F022E056F008A3E056F008A3E05654
:10099300F008A3E056F022E647F60809E647F60812
:1009A30009E647F60809E647F622700422600D18A7
:1009B300C6C333C608C633C6D5E0F41822E4C396CB
:1009C300F608E496F608E496F608E496F622600D37
:1009D30008C6A2E713C618C613C6D5E0F322C6F4A9
:1009E300C608C6F4C608C6F4C608C6F4C622C3E7DA
:1009F300960809E7960809E7960809E79622C3E0EF
:100A03009608A3E09608A3E09608A3E0962275D083
:100A1300007581407518017519030002043BE0F667
:100A230008A3E0F608A3E0F608A3E0F622600C08AA
:100A3300C6C313C618C613C6D5E0F422E6F008A34E
:100A4300E6F008A3E6F008A3E6F022CAC0E0E6F069
:100A5300A308DAFAD0E0FA2274F855C74401F5C7BF
:100A63007901222518F582E43519F58322C2AF7581
:100A7300D69F020000221207CFDC83011207CF4D5D
:100A830084011207CF6884011207CF8C84011207F7
:100A9300CFC784011207CF0485011207CF27850131
:100AA3001207CF7585011207CF4F86011207CF00BA
:100AB30087011207CF9087011207CF8088011207A1
:100AC300CFC388011207CFE788011207CF39890105
:100AD3001207CF5E89011207CF908A011207CFBD9B
:100AE3008A011207CFCF8A011207CFD98A011207D1
:100AF300CF6C8B011207CFDB8B011207CF848C01E4
:100B03001207CF8C8C011207CF658D011207CFDB43
:100B13008D011207CF188E011207CF7B8E011207AA
:100B2300CFD18F011207CFF18F011207CF5390015D
:100B33001207CFED90011207CF4691011207CFD5CF
:100B430091011207CF9192011207CFCF92011207A1
:100B5300CF3E93011207CF9893011207CFD0930191
:100B63001207CF0295011207CF3C96011207CF9DC2
:100B730096011207CFE696011207CF0E97011207CF
:100B8300CF9197011207CF1198011207CF849801D3
:100B93001207CF9598011207CF0999011207CFA425
:100BA30099011207CFE699011207CF6C9A01120738
:100BB300CFA89A011207CFBB9A011207CF099B0155
:100BC3001207CF4A9B011207CFCF9C011207CF64B4
:100BD3009E011207CF999E011207CF369F0112077C
:100BE300CF759F011207CFB09F011207CF94A001C9
:100BF3001207CFD0A2011207CFDAA2011207CFE466
:100C0300A2011207CFEEA2011207CF08A301120718
:100C1300CF12A3011207CF1CA3011207CF26A301F2
:100C23001207CF4BA3011207CFA8A3011207CFCC02
:100C3300A3011207CFF0A3011207CF4FA40112079C
:100C4300CFA6A4011207CFC4A4011207CF34A50174
:100C53001207CF71A5011207CFB8A5011207CF2044
:100C6300A6011207CFAFA6011207CFEAA701120709
:100C7300CF3AA8011207CF70A9011207CFD4AA0156
:100C83001207CF60AD011207CF32AF011207CFE9D0
:100C9300B0011207CF4FB1011207CF5FB2011207A4
:100CA300CF10B3011207CF55B3011207CF06B4011A
:100CB3001207CF94B4011207CFBCB4011207CF7E41
:100CC300B5011207CF64B8011207CF89B801120723
:100CD300CFDBB8011207CFD9B9011207CF11BA017F
:100CE3001207CF51BA011207CFB0BA011207CFCE04
:100CF300BB011207CF2EBC011207CF12BD01120791
:100D0300CF1CBF011207CF3EBF011207CFD1C001D5
:100D13001207CF17C1011207CFEBC1011207CF7E14
:100D2300C2011207CFADC2011207CFD8C201120709
:100D3300CFC3C3011207CFFFC3011207CF61C401A1
:100D43001207CFEFC4011207CFF2C4011207CF611C
:100D5300C5011207CF8222001207CFD42200120747
:100D6300CF2B25001207CF7725001207CF6A260065
:100D73001207CFD526001207CF1627001207CF6C14
:100D830028001207CF8F2A001207CF262B00120745
:100D9300CFBA2B001207CF8932001207CF1D3300C1
:100DA3001207CF9A35001207CF7E36001207CF23E2
:100DB30037001207CF3C38001207CF663B001207FB
:100DC300CF293D001207CF893D001207CF3D3E00DA
:100DD3001207CFE63E001207CF113F001207CF9E46
:100DE3003F001207CF8240001207CF56410012077F
:100DF300CFF441001207CF2142001207CF43420034
:100E03001207CF5F44001207CF3145001207CF7E90
:100E130045001207CFEF45001207CF9D460012078A
:100E2300CFD246001207CF2047001207CF5047000A
:100E33001207CF8E47001207CFF247001207CFF7F2
:100E430047001207CF5248001207CF7A4800120713
:100E5300CF9049001207CFF149001207CF544A003F
:100E63001207CFE74A001207CF1C4D001207CFF538
:100E73004D001207CF854F001207CF1551001207FF
:100E8300CFB251001207CFF152001207CF8A53009D
:100E93001207CFD253001207CF4555001207CF597F
:100EA30055001207CF6655001207CF815500120770
:100EB300CF8D55001207CFAB55001207CF7D5700DA
:100EC3001207CFB657001207CFC357001207CF1030
:100ED30058001207CF0359001207CF4759001207D2
:100EE300CFD959001207CFDE5A001207CFAB5B00F0
:100EF3001207CF155D001207CF1A5E001207CFB09D
:100F03005E001207CF335F001207CF4A5F0012075C
:100F1300CF6E5F001207CF785F001207CF845F00A8
:100F23001207CFA25F001207CFE65F001207CF3789
:100F330060001207CF9460001207CFF5600012071C
:100F4300CFFC61001207CF0C63001207CFAB630025
:100F53001207CF9864001207CF2F65001207CFC680
:100F630065001207CF9666001207CFC56600120709
:100F7300CF3767001207CFE567001207CF0B680072
:100F83001207CF2A69001207CF4969001207CFB8A9
:100F930069001207CF316A001207CF576A001207A0
:100FA300CF836A001207CFCE6A001207CF526B00BD
:100FB3001207CFF96C001207CF226D001207CFA7DB
:100FC3006D001207CF016E001207CF266E001207C5
:100FD300CF6C6E001207CF896E001207CF376F00F8
:100FE3001207CF8CD4031207CFD7D4031207CF2F06
:100FF300C6011207CF69C6011207CF3CC70112070A
:10100300CF12C8011207CF41C9011207CFCACA01C3
:101013001207CF48CB011207CF0ECC011207CF2FF7
:10102300CD011207CFA1CD011207CF03CE011207C5
:10103300CF65CE011207CF6FCE011207CFADCE0120
:101043001207CF16CF011207CFB5CF011207CF3347
:10105300D0011207CFE6D0011207CF58D1011207F2
:10106300CF7ED1011207CFAED1011207CFDBD10161
:101073001207CF81D2011207CF91D2011207CFE419
:10108300D2011207CFF0D2011207CFFCD20112070F
:10109300CF05D3011207CF68D3011207CFC8D301FD
:1010A3001207CF19D4011207CF34D4011207CF642A
:1010B300D4011207CF85D4011207CF91D4011207AF
:1010C300CF18D6011207CF36D6011207CF9FD6010C
:1010D3001207CFB2D6011207CFC3D6011207CF56DC
:1010E300D7011207CF59D8011207CF4FD9011207E1
:1010F300CFD2D9011207CFDBD9011207CF3EDA01D4
:101103001207CF55DA011207CF97DA011207CFDCA6
:10111300DA011207CF0BDB011207CF42DB01120703
:10112300CF5FDB011207CF83DB011207CFC4DB01E3
:101133001207CFB7DC011207CFFDDC011207CF384E
:10114300DD011207CF97DD011207CFBFDD011207C3
:10115300CFF8DD011207CF06DE011207CF67DE01EC
:101163001207CFA4DE011207CFE6DE011207CF1765
:10117300DF011207CF4BDF011207CF56DF01120742
:10118300CF74DF011207CF3DE0011207CF47E00123
:101193001207CF86E0011207CF9CE0011207CF06AA
:1011A300E1011207CF1AE1011207CF12E201120780
:1011B300CF25E2011207CF3AE2011207CFDAE201AB
:1011C3001207CF3EE3011207CF05E4011207CF1048
:1011D300E4011207CF2FE5011207CF4BE5011207F8
:1011E300CFA3E5011207CFDAE5011207CFF4E5013A
:1011F3001207CF68E6011207CFF9E6011207CF41C4
:10120300E7011207CF66E9011207CFD0E901120700
:10121300CF3BEA011207CF81EC011207CF91EC011A
:101223001207CF94EC011207CFA0EC011207CFB441
:10123300EC011207CFBCEC011207CF01ED0112073D
:10124300CFAFED011207CF1FEE011207CF83EE01DF
:101253001207CF1CEF011207CFB6EF011207CFE43D
:10126300EF011207CF83F0011207CF8FF0011207AE
:10127300CFBEF0011207CFC1F0011207CF38F10141
:101283001207CF28F2011207CF00F3011207CF8A0A
:10129300F3011207CFABF4011207CF5DF50112077B
:1012A300CF96F5011207CFC7F5011207CFD0F5018D
:1012B3001207CF0CF6011207CFF3F6011207CF6F17
:1012C300F7011207CFFFF7011207CFC9F801120781
:1012D300CF4DF9011207CF83F9011207CFCCF901E2
:1012E3001207CF3BDB021207CF4DDB021207CFC140
:1012F300DB021207CFF7DB021207CF4EDC02120725
:10130300CF35DE021207CF10E0021207CF48E30207
:101313001207CF8BE3021207CFA5E3021207CF0711
:10132300E4021207CF43E4021207CF73E402120769
:10133300CFADE4021207CFB0D3031207CFAECB0376
:101343001207CFCDCB031207CF18CC031207CF62FE
:10135300CC031207CF05CD031207CFB7D203120771
:10136300CF99C8031207CFD7C9031207CFE2870368
:101373001207CF5F88031207CF7F88031207CFA618
:1013830088031207CFBA88031207CF128903120703
:10139300CF4289031207CFE88A031207CFAD8B032D
:1013A3001207CFFF8B031207CF498C031207CF8697
:1013B3008C031207CFE98C031207CF258D03120785
:1013C300CF9C8D031207CF1DA1021207CFDFC403E9
:1013D3001207CFF8C4031207CFA4C5031207CF53D4
:1013E300C6031207CF80C6031207CF7D7C00120706
:1013F300CFF87C001207CF037D001207CF287D00B2
:101403001207CF9FEE021207CFA2EE021207CF4DB3
:10141300EF021207CF78EF021207CFD0EF021207C5
:10142300CF0A83011207CF15F0021207CF4BF00248
:101433001207CFA0F0021207CFD9F1021207CF1083
:10144300F2021207CF31F2021207CF89F20212071A
:10145300CF30F3021207CF7EF3021207CFC2F4029A
:101463001207CF58F5021207CF6CF6021207CF9777
:10147300F6021207CFC9F6021207CF09E5021207D7
:10148300CF13E5021207CF5FE5021207CFCFE502C4
:101493001207CFECE5021207CFAEE6021207CF63C5
:1014A300E9021207CF6CE9021207CFC2E902120761
:1014B300CFEDE9021207CF52EA021207CFEEEA029A
:1014C3001207CF2BEB021207CF7CEB021207CFD60A
:1014D300EB021207CF06EC021207CF88EC021207C9
:1014E300CFD5EC021207CF07ED021207CF3CED0276
:1014F3001207CF4CED021207CF5CED021207CF7B30
:10150300ED021207CF32EE021207CF6BEE02120783
:10151300CFB6D0031207CFD7C2031207CF3BC30303
:101523001207CF62C3031207CF68C4031207CF6940
:10153300A2021207CF9DA3021207CFEDA302120747
:10154300CFB2A5021207CFF2A5021207CF6AA802F3
:101553001207CFB1A8021207CF47AA021207CFE89A
:10156300AA021207CF48AB021207CFCAAB02120777
:10157300CFFEAB021207CF41AC021207CFBFAD02C1
:101583001207CF53AF021207CF94B1021207CFBE97
:10159300B1021207CFF9B1021207CF03B202120749
:1015A300CF60B2021207CFE3B2021207CF3CB602FA
:1015B3001207CFE0FF021207CFF6FF021207CF3266
:1015C300D5031207CF57AB031207CF6FAB03120735
:1015D300CF17AC031207CF58AC031207CF75AC0378
:1015E3001207CF9BAC031207CFE2AC031207CF1B4A
:1015F300AD031207CF4FAD031207CFE1AE031207BE
:10160300CF19CD031207CF4BCD031207CF61CD0303
:101613001207CFA6CD031207CFBBCD031207CF52BC
:10162300CE031207CF5CCE031207CFD39B0312075F
:10163300CF7C9C031207CF4F9D031207CF6E9E03EF
:101643001207CF3D9F031207CF829F031207CF716B
:101653006F001207CFBF6F001207CFA570001207EC
:10166300CF3271001207CF7C71001207CFCD71000A
:101673001207CF2A72001207CF3E72001207CF2340
:1016830074001207CFA974001207CFD37400120796
:10169300CFB576001207CFD076001207CF117700AF
:1016A3001207CF4477001207CF9D77001207CFB9F7
:1016B30077001207CF1D78001207CF9A790012071F
:1016C300CFCE79001207CFFE79001207CF097A0037
:1016D3001207CF527A001207CFF77A001207CF19F9
:1016E3007B001207CF237B001207CF267B00120754
:1016F300CF9B7B001207CFB87B001207CFCB7B00B9
:101703001207CF327C001207CF657C001207CF305F
:10171300D4031207CF48D4031207CF008003120764
:10172300CF5180031207CF1482031207CFE2830342
:101733001207CF2C84031207CF6585031207CFB49A
:1017430086031207CFD286031207CF268703120719
:10175300CFAE87031207CFECC9021207CF20CA020C
:101763001207CF03CB021207CF91CB021207CFF799
:10177300CB021207CF39CC021207CFB0CC0212072B
:10178300CF45CD021207CFC9CD021207CF05CE0236
:101793001207CFE1D1021207CF8CD3021207CFB2C7
:1017A300D3021207CF70D4021207CF73D4021207E9
:1017B300CF32D5021207CF5CD6021207CF83D702EE
:1017C3001207CFFED7021207CF29D9021207CF1F64
:1017D300DA021207CF94DA021207CFBDB60212075C
:1017E300CF79B7021207CFEFB7021207CF07B802BC
:1017F3001207CFA3B8021207CFE6B8021207CFE24F
:10180300B9021207CF0EBA021207CF79BA02120732
:10181300CFCBBA021207CF28BB021207CFFBBD0200
:101823001207CF9DBE021207CF19BF021207CF8E38
:10183300C0021207CF3BC1021207CFE2C102120757
:10184300CF37C2021207CFADC2021207CFD7C302EE
:101853001207CF7FC5021207CF9EC6021207CF3BE6
:10186300C7021207CFABC7021207CFB0C8021207D5
:10187300CFF7FF011207CFFAFF011207CF39BA03DF
:101883001207CF68BA031207CF17BB031207CF7D26
:10189300BB031207CFEEBB031207CFCBB50312076F
:1018A300CF3CB7031207CF2D7F001207CF3E7F0037
:1018B3001207CFE67F001207CFD2C6031207CFE08D
:1018C300C6031207CFA8D6031207CF4CFF01120796
:1018D300CF5CFF011207CF77FF011207CFDFFF01B4
:1018E3001207CFA2CF031207CF2BD0031207CF9D2E
:1018F300D0031207CF34CA031207CF52CA03120709
:10190300CFB5CA031207CFD5CA031207CF23CB0320
:101913001207CF7DCB031207CFCE92031207CFE37B
:1019230092031207CFFC93031207CF3D94031207D0
:10193300CF5794031207CFDB94031207CFD6950337
:101943001207CF4A96031207CF6696031207CF7B7F
:1019530096031207CF8996031207CFA396031207A4
:10196300CFBA96031207CFDF96031207CF30970340
:101973001207CFF69F031207CF04A0031207CF82EB
:10198300A0031207CF56A1031207CF8AA30312079E
:10199300CF12FA011207CF91FA011207CF41FB01CF
:1019A3001207CFB2FB011207CFB8FC011207CF3CDD
:1019B300FE011207CF9CFE011207CFEEFE011207B4
:1019C300CFF7FE011207CF0DFF011207CF1FFF0153
:1019D3001207CF31FF011207CF3AFF011207CF14CD
:1019E3008E031207CF698E031207CF7D9003120770
:1019F300CFB590031207CFDA90031207CFF390030A
:101A03001207CF0C91031207CF0192031207CF8F56
:101A130092031207CFCBC0031207CF0EC1031207E5
:101A2300CF1FC1031207CF52C1031207CF8AC103CD
:101A33001207CFC2C1031207CF2AC2031207CF5D19
:101A4300C2031207CF91B2031207CFBCB20312072E
:101A5300CF03B3031207CF12B3031207CF31B3037C
:101A63001207CF9BB3031207CFA4B3031207CF050B
:101A7300B4031207CF29B4031207CFEFB40312073D
:101A8300CFFCB4031207CF0DB5031207CFC1D503A3
:101A93001207CFDED5031207CFB6A7031207CF1E57
:101AA300A9031207CF2BA9031207CF44A9031207D7
:101AB300CF57A9031207CF71A9031207CF90A90328
:101AC3001207CF0FAA031207CFDBAA031207CF38DF
:101AD300AB031207CF48AB031207CF45FF02120730
:101AE300CF6AFF021207CF93FF021207CFBBFF0299
:101AF3001207CF76BC031207CF9DBC031207CFC4D6
:101B0300BC031207CF34BD031207CFD5B7031207A7
:101B1300CFEEB7031207CFFAB7031207CF03B80309
:101B23001207CF27B8031207CF33B8031207CF42E8
:101B3300B8031207CF60B8031207CFB2B803120776
:101B4300CFECB8031207CF21B9031207CF70B90343
:101B53001207CFBCB9031207CFD4B9031207CFDEE4
:101B6300B9031207CFEFB9031207CF33BA03120732
:101B7300CFE1D4031207CF15F7021207CF41F702C3
:101B83001207CF5DF7021207CF70F7021207CF8655
:101B9300F7021207CFF2F7021207CF2CF80212074F
:101BA300CF9AFB021207CFB9FC021207CFEAFC025D
:101BB3001207CF4CFD021207CF27FE021207CF4FA9
:101BC300FE021207CF64FE021207CF74FE02120751
:101BD300CFB5FE021207CF0AFF021207CF1AFF0288
:101BE3001207CF5FCE031207CF7ACE031207CFA41B
:101BF300CE031207CFC1CE031207CFE9CE031207DC
:101C0300CF0BCF031207CF24CF031207CF53CF033A
:101C13001207CF6ECF031207CF7DD5031207CFF97B
:101C2300AE031207CF00AF031207CF0DB0031207A5
:101C3300CF3FB0031207CF65B0031207CF98B003AD
:101C43001207CFAAB0031207CFE5B0031207CF558F
:101C5300B1031207CF92B1031207CFDFB10312070B
:101C6300CF0DB2031207CF2DB2031207CFA4BE03C9
:101C73001207CFE0BE031207CFE3BF031207CFC89B
:101C8300C0031207CFB7D1031207CF15D203120730
:101C9300CF54D2031207CF95D2031207CFEFA3037A
:101CA3001207CF17A4031207CF60A4031207CF7A3A
:101CB300A4031207CFA2A4031207CFB9A4031207E8
:101CC300CFC6A4031207CFE3A4031207CFD0A50303
:101CD3001207CF07A6031207CF11A6031207CF22BD
:101CE300A7031207CF2BA7031207CF34A7031207AB
:101CF300CF3DA7031207CF46A7031207CF6797036A
:101D03001207CF549B031207CF629B031207CF33F3
:101D1300D6031207CFFDD5031207CF62D6031207EE
:101D2300CF8AD6031207CF81A0021207CF0F9F02DB
:101D33001207CF8C9C021207CF989B021207CF7910
:101D43009B021207CF019B021207CFB09A02120720
:101D5300CF689A021207CFA899021207CF8796027B
:101D63001207CF5F96021207CF0296021207CFEA3D
:101D730095021207CF3595021207CFD694021207A8
:101D8300CF2B93021207CFCF92021207CFCC92022E
:101D93001207CFD591021207CFB591021207CF05D3
:101DA30091021207CF7D82011207CF118201120720
:101DB300CFF281011207CF878F021207CF4E8F0216
:101DC3001207CF1F8F021207CF1C8F021207CFE01B
:101DD30081011207CF0E8F021207CFFA8E0212076C
:101DE300CFED8E021207CF008E021207CF3EA20262
:101DF3001207CFF5EF021207CF8C8D021207CF52D5
:101E03008D021207CFFA8C021207CFC98C02120778
:101E1300CFF989021207CFED89021207CF60890239
:101E23001207CFAE88021207CF4D86021207CFB634
:101E330083021207CF8083021207CF268202120782
:101E4300CFD981021207CF1281021207CF67800216
:101E53001207CF3A80021207CF0080021207CF2069
:101E6300A2021207CFF68D0300000080FBE473008B
:101E730001363601010001020100010301000104E2
:101E830001060605020000070100340801000F09DE
:101E93000401010D0100FF0E0800001702000019E4
:101EA3000100FF1A0100011B0100FE1C0100081DB7
:101EB3000200001F01000120010001210200002394
:101EC30001000F2402000026010001270100082859
:101ED3000200FF2A0100072B0102402C0100002D04
:101EE3000100012E0100012F0100FF30010B1C3105
:101EF3000800003A0100083B01000F2F0100000118
:101F0300017101010101011101010131010101010E
:101F1300018001100161013B001400630173017230
:101F230001620143010001130106013D0135000473
:101F33000112010001000100010001040104013349
:101F43000133013C01440132013600000100016507
:101F530001000135008101000105018201830100B7
:101F630001030471040204600411047004020402F6
:101F730004010402041004610400041404630473E0
:101F830004720462044304000413040604000400FE
:101F93000404041204000400040004000451046453
:101FA30000000400040004440400040004000400CE
:101FB30004650400043504810464000504000483FB
:101FC3000400040302710230016002110270020175
:101FD30002020202028002100261023A004100631F
:101FE300027302720262024302000213023800000B
:101FF30002000204021202000200020002000204B4
:10200300020402370037003C024402000239000098
:10201300020002650200023502810200020502820B
:10202300028302000201037103010301030103019F
:10203300030103220302030103100300030003004F
:102043000300030003000300034203000324030609
:1020530003000300030403120325032303250323BF
:102063000304030403000300030003440300030009
:1020730003230300036503210035038103000305E4
:10208300030003000300030300710030016000112B
:102093000070003102200350048000100061000032
:1020A3000014006300730072006200430000001319
:1020B3000006000000000004001200000000000001
:1020C30000000004000400370037003C0244000015
:1020D30000000000000000650000003500810000E2
:1020E3000005000000830000003600010006000028
:1020F300000F0000000000000000000000000003CB
:10210300FFFF00000403FFFF0000FFFF0FF40100C7
:1021130005C4040320000100000B000000000000C0
:10212300000003010F000017181300B71701001771
:102133001802006F170300751704007B1705008151
:102143001706008D171100AB171400B11715009F68
:1021530017FFFF0000019D0D06C70D08C10D0BD928
:102163000D10070D02A30D05B50D07A90D0C7F0D6D
:102173000D910DFF00002D115D1133113911571110
:102183004B114511631169116F117B113F11271118
:10219300211103EAF5E5D5D5C5B5A59595858575D1
:1021A30075656555554545353525251515050016C0
:1021B3000F00000B150B020002220F320000061D58
:1021C300122F123512F7103B12F110FD107D129BE6
:1021D30012A11283128F12891231102B1067106D06
:1021E300106110191000034948424D1817250502C4
:1021F30000011916181616152303000C0E020B0402
:102203000B0A0708000F303016181920231A1C1E5A
:1022130030303017181921301B1D1F3000383C3E59
:10222300363B3B352B432C71124112471253124D4F
:1022330012511175119512811187110204020101C6
:10224300010109020005150D091008043D10431092
:102253003710731000000000000049105B1000BE2F
:10226300040AE8030E001500040028000309010511
:10227300100A0309000008FF1E1E0F0408100CC0FB
:1022830082C083E99003CDF0E4900382F0121C6DC9
:102293009003E1E4F0A3F09003CEF0A3F0120F83D8
:1022A300120AC1120C5F121C73900342E4F0A3F0F4
:1022B3009003F3E07002A3E060099003F31257DA8E
:1022C300121E7090227DE493FA7902121CDF0247FA
:1022D300EB74F2120376EAFEEBFF74805FF9E470AD
:1022E30001E960619003CDE0F91214B78A088B0904
:1022F300EA7001EB60467B0080010BEB75F003A4F1
:102303002458F8E5F03421F988828983E493FA7438
:10231300FF6A6021850882850983E06A70DCAA0868
:10232300AB0988828983A3E493C0E0740193F583A6
:10233300D082121E70AA08AB091214ABEEFA748095
:102343006FFB02251474205FF9E47001E9601D122C
:102353000E578A088B09EA7001EB600A120D91AAE5
:1023630008AB091214ABEEFA742080D4EE5420703B
:1023730003022445750C001244517001EB700B7C71
:10238300027D007A207B0012687D7C0079047A004C
:102393007B00120E218A088B09800D7401888289C3
:1023A30083F0850A08850B09E5087002E509606D6D
:1023B3007C007904AA08AB09120E218A0A8B0B75DB
:1023C3000C01E50824041268CF24FFF0A3E034FFD6
:1023D300126B357002A3E070C9E5082409F8E5091A
:1023E3003400F9850882850983A3A3A3A3A3A3A328
:1023F300A3A3A3E0640170A3850882850983A3A333
:10240300A3A3A3A3E054047092740688828983F083
:102413007AB785088285098312265F8085120DF1BC
:102423007C0079017A007B00120E21EA7001EB70C7
:1024330009E50C70057A2012252074206EFAEF024C
:102443002344EE54106007120C95741080EEEE5482
:10245300406007120CEF744080E2EE548060071274
:102463000BB1748080D674015FF9E47001E9601ADE
:102473009003F5E07002A3E060099003F51257DAC8
:10248300121E70EEFA740102234374085FF9E470BC
:1024930001E9602D120C6B9011ECE06401701B904C
:1024A30011EDE06015FC75F0E8A4CCAAF075F0031B
:1024B300A42AFD7A007B0812687DEEFA74080223D1
:1024C3004374105FF9E47001E960129003DFE06088
:1024D30005E4F0120C6BEEFA741002234374025FEE
:1024E300F9E47001E9600A120F7DEEFA7402022327
:1024F3004374045FF9E47001E96012125B7D1259C1
:10250300D37901123674EEFA74040223437A007B02
:1025130000800574031208367F060205FA7B0090DB
:1025230003CDE0F91215E92274F712037674E11270
:102533000899EAFEEBFFEE7001EF603385188285A0
:102543001983AC82AD83120E817406120A66E060B1
:102553001E7417120A66E0FD7401120A66E0FCEEAF
:10256300FAEFFB7900121E5FE9600479A480027917
:102573000002494074F5120376EAFEEBFF8E828F68
:1025830083A3A3A3A3A3A3E0544060181261E7604D
:10259300067AFF7BFF806A8E828F83124D13FAA324
:1025A300E0FB805390036DE0A2E15048125F1324D7
:1025B3001CF8EB12443C7508FE7509FF78081208F5
:1025C3002312321012067279008C828D83125E07F9
:1025D300A3A3A3E0F5088C828D83125B6AA3A3E017
:1025E300FDAC088A828B831254BB120C71740412E3
:1025F30008368003120EA574FE6A700374FF6B60C5
:10260300431257D6125D04120F23E98E828F836023
:1026130006122658E480051226587401F07C617D69
:102623000D8E828F831254BB121CD9E9F5087017E3
:10263300EE7001EF60097901EEFAEFFB120DFDA9CF
:10264300080260767508CDAA088E828F8312265FF2
:10265300E960DD80EAE0240D124F6F22E0240C12C2
:10266300498BF9120D6D2274F6120376E9FEEAFF27
:102673007A0F7B001214A5EA7001EB6019740C8ABF
:10268300828B83F0EEA3A3F0EF8A828B83A3F012F5
:1026930059C479008028EEF9120E278A088B09A8FD
:1026A30008A909E87001E960137406888289831216
:1026B3006B3AE0F9120D01EEF9120E03791002578D
:1026C300D1EAFCEBFD7A017B009003CDE0F9121512
:1026D300DD22C082C0837900EA241DF582EB123229
:1026E300161254BB90036DE0A2E18A828B83E05003
:1026F3000E1206F701010AFF2600132709801112A3
:1027030006F7010304FF260207FF260AFF26132705
:102713000247EB74EE120376EAFEEBFF8C088D0999
:10272300890E7412120A66E0F510A3E0F511851004
:1027330082F583E4F0A3F0122848EE241DF8EF3469
:1027430000F9880C890D8882122861601F850A822E
:10275300850B83122B207014850A82850B83124A02
:10276300CB8510828511831259D38003750E0085A2
:102773000C82850D83124D131206380109E7279643
:1027830027AE27BC27C727E727F127E7270B2824EE
:102793002837287810120823AC08AD09EEFAEFFBAE
:1027A300120C7D7402120836022840AC08AD09EE03
:1027B300FAEFFB120C83022843A90EEEFAEFFB1289
:1027C3000F3B8079126CB664027019E50E700A1221
:1027D30028557003A3E0697067EEFAEFFBA90E12A8
:1027E3000EF38059750E007901121C7F8052122856
:1027F300557003A3E06970EC126CB6640270E5EEE9
:10280300FAEFFB120EDB80389003F7E07002A3E0CF
:10281300602EEEFAEFFB9003F71257DA121E708068
:102823001F1228557003A3E06970B9EEFAEFFB128B
:102833000F47800CEEFAEFFBA90E120F53E9F50ECA
:10284300A90E02442DEE2409F8EF3400F9880A8911
:102853000B22850A82850B8312606FE06822F58361
:10286300124D17F9120F05E92274ED12037674DE87
:102873001208998A088B09EA2402F510EB1250EB2F
:10288300F9120E278A0A8B0BAE0AAF0BEE7001EF1B
:102893007003022953E508240C125CDF122A7E24FC
:1028A30006123208850882850983A38582088583F9
:1028B30009E064F16017E064CD6012E0641A600D12
:1028C300E064E96008E064E160030229DD850E82CB
:1028D300850F83A3E05408F9E47001E9607F740570
:1028E300850A82850B83F09003FBE07002A3E0600E
:1028F300099003FB1257DA121E709003FDE0700279
:10290300A3E0603390036DE0A2E1502B8E828F83AE
:102913001261E1A3A3A3A3A3A3A312494A123222E0
:10292300EA7001EB6011850882850983E0F9900361
:10293300FD1257DA121E70850A82850B83E064024A
:1029430070037406F0851082851183E0F9120E037B
:10295300120DF174221208367F0B0205FA79001268
:102963000DFDE9607590036DE0A2E140030228EAE2
:102973001265AD7002A3E070030228EA7403120A21
:1029830066126594850882850983E064E9701A12EA
:102993002A86120827850882850983E0F5127812B2
:1029A300120827123B23120836740C120A661254BB
:1029B300BB1257D6125D047900740E120A66124CCC
:1029C300ED740C120A6612325270030228EA850E65
:1029D30082850F83124CF70228E9850882850983D3
:1029E300E0C0E07402120A66D0E0F012672BEE2416
:1029F3000B126CB9851882851983AA82AB83700583
:102A0300120BE78003120EFF7402120A66E064E9F8
:102A13007014122A861208277512E97812120827F1
:102A2300123B2312083690036DE0A2E14003022912
:102A33003A850A82850B83E064027027850E8285BE
:102A43000F83E05404601C1261E770131257D674AD
:102A5300FFF0A3F07405850A82850B83022947746E
:102A63000380F3850882850983E064E96003022912
:102A73003AEEFAEFFB120F5902293AEE24091268D3
:102A830086EE22125F1875120178122274F5120372
:102A9300768A088B09750A00EA2409124ABEFEE900
:102AA300FF8E828F83122B207003750A018E828F13
:102AB300831253C97003A3E06B7006E50AD2E1F5F4
:102AC3000AE5082402FEE5093400FFE50A60138ED7
:102AD300828F83E07006E50AD2E58004E50AD2E638
:102AE300F50A120F23E964017006E50AD2E0F50A3C
:102AF3008E828F83E06017E508241DF582E5093493
:102B03000012286164016006E50AC2E0F50AE50ADD
:102B1300A2E14004D2E7F50AA90A0260761261F243
:102B2300640222C082C08379018A828B83A3A3E0DB
:102B3300C394024001198A828B83A3A3A3A3E0C396
:102B43009402400279008A828B83A3A3A3A3A3A345
:102B5300A3A3A3124CED74F86C700374FF6D601E95
:102B630074F96C700374FF6D601474FA6C70037401
:102B7300FF6D600A74FB6C700374FF6D7002790063
:102B83008A828B83A3A3A3E0FC900370E06C6002B2
:102B9300790090227CE493C394805018E493C33368
:102BA300C0E0EA2411F582EB126CBCFAD0E0C39AC0
:102BB300500279000247EB74E812037674DC1208C2
:102BC30099EAFEEBFF7403120A66125AD6751400D3
:102BD3007515007405120A66AC82AD838E828F83ED
:102BE300A3A3A3125CF01254BB120E81E9600F740D
:102BF30005120A66AA82AB83120D8BE9700879016C
:102C0300121C7F0231FEEE241B124AC57412120AF3
:102C1300661259D3740B120A66E06023741C120AFD
:102C230066E0FD7406120A66E0FC8E828F83A3A31E
:102C33001254BB7901121E5FE96004790280C174EA
:102C430005120A66AA82AB83120D85E9F508740B97
:102C5300120A66E0702990036AE060237422550823
:102C63006422601B74425508644270CF7422120AB6
:102C730066124D13FA74066A600574076A70BCE93C
:102C8300A2E650127405120A66AA82AB83120D7370
:102C9300E97003022C01EE2412F516EF3400F51748
:102CA300EE242A122A81242C123213123835E068BA
:102CB3007003A3E069701C7509007809120827786E
:102CC30009120827EE242E12321A12322E123B3327
:102CD300120836740B120A66E07003022D78123262
:102CE3002E1232228A0A8B0BA80AA90BE87001E97B
:102CF3007003022E1C7406120A66123229FAA3E02C
:102D03003400FB740D2AF582E43BF583E0FAE824F2
:102D130004F50AE9126889E82403F582E9126CBC18
:102D23006A600DEAF09081B6780C120A21123273B0
:102D330079047406120A66123229FCA3E034008C6B
:102D430082F583A3AA82AB831214938A0C8B0D8C16
:102D53000E8D0F850A82850B837810120A21781055
:102D6300790C1209F150030231FE9081CE780C12D6
:102D73000915123273EE2424123208EE2430F50CB6
:102D8300EF125CE3EE242F12688690036DE0A2E15C
:102D93005003022EB5900382E0FA74046A6008744B
:102DA300096A60030231FEE508A2E54003022E62D0
:102DB30012325AC0E07401120A66D0E0123B5DC0C1
:102DC300E07402120A66D0E0F07416120A66E06438
:102DD3000170207410120A6612323E7003A3E06978
:102DE3007011740E120A66122B2070077416120AE1
:102DF30066E4F0850E82850F8312066E7404120A50
:102E030066AC82AD837409120A66AA82AB83120B85
:102E1300ED74041208360231FE9003C7E0640160CA
:102E230003022D787422120A66124D136406700988
:102E3300E508A2E65003022D787412120A66E064D4
:102E4300FF7004A3E064FF70030231FEEEFCEFFDAC
:102E53007405120A66AA82AB83120D970231FEA291
:102E6300E640030231FE7422120A6612324A701ED1
:102E7300741C120A66E0640260030231FE740512D8
:102E83000A66AA82AB837900120EF30231FE74073D
:102E93006A60030231FE741C120A66E06404600374
:102EA3000231FE7405120A66AA82AB83120EE70290
:102EB30031FE7416120A66E0601D8E828F83A3A30F
:102EC300123B4F141252BDA3123B4FC0E0741612B3
:102ED3000A66D0E0F07006E508C2E7F508900382C1
:102EE300E0FA74046A600574096A7061740E120A68
:102EF300661253C97003A3E06B6017120F23E964D2
:102F030002600F740A120A66E0540364016003024C
:102F130031FE7407120A66E0701B12325AC0E07465
:102F230001120A66D0E0123B5DC0E07402120A6629
:102F3300D0E0022DF57422120A6612324A7003029F
:102F43002E7374076A60030231FE022E997509001D
:102F5300746155087003023069E508A2E05070857A
:102F63001682851783124CED7405120A66AA82AB8A
:102F730083120CF5E97055120EB1E9F509741612B6
:102F83000A66E0700F7410120A6612323E7003A3D1
:102F9300E069603BA909851682851783124CED749D
:102FA30005120A66AA82AB83120CFBE96013740E46
:102FB300120A661260EF120A661259D3751404805E
:102FC3000EE508C2E5F508750900800353089FE57F
:102FD30008A2E5503C12325AC0E07401120A66D0CE
:102FE300E0123B5DC0E07402120A66D0E0F0850E89
:102FF30082850F8312066E7404120A66AC82AD8357
:103003007409120A66AA82AB83120BED74041208C8
:1030130036E508A2E640030231367403120A6685D8
:10302300820A85830B780A120823A90985168285EB
:103033001783124CED7407120A66AA82AB83120D32
:10304300797402120836E9F50970030231367422E5
:10305300120A66124D13640160030231367410457F
:1030630014F5140231367407120A66E06401703BEA
:103073007422120A66124D136405702F7403120A28
:1030830066858208858309780812082379008516E6
:1030930082851783124CED7407120A66AA82AB83EA
:1030A300120D7974021208360231FE7416120A6682
:1030B300E070127422120A66124D13640360030255
:1030C3002E4F0231FE120DF7E960030231FE740E3A
:1030D300120A661260EF120A661259D378091208AF
:1030E30027741E120A66AC82AD83740F120A66122D
:1030F30054BB740A120A66E0F9120D377401120800
:1031030036E9600F7514208E828F83A3A3124D13AB
:10311300543FF079007410120A66124CED740E12CB
:103123000A66123252600674204514F514120EB169
:10313300E9F5097403120A66E064FE7004A3E0640F
:10314300FF7003750900E508A2E740030231FEE5BD
:103153000970030231FE8E828F83A3A3A3A3E0FA37
:103163007B001215238A0A8B0BEA7001EB700302B2
:1031730031FE8E828F83A3A3E0F50CA3E0F50D75DA
:103183000E00780C12081F8E828F83A3A3A3A3E0E3
:10319300FC7D0012413F1208367407120A66E0856F
:1031A3001882851983F07401120A66E4F0A31251A0
:1031B300A585820C85830D780C12082378141208D8
:1031C30023E509F5087808120827851682851783F1
:1031D3001206728E828F83A3A3A3A3E0F9740A124B
:1031E3000A66124CEDAA0AAB0B120E6F7407120893
:1031F30036E96007AA0AAB0B1215297424120836A4
:103203007F100205FAF50EEF3400F50F22EE240EBF
:10321300F582EF1268FA22F582EF125BA5F922120A
:103223004985120FA7221264E22A22850A82850B9E
:1032330083124AE185168285178322124DEB851688
:1032430082851783E06822124D17FA74046A2212EA
:103253004985120C77E922EE242E125BA28518828F
:1032630085198312326A22F0850A82850B83E02254
:10327300850A82850B83E50CF0A3E50DF0A3E50E2B
:10328300F0A3E50FF02274F2120376EAFEEBFF8C53
:10329300088D091228488882F5831254BB9011ECDB
:1032A300E06011900373E06A7003A3E06B70051292
:1032B3000C6B80537900120D138A828B83E5827025
:1032C30002E583603AA3A3A3A3A3A3E05418602F4A
:1032D300E508241BF582E509123216120672E50889
:1032E3002412F582E509123216120672EE24181220
:1032F300321A12330D120D43740412083680087902
:103303000012330D120C8F02251B850A82850B8355
:10331300124AE1EE240B12497E2274EE12037674F4
:10332300EA1208998A0C8B0DEA2402F50EEB12328D
:103333000B0A0AFB120AE58A088B09AE08AF097566
:103343000901850C82850D83A3E0F508750A01AC9C
:103353000EAD0F851882851983AA82AB83121C9741
:103363007408120A66125AD6740A120A667402F0B4
:103373007413120A66E4F0E50C240AF50CE50D1249
:103383005CE39019CBE07010EE7001EF700AE50872
:1033930070067509C30234F3900382E06408600683
:1033A3007509C20234EF850C82850D83E0A2E150DA
:1033B3000EA2E35005750A04800C750A038007A268
:1033C300E35003750A02EE7001EF60648E828F830F
:1033D300A3A3A3A3E0FA74046A600574036A700CE0
:1033E3007404650A601C7403650A601674026A60DB
:1033F3000574016A70207402650A60067401650A27
:10340300700F8E828F83123E37120A661259D38051
:103413001F74026A600574016A700A8E828F8312B8
:103423003F94121E70AA0EAB0F120AF17E007F00AA
:103433007408120A66E064FE7004A3E064FF703847
:10344300120ABBE97032E50860179003BFE064021B
:10345300700F9019D2123E37120A66E8F0A3E98082
:1034630016850C82850D83E05402F9120CA17408B1
:10347300120A66EAF0A3EBF07408120A6612359397
:10348300700374FF6B70057509C78060E508F50B61
:10349300780B120827850C82850D83E0F9AC0EADFD
:1034A3000F120C057401120836E97040A90AAC0E1C
:1034B300AD0F7408120A6612366D8A108B11AE10A6
:1034C300AF11EE7001EF601C74026508700BEE24FF
:1034D30005126CB954FB4408F0740A120A66E4F04E
:1034E300F50980087408120A66125AD6E508700FA7
:1034F300851882851983AA82AB83121CBB8010FCBA
:10350300A90A851882851983AA82AB83120EE1E981
:10351300FAEE7001EF603EEE2405F8EF3400F9E5B2
:1035230008601288828983E0D2E6F074026508702D
:1035330004E0D2E5F0850C82850D83E0A2E6500815
:1035430088828983E0D2E7F08E828F83A3A3A3A32B
:10355300A3A3E004F0E5097003EA602FFC7D007A81
:10356300017B10121C79EE7001EF6007AA0EAB0FFE
:10357300120AF17408120A66123593700374FF6B12
:10358300600990035A1257DA121E70741602442A05
:1035930012498574FE6A2274F612037674F71208D0
:1035A300998A088B09900382E0FA74036A600D74A8
:1035B300016A600874096A600302366A8508828BAF
:1035C30083A3AE82AF83E0600302364F7C007D00AD
:1035D3007A027B00121C79E508240212444312602C
:1035E3006B1259D37953121CAF79001236749003BE
:1035F30082E0640960099003801254BB120FA17426
:10360300011258077404900382F07401120A66AA27
:1036130082AB83794A121CA97401120A66AC82AD8B
:10362300837A787B03121C9779007401120A66ACC3
:1036330082AD8390037612366D90036DE0A2E35062
:1036430004D2F08002C2F01257EF8018FC7D007A9A
:10365300037B10121C798E828F83E0F9123674E497
:10366300900382F0120DD30257CC124985120AD36C
:1036730022900380124985120BFF22C082C08390DF
:103683000342E07002A3E07041900382E01206F768
:10369300000301A03605AF3606BE36CD3690034A89
:1036A300E07002A3E0607690034A806B900346E0EB
:1036B3007002A3E06067900346805C900348E0706B
:1036C30002A3E06058900348804D900342E07002EB
:1036D300A3E06009123B4CFC74016C7023790090E9
:1036E30003CE800909EA1262FFEB12321612471B5E
:1036F3007001EB70EF9003CE1254BB120BF3801DDD
:1037030074026C7005120F7180139003F9E070025C
:10371300A3E060099003F91257DA121E700247EB17
:1037230074F412037674FB1208998A088B097A0FD2
:103733007B001214A58A0A8B0BAE0AAF0BEE700145
:10374300EF700302383074028E828F8312607C79AB
:1037530050121CA9850882850983A3858208858365
:1037630009E0600302381990038012689E700374A5
:10377300FF69602F74FE68700374FF696025851804
:1037830082851983E0687003A3E069601674EA8593
:103793000882850983123D117A807B037950121CBC
:1037A300AF80738518828519831238351259D37AFD
:1037B300737B037953121CA99003731259CD7A7644
:1037C3007B03794B121CA97A757B0379E1121CA93F
:1037D300900387E0C3940F5022900375E0C0E07418
:1037E30002120A66D0E0F07404120A667401F074DF
:1037F30002120A66AA82AB83121CD3750A00780AE6
:10380300120827780A120827901A47E0F91241E5AF
:10381300123B33120836850882850983123B0FF069
:103823007403900382F0EEFAEFFB1259C47405029D
:103833005362124DEB9003802274EC12037674ED05
:103843001208998A828B83A3123B14EA2408124A32
:10385300BEFEE9FF851882851983AC82AD838E8213
:103863008F83123B3CA3A3A3A31254BB120DE58584
:103873001882851983E070768E828F83E0C3940B60
:10388300406C850882850983A3A3A3A3A3A3A3A351
:10389300E064027059900382E0FAE5082410F51001
:1038A300E5093400F511E5082409125CDF74026AA6
:1038B300604174066A603C900342E07002A3E060DA
:1038C30007123B4C6401605474086A600574046A0F
:1038D300701C7402120A66E0F97407120A66AC825D
:1038E300AD83850C82850D831254BB120DEB7413CB
:1038F300026461900342E07002A3E0701F750A0046
:10390300780A120827780A120827851082851183FE
:10391300123B0612444B123B331208369003CE126D
:1039230069249003CE126459E508240DF50EE509C8
:1039330012320B80318E828F83E0F8A3123B06E0B4
:10394300687003A3E06970128E828F83A3A3E0FAE9
:10395300850E82850F83E06A606B8E0A8F0BEE12F1
:1039630062FFEF126921EE7001EF70C97A187B00D4
:103973001215238A128B13AE12AF13EE7001EF7080
:10398300030238F17C18126A79125ACDEE240C1214
:10399300321374FFF0E508240B1268CF123AFD12BC
:1039A3006B34C4123AFDA3A3F09003CEE07002A3DC
:1039B300E070059003CE800AE50A1262FFE50B1260
:1039C30032161267317401120A66123B1EA3F07499
:1039D30002120A66123B1EF0850E82850F83123B8C
:1039E3000FA3123B5D123AF41252C8240DFAEF34BE
:1039F30000FB7402120A66E06401600E7407120A87
:103A030066AC82AD83121C9780097C087D0079FF28
:103A130012148D7412120A66E0C0E0EE24151232FD
:103A230013D0E0123B54FC901A47E0C39C400302BE
:103A330038F11268ACE509123216A3E05480F9E4B8
:103A43007001E97009901114E070030238F17D00F0
:103A5300EE240CF8EF3400F9EE240BFAEF3400FBFC
:103A63009003BFE06402701D8A828B83E0F50AC372
:103A73009C500D7405120A66E0C39405401B801A1E
:103A8300E50A6C70157405120A66E0C0E088828945
:103A930083E0FCD0E0C39C50010D7404120A66E07D
:103AA3006020ED601D850882850983126088ECF033
:103AB300A3ED123B548A828B83F07405120A6612BB
:103AC3004D087406120A66E0600D74018E828F83BE
:103AD300A3A3A3A3A3A3F07404120A66E0700302D2
:103AE30038F174018E828F83A3A3A3A3A3F00238BA
:103AF300F1F8A3E0F98E828F8322540F8E828F8395
:103B0300A3A322E0F9850C82850D832212406FA3C3
:103B130022A3A3E0F508A3E0F5092212406F802158
:103B2300850C82850D83123B3C124ADD8A828B838E
:103B3300124985120EB7740222E0F98A828B8380C0
:103B430002A3A3A3A3A3A3A322900342124F7FE044
:103B530022F0851082851183E022F0850C82850D89
:103B630083E02274F612037674C9120899900382D3
:103B7300E064086062900393E0F8243BF582E43448
:103B83001AF583E0FA900364F0E82441F582E43403
:103B93001AF583E0FB900362F07508FF7509FFEAED
:103BA30078081209ADE508F4FCE509F4FD3395E066
:103BB300FE90038B123D067508FF7509FFEBC39A50
:103BC30078081209ADE508F4FCE509F4FD3395E046
:103BD300FE90038F123D06E41257FD7904121CAFC9
:103BE300900393E07009741E120A667401800674D0
:103BF3001E120A66E4F0740F851882851983F0900B
:103C030019D012607C7946121CAF7401120A66E463
:103C1300F0901A26E0C0E07402120A66D0E0F09039
:103C23000370E0C0E07403120A66D0E0F07404127B
:103C33000A66E4F07405120A66E4F07407120A6671
:103C4300E4F0900393E0FAC3940F74065006120A4B
:103C530066EA8005120A66740FF07C947D0374088B
:103C6300120A66AA82AB83121C977C037D0079FF3C
:103C73007410120A66AA82AB8312148D9003CCE0EF
:103C8300C0E07413120A66D0E01258FD120A6612DD
:103C930058EC120ECF900387E0C0E0741C120A6642
:103CA300D0E0F0900388E0C0E0741D120A66D0E013
:103CB300F0900375E0C0E0741A120A66D0E0F09049
:103CC3000380124ACB7418120A661259D374201255
:103CD3000A66E4F090038AE0C0E0741F120A66D01B
:103CE300E0F07434120A66E4F07429120A66E412EE
:103CF3003D117414120A66AA82AB83121CCD743769
:103D03000257CEECF0A3EDF0A3EEF0A3F022F07A8D
:103D1300737B037953123D1C22121CAF7A767B030B
:103D2300794B121CAF22C082C0838A828B83A3E0AB
:103D33006007E4900382F0804A7408900382F09055
:103D43000393E0701F90034CE07002A3E0600B79D3
:103D53000090034C1257DA121E70900380124CED40
:103D63007A05801A7900120BF9900373124CED7ADD
:103D7300067B00121C79900376124CED7A047B00CB
:103D8300121C790247EB74F412037674EA12089951
:103D9300EA2402FEEB3400FF0A0AFB120AE58A0852
:103DA3008B09EA7001EB7003023E328A828B831225
:103DB3004F61600F74026A600A74036A60057404D9
:103DC3006A706CEEFCEFFD851882851983125E9A8A
:103DD300123E37120A661259D3740A120A66740124
:103DE300F07413120A6612607B121CC1890AAC0AB2
:103DF3007D007A077B00121C79850882850983A3DD
:103E0300A3A3A3A3E0C2E0F074018508828509831C
:103E1300A3A3A3A3A3A3A3A3A31268FF120225E84A
:103E2300850882850983A3A3A3A3A3A3A3A3F074F3
:103E330016025362124DEB74082274F01203767467
:103E4300F81208998A0C8B0D8C0A8D0B890E851834
:103E530082851983AC82AD8375838175824F740823
:103E6300120767F50FAC0CAD0D851882851983AA6F
:103E730082AB8312650B7003750F019003CE803004
:103E8300AC0CAD0DEE240DFAEF3400126B27601A63
:103E9300850882850983E0650E700F8E828F83E02B
:103EA300650A7004A3E0650B6032EE241612321328
:103EB3001247DF7001EF6024EE2402124432E50F53
:103EC30070BE8E828F83E0650A7004A3E0650B7079
:103ED300D9850882850983E0650E70CEEEFAEFFB83
:103EE3000252B374F71203769003CEE0FAA3E08094
:103EF3000CEA241612691E121529EEFAEFFBEA707A
:103F030001EB70ED9003CEE4F0A3F002494574F4A5
:103F13001203768A088B09EA240BFEEB3400FFEACE
:103F23002413F582EB126CBC64037009EEFAEFFB09
:103F3300120AE5800CE0640270548E828F8312684B
:103F4300DBEA7001EB6047EA2406F8EB12284D85A3
:103F53000882850983A3E07007E488828983802D22
:103F630064F16005E064E1701A88828983E064018A
:103F730070118A828B83123F94121E70EEFAEFFB4C
:103F8300120AF1850A82850B83E0600214F0025362
:103F93006512498590035A1257DE2274F112037693
:103FA3008A088B09ECFEEDFF890A8A828B831264EF
:103FB3008E8A828B8312406EF0EEF8EFF9A30EAF78
:103FC300838A828B83A3A3E0C454F0FA8882898313
:103FD300E04A12407812406F124073E0333354FCCE
:103FE300FA8E828F83E04A124073A3E03333335453
:103FF300F8FA8E828F83E04AF008EFF9A30EAF83BD
:104003008508828B83A3A3A3A3A3A3E0A2E0E492E6
:10401300E013135480FA88828983E04AF0E5082488
:1040230007F50CEB125CE3750E00780C12081F7C8D
:10403300081250D4120836126478E508240F125C73
:10404300DF780C12081F7C031250D4120836E50ADD
:10405300C3940F4011E5082412F582E509123216C4
:10406300123B0FA3A3F07F070205FAA3E0023AF87D
:10407300124078A322F08508828B83A3A3A3227422
:10408300F1120376EAFEEBFF890A8C088D098E8212
:104093008F83E08C828D831252BDAE82AF83E01298
:1040A300537A124151C412537A124145E054038C9E
:1040B300828D8312414FA2E2E492E08C828D8312BF
:1040C300414E131313541F12537AA312414EA2E706
:1040D300E492E08C828D83A3A3A3A31241458E0CAB
:1040E3008F0D750E00780C12081F7C087D00E50803
:1040F30024071241391208361264788E0C8F0D781A
:104103000C12081F7C037D00E508240F12413912AD
:104113000836E5082412F8E5093400F9E50AC394E2
:104123000F400A8E828F83A3A3A3E08001E48882D9
:104133008983F0024069FAE5093400FB12148174A3
:104143000322A3A31252C10EAF8322A3A3A3A3F0FE
:1041530002652974F412037674F9120899EAFEEBE6
:10416300FF900342E07002A3E06010123B4C640234
:104173007009EEFAEFFB120F6B8062900380E06E22
:104183007003A3E06F705674016960097A947B032E
:1041930012650B70487A007B021244557001EB7074
:1041A3003C9003837808120A218518828519837845
:1041B30008120A3F900389E0C0E07404120A66D033
:1041C300E0F07405120A667401F07406120A66744C
:1041D3000212607C120BA5E96098120BAB74070204
:1041E3005362900380124AE190037622E0F902477A
:1041F300EB74F61203769003E0E0701F7C00790104
:104203007A007B00120E21EA7001EB600E8A828B2A
:1042130083E07002A3E06003120D670257D1C082EE
:10422300C083124686401079FF120E1BE9FA9022D2
:1042330081E493C39A50047901800279000247EB29
:1042430074EE1203768A088B09890D750E00EA2431
:1042530008F50AEB124CE1E0F9120E278A108B11D4
:10426300AE10AF11750C01EE7001EF60030243094C
:10427300850882850983A3A3124CFE1251AD125403
:10428300BB120E0F8A0A8B0BAE0AAF0BEE7001EF57
:1042930070030244238E828F83A3A3A3A3E4F0A31A
:1042A300F0E508240B124443E0C0E0EE240B123285
:1042B30013D0E0F0120F2FEE240C125CFDE508245E
:1042C3000EF582E509124AC81232101259D3750E3F
:1042D30001EE2406F8EF124695E0547FF0A3E05474
:1042E300FC1245DBE054046003024391901A1F1251
:1042F300519E740778081209AD8A828B83E04508C2
:10430300F0A3E04509F0EE240612443A8C828D8333
:104313001254BB74805AF50874035BF5097407786B
:1043230008120A30E508F510EE2404122A81240944
:10433300124432E50D606074028508828509831298
:104343004152240D124F6BE0A2E2500F90036E1204
:104353004ACB850A82850B831259D3E51070030279
:1043630043F0747F5AFA74FC5BFB74FF2510F5105D
:1043730074FF3400F511740778101209ADE5104A83
:10438300F8E5114BF98C828D831259D3805FE04499
:1043930080F0A3E0024308E5107005750C00804D22
:1043A300EA5420601512149F8A10747F5510F87414
:1043B3005F28850A82850B83801BEA5410600E12E6
:1043C300149F8A10740F5510F8740A80E4850A82CA
:1043D300850B837401F0A3E4F074048508828509D6
:1043E30083F01244517001EB70031257A9740165F5
:1043F3000E7030850A82850B8312444BE0F9EEFA86
:10440300EFFB120E15E9601BEE240C123213124758
:104413001B7001EB6003121529EEFAEFFB1215294D
:10442300750C00A90C80031208367F0A0205FAF501
:1044330008EF3400F50922F8EF124AC0FCE9FD2227
:10444300FAE50934000245E2124AE1025B927A205E
:104453007B009003CDE0F91215EFEA2274F6120304
:104463007674F71208997E00120E27EA7001EB703A
:104473000302452C8A828B83A3A3A3A3A3A3A3A391
:10448300A3E06406600302452C8A828B83A3A3A363
:10449300A3A3A3A3E0FF8A828B83124F79E0C0E03A
:1044A3007408120A66D0E01245DB1257DA125E1462
:1044B3001259D3120E4574085FF9E47001E960677D
:1044C300851882851983124CED7A007B00120E0940
:1044D300EA7001EB7051900380124ACF121CEB7CFF
:1044E300007D007A007B0080288E828F83125B8799
:1044F300E064FF7004A3E064FF602C900380124C1F
:10450300ED1219E5E9641A601E7C007D00EEFAEFF6
:10451300FB120E098A088B09AE08AF09EE7001EF92
:1045230070C77900121CF17E01EEF90257CC74F7C3
:10453300120376EA7001EB70059003E180068A822C
:104543008B83A3A312471B7001EB60288A828B83A2
:10455300A3A3A3A3A3A3A3E05408F9E47001E96010
:10456300DDEC7001ED6011124D0F6C7003A3E06D73
:1045730070CC80047A007B0002494574F212037602
:10458300EAFEEBFF890A8C088D097A107B0012156D
:1045930023EA7001EB603CE48A828B83A3A3A3A389
:1045A300A3A3A3A31245E8E50A124950125AC58AE8
:1045B300828B83A3A3A3A3E4F01245E81245D91287
:1045C3006731EA240CF582EB126B2E1245DAA3A3B2
:1045D300F0A3F002251BA3A31245DF22F08001FB09
:1045E3008A828B8322A3124954A3A32274F5120354
:1045F30076EAFEEBFF890A8C088D09EE7001EF6005
:10460300567401650A70147901120E1BE9FA90229F
:1046130079E493C39A500F791180657404650A7025
:104623003012468640F18E828F83A3A3A3A3A3A354
:10463300A3A3A3E50A1252D6126D9CE4F0A3F09053
:1046430003E1E07002A3E09003E16024124ACB800F
:104653000A7402650A60CF79C18025E8240208083C
:10466300E91246951247897001E970EF8A828B83BC
:104673001267311244517001EB70031257A979008C
:104683000260767904120E1BE9FA902272E493C356
:104693009A22124AC0FAE90245E2C082C083E9FCC9
:1046A30079009003E1801D8A828B83A3A3A3A3A334
:1046B300A3A3A3A3E06C600574FF6C7001098A8255
:1046C3008B83A3A312471B7001EB70DB0247EB74D0
:1046D300F7120376EA7001EB70059003E180068A16
:1046E300828B83A3A312471B7001EB60248A828B06
:1046F30083A3A3A3A3A3A3A3A3A3E06970E1EC6093
:10470300148A828B83E0240D126523A2E240D080B9
:10471300047A007B00024945124985EA22C082C01F
:10472300839003E180068A828B83A3A312471B70C5
:1047330001EB60128A828B83A3A3A3A3A3A3A3A3E6
:10474300E06970E280047A007B000247EBC082C01C
:10475300839003E1800688828983A3A3124789702B
:1047630001E9601B88828983E0FCA3E0F5838C82E6
:10477300E06A7003A3E06B70DDE8FAE9FB80047A7A
:10478300007B000247EB124DEBE82274F112037633
:104793008A0A8B0B8C0C8D0D750800750900EA7065
:1047A30001EB60319003E180068E828F83A3A31215
:1047B30047DF7001EF601EAC0CAD0DEEFAEFFB8529
:1047C3000A82850B83121E70E9640170DCEEF8EF38
:1047D300F988088909AA08AB09024069E0FEA3E049
:1047E300FFEE227402120836D083D0820207CC79FE
:1047F300000207CC74F71203769003E1124ACB7CD4
:10480300007D008007E8FCE9FD124ACBE87001E96E
:10481300603AE82402F582E9123216EA687002EB84
:104823006970E21254BB9003E1126924E86E7002CE
:10483300E96F70099003E1EAF0A3EB800EEAF8EB6D
:10484300F98C828D83A3A3E8F0A3E9F002494574B0
:10485300F7120376EAFEEBFFEE7001EF6016120E1D
:104863003F12495CEA7001EB6003121529EEFAEF7F
:10487300FB12152902494574F7120376124D0FFCFA
:10488300A3E0FD9003E1124ACB7508007E0080335C
:1048930088828983A3A3A3A3A3A3A3A3A3E06405FB
:1048A30070180E88828983E0FFA3E0F5838F82E08E
:1048B3006C7003A3E06D7002050888828983A3A34B
:1048C300124ACBE87001E970C7EA2404F8EB34001C
:1048D300F990226FE493FCE508C39C500B9022707F
:1048E300E493FCEEC39C400B888289837401F0A39C
:1048F300E4800A90036E12494AECF0A3EDF07405CC
:104903008A828B83A3A3A3A3A3A3A3A3A312495024
:10491300E0F0A3E044081252CF8A828B83E064FF65
:104923007004A3E064FF600E900380124CED121C30
:10493300E5E9641A70057901121CF18005741F12F0
:1049430008367F010205FA124AE10267261249542A
:1049530022F08A828B83023B458E828F83E0241C64
:1049630012498BFAA3E0FB1215298E828F83124919
:1049730085121529EE240C12497E22F582EF3400AC
:10498300F583E0FAA3E0FB22124F73E022C082C05A
:1049930083EAFCEBFDEC7001ED70047905804CECCF
:1049A30024FBF582ED34FFF583E07002A3E0701180
:1049B300EC24FFF8ED34FFF988828983E064FF601B
:1049C300051214AB80D59003CD124D08902274E4E8
:1049D30093F97AE37B031214DBE96401700B7A0029
:1049E3007B201257AD7900800279040247EB74F4FF
:1049F300120376A2AFE492E0F508C2AF9003E3128C
:104A030047DF7001EF603DEE24FBF582EF34FFF5E5
:104A130083E07002A3E07A007B209003CD6005124F
:104A230057B08005E0F91214E7750A00750B00789A
:104A33000A120823EEFCEFFD7AE37B031214D5740C
:104A430002120836E508A2E092AFEEFAEFFB02533A
:104A53006574F712037674E1120899EA2413F58258
:104A6300EB126CBCC0E07411120A66D0E0124DE286
:104A73007409120A66124DDB124AB8FCE9FD8C82F6
:104A83008D83124ACB740B120A66124DDB2414F584
:104A930082EB126CBCC0E07412120A66D0E0F0EA3A
:104AA300240EF582EB12321D8C828D83124ACF12B3
:104AB3000CFB0249402404124ABE22F8EB3400F9ED
:104AC300E822F582EF1268FA124DEB22124AE185D1
:104AD3001882851983AA82AB8322A3A3A3A3E0FC34
:104AE300A3E0FD2274EE12037674FC120899EAFE29
:104AF300EBFF120DF7E960057911024CDCEE24128D
:104B0300F510EF3400F511EE2402F50AEF124CE133
:104B13001261EE6008E4851082851183F0EE2413A0
:104B23001250DD700C90227CE493850C82850D83FA
:104B3300F0EE2411F8EF125CE870199011E3E060D5
:104B43000D90036AE0700D8E828F83E07006E48817
:104B5300828983F0EE2414080808EF1268D2700CDF
:104B630090035F124D0890035FE004F0EE240F12F0
:104B73004432EE240B12320890036DE0A2E1504F51
:104B8300850A82850B831261EE60448E828F83E0F7
:104B9300600B850E82850F8312286360328508823D
:104BA300850983E05440601A850C82850D83E06497
:104BB30001700F850882850983E054FBF0A3E0F0C0
:104BC300800DEEFAEFFB120E5DE97003024AFB8ED5
:104BD300828F83E06401701A850E82850F83124DE4
:104BE300136402700D850882850983E04440F0A3B5
:104BF300E0F0850882850983E05440705290036D8C
:104C0300E0A2E1504A750C00780C120827EE240646
:104C1300FCEF3400FD850A82850B831254BB85109B
:104C230082851183E0F9120D377401120836E960A9
:104C33000CE4851082851183F0124CF1F079008E1B
:104C4300828F83124CFE1232526004124CF1F085B3
:104C53001882851983AC82AD83EEFAEFFB120E75D1
:104C63008A0C8B0D850A82850B83124CEDEA700149
:104C7300EB60628E828F83E0C0E07401120A66D01B
:104C8300E0F07402120A661267317401120A668533
:104C9300820A85830B780A12082385088285098393
:104CA300120672EE240E126CB9F508780812082762
:104CB3009003731206727407120A66E0F9120E6FFC
:104CC3007407120836E9FE74106E700BAA0CAB0D54
:104CD30012152980027E10EEF9740402442A126828
:104CE30089850A82F583221268F7124AE122850830
:104CF30082850983E04420F0A3E022124ADD850A7D
:104D030082850B8322E088828983F0228A828B83C7
:104D1300124D17221257E2E022C082C08374DE12C2
:104D230008998A828B83A3A3A3A3124ACB740E127E
:104D33000A66E8F0A3E9124DE2740C120A66124DFA
:104D4300DB240DF582EB126CBCC0E0741A120A6608
:104D5300D0E0F0EA1268AEEB124AC87420120A6679
:104D6300124DDB2415F582EB126CBCC0E074081203
:104D73000A66D0E0F0EA241CF582EB124AC87412EA
:104D8300120A66124DDB2411F582EB126CBCC0E0F3
:104D93007409120A66D0E0F074FF851882851983BE
:104DA300F07401120A6674FFF07402120A6674FF4B
:104DB300F09081B612066E7404120A66AC82AD835B
:104DC3007407120A66AA82AB83120BED74041208ED
:104DD30036790074220247E8E8F0A3E9F0EA2212E8
:104DE30045DFA3A3124DEB22124DEF22E0F8A3E01F
:104DF300F92274EA12037674EE1208998A148B1559
:104E0300ECFEEDFF890F7428120A66126459742AA6
:104E1300120A66E0F50C742B120A66123B16742D07
:104E2300120A66E0F512A3E0F513750D107A1E7BE6
:104E3300001215237402120A66125D047402120A28
:104E430066E07002A3E07003024F55750E00EEFAA0
:104E5300EFFB120ADF8A828B83E5827002E58360AF
:104E630016124F61600574036A700CE508544070B4
:104E73000674044509F50974045509F9E47001E958
:104E83006003750E01851882851983AA82AB837925
:104E9300501254B27402120A66124F79A3125D04BF
:104EA3007410120A66E50AF0A3E50BF07402120A05
:104EB30066E0240B124F6B7402F0120A66124F79EC
:104EC3007402F0120A661257DA1267317402120A78
:104ED30066125F24E50FF07402120A66E0240C12D6
:104EE3004F6BE50CF07402120A66E0241C124F6B40
:104EF300E514F0A3E515F07408120A66125AC57496
:104F03000A120A66E50CF0851282851383C082C0FB
:104F130083740D120A66AC82AD83D083D08274038E
:104F2300120767A90E7402120A66AA82AB83120DD6
:104F3300FDE964017011E50E6008A90C120E271239
:104F43000E4B750D00800B7402120A661254BB12CD
:104F53001529A90D74121208367F0E0205FAA3A3B0
:104F6300A3A3E0FA74016A22124F6F22124F732235
:104F7300F8A3E0026723124F7FA3A322125E0F025E
:104F83003B4674EA120376EAFEEBFF8C088D098E2A
:104F9300828F83A385820A85830B7408F0EE24161F
:104FA3001250DD60097410850A82850B83F0EE24AC
:104FB30017F510EF1250EB600A850A82850B83E028
:104FC3002408F0EE2411F8EF1268D26005750E0E76
:104FD3008003750E00EE240DF514EF3400F51585EE
:104FE3000A82850B83E0851482851583FAE02A25DE
:104FF3000E8C828D83126B35601390036BE0F91274
:105003001DEDE9FA850882850983E02AF085088287
:10501300850983E0FAC39475400975080075090092
:105023000250CD7B001267DF7001EB70030250CD9D
:10503300EEFAEFFB120E7BEA850882850983125D87
:1050430005EE2402F8125B8D125100F0EE240408E1
:1050530008125B8DA3A3125100A3A3F0EE24131235
:1050630050F6F0EE24141250F6A3F07A08850C8261
:10507300850D83E0600FEE2418124CEAE50824083E
:1050830012644F7A10851082851183E0600FEE243D
:105093001A124CEA8A0CE508250C12644FEE240B15
:1050A300126CB9F510A3E0F511751200781012080F
:1050B3001F851482851583E0FC7D001254BFE50E25
:1050C30028FAE4391250D9120836AA08AB09024F5C
:1050D3005C7D00EEFAEFFB02413FF50CEF3400F587
:1050E3000D850C82F583E0223400F511851082F5DD
:1050F30083E0221268F712510AA3A3A322A3A312E7
:10510300689AA312510A22E0850882850983A3A322
:10511300A32274F61203768A828B83E0FC900370D9
:1051230012519E740278081209ADE5084CFCAD09D2
:10513300EA2412125198740678081209ADE5084C56
:10514300FCE5094DFDEA24111251987409780812FF
:1051530009ADE5094DFDEA2416125198740B780840
:105163001209ADE5094DFDEA2417125198740C7824
:10517300081209ADE5094DFD8A828B83A3A3A3A37E
:10518300A3A312519E740A78081209ADECFAE5093B
:105193004DFB0257D1F582EB1268FAE0F508750969
:1051A3000022F085188285198322E0F9025B92744C
:1051B300F01203768A088B09ECFEEDFF750A01E90C
:1051C300C39408500579000252B1E98E828F83128D
:1051D30052CF120E87E96003750A00125504C0E02E
:1051E300EE2411123213D0E01254FFC0E0EE241269
:1051F300123213D0E01252BDA882A9831254D16097
:1052030010E5082408FAE5093400FBEE24131252D2
:10521300E28E828F83A3A3A3A3A3A3A3A3E060151A
:1052230088828983E0FAE5082AFAE5093400FBEE6F
:1052330024151252E2EE2419126B2BEE241B126B6F
:105243002B126B34F50B8E828F83E0F50CC3950B19
:1052530050030251C8850B0EE508250EF8E5093405
:1052630000F9EE241DFAEF3400FBEAFCEBFD8C821F
:105273008D831252C82417FAEF3400FB8A088B0976
:10528300E50CC3950B8A828B831252D6A3A3E060ED
:105293001B8A828B83E024F2F0E8240EF8E912548F
:1052A300DBFA850882850983E0C39AF0A90A8005A1
:1052B30074081208367F080205FA1252C122F08ED2
:1052C300828F83A322E8F0A3E9F0EE221245DF12D6
:1052D3004985221252DA22F08E828F83023B4712D3
:1052E30068F7EAF0A3EB12689AE02408F02274F45A
:1052F3001203768A088B09EA125381F0EA131354D6
:105303003F12537AA3A3A3F0EAC41313125381A346
:10531300A3F0E48C828D83A3A3A3A3A3F08A0A8BB7
:105323000B7409780A120A3012536FF0EC2418F543
:1053330082ED126B2E8A0A8B0B740B780A120A30D9
:1053430012536AF08A0A8B0B740C780A120A301211
:10535300536AA3F0740D7808120A30A90880031267
:1053630008367F040205FA12536FA322E50A54019B
:105373008C828D83023B45540F8C828D8322540390
:105383008C828D83A3A322C082C083790090036A99
:10539300125B74A3A3A3A3E0600FEC70268A828B35
:1053A30083A3A3E0701D09801AEC60178A828B83A4
:1053B300A3A3A3A3A3A3A3A3A31253C97003A3E00B
:1053C3006B70E30247EB124985900373E06A227422
:1053D300EE1203768A088B09890CECFEEDFF8A82B4
:1053E3008B831254BB120E87125504C0E0EE2411B6
:1053F300123213D0E01254FFC0E0EE241212321323
:10540300D0E01252BD85820A85830B1254D16010FD
:10541300E5082408F8E5093400F9EE24131254F1E1
:105423008E828F83A3A3A3A3A3A3A3A3E0600912E4
:1054330054BFEE24151254F1EEFAEFFB120E8DE970
:10544300F50D7066850A82850B83E0F50EF510E590
:10545300082510FAE5093400FBEE2417F8EF3400B1
:10546300F988088909EE241D12443A8E828F83A39A
:10547300A3A3A3A3A3E07012EAF8EBF98C828D83B4
:105483001259D3E50CC3950E8019EA240EF8EB12DA
:1054930054DBFB850A82850B83E0FAE50CC39A246F
:1054A300F2C39B850882850983F0A90D02442D125E
:1054B3001CA985188285198312498522850A82854C
:1054C3000B83E0F8E50828F8E5093400F9227408AD
:1054D3001252DAA3A3A3E0223400F98C828D83E86D
:1054E300F0A3E9F090036BE0F9121DEDE9221268D5
:1054F300F7E8F0A3E912326A2408F022125CD180A3
:10550300D2850882850983A3A3125539E0F9EA8E6F
:10551300828F83A3A3A3A3A3A3A3A3A312553E1282
:105523005539A3A3E0F9EAF8EE240B1268F7E81261
:10553300553EA3A3E022E0FA02510BF0A3E9125C6B
:10554300D522C082C0837AE87B0379E2121CA97A50
:10555300E87B030247EBC082C0839003731254BB02
:105563000247EBC082C08374FE12089985188285B6
:105573001983AA82AB83794B1254B20247E6C082E5
:10558300C083794A121CA90247EB74F61203769082
:1055930003F0E0FE04F0EEF9120E27EA7001EB705F
:1055A300EEEE60EBF90257D174EC120376EAFEEBF0
:1055B300FF8C128D13890E7414120A66E0F50A74B7
:1055C30015120A66E0F50B750C00750D00120FA796
:1055D3008A088B09EA7001EB7017E50B600302562A
:1055E300C1A90EAC12AD13EEFAEFFB120FB90257BD
:1055F3007AEA2402F8EB3400F9E50E601688828912
:1056030083E0FAE50E2AFAE4340013EA13F0700398
:105613007401F0E50B70030256AC9003FBE07002DB
:10562300A3E060099003FB1257DA121E70E50A70BB
:105633000EE4850882850983F0750D010256DA9020
:10564300036DE0A2E140030256E29003FDE0700225
:10565300A3E0600FA90AAA08AB099003FD1257DA69
:10566300121E70850882850983E0FA9022751269FB
:105673000FEA98E499C365D03350098508828509F8
:1056830083E004F0850882850983E0FA902275E4BB
:10569300936A7043750C01EEFAEFFB120D49E48532
:1056A3000882850983A3F0802E901A47E0C0E08822
:1056B300828983E0FAD0E0C39A501C02563C7401FD
:1056C300650B7013E50E600F90036DE0A2E15015BA
:1056D300EEFAEFFB120D4990036DE0A2E140257451
:1056E30001650B701FE50A60169003FFE004F0C02C
:1056F300E0901A20E0FAD0E0C39A4008750C01E468
:105703009003FFF0E50D7004E50C606B90036DE012
:10571300A2E15030EEFAEFFB120ADF8A088B09A8E8
:1057230008A909E87001E9601BE82405F582E9127C
:105733003216E50D6004E0C2E0F0E50C6039E0D21A
:10574300E0F08004E50C602F90036DE0A2E15012BD
:10575300EEFAEFFB120AD9E96008EEFAEFFB7900E3
:105763008012900376E06E7003A3E06F7009EEFA87
:10577300EFFB7901120C17026464C082C0837401C9
:105783006A7001EB70077A011257AB8016901A17F3
:10579300125D04EA7001EB60051226C480057A01EC
:1057A3001225200247EB7A207B009003CDE0F9120B
:1057B30014E122C082C083901A19125D040247EBE0
:1057C300C082C083901A1B80F174091208367F02CD
:1057D3000205FA8E828F831257DE221257E22212BB
:1057E30057E622E0F8A3E0F583888222A2F0E49250
:1057F300E01257FD7952121CAF2285188285198356
:10580300F0024AD81257FD7942121CAF2274F412E7
:10581300037674EC1208997401120A66AC82AD83A4
:1058230012593A9003BFE0640270367A0479001289
:105833000AC712688EEA98EB995017120ABBE970EF
:10584300117405120A667401F07407120A66740172
:1058530080527405120A66E4F07407120A66E48043
:10586300439081B67808120A2175830375828B7879
:10587300081208AF60047A0180027A007405120AE4
:1058830066EAF09081B67808120A2175830375825F
:105893008F78081208AF60047A0180027A007407D7
:1058A300120A66EA1258FD120A661258EC740712BD
:1058B3000A66E0700B7405120A66E07003E4800266
:1058C3007401851882851983F09019CCE09019CB67
:1058D300FAE05AFA851882851983E05A1258037937
:1058E30041121CAF7414025362AA82AB83120DDF00
:1058F3007AD07B037945121CAF2212592F740122EF
:1059030074F712037674ED120899E9FE9003CC1232
:105913005F2B12593A7412120A66EE12592F851828
:10592300828519831258EC7413024942F09019D0FE
:10593300E0F97CD07D03229019D0E0F97AD07B0383
:10594300120DE52274F4120376EAFEEBFF9019D2EE
:10595300E064FE7004A3E064FF705F7A16125B5F7D
:105963007001EB605574018A828B831268B3A3A321
:10597300A3A3A3E060047402800274018882898374
:10598300125EA48A828B83A3A3A3A3A3A3A3A3A32B
:10599300125B99FCA3E0FDEA24020A0AEB126452AB
:1059A300E5082413F582E509126B2E1259C0EE2483
:1059B3000B1232131260641259D3025365AA08AB57
:1059C300099003CDE0F91214B122E0123AF4A3A333
:1059D300E8F0A3E9F02274F212037674FD12089939
:1059E3008A088B09890A8C0B7401120A66740412E3
:1059F3005D0A8A0C8B0DAE0CAF0DEE7001EF7003D8
:105A0300025A96EE240B124AC5740788828983F0E2
:105A1300A3A882A983E5082408124443125ABA8A28
:105A2300828B83A3125ABA850882850983A3A3A311
:105A3300A3A3A3A3A3A3A3124D08EE2416125AB241
:105A4300EE2418123213125AC5EE2417F582EF1200
:105A53006304EE241A125CFD125AA11268EF740358
:105A6300650A60067401650A70087440F0A3740443
:105A730080057440F0A3E4F09019D21259CD74015B
:105A8300650B7006EE2411126B2BEEFAEFFB120B73
:105A930093800279109019D2125AD6022516EE2459
:105AA30013F582EF125AAB223400F583740122F509
:105AB30082EF125AABF022E088828983F0A308A90F
:105AC3008322E508F0A3E509F022A3A3A3A3A3A3DC
:105AD300A3A3A374FEF0A374FFF02274F41203765D
:105AE300EAFEEBFF7A007B04122522125B7D12593A
:105AF300D37409900382F0120E998A088B09AC08BB
:105B0300AD09EE24131232131254BB12650B640158
:105B130070477A0F125B5F7001EB603D74028A82FB
:105B23008B83F0EE241DF8EF126DF8125B87A3123E
