:020000040000FA
:06000000020A230201B612
:03002B0002088A3E
:030033000205D8EB
:0300430002071E93
:03005300020105A2
:03006B000205B2D9
:100083000201520102020000DD0D00000000000029
:10009300790E0000000000000000060606060600B8
:1000A30014141414140006FFF20A010101006D1761
:1000B300000000E117E80364006400B801020200D5
:1000C300080000050107051E02051E020A03B80BFE
:1000D300803E01FFFF0114010101010503010F101F
:1000E300FEFFB91CB91CB91CB91C6F1B691BB91CD9
:1000F300841F00000000AA20000000000C00000084
:100103000C00C0E074F21203CEA2AFE433FED2AF10
:10011300A9A7A8A1E85954106008120B7F75A1EF95
:100123008023E8A2E092F0E9A2E082F05017906108
:1001330098E0F8900577E0C398A2D265D0335002D7
:10014300E8F075A1FEEEA2E092AF7F0102042DC09C
:10015300E074F21203CEA2AFE433FED2AF9061A4F7
:10016300E0F8759B00E59158540860087591F71203
:100173000BC18023E59158541060087591EF120B61
:10018300C78014E591A2E092F0E8A2E082F0500764
:10019300E0C2E0F0120CFF9061A3E0F8E5E95854E7
:1001A30004600E120CD575E9FB906193E0A2E64062
:1001B300F28092C0E074F21203CEA2AFE433FED217
:1001C300AF9061A5E0F8E5BF585404600675BFFB26
:1001D300120D17020148C3E498F8E499F912021AC0
:1001E3008026C3E49AFAE49BFBE920E7E912021AAA
:1001F300E498F8E499F922C3E498F8E499F912022F
:100203001AE498F8E499F9C3E49AFAE49BFB22EB25
:1002130020E7CFE920E7E0B90010BB0008E88AF047
:1002230084F8AAF022E4FBC8FA22EB70227B10C800
:1002330033C8C933C9335007C39AC3DBF280069A64
:1002430050012ADBEAC833F4C8C933F4C9FA22756A
:10025300F008E4C833C8C933C933C99AC99B5004E9
:10026300C92AC93BD5F0ECFBC833F4C8E4C9FA2268
:10027300080808EAC0E0EBC0E086F0E7A4FA180932
:1002830086F0E7A42AFA180986F0E7A42AFA1809DF
:1002930086F0E7A42AFA1986F0E7A4FBE5F02AFA28
:1002A300190886F0E7A42BFBE5F03AFA190886F063
:1002B300E7A42BFBE5F03AFA18180986F0E7A4C582
:1002C300F02BFBE43AFA1908E7C5F0C6A426F6E5D5
:1002D300F03BFBE43AFA1886F0E7A4F6E5F00826CB
:1002E300F6E43B08F6E43A08F6D0E0FBD0E0FA2265
:1002F300E4CFC0E0E4CEC0E0E4CDC0E0E4CCC0E0B5
:1003030075F020E626F608E633F608E633F608E647
:1003130033F6181818EC33FCED33FDEE33FEEF33F0
:10032300FFC3EC9709ED9709EE9709EF9719191990
:10033300400FFFEC97FC09ED97FD09EE97FE1919A5
:1003430006D5F0BFECF709EDF709EEF709EFF7195A
:100353001919D0E0FCD0E0FDD0E0FED0E0FF22256B
:1003630018C582C0E0E51934FFC583C0E0E518C3B2
:10037300958224F810AF0885831985821880088533
:100383008319858218D2AFCEF0A3E520F0A37808B5
:10039300E608F0A3DEFAEFF0A3E58124FAF8E60815
:1003A300F0A3E608F0A3E608F0A30808E608F0A324
:1003B300E608F0A315811581D0E0FED0E0F81581A1
:1003C30015811581E8C0E0EEC0E022C0D02518C534
:1003D30082C0E0E51934FFC583C0E0E518C3958208
:1003E30024F310AF08858319858218800885831943
:1003F300858218D2AFC8F0A3E9F0A3EAF0A3EBF02B
:10040300A37908E709F0A3D8FAECF0A3EDF0A3EE83
:10041300F0A3EFF0A3D0E0F0A3D0E0F0A3D0E0F09E
:10042300A3E520F0A3E5F0F0A322851983851882C4
:10043300E0C0E0A3E0F9A3E0FAA3E0FBA37808E0BF
:10044300F608A3DFFAE0FCA3E0FDA3E0FEA3E0FFD0
:10045300A3E0C0E0A3E0C0E0A3E0F5D0A3E0F52073
:10046300A3E0A3F5F010AF088583198582188008EF
:10047300858319858218D2AFD082D083D0E0F8D09B
:10048300E032120ADDB900030204C4E490030178E8
:10049300C979178002F0A3D8FCD9FA7AC97B1990DD
:1004A3000086788079018015E493A3AD82AE838AB8
:1004B300828B83F0A3AA82AB838D828E83D8E9D902
:1004C300E77582D975837C74001208017582ED7516
:1004D300831E7400120801D083D082ECC0E0EDC00B
:1004E300E0E493A3FCE493A3FDED4C600D1205F649
:1004F300EC24FFFCED34FFFD80EFE493A3FCE493D5
:10050300A3FDED4C600D1206C9EC24FFFCED34FF96
:10051300FD80EFD0E0FDD0E0FCE493A3C0E0E493E2
:10052300C0E022D083D082E9C0E0E493A3C386F085
:10053300C5F095F0F908E493A386F0C5F095F07043
:100543000BE493A3C3994005E9048002A3E475F087
:1005530002A42582F582E5F03583F583D0E0F9E442
:1005630093A3C0E0E493C0E022851983851882E059
:10057300A3FEE0A3F5207808E0A3F608DFFAE0A3E2
:10058300FFE0A3C0E0E0A3C0E0E0A3C0E0E0A3C0BD
:10059300E0E0A3C0E010AF088582188583198008C6
:1005A300858218858319D2AFD083D082020807C011
:1005B300E074F21203CEA2AFE433FED2AFE589A218
:1005C300E15003121E1B758900C2C5EEA2E092AF73
:1005D3007F0102042DC0E074F21203CEA2AFE43314
:1005E300FED2AFE58BA2E05003121E1B758B00C237
:1005F300E880D8C0E0C3E49396087401939618404A
:100603000FE49366700808740193661870007019FC
:10061300A3A3C3E49396087401939618A3A3400D70
:10062300D0E0D0E0D0E0020516A3A3A3A3A3A3D0F8
:10063300E022D083D082C5F0E493A3C5F0C395F044
:10064300F5F0E493A3C395F04005E5F0048001E4DD
:1006530075F002A42582F582E5F03583F583E493F2
:10066300A3C0E0E493C0E022740480047402800019
:10067300CCC0E0EDC0E0E518C39CCCAD1950011D22
:1006830010AF068C188D1980068C188D19D2AF12F5
:100693000763D0E0FDD0E0FC2274028000CCC0E010
:1006A300EDC0E0E518C39CCCAD1950011D10AF0699
:1006B3008C188D1980068C188D19D2AF120741D072
:1006C300E0FDD0E0FC22C0E0C0F088F0E493667067
:1006D300080874019366187000A8F0A3A3700BD0E8
:1006E300F0D0E0D0E0D0E0020516A3A3D0F0D0E034
:1006F30022D083D082CCC0E0E493A360061207C368
:100703001470FAE493A360061208D51470FAD0E0CB
:10071300FCE493A3C0E0E493C0E022C0E074F212CF
:1007230003CEA2AFE433FED2AFC2C0E5D1A2E45000
:1007330003121437EEA2E092AF7F0102042DCAC068
:10074300E0E493A3C582CCC582C583CDC583F0A362
:10075300C582CCC582C583CDC583DAE5D0E0CA2284
:10076300CAC0E0E0A3C582CCC582C583CDC583F0F2
:10077300A3C582CCC582C583CDC583DAE6D0E0CAE2
:10078300222518F8E43519F9222518FAE43519FB5E
:10079300222518FCE43519FD222518FEE43519FF3E
:1007A300227009080808226016181818C6C333C631
:1007B30008C633C608C633C608C633C6D5E0EA2220
:1007C300C0E0E493A3D39C5010E493A3C39C400ADA
:1007D300D0E0D0E0D0E0020711A3A3A3D0E022C071
:1007E30008C3E096F50808A3E096420808A3E0963C
:1007F300420808A3E09645087001D3D00822C09FA1
:10080300F59FE473D09F22D083D082C09FE493C02E
:10081300E0740193C0E0740293F59F2200C0D025D9
:100823001810AF08F518500C05198008F518500278
:100833000519D2AFD0D0227404800A7403800674E1
:100843000280027401C0E0F404120855D0E0120AD9
:10085300A0222518F58210AF08F518400C15198051
:1008630008F51840021519D2AF85198322BB01027E
:10087300E722C082C08389828A83BB0003E08002AF
:10088300E493D083D08222C0E0C0D0E8C0E0A8A81F
:10089300D2AFC2C7E8A2E792AFD0E0F8D0D0D0E0A1
:1008A300326016080808C6C313C618C613C618C68E
:1008B30013C618C613C6D5E0EA22C3E0C696F608E7
:1008C300A3E0C696F608A3E0C696F608A3E0C6968C
:1008D300F622C0E0E493A36C7009D0E0D0E0D0E04E
:1008E300020711A3A3D0E022251810AF08F5184082
:1008F3000C15198008F51840021519D2AF22C3E769
:10090300960809E7960809E7960809E796A2D265CB
:10091300D03322C3E09608A3E09608A3E09608A389
:10092300E096A2D265D03322E066701008A3E06699
:10093300700A08A3E066700408A3E06622C3E09689
:10094300F008A3E096F008A3E096F008A3E096F081
:1009530022E026F608A3E036F608A3E036F608A35D
:10096300E036F622E026F008A3E036F008A3E036EE
:10097300F008A3E036F022E046F008A3E046F008D2
:10098300A3E046F008A3E046F022E046F608A3E021
:1009930046F608A3E046F608A3E046F622E647F645
:1009A3000809E647F60809E647F60809E647F62286
:1009B300E056F008A3E056F008A3E056F008A3E0E1
:1009C30056F022E056F608A3E056F608A3E056F6E2
:1009D30008A3E056F622E657F60809E657F6080993
:1009E300E657F60809E657F622E627F60809E6373A
:1009F300F60809E637F60809E637F622700422609E
:100A03000D18C6C333C608C633C6D5E0F41822E4AE
:100A1300C396F608E496F608E496F608E496F622FA
:100A230075D000758140751801751903000204859E
:100A3300600D08C6A2E713C618C613C6D5E0F32295
:100A4300C3E7960809E7960809E7960809E7962297
:100A5300C3E09608A3E09608A3E09608A3E09622D5
:100A6300C6F4C608C6F4C608C6F4C608C6F4C62249
:100A7300600C08C6C313C618C613C6D5E0F422E635
:100A8300F008A3E6F008A3E6F008A3E6F022E0F6F8
:100A930008A3E0F608A3E0F608A3E0F622CAC0E044
:100AA300E6F0A308DAFAD0E0FA22E8F0A3E9F0A32B
:100AB300EAF0A3EBF022EAF0A3EBF0A3ECF0A3ED52
:100AC300F022E0F8A3E0F9A3E0FAA3E0FB22E0FAC6
:100AD300A3E0FBA3E0FCA3E0FD22E5C754F8440137
:100AE300F5C77901222518F582E43519F58322C269
:100AF300AF75D69F0200002212080A07FF011208F1
:100B03000A10FF0112080A1FFF0112080A35FF012C
:100B130012080A48FF0112080A51FF0112080A6766
:100B2300940312080ABC940312080ABB9603120822
:100B33000AEF960312080A11970312080A2A970369
:100B430012080A43970312080A1D980312080AD0D1
:100B5300980312080A76C30312080AA8C3031208EB
:100B63000AB4C30312080AE6C30312080A0EC40335
:100B730012080A3BC40312080AB8C40312080AE69F
:100B8300C40312080AB3B30312080AD3B303120847
:100B93000A12B40312080A21B40312080A40B40368
:100BA30012080AA6B40312080AAFB40312080A0C07
:100BB300B50312080A30B50312080AF1B503120887
:100BC3000AFEB50312080A0FB60312080AC5D503B5
:100BD30012080AE2D50312080A3CAD0312080A7D83
:100BE300AE0312080A8BAE0312080A9EAE03120864
:100BF3000AB3AE0312080AC8AE0312080ADBAE0337
:100C030012080A54AF0312080AEBAF0312080A3F93
:100C1300B00312080A4FB00312080AABD303120839
:100C23000ACFD30312080AF7D30312080A1FD40307
:100C330012080A7DBF0312080AA4BF0312080AC2DE
:100C4300BF0312080A2AC00312080AC4B803120811
:100C53000ADDB80312080AE9B80312080AFDB8034B
:100C630012080A1BB90312080A25B90312080A2F2E
:100C7300B90312080A42B90312080A94B903120805
:100C83000ACDB90312080AFCB90312080A4ABA03C7
:100C930012080A99BA0312080AB4BA0312080ABE60
:100CA300BA0312080ACFBA0312080A12BB031208C6
:100CB3000A99D40312080A00800312080A2C80033D
:100CC30012080A49800312080A5C800312080A7298
:100CD300800312080ADF800312080A128103120834
:100CE3000A86840312080AC0850312080AF38503DF
:100CF30012080A57860312080A45870312080A6D69
:100D0300870312080A82870312080A9287031208CC
:100D13000AD6870312080A25880312080A358803AE
:100D230012080A7CCE0312080A96CE0312080ABEE2
:100D3300CE0312080AD7CE0312080AFBCE03120809
:100D43000A19CF0312080A30CF0312080A5ECF0331
:100D530012080A79CF0312080A81D50312080A9CE4
:100D6300A90312080AACA90312080AB1AA031208BC
:100D73000AE3AA0312080A09AB0312080A2CAB03FD
:100D830012080A43AB0312080A7DAB0312080AE2F6
:100D9300AB0312080A1BAC0312080A5AAC0312086D
:100DA3000A8BAC0312080AABAC0312080ACBCB03C1
:100DB30012080AE9CB0312080A37CC0312080A7F88
:100DC300CC0312080A1ECD0312080AAAD203120882
:100DD3000AB4C80312080AF3C90312080A14F90271
:100DE30012080A93F90212080AB3F90212080ADA7E
:100DF300F90212080AEEF90212080A46FA02120868
:100E03000A6AFA0212080ADCFB0212080AA0FC02B0
:100E130012080A00FD0212080A51FD0212080A888C
:100E2300FD0212080AF4FD0212080A20FE0212084B
:100E33000A9DFE0212080AF1FE0212080A41C503C6
:100E430012080A5AC50312080AE1C50312080A89DF
:100E5300C60312080AB1C60312080A3DB6031208F4
:100E63000AB1B60312080ABCB60312080ADDB603B8
:100E730012080AD2EF0212080AD5EF0212080A7EFC
:100E8300F00212080ABDF00212080AECF00212087E
:100E93000A22F10212080A50F10212080A9AF10218
:100EA30012080AE1F10212080A54F30212080A8135
:100EB300F30212080AAEF30212080A31F40212080E
:100EC3000AD2F40212080A08F50212080AA0F6026E
:100ED30012080A6AF70212080A5AF80212080A9656
:100EE300F80212080ACEF80212080A6ABD031208B1
:100EF3000AA6BD0312080A90BE0312080A7ABF03AA
:100F030012080A33CD0312080A69CD0312080A83B3
:100F1300CD0312080AC5CD0312080AD5CD03120862
:100F23000A6FCE0312080A79CE0312080A74E60286
:100F330012080A7EE60212080ABFE60212080A44F1
:100F4300E70212080A61E70212080A01E80212081E
:100F53000A9FEA0212080AA8EA0212080AEFEA0242
:100F630012080A18EB0212080A70EB0212080AF8B8
:100F7300EB0212080A38EC0212080A90EC0212087B
:100F83000AF8EC0212080A2BED0212080A9FED027E
:100F930012080AF6ED0212080A31EE0212080A6478
:100FA300EE0212080A76EE0212080A88EE0212080E
:100FB3000AA7EE0212080A50EF0212080A98EF027B
:100FC30012080AAFD10312080A8EC10312080AFCE1
:100FD300C10312080A1BC20312080A11C303120831
:100FE3000A69A20212080A94A30212080AC9A302F8
:100FF30012080A64A50212080A95A50212080A1F1C
:10100300A80212080A5FA80212080AF3A90212082A
:101013000A90AA0212080AE2AA0212080A64AB02A0
:1010230012080A9CAB0212080ADEAB0212080A5429
:10103300AD0212080AF2AE0212080A41B102120806
:101043000A6FB10212080A93B10212080A9CB10294
:1010530012080AF2B10212080A8DB20212080A4FEC
:10106300B60212080A64D60312080A7AD6031208D3
:101073000A36D50312080A5EB00312080A70B003D9
:1010830012080A0AB10312080A45B10312080A60DA
:10109300B10312080A84B10312080AC5B103120886
:1010A3000AF5B10312080A26B20312080A9CB30315
:1010B30012080AAFD00312080A0ED10312080A4C11
:1010C300D10312080A8DD10312080AA98F0312084B
:1010D3000A48900312080AFD900312080A0C9203AF
:1010E30012080ABE930312080A01940312080AF3B2
:1010F3006F0012080A41700012080A1D71001208DD
:101103000AAC710012080AF9710012080A4B720046
:1011130012080AA8720012080ABC720012080AA672
:10112300740012080A12750012080A3C75001208AE
:101133000A0A770012080A25770012080A66770060
:1011430012080AA2770012080AFB770012080A1491
:10115300780012080A27780012080A9B7800120800
:101163000A1B7A0012080A507A0012080A787A00D9
:1011730012080A7D7A0012080AD57A0012080A7743
:101183007B0012080A9C7B0012080AA67B00120847
:101193000AA97B0012080A117C0012080A2C7C00A1
:1011A30012080A3F7C0012080AA37C0012080AD620
:1011B3007C0012080AEAD40312080A02D5031208B3
:1011C3000A65880312080AB4880312080A578A03B7
:1011D30012080AEF8B0312080A318C0312080A4D16
:1011E3008D0312080A888E0312080AAA8E031208B6
:1011F3000AF48E0312080A758F0312080A2FCB0212
:1012030012080A63CB0212080A3ACC0212080AB384
:10121300CC0212080A0FCD0212080A51CD0212089D
:101223000AC7CD0212080A4ACE0212080AC3CE0226
:1012330012080A0ACF0212080A1AD30212080AD79E
:10124300D40212080AFCD40212080ADBD5021208DF
:101253000ADED50212080AB1D60212080AF0D70232
:1012630012080A12D90212080A51D90212080A7284
:10127300DA0212080A65DB0212080AFEDB02120810
:101283000AD8B60212080A7BB70212080AEFB7029D
:1012930012080AFEB70212080A7CB80212080AF3FF
:1012A300B80212080A1CBA0212080A40BA0212084B
:1012B3000AB9BA0212080A04BB0212080A62BB0284
:1012C30012080A42BE0212080A67BF0212080ADDA8
:1012D300BF0212080AC9C10212080A77C202120821
:1012E3000A21C30212080A80C30212080AE5C302D4
:1012F30012080A53C50212080AF4C60212080A2089
:10130300C80212080ABAC80212080A24C90212083B
:101313000A00CA0212080AB0D60312080AB3D60397
:1013230012080A1DBB0312080A50BB0312080A095C
:10133300BC0312080A71BC0312080AE5BC031208B5
:101343000AE5A50312080A04A60312080A53A60312
:1013530012080A6FA60312080A9FA60312080AAF0F
:10136300A60312080AC5A60312080ADEA60312087A
:101373000AA8A70312080AE1A70312080AEBA703A6
:1013830012080AFCA80312080A07A90312080A197B
:10139300A90312080A22A90312080A2CA903120896
:1013A3000ABDA10312080A70A50312080A7EA50349
:1013B30012080AFE7D0012080A38D60312080A0131
:1013C300D60312080AD6FF0212080A84D6031208AB
:1013D3000A00800212080A3A800212080A67800291
:1013E30012080A12810212080AD9810212080A2677
:1013F300820212080A80830212080AB683021208C4
:101403000A4D860212080AAE880212080A6089028F
:1014130012080AED890212080AF9890212080AC998
:101423008C0212080AFA8C0212080A528D02120860
:101433000A8C8D0212080AB8FE0112080AED8E0208
:1014430012080AFA8E0212080A0E8F0212080A1CE8
:101453008F0212080A1F8F0212080A4E8F02120807
:101463000A878F0212080A05910212080AB591022F
:1014730012080AD5910212080ACC920212080ACF66
:10148300920212080A2B930212080AD69402120837
:101493000A35950212080AEA950212080A02960210
:1014A30012080A5F960212080A87960212080AA80F
:1014B300990212080A689A0212080AB09A021208DC
:1014C3000A019B0212080A799B0212080A989B02DE
:1014D30012080A8C9C0212080A0F9F0212080A8142
:1014E300A00212080A1DA10212080A20A202120871
:1014F3000A3EA20212080AE4810112080AF68101D7
:1015030012080A15820112080A81820112080A0EC2
:10151300830112080AE0830112080A5184011208A8
:101523000A6C840112080A90840112080ACB840110
:1015330012080A08850112080A2B850112080A7984
:10154300850112080A53860112080A04870112084A
:101553000A94870112080A84880112080AC78801BD
:1015630012080AEB880112080A3D890112080A626F
:10157300890112080A948A0112080AC18A01120811
:101583000AD38A0112080ADD8A0112080A708B0144
:1015930012080ADF8B0112080A888C0112080A90CC
:1015A3008C0112080A698D0112080ADF8D011208E5
:1015B3000A1C8E0112080A7F8E0112080AD58F01B8
:1015C30012080AF58F0112080A57900112080AF14E
:1015D300900112080A4A910112080AD991011208CE
:1015E3000A95920112080AD3920112080A42930142
:1015F30012080A9C930112080AD4930112080A06DE
:10160300950112080A40960112080AA196011208D0
:101613000AEA960112080A12970112080A9597011D
:1016230012080A15980112080A88980112080A99E3
:10163300980112080A0D990112080AA899011208C3
:101643000AEA990112080A709A0112080AAC9A016F
:1016530012080ABF9A0112080A0D9B0112080A4ECA
:101663009B0112080AD39C0112080A689E01120802
:101673000A9D9E0112080A3A9F0112080A799F01E6
:1016830012080AB49F0112080A98A00112080AD48A
:10169300A20112080ADEA20112080AE8A201120836
:1016A3000AF2A20112080A0CA30112080A16A301E6
:1016B30012080A20A30112080A2AA30112080A4FDA
:1016C300A30112080AACA30112080AD0A30112084D
:1016D3000AF4A30112080A53A40112080AAAA401D6
:1016E30012080AC8A40112080A38A50112080A75CB
:1016F300A50112080ABCA50112080A24A6011208B2
:101703000AB3A60112080AEEA70112080A3EA801AD
:1017130012080A74A90112080AD8AA0112080A6455
:10172300AD0112080A36AF0112080AEDB001120822
:101733000A53B10112080A63B20112080A14B30171
:1017430012080A59B30112080A0AB40112080A98C6
:10175300B40112080AC0B40112080A82B5011208C2
:101763000A68B80112080A8DB80112080ADFB80125
:1017730012080ADDB90112080A15BA0112080A553E
:10178300BA0112080AB4BA0112080AD2BB0112083C
:101793000A32BC0112080A16BD0112080A20BF0151
:1017A30012080A42BF0112080AD5C00112080A1B17
:1017B300C10112080AEFC10112080A82C20112080C
:1017C3000AB1C20112080ADCC20112080AC7C30126
:1017D30012080A03C40112080A65C40112080AF3B5
:1017E300C40112080AF6C40112080A65C5011208E9
:1017F3000A04230012080A56230012080AAD250022
:1018030012080AF9250012080AEC260012080A57E2
:10181300270012080A98270012080AEE2800120867
:101823000A112B0012080AA82B0012080A3C2C00EC
:1018330012080A0B330012080A9F330012080A1C0D
:10184300360012080A00370012080AA537001208EA
:101853000ABE380012080AE83B0012080AAB3D0032
:1018630012080A0B3E0012080ABF3E0012080A685B
:101873003F0012080A933F0012080A204000120892
:101883000A04410012080AD8410012080A764200ED
:1018930012080AA3420012080AC5420012080AE10C
:1018A300440012080AB3450012080A004600120851
:1018B3000A71460012080A1F470012080A5447001B
:1018C30012080AA2470012080AD2470012080A1097
:1018D300480012080A74480012080A7948001208DE
:1018E3000AD4480012080AFC480012080A124A00E7
:1018F30012080A734A0012080AD64A0012080A6933
:101903004B0012080A9E4D0012080A774E00120877
:101913000A07500012080A97510012080A345200AD
:1019230012080A73530012080A0C540012080A54CE
:10193300540012080AC7550012080ADB55001208A2
:101943000AE8550012080A03560012080A0F560047
:1019530012080A2D560012080AFF570012080A3807
:10196300580012080A45580012080A925800120833
:101973000A85590012080AC9590012080A5B5A005D
:1019830012080A605B0012080A2D5C0012080A970D
:101993005D0012080A9C5E0012080A325F001208FA
:1019A3000AB55F0012080ACC5F0012080AF05F0054
:1019B30012080AFA5F0012080A06600012080A24D5
:1019C300600012080A68600012080AB96000120871
:1019D3000A16610012080A77610012080A7E620083
:1019E30012080A8E630012080A2D640012080A1AEC
:1019F300650012080AB1650012080A486600120859
:101A03000A18670012080A47670012080AB9670034
:101A130012080A67680012080A8D680012080AACE7
:101A2300690012080ACB690012080A3A6A00120810
:101A33000AB36A0012080AD96A0012080A056B0081
:101A430012080A506B0012080AD46B0012080A7BB2
:101A53006D0012080AA46D0012080A296E0012080C
:101A63000A836E0012080AA86E0012080AEE6E00BE
:101A730012080A0B6F0012080AB96F0012080A4411
:101A8300D40312080A8FD40312080A33C6011208BA
:101A93000A6DC60112080A40C70112080A16C801D6
:101AA30012080A45C90112080ACECA0112080A4CD3
:101AB300CB0112080A12CC0112080A33CD01120815
:101AC3000AA5CD0112080A07CE0112080A69CE0140
:101AD30012080A73CE0112080AB1CE0112080A1ABB
:101AE300CF0112080AB9CF0112080A37D001120830
:101AF3000AEAD00112080A5CD10112080A82D10154
:101B030012080AB2D10112080ADFD10112080A85AC
:101B1300D20112080A95D20112080AE8D20112086A
:101B23000AF4D20112080A00D30112080A09D301E8
:101B330012080A6CD30112080ACCD30112080A1D39
:101B4300D40112080A38D40112080A68D401120811
:101B53000A89D40112080A95D40112080A1CD60175
:101B630012080A3AD60112080AA3D60112080AB6C5
:101B7300D60112080AC7D60112080A5AD701120859
:101B83000A5DD80112080A53D90112080AD6D901ED
:101B930012080ADFD90112080A42DA0112080A59A7
:101BA300DA0112080A9BDA0112080AE0DA011208C4
:101BB3000A0FDB0112080A46DB0112080A63DB0184
:101BC30012080A87DB0112080AC8DB0112080ABBE4
:101BD300DC0112080A01DD0112080A3CDD011208CA
:101BE3000A9BDD0112080AC3DD0112080AFCDD01AC
:101BF30012080A0ADE0112080A6BDE0112080AA89B
:101C0300DE0112080AEADE0112080A1BDF011208CC
:101C13000A4FDF0112080A5ADF0112080A78DF01AE
:101C230012080A41E00112080A4BE00112080A8A6D
:101C3300E00112080AA0E00112080A0AE1011208F1
:101C43000A1EE10112080A16E20112080A29E2013A
:101C530012080A3EE20112080ADEE20112080A42F1
:101C6300E30112080A09E40112080A14E401120844
:101C73000A33E50112080A4FE50112080AA7E50134
:101C830012080ADEE50112080AF8E50112080A6CD7
:101C9300E60112080AFDE60112080A45E7011208E7
:101CA3000A6AE90112080AD4E90112080A3FEA01A3
:101CB30012080A85EC0112080A95EC0112080A9829
:101CC300EC0112080AA4EC0112080AB8EC0112088C
:101CD3000AC0EC0112080A05ED0112080AB3ED016E
:101CE30012080A23EE0112080A87EE0112080A20DD
:101CF300EF0112080ABAEF0112080AE8EF0112080D
:101D03000A87F00112080A93F00112080AC2F001CF
:101D130012080AC5F00112080A3CF10112080A2C44
:101D2300F20112080A04F30112080A8EF3011208E1
:101D33000AAFF40112080A61F50112080A9AF501C3
:101D430012080ACBF50112080AD4F50112080A1089
:101D5300F60112080AF7F60112080A73F7011208CE
:101D63000A03F80112080ACDF80112080A51F90111
:101D730012080A87F90112080AD0F90112080A4F5A
:101D8300FE0112080AC4FC0112080AB1FB01120881
:101D93000A3BFB0112080A83FA0112080A16FA0128
:101DA30012080A58A10312080AD89E0312080A1639
:101DB3009E0312080A9D9D0312080A8F9D031208B1
:101DC3000A5A9D0312080A099D0312080AE49C0398
:101DD30012080ACF9C0312080AB79C0312080AA927
:101DE3009C0312080A929C0312080A789C031208A7
:101DF3000A049C0312080A339B0312080AD59A03A8
:101E030012080ABB9A0312080A8A9A0312080A18CC
:101E1300990312080A03990312080A93CB031208C1
:101E23000A3ACB0312080AF2CA0312080AD3CA03F6
:101E330012080A69CA0312080A47CA0312080A9653
:101E4300D00312080A30D00312080AACCF031208D9
:101E53000AF0FF0112080A8FFF0112080A74FF013A
:101E630012080A64FF0112080AB8D60312080A10FE
:101E7300C70312080A02C70312080A99DC021208F0
:101E83000ABEFF0212080A20FF0212080A0FFF020D
:101E930012080A8A7F0012080A21E60212080AE7DA
:101EA300E50212080AB5E50212080A7FE5021208E4
:101EB3000A1EE50212080A08E50212080ABEE40235
:101EC30012080AD6E10212080AE9DF0212080A918F
:101ED300DD0212080A46DD0212080AA7DC02120814
:101EE3000A16DD0212080A008E0200000080FBE4DD
:101EF30073000136360101000102010001030100F4
:101F03000104010606050200000701003408010070
:101F13000F090401010D0100FF0E08000017020064
:101F230000190100FF1A0100011B0100FE1C010042
:101F3300081D0200001F0100012001000121020011
:101F4300002301000F2402000026010001270100E5
:101F530008280200FF2A0100072B0102402C010080
:101F6300002D0100012E0100012F0100FF30010BA4
:101F73001C310800003A0100083B01000F2F01004B
:101F83000003007100300160001100700031022075
:101F9300035004800010006100000014006300730C
:101FA30000720062004300000013000600000000FE
:101FB3000004001200000000000000000004000400
:101FC30000370037003C024400000000000000001E
:101FD300006500000035008100000005000000835B
:101FE300000000030271023001600211027002015D
:101FF30002020202028002100261023A00410063FF
:1020030002730272026202430200021302380000EA
:102013000200020402120200020002000200020493
:10202300020402370037003C024402000239000078
:1020330002000265020002350281020002050282EB
:102043000283020002030471040204600411047099
:1020530004020402040104020410046104000414D1
:102063000463047304720462044304000413040647
:102073000400040004040412040004000400040027
:102083000451046400000400040004440400040038
:10209300040004000465040004350481046400059D
:1020A3000400048304000401037103010301030119
:1020B30003010301032203020301031003000300CE
:1020C300030003000300030003000342030003248F
:1020D300030603000300030403120325032303255C
:1020E3000323030403040300030003000344030066
:1020F3000300032303000365032100350381030069
:102103000305030003000300030101710101010141
:10211300011101010131010101010180011001617E
:10212300013B00140063017301720162014301006A
:1021330001130106013D01350004011201000100F4
:10214300010001000104010401330133013C014496
:1021530001320136000001000165010001350081F3
:10216300010001050182018301000136000100061F
:102173000000000F0000000000000000000000004D
:102183000003FFFF00000403FFFF0000FFFF0FF445
:10219300010005C4040320000100000B000000003F
:1021A3000000000003010F0000BD1213005D1201C7
:1021B30000BD120200151203001B120400211205B8
:1021C3000027120600331211005112140057121582
:1021D300004512FFFF0000013918066318085D1857
:1021E3000B751810A317023F180551180745180C53
:1021F3001B180D2D18FF0000C91BF91BCF1BD51B86
:10220300F31BE71BE11BFF1B051C0B1C171CDB1B34
:10221300C31BBD1B03EAF5E5D5D5C5B5A5959585C6
:10222300857575656555554545353525251515055B
:1022330000160F00000B150B020002220F320000E4
:1022430006B91CCB1CD11C931BD71C8D1B991BCD12
:102253001AC71A031B091BFD1AB51A191D371D3D91
:102263001D1F1D2B1D251D00383C3E363B3B352BCA
:10227300432C303016181920231A1C1E3000034932
:1022830048424D18172505020C0E020B040B0A07D2
:1022930008000F0001191618161615230300303015
:1022A30017181921301B1D1F300D1DDD1CE31CEFFA
:1022B3001CE91CED1B111C311D1D1C231C020402F7
:1022C3000101010109020005150D09100804D91ABD
:1022D300DF1AD31A0F1B00000000000000BE040A1F
:1022E300E51AF71A2800E803040015000E00030995
:1022F30008101004011E0C05080F1EFF000009033F
:102303000AC082C083E990191CF0E49018D1F0123E
:102313000EEB901930E4F0A3F090191DF0A3F01226
:102323001A1F12155D1216FB120EF1901891E4F0AC
:10233300A3F0901942E07002A3E0600990194212E1
:10234300585C121EF29022FCE493FA790212138372
:1023530002486D74F2120362EAFEEBFF74805FF9C8
:10236300E47001E9606190191CE0F9120F698A08B1
:102373008B09EA7001EB60467B0080010BEB75F083
:1023830003A424DAF8E5F03421F988828983E493FD
:10239300FA74FF6A6021850882850983E06A70DC2C
:1023A300AA08AB0988828983A3E493C0E0740193EC
:1023B300F583D082121EF2AA08AB09120F5DEEFA62
:1023C30074806FFB02259674205FF9E47001E96065
:1023D3001D1218F38A088B09EA7001EB600A1218C0
:1023E3002DAA08AB09120F5DEEFA742080D4EE54C7
:1023F3002070030224C7750C001244D37001EB70E4
:102403000B7C027D007A207B001268FF7C0079043C
:102413007A007B001218BD8A088B09800D7401882D
:10242300828983F0850A08850B09E5087002E509AE
:10243300606D7C007904AA08AB091218BD8A0A8B67
:102443000B750C01E508240412695124FFF0A3E085
:1024530034FF126BB77002A3E070C9E5082409F8D2
:10246300E5093400F9850882850983A3A3A3A3A3FF
:10247300A3A3A3A3A3E0640170A3850882850983B2
:10248300A3A3A3A3A3A3E054047092740688828930
:1024930083F07AB78508828509831226E180851245
:1024A300188D7C0079017A007B001218BDEA700157
:1024B300EB7009E50C70057A201225A274206EFAE0
:1024C300EF0223C6EE54106007121731741080EE2A
:1024D300EE5440600712178B744080E2EE54806024
:1024E3000712164D748080D674015FF9E47001E918
:1024F300601A901944E07002A3E060099019441235
:10250300585C121EF2EEFA74010223C574085FF9D7
:10251300E47001E9602D12170790183CE064017024
:102523001B90183DE06015FC75F0E8A4CCAAF0758B
:10253300F003A42AFD7A007B081268FFEEFA740800
:102543000223C574105FF9E47001E9601290192E3B
:10255300E06005E4F0121707EEFA74100223C57465
:10256300025FF9E47001E9600A121A19EEFA7402C3
:102573000223C574045FF9E47001E96012125BFF82
:10258300125A5579011236F6EEFA74040223C57A0B
:10259300007B008005740312081F7F0602056C7B15
:1025A3000090191CE0F912109B2274F71203627455
:1025B300E11208EBEAFEEBFFEE7001EF60338518E2
:1025C30082851983AC82AD8312191D7406120AE841
:1025D300E0601E7417120AE8E0FD7401120AE8E0D5
:1025E300FCEEFAEFFB79001214EBE9600479A480A6
:1025F3000279000249C274F5120362EAFEEBFF8E10
:10260300828F83A3A3A3A3A3A3E054406018126201
:102613006960067AFF7BFF806A8E828F83124D95F5
:10262300FAA3E0FB80539018BCE0A2E15048125F8C
:1026330095241CF8EB1244BE7508FE7509FF780853
:1026430012084212329212066F79008C828D831225
:102653005E89A3A3A3E0F5088C828D83125BECA3B0
:10266300A3E0FDAC088A828B8312553D12170D74CB
:102673000412081F800312194174FE6A700374FF69
:102683006B6043125858125D861219BFE98E828F10
:102693008360061226DAE480051226DA7401F07CE0
:1026A300FD7D178E828F8312553D12137DE9F50848
:1026B3007017EE7001EF60097901EEFAEFFB121863
:1026C30099A9080260F87508CDAA088E828F831233
:1026D30026E1E960DD80EAE0240D124FF122E024D7
:1026E3000C124A0DF91218092274F6120362E9FE5C
:1026F300EAFF7A0F7B00120F57EA7001EB6019743F
:102703000C8A828B83F0EEA3A3F0EF8A828B83A3E0
:10271300F0125A4679008028EEF91218C38A088B02
:1027230009A808A909E87001E96013740688828979
:1027330083126BBCE0F912179DEEF912189F791002
:10274300025853EAFCEBFD7A017B0090191CE0F977
:1027530012108F22C082C0837900EA241DF582EB18
:1027630012329812553D9018BCE0A2E18A828B8305
:10277300E0500E1206F401010A8127009527098013
:10278300111206F40103048127020781270A812716
:10279300952702486D74EE120362EAFEEBFF8C0884
:1027A3008D09890E7412120AE8E0F510A3E0F51101
:1027B300851082F583E4F0A3F01228CAEE241DF8F5
:1027C300EF3400F9880C890D88821228E3601F8595
:1027D3000A82850B83122BA27014850A82850B83D0
:1027E300124B4D851082851183125A558003750E45
:1027F30000850C82850D83124D95120635010969FA
:1028030028182830283E2849286928732869288DE4
:1028130028A628B9287810120842AC08AD09EEFAA8
:10282300EFFB121719740212081F0228C2AC08AD7D
:1028330009EEFAEFFB12171F0228C5A90EEEFAEFF5
:10284300FB1219D78079126D3864027019E50E7086
:102853000A1228D77003A3E0697067EEFAEFFBA9A9
:102863000E12198F8059750E007901120EFD8052D8
:102873001228D77003A3E06970EC126D38640270FC
:10288300E5EEFAEFFB1219778038901946E07002F3
:10289300A3E0602EEEFAEFFB90194612585C121E6D
:1028A300F2801F1228D77003A3E06970B9EEFAEF24
:1028B300FB1219E3800CEEFAEFFBA90E1219EFE9F4
:1028C300F50EA90E0244AFEE2409F8EF3400F9889F
:1028D3000A890B22850A82850B831260F1E0682244
:1028E300F583124D99F91219A1E92274ED120362CD
:1028F30074DE1208EB8A088B09EA2402F510EB1246
:10290300516DF91218C38A0A8B0BAE0AAF0BEE7026
:1029130001EF70030229D5E508240C125D61122B27
:1029230000240612328A850882850983A3858208DA
:10293300858309E064F16017E064CD6012E0641AF6
:10294300600DE064E96008E064E16003022A5F85EA
:102953000E82850F83A3E05408F9E47001E9607FD8
:102963007405850A82850B83F090194AE07002A3EF
:10297300E0600990194A12585C121EF290194CE05B
:102983007002A3E060339018BCE0A2E1502B8E826A
:102993008F83126263A3A3A3A3A3A3A31249CC129D
:1029A30032A4EA7001EB6011850882850983E0F99E
:1029B30090194C12585C121EF2850A82850B83E033
:1029C300640270037406F0851082851183E0F912A6
:1029D300189F12188D742212081F7F0B02056C7941
:1029E30000121899E960759018BCE0A2E140030257
:1029F300296C12662F7002A3E0700302296C740322
:102A0300120AE8126616850882850983E064E97074
:102A13001A122B08120846850882850983E0F512ED
:102A23007812120846123BA512081F740C120AE80A
:102A330012553D125858125D867900740E120AE839
:102A4300124D6F740C120AE81232D4700302296C0F
:102A5300850E82850F83124D7902296B8508828545
:102A63000983E0C0E07402120AE8D0E0F01267AD17
:102A7300EE240B126D3B851882851983AA82AB83E2
:102A83007005121683800312199B7402120AE8E080
:102A930064E97014122B081208467512E9781212B1
:102AA3000846123BA512081F9018BCE0A2E14003A0
:102AB3000229BC850A82850B83E064027027850E98
:102AC30082850F83E05404601C12626970131258EC
:102AD3005874FFF0A3F07405850A82850B830229DD
:102AE300C9740380F3850882850983E064E9600380
:102AF3000229BCEEFAEFFB1219F50229BCEE2409F8
:102B0300126908EE22125F9A75120178122274F587
:102B13001203628A088B09750A00EA2409124B40E2
:102B2300FEE9FF8E828F83122BA27003750A018E3A
:102B3300828F8312544B7003A3E06B7006E50AD2B5
:102B4300E1F50AE5082402FEE5093400FFE50A6021
:102B5300138E828F83E07006E50AD2E58004E50ACE
:102B6300D2E6F50A1219BFE964017006E50AD2E05C
:102B7300F50A8E828F83E06017E508241DF582E550
:102B83000934001228E364016006E50AC2E0F50A8D
:102B9300E50AA2E14004D2E7F50AA90A0260F812A5
:102BA3006274640222C082C08379018A828B83A308
:102BB300A3E0C394024001198A828B83A3A3A3A336
:102BC300E0C39402400279008A828B83A3A3A3A368
:102BD300A3A3A3A3A3124D6F74F86C700374FF6DCA
:102BE300601E74F96C700374FF6D601474FA6C707A
:102BF3000374FF6D600A74FB6C700374FF6D7002E5
:102C030079008A828B83A3A3A3E0FC9018BFE06CB6
:102C1300600279009022F8E493C394805018E493FF
:102C2300C333C0E0EA2411F582EB126D3EFAD0E023
:102C3300C39A5002790002486D74E812036274DC8F
:102C43001208EBEAFEEBFF7403120AE8125B5875F5
:102C530014007515007405120AE8AC82AD838E82E8
:102C63008F83A3A3A3125D7212553D12191DE96050
:102C73000F7405120AE8AA82AB83121827E97008B9
:102C83007901120EFD023280EE241B124B4774129F
:102C9300120AE8125A55740B120AE8E06023741CF6
:102CA300120AE8E0FD7406120AE8E0FC8E828F83C4
:102CB300A3A312553D79011214EBE9600479028054
:102CC300C17405120AE8AA82AB83121821E9F50838
:102CD300740B120AE8E070299018B9E0602374229B
:102CE30055086422601B74425508644270CF7422F5
:102CF300120AE8124D95FA74066A600574076A7041
:102D0300BCE9A2E650127405120AE8AA82AB831248
:102D1300180FE97003022C83EE2412F516EF34002A
:102D2300F517EE242A122B03242C1232951238B7EE
:102D3300E0687003A3E069701C7509007809120844
:102D4300467809120846EE242E12329C1232B01233
:102D53003BB512081F740B120AE8E07003022DFA48
:102D63001232B01232A48A0A8B0BA80AA90BE8709C
:102D730001E97003022E9E7406120AE81232ABFABE
:102D8300A3E03400FB740D2AF582E43BF583E0FAFB
:102D9300E82404F50AE912690BE82403F582E91231
:102DA3006D3E6A600DEAF09081C2780C120A9112AE
:102DB30032F579047406120AE81232ABFCA3E0344C
:102DC300008C82F583A3AA82AB83120F458A0C8BF6
:102DD3000D8C0E8D0F850A82850B837810120A9154
:102DE3007810790C120A4350030232809081CE7816
:102DF3000C1209541232F5EE242412328AEE2430D6
:102E0300F50CEF125D65EE242F1269089018BCE0F3
:102E1300A2E15003022F379018D1E0FA74046A60DC
:102E23000874096A6003023280E508A2E5400302E0
:102E33002EE41232DCC0E07401120AE8D0E0123B47
:102E4300DFC0E07402120AE8D0E0F07416120AE858
:102E5300E0640170207410120AE81232C07003A3F8
:102E6300E0697011740E120AE8122BA2700774162F
:102E7300120AE8E4F0850E82850F8312066B740450
:102E8300120AE8AC82AD837409120AE8AA82AB8302
:102E9300121689740412081F023280901916E06416
:102EA300016003022DFA7422120AE8124D9564069A
:102EB3007009E508A2E65003022DFA7412120AE81B
:102EC300E064FF7004A3E064FF7003023280EEFC51
:102ED300EFFD7405120AE8AA82AB8312183302329B
:102EE30080A2E640030232807422120AE81232CC36
:102EF300701E741C120AE8E06402600302328074DC
:102F030005120AE8AA82AB83790012198F02328074
:102F130074076A6003023280741C120AE8E06404D6
:102F230060030232807405120AE8AA82AB83121985
:102F3300830232807416120AE8E0601D8E828F834A
:102F4300A3A3123BD11412533FA3123BD1C0E0748D
:102F530016120AE8D0E0F07006E508C2E7F508901B
:102F630018D1E0FA74046A600574096A7061740E1A
:102F7300120AE812544B7003A3E06B60171219BFD7
:102F8300E96402600F740A120AE8E0540364016002
:102F9300030232807407120AE8E0701B1232DCC0AD
:102FA300E07401120AE8D0E0123BDFC0E0740212C1
:102FB3000AE8D0E0022E777422120AE81232CC70AB
:102FC30003022EF574076A6003023280022F1B7519
:102FD30009007461550870030230EBE508A2E05064
:102FE30070851682851783124D6F7405120AE8AA3D
:102FF30082AB83121791E9705512194DE9F50974E3
:1030030016120AE8E0700F7410120AE81232C07048
:1030130003A3E069603BA909851682851783124DD6
:103023006F7405120AE8AA82AB83121797E960133B
:10303300740E120AE8126171120AE8125A557514D5
:1030430004800EE508C2E5F50875090080035308FE
:103053009FE508A2E5503C1232DCC0E07401120A7D
:10306300E8D0E0123BDFC0E07402120AE8D0E0F0DF
:10307300850E82850F8312066B7404120AE8AC82F4
:10308300AD837409120AE8AA82AB83121689740409
:1030930012081FE508A2E640030231B87403120ABE
:1030A300E885820A85830B780A120842A9098516E6
:1030B30082851783124D6F7407120AE8AA82AB83C5
:1030C300121815740212081FE9F50970030231B8CA
:1030D3007422120AE8124D95640160030231B87438
:1030E300104514F5140231B87407120AE8E06401BC
:1030F300703B7422120AE8124D956405702F740315
:10310300120AE88582088583097808120842790043
:10311300851682851783124D6F7407120AE8AA82F7
:10312300AB83121815740212081F02328074161230
:103133000AE8E070127422120AE8124D95640360E3
:1031430003022ED1023280121893E9600302328007
:10315300740E120AE8126171120AE8125A557809BC
:10316300120846741E120AE8AC82AD83740F120A69
:10317300E812553D740A120AE8E0F91217D37401F4
:1031830012081FE9600F7514208E828F83A3A31288
:103193004D95543FF079007410120AE8124D6F7484
:1031A3000E120AE81232D4600674204514F5141284
:1031B300194DE9F5097403120AE8E064FE7004A3EB
:1031C300E064FF7003750900E508A2E740030232DB
:1031D30080E50970030232808E828F83A3A3A3A3A9
:1031E300E0FA7B00120FD58A0A8B0BEA7001EB70B1
:1031F300030232808E828F83A3A3E0F50CA3E0F554
:103203000D750E00780C12083E8E828F83A3A3A344
:10321300A3E0FC7D001241C112081F7407120AE8E3
:10322300E0851882851983F07401120AE8E4F0A39B
:1032330012522785820C85830D780C12084278146C
:10324300120842E509F508780812084685168285B2
:10325300178312066F8E828F83A3A3A3A3E0F9744F
:103263000A120AE8124D6FAA0AAB0B12190B740764
:1032730012081FE96007AA0AAB0B120FDB742412B2
:10328300081F7F1002056CF50EEF3400F50F22EED8
:10329300240EF582EF12697C22F582EF125C27F986
:1032A30022124A07121A43221265642A22850A82CD
:1032B300850B83124B6385168285178322124E6D0D
:1032C300851682851783E06822124D99FA74046A81
:1032D30022124A07121713E922EE242E125C2485C8
:1032E30018828519831232EC22F0850A82850B83BA
:1032F300E022850A82850B83E50CF0A3E50DF0A39C
:10330300E50EF0A3E50FF02274F2120362EAFEEB7E
:10331300FF8C088D091228CA8882F58312553D90C7
:10332300183CE060119018C2E06A7003A3E06B7070
:1033330005121707805379001217AF8A828B83E532
:10334300827002E583603AA3A3A3A3A3A3E0541866
:10335300602FE508241BF582E50912329812066FE7
:10336300E5082412F582E50912329812066FEE245D
:103373001812329C12338F1217DF740412081F8045
:1033830008790012338F12172B02259D850A828537
:103393000B83124B63EE240B124A002274EE1203CA
:1033A3006274EA1208EB8A0C8B0DEA2402F50EEB29
:1033B30012328D0A0AFB1215818A088B09AE08AFF7
:1033C30009750901850C82850D83A3E0F508750A4B
:1033D30001AC0EAD0F851882851983AA82AB8312C7
:1033E30010C57408120AE8125B58740A120AE874CA
:1033F30002F07413120AE8E4F0E50C240AF50CE574
:103403000D125D65901A1FE07010EE7001EF700AE7
:10341300E50870067509C30235759018D1E0640894
:1034230060067509C2023571850C82850D83E0A2A1
:10343300E1500EA2E35005750A04800C750A03805F
:1034430007A2E35003750A02EE7001EF60648E82F7
:103453008F83A3A3A3A3E0FA74046A600574036AC9
:10346300700C7404650A601C7403650A60167402A8
:103473006A600574016A70207402650A600674014B
:10348300650A700F8E828F83123EB9120AE8125AB0
:1034930055801F74026A600574016A700A8E828FF8
:1034A30083124016121EF2AA0EAB0F12158D7E0068
:1034B3007F007408120AE8E064FE7004A3E064FF6E
:1034C3007038121557E97032E508601790190EE04D
:1034D3006402700F901A26123EB9120AE8E8F0A3AC
:1034E300E98016850C82850D83E05402F912173D9D
:1034F3007408120AE8EAF0A3EBF07408120AE8125F
:103503003615700374FF6B70057509C78060E50895
:10351300F50B780B120846850C82850D83E0F9AC18
:103523000EAD0F1216A1740112081FE97040A90A0B
:10353300AC0EAD0F7408120AE81236EF8A108B1125
:10354300AE10AF11EE7001EF601C74026508700BD2
:10355300EE2405126D3B54FB4408F0740A120AE88A
:10356300E4F0F50980087408120AE8125B58E508CC
:10357300700F851882851983AA82AB8312135F802B
:1035830010FCA90A851882851983AA82AB831219B4
:103593007DE9FAEE7001EF603EEE2405F8EF3400AA
:1035A300F9E508601288828983E0D2E6F074026547
:1035B300087004E0D2E5F0850C82850D83E0A2E675
:1035C300500888828983E0D2E7F08E828F83A3A399
:1035D300A3A3A3A3E004F0E5097003EA602FFC7D35
:1035E300007A017B10120EF7EE7001EF6007AA0E4E
:1035F300AB0F12158D7408120AE812361570037496
:10360300FF6B60099018A912585C121EF27416021F
:1036130044AC124A0774FE6A2274F612036274F70A
:103623001208EB8A088B099018D1E0FA74036A60D8
:103633000D74016A600874096A60030236EC850838
:10364300828B83A3AE82AF83E060030236D17C001A
:103653007D007A027B00120EF7E50824021244C5AE
:103663001260ED125A55795312135379001236F63C
:103673009018D1E0640960099018CF12553D121AD1
:103683003D740112588974049018D1F07401120A20
:10369300E8AA82AB83794A12134D7401120AE8AC8B
:1036A30082AD837AC77B181210C579007401120AA0
:1036B300E8AC82AD839018C51236EF9018BCE0A237
:1036C300E35004D2F08002C2F01258718018FC7DDE
:1036D300007A037B10120EF78E828F83E0F9123685
:1036E300F6E49018D1F012186F02584E124A0712DE
:1036F300156F229018CF124A0712169B22C082C060
:1037030083901891E07002A3E070419018D1E01209
:1037130006F400030122370531370640374F37904F
:103723001899E07002A3E06076901899806B901866
:1037330095E07002A3E06067901895805C901897FD
:10374300E07002A3E06058901897804D901891E0C4
:103753007002A3E06009123BCEFC74016C70237904
:103763000090191D800909EA126381EB1232981245
:10377300479D7001EB70EF90191D12553D12168F86
:10378300801D74026C7005121A0D8013901948E0A5
:103793007002A3E0600990194812585C121EF202ED
:1037A300486D74F412036274FB1208EB8A088B09E8
:1037B3007A0F7B00120F578A0A8B0BAE0AAF0BEE00
:1037C3007001EF70030238B274028E828F8312602D
:1037D300FE795012134D850882850983A3858208DB
:1037E300858309E0600302389B9018CF126920702B
:1037F3000374FF69602F74FE68700374FF696025AA
:10380300851882851983E0687003A3E069601674E4
:10381300EA850882850983123D937ACF7B18795014
:1038230012135380738518828519831238B7125A7D
:10383300557AC27B18795312134D9018C2125A4FFE
:103843007AC57B18794B12134D7AC47B1879E11230
:10385300134D9018D6E0C3940F50229018C4E0C0C3
:10386300E07402120AE8D0E0F07404120AE874016A
:10387300F07402120AE8AA82AB83121377750A0066
:10388300780A120846780A1208469019ECE0F912F1
:103893004267123BB512081F850882850983123BD4
:1038A30091F074039018D1F0EEFAEFFB125A4674BC
:1038B300050253E4124E6D9018CF2274EC1203628A
:1038C30074ED1208EB8A828B83A3123B96EA2408D9
:1038D300124B40FEE9FF851882851983AC82AD83C4
:1038E3008E828F83123BBEA3A3A3A312553D12184E
:1038F30081851882851983E070768E828F83E0C379
:10390300940B406C850882850983A3A3A3A3A3A377
:10391300A3A3E0640270599018D1E0FAE5082410DB
:10392300F510E5093400F511E5082409125D617409
:10393300026A604174066A603C901891E07002A3C9
:10394300E06007123BCE6401605474086A6005743A
:10395300046A701C7402120AE8E0F97407120AE898
:10396300AC82AD83850C82850D8312553D12188779
:1039730074130264E3901891E07002A3E0701F7562
:103983000A00780A120846780A12084685108285CA
:103993001183123B881244CD123BB512081F9019B4
:1039A3001D1269A690191D1264DBE508240DF50E9E
:1039B300E50912328D80318E828F83E0F8A3123BAA
:1039C30088E0687003A3E06970128E828F83A3A3DB
:1039D300E0FA850E82850F83E06A606B8E0A8F0B97
:1039E300EE126381EF1269A3EE7001EF70C97A18CA
:1039F3007B00120FD58A128B13AE12AF13EE700138
:103A0300EF70030239737C18126AFB125B4FEE24CA
:103A13000C12329574FFF0E508240B126951123B26
:103A23007F126BB6C4123B7FA3A3F090191DE07005
:103A330002A3E0700590191D800AE50A126381E56F
:103A43000B1232981267B37401120AE8123BA0A357
:103A5300F07402120AE8123BA0F0850E82850F83F0
:103A6300123B91A3123BDF123B7612534A240DFA09
:103A7300EF3400FB7402120AE8E06401600E74077D
:103A8300120AE8AC82AD831210C580097C087D0060
:103A930079FF120F3F7412120AE8E0C0E0EE24151A
:103AA300123295D0E0123BD6FC9019ECE0C39C4057
:103AB3000302397312692EE509123298A3E0548088
:103AC300F9E47001E97009901764E0700302397337
:103AD3007D00EE240CF8EF3400F9EE240BFAEF34FA
:103AE30000FB90190EE06402701D8A828B83E0F55F
:103AF3000AC39C500D7405120AE8E0C39405401BE9
:103B0300801AE50A6C70157405120AE8E0C0E088B3
:103B1300828983E0FCD0E0C39C50010D7404120A37
:103B2300E8E06020ED601D85088285098312610A43
:103B3300ECF0A3ED123BD68A828B83F07405120A54
:103B4300E8124D8A7406120AE8E0600D74018E8251
:103B53008F83A3A3A3A3A3A3F07404120AE8E070C2
:103B63000302397374018E828F83A3A3A3A3A3F0EB
:103B7300023973F8A3E0F98E828F8322540F8E8269
:103B83008F83A3A322E0F9850C82850D8322124043
:103B9300F1A322A3A3E0F508A3E0F509221240F163
:103BA3008021850C82850D83123BBE124B5F8A8276
:103BB3008B83124A07121953740222E0F98A828B0B
:103BC300838002A3A3A3A3A3A3A3229018911250BB
:103BD30001E022F0851082851183E022F0850C82BA
:103BE300850D83E02274F612036274C91208EB9008
:103BF30018D1E0640860629018E2E0F824E0F582EE
:103C0300E43419F583E0FA9018B3F0E824E6F5827A
:103C1300E43419F583E0FB9018B1F07508FF7509DA
:103C2300FFEA78081209FFE508F4FCE509F4FD331F
:103C330095E0FE9018DA123D887508FF7509FFEBD1
:103C4300C39A78081209FFE508F4FCE509F4FD338B
:103C530095E0FE9018DE123D88E412587F79041235
:103C630013539018E2E07009741E120AE87401807D
:103C730006741E120AE8E4F0740F8518828519830E
:103C8300F0901A241260FE79461213537401120A3B
:103C9300E8E4F0901A0AE0C0E07402120AE8D0E007
:103CA300F09018BFE0C0E07403120AE8D0E0F074AB
:103CB30004120AE8E4F07405120AE8E4F074071247
:103CC3000AE8E4F09018E2E0FAC3940F7406500691
:103CD300120AE8EA8005120AE8740FF07CE37D1803
:103CE3007408120AE8AA82AB831210C57C037D0014
:103CF30079FF7410120AE8AA82AB83120F3F90195E
:103D03001BE0C0E07413120AE8D0E012597F120AD4
:103D1300E812596E12196B9018D6E0C0E0741C12A9
:103D23000AE8D0E0F09018D7E0C0E0741D120AE86A
:103D3300D0E0F09018C4E0C0E0741A120AE8D0E0B2
:103D4300F09018CF124B4D7418120AE8125A55749A
:103D530020120AE8E4F09018D9E0C0E0741F120AB8
:103D6300E8D0E0F07434120AE8E4F07429120AE8A7
:103D7300E4123D937414120AE8AA82AB83121371FE
:103D83007437025850ECF0A3EDF0A3EEF0A3F02249
:103D9300F07AC27B187953123D9E221213537AC5CF
:103DA3007B18794B12135322C082C0838A828B8380
:103DB300A3E06007E49018D1F0804A74089018D10A
:103DC300F09018E2E0701F90189BE07002A3E0608F
:103DD3000B790090189B12585C121EF29018CF12A8
:103DE3004D6F7A05801A79001216959018C2124DFC
:103DF3006F7A067B00120EF79018C5124D6F7A0486
:103E03007B00120EF702486D74F412036274EA1217
:103E130008EBEA2402FEEB3400FF0A0AFB121581C9
:103E23008A088B09EA7001EB7003023EB48A828B25
:103E330083124FE3600F74026A600A74036A6005B9
:103E430074046A706CEEFCEFFD8518828519831289
:103E53005F1C123EB9120AE8125A55740A120AE894
:103E63007401F07413120AE81260FD121365890AD3
:103E7300AC0A7D007A077B00120EF785088285095C
:103E830083A3A3A3A3A3E0C2E0F074018508828502
:103E93000983A3A3A3A3A3A3A3A3A31269811202C8
:103EA30012E8850882850983A3A3A3A3A3A3A3A3DD
:103EB300F074160253E4124E6D74082274F0120368
:103EC3006274F81208EB8A0C8B0D8C0A8D0B890E29
:103ED300851882851983AC82AD8375838175827B56
:103EE3007408120763F50FAC0CAD0D8518828519A4
:103EF30083AA82AB8312658D7003750F0190191D20
:103F03008030AC0CAD0DEE240DFAEF3400126BA92A
:103F1300601A850882850983E0650E700F8E828F93
:103F230083E0650A7004A3E0650B6032EE24161289
:103F330032951248617001EF6024EE24021244B4FA
:103F4300E50F70BE8E828F83E0650A7004A3E0657F
:103F53000B70D9850882850983E0650E70CEEEFA71
:103F6300EFFB02533574F712036290191DE0FAA3B5
:103F7300E0800CEA24161269A0120FDBEEFAEFFBC5
:103F8300EA7001EB70ED90191DE4F0A3F00249C74C
:103F930074F41203628A088B09EA240BFEEB3400E3
:103FA300FFEA2413F582EB126D3E64037009EEFA07
:103FB300EFFB121581800CE0640270548E828F83B4
:103FC30012695DEA7001EB6047EA2406F8EB1228F8
:103FD300CF850882850983A3E07007E488828983FB
:103FE300802D64F16005E064E1701A88828983E0C2
:103FF300640170118A828B83124016121EF2EEFA4C
:10400300EFFB12158D850A82850B83E0600214F0A5
:104013000253E7124A079018A91258602274F1124A
:1040230003628A088B09ECFEEDFF890A8A828B837F
:104033001265108A828B831240F0F0EEF8EFF9A339
:104043000EAF838A828B83A3A3E0C454F0FA8882E1
:104053008983E04A1240FA1240F11240F5E033330B
:1040630054FCFA8E828F83E04A1240F5A3E0333387
:104073003354F8FA8E828F83E04AF008EFF9A30EE7
:10408300AF838508828B83A3A3A3A3A3A3E0A2E0AA
:10409300E492E013135480FA88828983E04AF0E5BE
:1040A300082407F50CEB125D65750E00780C1208F9
:1040B3003E7C0812515612081F1264FAE508240FB9
:1040C300125D61780C12083E7C0312515612081FD0
:1040D300E50AC3940F4011E5082412F582E509129D
:1040E3003298123B91A3A3F07F0702056CA3E00271
:1040F3003B7A1240FAA322F08508828B83A3A3A301
:104103002274F1120362EAFEEBFF890A8C088D091F
:104113008E828F83E08C828D8312533FAE82AF8376
:10412300E01253FC1241D3C41253FC1241C7E054B2
:10413300038C828D831241D1A2E2E492E08C828DC2
:10414300831241D0131313541F1253FCA31241D0F3
:10415300A2E7E492E08C828D83A3A3A3A31241C7B9
:104163008E0C8F0D750E00780C12083E7C087D00B6
:10417300E50824071241BB12081F1264FA8E0C8F44
:104183000D780C12083E7C037D00E508240F1241D4
:10419300BB12081FE5082412F8E5093400F9E50A03
:1041A300C3940F400A8E828F83A3A3A3E08001E40C
:1041B30088828983F00240EBFAE5093400FB120F91
:1041C30033740322A3A31253430EAF8322A3A3A3E7
:1041D300A3F00265AB74F412036274F91208EBEAFC
:1041E300FEEBFF901891E07002A3E06010123BCE4B
:1041F30064027009EEFAEFFB121A0780629018CF7F
:10420300E06E7003A3E06F705674016960097AE38E
:104213007B1812658D70487A007B021244D77001B7
:10422300EB703C9018D27808120A91851882851990
:10423300837808120A829018D8E0C0E07404120A46
:10424300E8D0E0F07405120AE87401F07406120A6B
:10425300E874021260FE121641E960981216477460
:10426300070253E49018CF124B639018C522E0F96C
:1042730002486D74F612036290192FE0701F7C00E0
:1042830079017A007B001218BDEA7001EB600E8A97
:10429300828B83E07002A3E0600312180302585379
:1042A300C082C083124708401079FF1218B7E9FA99
:1042B3009022F9E493C39A500479018002790002B1
:1042C300486D74EE1203628A088B09890D750E001E
:1042D300EA2408F50AEB124D63E0F91218C38A10B9
:1042E3008B11AE10AF11750C01EE7001EF6003027C
:1042F300438B850882850983A3A3124D8012522F15
:1043030012553D1218AB8A0A8B0BAE0AAF0BEE7037
:1043130001EF70030244A58E828F83A3A3A3A3E4BA
:10432300F0A3F0E508240B1244C5E0C0E0EE240B33
:10433300123295D0E0F01219CBEE240C125D7FE51A
:1043430008240EF582E509124B4A123292125A558D
:10435300750E01EE2406F8EF124717E0547FF0A321
:10436300E054FC12465DE054046003024413901AC7
:1043730003125220740778081209FF8A828B83E0A4
:104383004508F0A3E04509F0EE24061244BC8C82F4
:104393008D8312553D74805AF50874035BF50974D7
:1043A300077808120A73E508F510EE2404122B03AC
:1043B30024091244B4E50D606074028508828509FE
:1043C300831241D4240D124FEDE0A2E2500F901856
:1043D300BD124B4D850A82850B83125A55E5107029
:1043E30003024472747F5AFA74FC5BFB74FF25105A
:1043F300F51074FF3400F511740778101209FFE506
:10440300104AF8E5114BF98C828D83125A55805F5F
:10441300E04480F0A3E002438AE5107005750C00C8
:10442300804DEA54206015120F518A10747F551085
:10443300F8745F28850A82850B83801BEA54106019
:104443000E120F518A10740F5510F8740A80E48508
:104453000A82850B837401F0A3E4F0740485088257
:10446300850983F01244D37001EB700312582B7447
:1044730001650E7030850A82850B831244CDE0F905
:10448300EEFAEFFB1218B1E9601BEE240C12329521
:1044930012479D7001EB6003120FDBEEFAEFFB1284
:1044A3000FDB750C00A90C800312081F7F0A02059D
:1044B3006CF508EF3400F50922F8EF124B42FCE9E2
:1044C300FD22FAE5093400024664124B63025C14D0
:1044D3007A207B0090191CE0F91210A1EA2274F6ED
:1044E30012036274F71208EB7E001218C3EA70011C
:1044F300EB70030245AE8A828B83A3A3A3A3A3A37A
:10450300A3A3A3E0640660030245AE8A828B83A360
:10451300A3A3A3A3A3A3E0FF8A828B83124FFBE091
:10452300C0E07408120AE8D0E012465D12585C122B
:104533005E96125A551218E174085FF9E47001E9A6
:104543006067851882851983124D6F7A007B00128C
:1045530018A5EA7001EB70519018CF124B5112134A
:104563008F7C007D007A007B0080288E828F8312EF
:104573005C09E064FF7004A3E064FF602C9018CF33
:10458300124D6F120B25E9641A601E7C007D00EE4C
:10459300FAEFFB1218A58A088B09AE08AF09EE7073
:1045A30001EF70C779001213957E01EEF902584EA0
:1045B30074F7120362EA7001EB70059019308006FC
:1045C3008A828B83A3A312479D7001EB60288A82A2
:1045D3008B83A3A3A3A3A3A3A3E05408F9E47001CB
:1045E300E960DDEC7001ED6011124D916C7003A375
:1045F300E06D70CC80047A007B000249C774F2122C
:104603000362EAFEEBFF890A8C088D097A107B00AE
:10461300120FD5EA7001EB603CE48A828B83A3A37B
:10462300A3A3A3A3A3A312466AE50A1249D2125B6A
:10463300478A828B83A3A3A3A3E4F012466A12469C
:104643005B1267B3EA240CF582EB126BB012465C83
:10465300A3A3F0A3F002259DA3A312466122F08039
:1046630001FB8A828B8322A31249D6A3A32274F56A
:10467300120362EAFEEBFF890A8C088D09EE7001D2
:10468300EF60567401650A701479011218B7E9FADC
:104693009022FBE493C39A500F79118065740465EB
:1046A3000A703012470840F18E828F83A3A3A3A31D
:1046B300A3A3A3A3A3E50A125358126E1EE4F0A307
:1046C300F0901930E07002A3E09019306024124B8F
:1046D3004D800A7402650A60CF79C18025E82402FF
:1046E3000808E912471712480B7001E970EF8A8234
:1046F3008B831267B31244D37001EB700312582BF0
:1047030079000260F879041218B7E9FA9022FAE402
:1047130093C39A22124B42FAE9024664C082C083D1
:10472300E9FC7900901930801D8A828B83A3A3A3AF
:10473300A3A3A3A3A3A3E06C600574FF6C7001099A
:104743008A828B83A3A312479D7001EB70DB02481F
:104753006D74F7120362EA7001EB700590193080F3
:10476300068A828B83A3A312479D7001EB60248A80
:10477300828B83A3A3A3A3A3A3A3A3A3E06970E151
:10478300EC60148A828B83E0240D1265A5A2E240BB
:10479300D080047A007B000249C7124A07EA22C08C
:1047A30082C08390193080068A828B83A3A3124729
:1047B3009D7001EB60128A828B83A3A3A3A3A3A39F
:1047C300A3A3E06970E280047A007B0002486DC015
:1047D30082C083901930800688828983A3A31248FC
:1047E3000B7001E9601B88828983E0FCA3E0F583F9
:1047F3008C82E06A7003A3E06B70DDE8FAE9FB806A
:10480300047A007B0002486D124E6DE82274F112A7
:1048130003628A0A8B0B8C0C8D0D750800750900D9
:10482300EA7001EB603190193080068E828F83A38A
:10483300A31248617001EF601EAC0CAD0DEEFAEFF0
:10484300FB850A82850B83121EF2E9640170DCEE9C
:10485300F8EFF988088909AA08AB090240EBE0FEE2
:10486300A3E0FFEE22740212081FD083D082020855
:1048730007790002080774F7120362901930124B8C
:104883004D7C007D008007E8FCE9FD124B4DE8708C
:1048930001E9603AE82402F582E9123298EA687085
:1048A30002EB6970E212553D9019301269A6E86E69
:1048B3007002E96F7009901930EAF0A3EB800EEAF9
:1048C300F8EBF98C828D83A3A3E8F0A3E9F0024906
:1048D300C774F7120362EAFEEBFFEE7001EF601696
:1048E3001218DB1249DEEA7001EB6003120FDBEEF4
:1048F300FAEFFB120FDB0249C774F7120362124D82
:1049030091FCA3E0FD901930124B4D7508007E0019
:10491300803388828983A3A3A3A3A3A3A3A3A3E030
:10492300640570180E88828983E0FFA3E0F5838F06
:1049330082E06C7003A3E06D7002050888828983AE
:10494300A3A3124B4DE87001E970C7EA2404F8EB06
:104953003400F99022F1E493FCE508C39C500B90DA
:1049630022F2E493FCEEC39C400B8882898374019A
:10497300F0A3E4800A9018BD1249CCECF0A3EDF04B
:1049830074058A828B83A3A3A3A3A3A3A3A3A312C4
:1049930049D2E0F0A3E044081253518A828B83E0AA
:1049A30064FF7004A3E064FF600E9018CF124D6F94
:1049B300121389E9641A700579011213958005743D
:1049C3001F12081F7F0102056C124B630267A812B6
:1049D30049D622F08A828B83023BC78E828F83E083
:1049E300241C124A0DFAA3E0FB120FDB8E828F8385
:1049F300124A07120FDBEE240C124A0022F582EF53
:104A03003400F583E0FAA3E0FB22124FF5E022C065
:104A130082C083EAFCEBFDEC7001ED700479058044
:104A23004CEC24FBF582ED34FFF583E07002A3E048
:104A33007011EC24FFF8ED34FFF988828983E06478
:104A4300FF6005120F5D80D590191C124D8A9023CB
:104A530003E493F97A327B19120F8DE96401700B29
:104A63007A007B2012582F79008002790402486D66
:104A730074F4120362A2AFE492E0F508C2AF901996
:104A8300321248617001EF603DEE24FBF582EF3492
:104A9300FFF583E07002A3E07A007B2090191C608D
:104AA300051258328005E0F9120F99750A00750B4B
:104AB30000780A120842EEFCEFFD7A327B19120FDE
:104AC30087740212081FE508A2E092AFEEFAEFFB2B
:104AD3000253E774F712036274E11208EBEA24133A
:104AE300F582EB126D3EC0E07411120AE8D0E012B9
:104AF3004E647409120AE8124E5D124B3AFCE9FD4A
:104B03008C828D83124B4D740B120AE8124E5D2476
:104B130014F582EB126D3EC0E07412120AE8D0E085
:104B2300F0EA240EF582EB12329F8C828D83124BB6
:104B3300511217970249C22404124B4022F8EB3456
:104B430000F9E822F582EF12697C124E6D22124BB6
:104B530063851882851983AA82AB8322A3A3A3A3A7
:104B6300E0FCA3E0FD2274EE12036274FC1208EB76
:104B7300EAFEEBFF121893E960057911024D5EEE30
:104B83002412F510EF3400F511EE2402F50AEF12AA
:104B93004D631262706008E4851082851183F0EE24
:104BA300241312515F700C9022F8E493850C8285D4
:104BB3000D83F0EE2411F8EF125D6A70199018332B
:104BC300E0600D9018B9E0700D8E828F83E070065F
:104BD300E488828983F0EE2414080808EF126954EC
:104BE300700C9018AE124D8A9018AEE004F0EE24CB
:104BF3000F1244B4EE240B12328A9018BCE0A2E1E7
:104C0300504F850A82850B8312627060448E828FB7
:104C130083E0600B850E82850F831228E560328561
:104C23000882850983E05440601A850C82850D83D0
:104C3300E06401700F850882850983E054FBF0A3CB
:104C4300E0F0800DEEFAEFFB1218F9E97003024B66
:104C53007D8E828F83E06401701A850E82850F83B7
:104C6300124D956402700D850882850983E04440E6
:104C7300F0A3E0F0850882850983E05440705290E8
:104C830018BCE0A2E1504A750C00780C120846EEFD
:104C93002406FCEF3400FD850A82850B8312553D03
:104CA300851082851183E0F91217D3740112081F4E
:104CB300E9600CE4851082851183F0124D73F0795D
:104CC300008E828F83124D801232D46004124D7392
:104CD300F0851882851983AC82AD83EEFAEFFB125F
:104CE30019118A0C8B0D850A82850B83124D6FEA8D
:104CF3007001EB60628E828F83E0C0E07401120A60
:104D0300E8D0E0F07402120AE81267B37401120AE1
:104D1300E885820A85830B780A1208428508828512
:104D2300098312066FEE240E126D3BF50878081204
:104D330008469018C212066F7407120AE8E0F912C7
:104D4300190B740712081FE9FE74106E700BAA0C7E
:104D5300AB0D120FDB80027E10EEF974040244AC3B
:104D630012690B850A82F58322126979124B632239
:104D7300850882850983E04420F0A3E022124B5F7B
:104D8300850A82850B8322E088828983F0228A82C6
:104D93008B83124D9922125864E022C082C083741F
:104DA300DE1208EB8A828B83A3A3A3A3124B4D7459
:104DB3000E120AE8E8F0A3E9124E64740C120AE832
:104DC300124E5D240DF582EB126D3EC0E0741A1293
:104DD3000AE8D0E0F0EA126930EB124B4A74201271
:104DE3000AE8124E5D2415F582EB126D3EC0E074A5
:104DF30008120AE8D0E0F0EA241CF582EB124B4AD1
:104E03007412120AE8124E5D2411F582EB126D3E04
:104E1300C0E07409120AE8D0E0F074FF85188285B7
:104E23001983F07401120AE874FFF07402120AE89D
:104E330074FFF09081C212066B7404120AE8AC820C
:104E4300AD837407120AE8AA82AB8312168974042D
:104E530012081F7900742202486AE8F0A3E9F0EA15
:104E630022124661A3A3124E6D22124E7122E0F864
:104E7300A3E0F92274EA12036274EE1208EB8A14B7
:104E83008B15ECFEEDFF890F7428120AE81264DB20
:104E9300742A120AE8E0F50C742B120AE8123B9804
:104EA300742D120AE8E0F512A3E0F513750D107ADC
:104EB3001E7B00120FD57402120AE8125D8674027B
:104EC300120AE8E07002A3E07003024FD7750E00E8
:104ED300EEFAEFFB12157B8A828B83E5827002E583
:104EE300836016124FE3600574036A700CE508547F
:104EF30040700674044509F50974045509F9E47012
:104F030001E96003750E01851882851983AA82ABB6
:104F13008379501255347402120AE8124FFBA3121C
:104F23005D867410120AE8E50AF0A3E50BF074023B
:104F3300120AE8E0240B124FED7402F0120AE81291
:104F43004FFB7402F0120AE812585C1267B3740242
:104F5300120AE8125FA6E50FF07402120AE8E024D1
:104F63000C124FEDE50CF07402120AE8E0241C1257
:104F73004FEDE514F0A3E515F07408120AE8125B8F
:104F830047740A120AE8E50CF0851282851383C080
:104F930082C083740D120AE8AC82AD83D083D082C1
:104FA3007403120763A90E7402120AE8AA82AB8380
:104FB300121899E964017011E50E6008A90C121822
:104FC300C31218E7750D00800B7402120AE812551C
:104FD3003D120FDBA90D741212081F7F0E02056C20
:104FE300A3A3A3A3E0FA74016A22124FF122124F82
:104FF300F522F8A3E00267A5125001A3A322125ED3
:1050030091023BC874EA120362EAFEEBFF8C088D3F
:10501300098E828F83A385820A85830B7408F0EE41
:10502300241612515F60097410850A82850B83F080
:10503300EE2417F510EF12516D600A850A82850B75
:1050430083E02408F0EE2411F8EF1269546005752B
:105053000E0E8003750E00EE240DF514EF3400F5EB
:1050630015850A82850B83E0851482851583FAE012
:105073002A250E8C828D83126BB760139018BAE0C9
:10508300F91214F1E9FA850882850983E02AF0858B
:105093000882850983E0FAC3947540097508007591
:1050A300090002514F7B001268617001EB7003022B
:1050B300514FEEFAEFFB121917EA8508828509832F
:1050C300125D87EE2402F8125C0F125182F0EE2477
:1050D300040808125C0FA3A3125182A3A3F0EE24C9
:1050E30013125178F0EE2414125178A3F07A088544
:1050F3000C82850D83E0600FEE2418124D6CE508D9
:1051030024081264D17A10851082851183E0600F20
:10511300EE241A124D6C8A0CE508250C1264D1EEAC
:10512300240B126D3BF510A3E0F5117512007810F6
:1051330012083E851482851583E0FC7D00125541DB
:10514300E50E28FAE43912515B12081FAA08AB09CD
:10515300024FDE7D00EEFAEFFB0241C1F50CEF34A6
:1051630000F50D850C82F583E0223400F5118510DE
:1051730082F583E02212697912518CA3A3A322A39F
:10518300A312691CA312518C22E08508828509832E
:10519300A3A3A32274F61203628A828B83E0FC909A
:1051A30018BF125220740278081209FFE5084CFC5C
:1051B300AD09EA241212521A740678081209FFE59F
:1051C300084CFCE5094DFDEA241112521A740978C2
:1051D300081209FFE5094DFDEA241612521A740B51
:1051E30078081209FFE5094DFDEA241712521A74D3
:1051F3000C78081209FFE5094DFD8A828B83A3A36E
:10520300A3A3A3A3125220740A78081209FFECFA8D
:10521300E5094DFB025853F582EB12697CE0F50872
:1052230075090022F085188285198322E0F9025C52
:105233001474F01203628A088B09ECFEEDFF750A01
:1052430001E9C3940850057900025333E98E828F34
:1052530083125351121923E96003750A001255860C
:10526300C0E0EE2411123295D0E0125581C0E0EE79
:105273002412123295D0E012533FA882A98312550B
:10528300536010E5082408FAE5093400FBEE241303
:105293001253648E828F83A3A3A3A3A3A3A3A3E028
:1052A300601588828983E0FAE5082AFAE509340063
:1052B300FBEE2415125364EE2419126BADEE241B7E
:1052C300126BAD126BB6F50B8E828F83E0F50CC3B8
:1052D300950B500302524A850B0EE508250EF8E59F
:1052E300093400F9EE241DFAEF3400FBEAFCEBFD70
:1052F3008C828D8312534A2417FAEF3400FB8A08F9
:105303008B09E50CC3950B8A828B83125358A3A395
:10531300E0601B8A828B83E024F2F0E8240EF8E934
:1053230012555DFA850882850983E0C39AF0A90ABC
:105333008005740812081F7F0802056C125343226C
:10534300F08E828F83A322E8F0A3E9F0EE221246C7
:1053530061124A072212535C22F08E828F83023B32
:10536300C9126979EAF0A3EB12691CE02408F02260
:1053730074F41203628A088B09EA125403F0EA13E5
:1053830013543F1253FCA3A3A3F0EAC41313125400
:1053930003A3A3F0E48C828D83A3A3A3A3A3F08A26
:1053A3000A8B0B7409780A120A731253F1F0EC2476
:1053B30018F582ED126BB08A0A8B0B740B780A1204
:1053C3000A731253ECF08A0A8B0B740C780A120AD4
:1053D300731253ECA3F0740D7808120A73A90880B2
:1053E3000312081F7F0402056C1253F1A322E50A7E
:1053F30054018C828D83023BC7540F8C828D832290
:1054030054038C828D83A3A322C082C0837900902E
:1054130018B9125BF6A3A3A3A3E0600FEC70268A6E
:10542300828B83A3A3E0701D09801AEC60178A8224
:105433008B83A3A3A3A3A3A3A3A3A312544B70037C
:10544300A3E06B70E302486D124A079018C2E06A4A
:105453002274EE1203628A088B09890CECFEEDFFBD
:105463008A828B8312553D121923125586C0E0EEB2
:105473002411123295D0E0125581C0E0EE241212AD
:105483003295D0E012533F85820A85830B12555320
:105493006010E5082408F8E5093400F9EE24131236
:1054A30055738E828F83A3A3A3A3A3A3A3A3E060B7
:1054B30009125541EE2415125573EEFAEFFB12193A
:1054C30029E9F50D7066850A82850B83E0F50EF5F3
:1054D30010E5082510FAE5093400FBEE2417F8EF70
:1054E3003400F988088909EE241D1244BC8E828F8A
:1054F30083A3A3A3A3A3A3E07012EAF8EBF98C821E
:105503008D83125A55E50CC3950E8019EA240EF8C3
:10551300EB12555DFB850A82850B83E0FAE50CC32C
:105523009A24F2C39B850882850983F0A90D02445E
:10553300AF12134D851882851983124A0722850AF3
:1055430082850B83E0F8E50828F8E5093400F922A1
:10555300740812535CA3A3A3E0223400F98C828D58
:1055630083E8F0A3E9F09018BAE0F91214F1E92204
:10557300126979E8F0A3E91232EC2408F022125DF3
:105583005380D2850882850983A3A31255BBE0F912
:10559300EA8E828F83A3A3A3A3A3A3A3A3A31255DA
:1055A300C01255BBA3A3E0F9EAF8EE240B12697904
:1055B300E81255C0A3A3E022E0FA02518DF0A3E95B
:1055C300125D5722C082C0837A377B1979E21213A6
:1055D3004D7A377B1902486DC082C0839018C2127E
:1055E300553D02486DC082C08374FE1208EB8518D6
:1055F30082851983AA82AB83794B1255340248689A
:10560300C082C083794A12134D02486D74F61203A7
:105613006290193FE0FE04F0EEF91218C3EA70013C
:10562300EB70EEEE60EBF902585374EC120362EA8E
:10563300FEEBFF8C128D13890E7414120AE8E0F549
:105643000A7415120AE8E0F50B750C00750D0012CB
:105653001A438A088B09EA7001EB7017E50B6003A4
:10566300025743A90EAC12AD13EEFAEFFB121A5513
:105673000257FCEA2402F8EB3400F9E50E601688C1
:10568300828983E0FAE50E2AFAE4340013EA13F080
:1056930070037401F0E50B700302572E90194AE072
:1056A3007002A3E0600990194A12585C121EF2E5D9
:1056B3000A700EE4850882850983F0750D0102578F
:1056C3005C9018BCE0A2E1400302576490194CE0DF
:1056D3007002A3E0600FA90AAA08AB0990194C1243
:1056E300585C121EF2850882850983E0FA90230232
:1056F300126991EA98E499C365D033500985088209
:10570300850983E004F0850882850983E0FA902304
:1057130002E4936A7043750C01EEFAEFFB1217E58E
:10572300E4850882850983A3F0802E9019ECE0C0FC
:10573300E088828983E0FAD0E0C39A501C0256BE07
:105743007401650B7013E50E600F9018BCE0A2E1C5
:105753005015EEFAEFFB1217E59018BCE0A2E140FA
:10576300257401650B701FE50A601690194EE0045D
:10577300F0C0E0901A04E0FAD0E0C39A4008750C38
:1057830001E490194EF0E50D7004E50C606B901880
:10579300BCE0A2E15030EEFAEFFB12157B8A088BD6
:1057A30009A808A909E87001E9601BE82405F58246
:1057B300E9123298E50D6004E0C2E0F0E50C6039CF
:1057C300E0D2E0F08004E50C602F9018BCE0A2E189
:1057D3005012EEFAEFFB121575E96008EEFAEFFBD3
:1057E300790080129018C5E06E7003A3E06F700912
:1057F300EEFAEFFB79011216B30264E6C082C083AE
:1058030074016A7001EB70077A0112582D801690AB
:1058130019FB125D86EA7001EB60051227468005CD
:105823007A011225A202486D7A207B0090191CE0B0
:10583300F9120F9322C082C0839019FD125D860274
:10584300486DC082C0839019FF80F1740912081F4C
:105853007F0202056C8E828F831258602212586475
:105863002212586822E0F8A3E0F583888222A2F08E
:10587300E492E012587F79521213532285188285DD
:105883001983F0024B5A12587F7942121353227430
:10589300F412036274EC1208EB7401120AE8AC828E
:1058A300AD831259BC90190EE0640270367A047904
:1058B30000121563126910EA98EB995017121557E5
:1058C300E970117405120AE87401F07407120AE80A
:1058D300740180527405120AE8E4F07407120AE8AE
:1058E300E480439081C27808120A91758318758207
:1058F300DA780812092B60047A0180027A007405B1
:10590300120AE8EAF09081C27808120A91758318A6
:105913007582DE780812092B60047A0180027A000E
:105923007407120AE8EA12597F120AE812596E74D0
:1059330007120AE8E0700B7405120AE8E07003E44A
:1059430080027401851882851983F0901A20E090F3
:105953001A1FFAE05AFA851882851983E05A1258F9
:1059630085794112135374140253E4AA82AB831250
:10597300187B7A1F7B197945121353221259B1747C
:10598300012274F712036274ED1208EBE9FE901919
:105993001B125FAD1259BC7412120AE8EE1259B110
:1059A30085188285198312596E74130249C4F090C5
:1059B3001A24E0F97C1F7D1922901A24E0F97A1F3A
:1059C3007B191218812274F4120362EAFEEBFF9032
:1059D3001A26E064FE7004A3E064FF705F7A161277
:1059E3005BE17001EB605574018A828B8312693528
:1059F300A3A3A3A3A3E060047402800274018882BA
:105A03008983125F268A828B83A3A3A3A3A3A3A361
:105A1300A3A3125C1BFCA3E0FDEA24020A0AEB1217
:105A230064D4E5082413F582E509126BB0125A42D7
:105A3300EE240B1232951260E6125A550253E7AA6E
:105A430008AB0990191CE0F9120F6322E0123B76B0
:105A5300A3A3E8F0A3E9F02274F212036274FD1227
:105A630008EB8A088B09890A8C0B7401120AE87403
:105A730004125D8C8A0C8B0DAE0CAF0DEE7001EF32
:105A83007003025B18EE240B124B4774078882895C
:105A930083F0A3A882A983E50824081244C5125BF6
:105AA3003C8A828B83A3125B3C850882850983A38E
:105AB300A3A3A3A3A3A3A3A3A3124D8AEE24161205
:105AC3005B34EE2418123295125B47EE2417F582ED
:105AD300EF126386EE241A125D7F125B2312697143
:105AE3007403650A60067401650A70087440F0A3C4
:105AF300740480057440F0A3E4F0901A26125A4F00
:105B03007401650B7006EE2411126BADEEFAEFFB18
:105B130012162F80027910901A26125B58022598CC
:105B2300EE2413F582EF125B2D223400F58374010A
